S01700006275696C642F697269732F6D61696E2E7372656343
S11300000C9469000C9488000C9488000C9488006B
S11300100C9488000C9488000C9488000C9488003C
S11300200C9488000C9488000C9488000C9488002C
S11300300C9488000C9412060C9488000C94F6041A
S11300400C94F6100C942E110C94CE050C94D90536
S11300500C94E4050C9488000C9488000C9488009B
S11300600C9417050C9488000C9488000C94880058
S11300700C9488000C9488000C9488000C948800DC
S11300800C9488000C9488000C9488000C948800CC
S11300900C9488000C9488000C9488000C948800BC
S11300A00C9488000C9488000C9488000C948800AC
S11300B00C9488000C9488000C9488000C9488009C
S11300C00C9488000C9488000C94880000020E069E
S11300D00C0411241FBECFEFD1E2DEBFCDBF12E06E
S11300E0A0E0B2E0ECE9F3E300E00BBF02C007904C
S11300F00D92AC30B107D9F713E0ACE0B2E001C027
S11301001D92A83FB107E1F70E941E160C94CD1969
S11301100C9400008FB7F894992708958FBF089521
S11301200B960895CF93DF93FC01DC011196218196
S1130130662351F0ED0189819927982F8827332769
S11301402062822B932B09C0ED0189819927982F76
S113015088273327822B932B8F7D8183892F99279F
S11301608983DF91CF910895282F9FB7F894E82FC2
S1130170FF27E459FD4F80818F3F81F4E091F20322
S1130180E21771F40BC02093E10304C0FF27E45984
S1130190FD4F20832093F20320E007C025E005C033
S11301A08091E1038F3F91F7EECF892F99278FBF7D
S11301B0822F99270895882319F08CB5806402C092
S11301C08CB58F7B8CBD08950F931F93982F1FB709
S11301D0F89480910D02823099F580910A02891772
S11301E079F58091080220E030E08F3F11F421E09E
S11301F030E0232BF1F49FEF90930A028F3F19F420
S11302002FEF30E00DC0282F3327F901EF5CFC4FAE
S11302108081809308028F3F11F4909309029083A8
S11302202093320381E080930D028AE00E94B4009F
S113023005C08FEF80930A0210920D0201E001C005
S113024000E0812F99278FBF1FB7F89480910D028A
S1130250882311F40E94DB00812F99278FBF90E03F
S1130260013009F491E081E09827892F99271F91A3
S11302700F910895882319F08CB5806802C08CB55D
S11302808F778CBD08950F931F9380E00E94DB004D
S11302900FB7F8941127229A2398219A8CB580617C
S11302A08CBD80E00E943A018DB581608DBD8CB516
S11302B0877F8CBD8CB58B7F8CBD8CB58E7F8CBDC0
S11302C081E00E94DB000FBF1F910F9108958FB74B
S11302D0F8942091A3033091A4034091A503509175
S11302E0A603E0918400F0918500B09B08C02F5FC5
S11302F03F4F4F4F5F4FE0918400F0918500992765
S11303008FBFC901772766279F0144275527622B92
S1130310732B842B952B0895FC0180A9826080ABFC
S113032008958C960895AC01EFB7F8942091840059
S113033030918500C901841B950B03968617970796
S113034020F0B9016D5F7F4F02C0640F751F611506
S1130350710511F461E070E06150704070938900A0
S11303606093880082E086BB80916F0082608093F6
S11303706F008E2F99278FBF0895FC018281218100
S11303809927982F88273327822B932B85FF1FC00B
S113039087749C7C81549848D1F4878146812FB717
S11303A0F894332760910202709103022FBF20E07A
S11303B09927982F88275527842B952B86179707DD
S11303C009F021E081E02827822F9927089580E011
S11303D090E00895EF92FF920F931F937C018FB7E3
S11303E0F894992700917E0210917F020F5E1E4FB0
S11303F010937F0200937E02015111408FBF88E069
S11304000E94B400C801B7010E9440198A5D9E4F42
S11304101F910F91FF90EF9008952F923F924F926A
S11304205F926F927F928F929F92AF92BF92CF9280
S1130430DF92EF92FF920F931F93CF93DF93CDB789
S1130440DEB729970FB6F894DEBF0FBECDBF6FB7E6
S11304506983F89420908F0230909002409091022A
S1130460509092026624772488240EE4A02E13E888
S1130470B12ECC24DD24EE24FF2400E010E0222D54
S1130480332D442D552D662D772D882D90E00E9417
S1130490BF172A833B834C835D836E837F83888766
S11304A09987822E932EA42EB52E2401350100E2C5
S11304B00E94BD18A22EB32EC42ED52EA3019201E4
S11304C056954795379527952A0D3B1D4C1D5D1D67
S11304D057FF05C05F772F5F3F4F4F4F5F4F20930C
S11304E08F02309390024093910250939202E981DB
S11304F08E2F99278FBFCA01B90129960FB6F89498
S1130500DEBF0FBECDBFDF91CF911F910F91FF9042
S1130510EF90DF90CF90BF90AF909F908F907F909F
S11305206F905F904F903F902F9008954FB7F8943D
S11305305527FC0123E0F695E7952A95E1F7E95361
S1130540FC4F8770907021E030E002C0220F331F0F
S11305508A95E2F78081822B80834FBF0895AF9202
S1130560BF92CF92DF92EF92FF920F931F93282FA7
S113057033278BE090E0289FF001299FF00D389FEE
S1130580F00D1124EE5EFD4F82819381A481B5812B
S11305900097A105B10569F080819181880F991FA9
S11305A0918380838150944020F080E094E0918393
S11305B080838BE090E0289F5001299FB00C389FE6
S11305C0B00C112482E192E0A80EB91EF5018681D7
S11305D09781A085B18582839383A483B583C080EA
S11305E0D180EE24FF2469E0CC0CDD1CEE1CFF1C42
S11305F06A95D1F70E940D02DC01CB01F50100815F
S11306001181B801762F6627770F0E944019AA2717
S1130610BB278C0D9D1DAE1DBF1D222733274AE02D
S1130620000F111F221F331F4A95D1F7081B190B06
S11306302A0B3B0B06831783208731872281338162
S113064044815581280F391F4A1F5B1F228333833E
S1130650448355831F910F91FF90EF90DF90CF90CB
S1130660BF90AF9008957FB7F8946091B200209145
S11306706702309168024091690250916A02B99B05
S113068011C08091B3009091B200280F311D411D1B
S1130690511D2F5F3F4F4F4F5F4F290F311D411D9C
S11306A0511D04C0260F311D411D511D872F99274F
S11306B08FBFCA01B9010895EF920F931F93AE2D16
S11306C099E0899FF0011124E755FC4F4083518341
S11306D0628373830483158326833783A1708085A3
S11306E08E7F8A2B8260808784E00E94B4001F91F1
S11306F00F91EF900895AF92BF92CF92DF92EF9255
S1130700FF920F931F93F82E5A016B010E9433033B
S1130710AB01BC01E1E0EE2E960185018F2D0E9414
S11307205C031F910F91FF90EF90DF90CF90BF90EB
S1130730AF900895AF92BF92CF92DF92EF92FF9263
S11307400F931F930E9433035B016C016091B2030A
S11307507091B3038091B4039091B503E0901402B7
S1130760F09015020091160210911702E114F104A1
S11307700105110509F448C0EFB7F8942091C703A7
S113078020FD36C0A6019501261B370B480B590BDB
S11307902E153F0540075107C8F4E21AF30A040B6B
S11307A0150B8091140290911502A0911602B0913C
S11307B01702821B930BA40BB50B80931402909326
S11307C01502A0931602B093170215C081E090E0C1
S11307D0A0E0B0E08093140290931502A093160257
S11307E0B0931702F1E0EF2EF12C012D112D03C06F
S11307F02E7F2093C7038E2F99278FBFB801A7019F
S113080081E00E947B0305C08091BA038D7F8093B1
S1130810BA031F910F91FF90EF90DF90CF90BF909C
S1130820AF900895FF920F931F93CF93DF93F82E09
S1130830282F33278BE090E0289FE001299FD00DDB
S1130840389FD00D1124CE5EDD4F81E090E0998376
S113085088831A868A819B81AC81BD810097A1051A
S1130860B105A1F00FB7F8941127C9010E949602AF
S11308700FBF1A821B821C821D821E821F82188651
S113088019868F2D0E94AF020E949A03DF91CF91A7
S11308901F910F91FF900895FC0182A593A50895DF
S11308A0DF92EF92FF920F931F938FB7F894282F44
S11308B03327D22E9091B3008091B20047B398179A
S11308C011F041FF02C02FBF71C080918B028823B9
S11308D0E1F10E943303E0905C02F0905D0200912C
S11308E05E0210915F022091E5033091E60340918E
S11308F0E7035091E8036E197F09800B910B62178F
S113090073078407950720F010928B0271E01EC0D4
S11309102E0D3F1D401F511F809167029091680268
S1130920A0916902B0916A02281B390B4A0B5B0B38
S1130930273E31054105510540F4822F223010F045
S113094070E005C070E082E002C070E086EE682FBF
S113095061508091B60083FDFCCF8091B20068178E
S113096009F46F5F20916702309168024091690237
S113097050916A02DA01C9010196A11DB11D860FC9
S1130980911DA11DB11D82179307A407B50710F48B
S1130990622F60958091B60083FDFCCF6093B30015
S11309A0DFBE772319F083E00E94B4001F910F91FA
S11309B0FF90EF90DF900895AFB7F894BB27E1E084
S11309C0E0938B0260935C0270935D0280935E02FD
S11309D090935F022093E5033093E6034093E7038B
S11309E05093E803AFBF0E94500408951F920F92E2
S11309F00FB60F9211248F938091B0008093B000B2
S1130A008091B60081FDFCCF8F910F900FBE0F90A7
S1130A101F9018951F93182F81E00E94DB001EBDC4
S1130A200DB407FEFDCF8EB599271F9108951F922F
S1130A300F920FB60F9211248F929F92AF92BF9292
S1130A40CF92DF92EF92FF920F931F932F933F93D6
S1130A504F935F936F937F938F939F93AF93BF93C2
S1130A60CF93DF93EF93FF932EB5E091C403F091FE
S1130A70C503309739F080919D0390919E03E80F50
S1130A80F91F208380919D0390919E03019690937A
S1130A909E0380939D0380E00E943A01C0919D03D0
S1130AA0D0919E0380911F0290912002C817D9070C
S1130AB008F046C00091E9031091EA038090C40352
S1130AC09090C5030F2EFAE0AF2EBB24F02DAC0E90
S1130AD0BD1E8A159B0508F45C016401CC0EDD1E65
S1130AE07801EC0EFD1E15C00115110519F0F70172
S1130AF0808101C080E00E940A058114910411F0F4
S1130B00F601808321960894C11CD11C0894E11C31
S1130B10F11CC5010197C817D90730F381E00E9481
S1130B203A010115110531F00C0F1D1FF8018081E8
S1130B308EBD01C01EBCD0939E03C0939D0311C003
S1130B401092C5031092C4031092EA031092E903B1
S1130B501092200210921F0210929E0310929D0385
S1130B608EB5FF91EF91DF91CF91BF91AF919F919E
S1130B708F917F916F915F914F913F912F911F9131
S1130B800F91FF90EF90DF90CF90BF90AF909F9028
S1130B908F900F900FBE0F901F90189578941F920E
S1130BA00F920FB60F9211240F900FBE0F901F904B
S1130BB0189578941F920F920FB60F9211240F90EC
S1130BC00FBE0F901F90189578941F920F920FB636
S1130BD00F9211242F933F938F939F93AF93BF93BF
S1130BE02FB7F89433278091A3039091A403A09185
S1130BF0A503B091A6030196A11DB11D8093A30383
S1130C009093A403A093A503B093A6032FBFBF9111
S1130C10AF919F918F913F912F910F900FBE0F90A5
S1130C201F9018951F920F920FB60F9211242F93B5
S1130C303F934F935F936F937F938F939F93AF9360
S1130C40BF93EF93FF938091B0008093B0008091A5
S1130C50B60081FDFCCF8091B30099270196AA27A5
S1130C60BB2720916702309168024091690250913C
S1130C706A02280F391F4A1F5B1F209367023093B3
S1130C8068024093690250936A0278940E94500467
S1130C90FF91EF91BF91AF919F918F917F916F9150
S1130CA05F914F913F912F910F900FBE0F901F9026
S1130CB0189521E02093D1032093300320918400E0
S1130CC030918500BC01C9010E94930108950F93DE
S1130CD01F93CF93DF93182F0FB7F89480910D02D1
S1130CE0882311F40E944301802F99278FBF8FB767
S1130CF0F894C82FDD272C2F80910D02882361F4EE
S1130D0081E080930D02109332038AE00E94B400C4
S1130D10CFBF80E090E021C0E12FFF27EF5CFC4FC4
S1130D2080818F3F89F4E0910902E11789F40CC0B6
S1130D301093080204C0FF27EF5CFC4F108310934C
S1130D40090280E090E002C085E090E02FBF05C07A
S1130D50809108028F3F79F7EBCFDF91CF911F91FC
S1130D600F9108951F93982F1FB7F89480910C0248
S1130D70823091F580910702891771F580910502FF
S1130D8020E030E08F3F11F421E030E0232BE9F440
S1130D909FEF909307028F3F19F42FEF30E00DC0BF
S1130DA0282F3327F901EC57FD4F808180930502EA
S1130DB08F3F11F49093060290832093810281E087
S1130DC080930C020E94B40005C08FEF8093070249
S1130DD010920C0221E001C020E0812F99278FBFDF
S1130DE090E0213009F491E081E09827892F992738
S1130DF01F9108958091CA039091CB03909364024C
S1130E008093630280E00E94B4000895EF92FF9201
S1130E100F931F9379018A01623018F042E050E089
S1130E2002C0462F5527BC018AEC93E00E94BD19ED
S1130E30E0920E02F0920F0200931002109311023E
S1130E400E94FA061F910F91FF90EF9008958FB7BB
S1130E50F894282F3327922F80910A02882331F4A3
S1130E6080910D02823011F42FBF13C09FBF8FB742
S1130E70F894282F332780910D02882369F482E0A7
S1130E8080930D0210920A022FBF0E944301209A00
S1130E90289A81E090E008952FBF80E00E946706C1
S1130EA080E090E008954F925F926F927F928F92CC
S1130EB09F92AF92BF92CF92DF92EF92FF920F93E5
S1130EC01F93CF93DF932C0180911E02882309F096
S1130ED04DC18091EB03853009F048C10E9427077A
S1130EE0882309F443C18091D203882309F03EC1C9
S1130EF0E201E096F20180A982FD02C090E003C005
S1130F00F20192A99F7080916903981781F09093E0
S1130F106903289885EC8EBD0DB407FEFDCF8EB510
S1130F2090689EBD0DB407FEFDCF8EB5289A420190
S1130F300894811C911CF4018181F201218140E01B
S1130F409927982F88273327822B932B87749C7C8F
S1130F508154984809F441E0442301F1289886E833
S1130F608EBD0DB407FEFDCF8EB51EBC0DB407FEBD
S1130F70FDCF8EB5289A99278F7190702091930296
S1130F8040918502240F312D311D43E0359527957D
S1130F904A95E1F7281739070CF4E8C0289882EC41
S1130FA08EBD0DB407FEFDCF8EB589E08EBD0DB4A8
S1130FB007FEFDCF8EB5289A0E9467017B018C0144
S1130FC0888184FD03C0C0E0D0E006C0F2018081C6
S1130FD08550E201C80FD11D289881E88EBD0DB45B
S1130FE007FEFDCF8EB51EBC0DB407FEFDCF8EB53A
S1130FF0289A8F71893021F087E08093EB03B6C083
S11310008FB7F89499272F9A209184003091850006
S11310108FBF2F98289880E68EBDF20190810DB481
S113102007FEFDCF8EB59EBD792F7250773010F438
S1131030672F01C067E0F401962F41910DB407FEBC
S1131040FDCF8EB54EBD9150C1F76150F401E60F4E
S1131050F11D6F5F31962E193F092E553F4F39010F
S1131060882477FC8094982C6E0C7F1C801E911E23
S1131070209719F4972F961B1FC088819981AA8104
S1131080BB8186199709A809B9098B83292F3A2F9F
S11310904B2F55272A839D014427552729838B2FBE
S11310A09927AA27BB278883E5CF20810DB407FEA3
S11310B0FDCF31968EB52EBD9150B8F70DB407FE15
S11310C0FDCF8EB5289A289882EC8EBD0DB407FE0C
S11310D0FDCF8EB586E08EBD0DB407FEFDCF8EB577
S11310E0289A209779F18881E9802A81AB80332777
S11310F044275527542F432F322F22279927AA27D5
S1131100BB27B82FAA2799278827FF240027112750
S11311108701FF24EE248E299F29A02BB12BBB2409
S1131120CC24DD248A299B29AC29BD29282B392BE1
S11311304A2B5B2B260D371D481D591D28833983E7
S11311404A835B83C2010E948C01C2010E94910107
S1131150FC01608271828282938286E08093EB0339
S113116084E080931E0280E090E002C085E090E07D
S1131170DF91CF911F910F91FF90EF90DF90CF906F
S1131180BF90AF909F908F907F906F905F904F90A3
S113119008952FB7F894332780937B022FBF86E0FE
S11311A00E94B40008959C0180911D02882319F0C7
S11311B085E090E008953093C9032093C80381E04B
S11311C080931D021092680386E00E94B40080E0C0
S11311D090E00895CF93DF93EC018FE38A878091A9
S11311E094028F5F809394028B8380916502909127
S11311F06602892B11F025E017C088A599A5892BD3
S113120021F061E0CE010E949200CE010E94D30839
S11312109927282F882341F4D0936602C09365024E
S11312201092880210928702822F9927DF91CF9122
S11312300895FF920F931F93CF93DF93F82E8B01A2
S1131240EA01422F2D3118F086E090E08BC0FE01B8
S113125031968181298150E09927982F8827332757
S1131260822B932B87749C7C8154984809F451E019
S1131270552321F481E4898388E88183435F48838B
S11312802FB7F894332780910202909103022FBF65
S11312908887892F992789872FB7F89433278091D6
S11312A004022FBF99278C831D82CE010E949000D7
S11312B0FC01F0820E83812F99278F838FB7F894D6
S11312C0282F332780910C02882371F482E08093C5
S11312D00C02109207022FBFCE010E94EA08992740
S11312E0182F882399F00FC02FBFD0938302C09387
S11312F082028FB7F894C82FDD272C2F80910C021F
S1131300882391F406C080E00E94B206812F9927B9
S113131029C081E080930C02109281020E94B400E3
S1131320CFBF80E090E01EC0809184028F3F89F49B
S1131330E0910602EE2369F010C01092050204C089
S1131340FF27EC57FD4F10821092060280E090E0D8
S113135002C085E090E02FBF05C0809105028F3F59
S113136079F7EBCFDF91CF911F910F91FF90089503
S1131370DF92EF92FF920F931F93CF93DF93D82EB8
S1131380E82FFF27EE0FFF1FE156FC4F118210825A
S113139080910B029927019662E070E00E94541933
S11313A0682F80930B0200E0462F5527FA01EE0FB9
S11313B0FF1FE156FC4FC081D181209799F0E62FA1
S11313C0E695E695E695FF27EC51FC4F8081992739
S11313D09A012770307002C0959587952A95E2F797
S11313E080FF0DC0CA01019662E070E00E945419AA
S11313F0682F0F5F0230C1F600930B021FC0609389
S11314000B026230D8F4E88083EFE80EFF240F81EA
S11314101127102F00278E819927082B192BCE0115
S11314200E949000FC012E2DAE01B80180810E9423
S11314301909882319F08CE00E94B400DD2019F00A
S113144081E0D81611F410928602DF91CF911F919A
S11314500F91FF90EF90DF900895AF92BF92CF92DB
S1131460DF92EF92FF920F931F93CF93DF93BC0110
S113147081E08093860260932E02872F99278093C0
S11314802D0282E16433780721F0AA24BB2465018C
S113149008C0A0900E02B0900F02C0901002D0902D
S11314A01102A092320211270D2DFC2CEB2CE0929C
S11314B03102960144275527209330028D2D992718
S11314C0AA27BB27EDE2F2E08283FF24002711273D
S11314D0102F0F2DFE2CEE24B82FAA27992788272A
S11314E0332744275527A90133272227822B932BFF
S11314F0A42BB52B2A2D332744275527822B932B36
S1131500A42BB52BE82AF92A0A2B1B2BE114F1048E
S11315100105110511F410E010C06453724121F467
S113152012E06AEC73E003C010E060E070E0412F69
S1131530552783E392E00E94BD198FEF8093270221
S113154080932802C1E2D2E0CE010E949000FC0107
S113155080E6808380919F039091A003892B39F5C5
S1131560912F9A5FD093A003C0939F031D5E1093A5
S1131570210280910B028230D0F080816091280298
S11315807727762F6627209127023327622B732B28
S113159010920B02292FAE010E941909882339F0F9
S11315A082E080930B021092A00310929F03DF91BC
S11315B0CF911F910F91FF90EF90DF90CF90BF904C
S11315C0AF900895AF92BF92CF92DF92EF92FF92C5
S11315D00F931F93CF93DF935B016C01C0E0D0E0C6
S11315E0E9EAF3E07C2F608561FFD6C02081318178
S11315F042815381E480F58006811781D601C501BB
S1131600821B930BA40BB50B8E159F05A007B10786
S113161008F4C2C060FF03C06D7F608708C02E0D50
S11316203F1D401F511F20833183428353837130F8
S113163079F0713020F0723009F0B4C03EC080916E
S1131640650290916602892B09F4ACC082E0A1C0C6
S11316502091B6033091B7034091B8035091B90378
S11316608091140290911502A0911602B091170274
S11316700097A105B105F1F082179307A407B507F8
S1131680C9F480911C02882361F42FB7F89433279E
S11316908091A80381608093A8032FBF8EE00E94ED
S11316A0B40080E090E00E94960280E00E94AF02C5
S11316B010921C020E949A0375C08091630290915B
S11316C064020196909364028093630280E00E9416
S11316D0B40080915A02882309F464C080916302A3
S11316E0909164029093CB038093CA0380910E027D
S11316F090910F02A0911002B0911102CD01AA277E
S1131700BB270196A11DB11D80930E0290930F0279
S1131710A0931002B09311020097A105B10561F4E2
S113172081E090E0A0E0B0E080930E0290930F027D
S1131730A0931002B093110280910E0290910F02B7
S1131740A0911002B0911102DC0199278827209101
S113175000023091010244275527820F931FA41FD2
S1131760B51F80930E0290930F02A0931002B093C2
S1131770110280915B02882359F0809186028823AC
S113178039F484E392E10E942D0A80E00E9412045D
S11317908DE00E94B40006C021963996C330D1056D
S11317A009F020CF84E00E94B400DF91CF911F9113
S11317B00F91FF90EF90DF90CF90BF90AF9008957E
S11317C0AF92BF92CF92DF92EF92FF920F931F934B
S11317D0CF93DF938091D203882309F413C10E942D
S11317E02707882309F40EC18FB7F8949927C0916D
S11317F02E03D0912F038FBF1092D20328988FE825
S11318008EBD0DB407FEFDCF8EB51EBC0DB407FE14
S1131810FDCF8EB5289A982FA82EBB24A0FE0CC00D
S113182080911E02833011F0873031F485E080937B
S1131830EB0388E080931E02A2FE5FC080911E022B
S1131840863019F410921E0203C0882309F055C093
S1131850943009F041C0289886E88EBD0DB407FE87
S1131860FDCF8EB51EBC0DB407FEFDCF2EB5289A54
S11318702F7180918502982F96959695322F391B5A
S1131880830F80938502E0916002F091610280A948
S11318908B7F886080AB22AB0E9467016B017C0167
S11318A00091600210916102C8010E948C01C8017C
S11318B00E949101FC01CC19DD092797CE01AA27CA
S11318C097FDA095BA2F8C0D9D1DAE1DBF1D808365
S11318D09183A283B3830EC0E0916002F091610210
S11318E080A9877F80ABE0916002F091610280A9BA
S11318F08D7F80AB85E080931E02A3FE83C0809120
S11319001E02843009F04BC085E08093EB031092F3
S11319101E0280918E02833019F410928E0272C0DE
S1131920E0916603F0916703828121819927982FC2
S113193088273327822B932B85FF29C087749C7CAF
S11319408154984821F5878126819927982F8827E3
S11319503327822B932B8F5F9F4FC9F090E08091A8
S11319603003882309F491E0992389F012E010935D
S1131970D10381E0809330038091840090918500AD
S113198061EE72E00E94930110938E023BC01092AC
S11319908E021092EC0380E00E94C90833C08530A7
S11319A089F58091EB03873091F4289882EC8EBD01
S11319B00DB407FEFDCF8EB586E08EBD0DB407FED7
S11319C0FDCF8EB5289A85E08093EB0317C0209154
S11319D09302289886E88EBD0DB407FEFDCF8EB520
S11319E01EBC0DB407FEFDCF8EB5289A8F71922FC1
S11319F096959695891B280F2093930289E08093EE
S1131A001E0208C090911E02992309F4E2C2993083
S1131A1009F00FC2289880E28EBD0DB407FEFDCFF9
S1131A208EB51EBC0DB407FEFDCF8EB5482F5527CD
S1131A30433008F49EC3842F99278A970CF099C3E6
S1131A401EBCE0916002F09161024083542F525019
S1131A50573010F4452F01C047E09F012F5F3F4FDF
S1131A60942FF90160E070E00DB407FEFDCF8EB550
S1131A701EBC808381916827062E6295607F602555
S1131A80072E762F62956F70062666957627672750
S1131A90660F660F660F6025915031F74150D901EA
S1131AA0A40FB11D4F5F1196E0916002F0916102A5
S1131AB08181282F3327277030702230310509F4B3
S1131AC091E09923B9F080918E02823081F4838170
S1131AD0E0916603F09167039381891741F490E0E4
S1131AE02230310509F091E081E098270EC080E0B2
S1131AF090E00DC08FB7F894282F332790E08091A1
S1131B00A703833008F491E02FBF892F9927892BED
S1131B1009F42FC3952F941B18C00DB407FEFDCFF5
S1131B208EB51EBC8C938D916827062E6295607FBE
S1131B306025072E762F62956F70062666957627A8
S1131B406727660F660F660F6025915030F70DB456
S1131B5007FEFDCF8EB51EBC9B012827022E2295C1
S1131B60207F2025032E322F22952F7002262695C2
S1131B7032272327220F220F220F20250DB407FE20
S1131B80FDCF8EB51EBC2827022E2295207F20254E
S1131B90032E322F22952F700226269532272327D3
S1131BA0220F220F220F20250DB407FEFDCF8EB584
S1131BB0E0916002F091610281AB289A85E0809304
S1131BC0EB0310921E02232B09F0FFC1E090600288
S1131BD0F090610257010894A11CB11CF7018181A6
S1131BE090E08770823009F491E0292F3327122F77
S1131BF080918E028230C9F480916F008D7F809332
S1131C006F0010923003E0916603F091670380A99E
S1131C10222311F0816001C08E7F80AB10928E026E
S1131C201092EC0380E00E94C908112309F0FCC063
S1131C30C7010E94BD018823A9F085E080936A034F
S1131C4082E080936B0310926C03F5018281809390
S1131C506D038AE693E00E945307882319F483E016
S1131C6080938E020091840010918500C7010E9428
S1131C70BD01882311F0045E1C4F10938A02009367
S1131C8089028091840090918500081B190BC8017A
S1131C90101611066CF42091EC03222331F40E94F7
S1131CA0590680E88093EC0303C020682093EC037A
S1131CB0F501808527819927582F44273327422B04
S1131CC0532B80916B02282F3327F901EE0FFF1F4E
S1131CD0ED52FC4F808191817091C6038417950762
S1131CE069F4F901E351FC4F8081871709F467C057
S1131CF0872F8F5F8093C60380831DC000E010E0B0
S1131D0080E090E0C3EDD3E0EDEEF3E0DF01682F77
S1131D109C01888199818417950779F420936B023B
S1131D209091C6038C91891709F449C0892F8F5F5C
S1131D308093C6038C9300E829C08081972F981B59
S1131D40091710F4092F122F6F5FC901019611961C
S1131D502296319685309105D1F66530B9F4109309
S1131D606B02A12FBB27FD01EE0FFF1FED52FC4FAD
S1131D70518340838091C6038F5F8093C603FD0126
S1131D80E351FC4F8083AD50BC4F1C929091C6032D
S1131D90892F8F778F3779F40F3768F0EDEEF3E002
S1131DA0292F207880818F6789132083319633E02F
S1131DB0E23FF307B9F780916B02282F3327F5012F
S1131DC09281A22FBB27FD01ED50FC4F808180FF43
S1131DD007C0FD01E453FC4F8081981729F102C02C
S1131DE081608083A453BC4F9C93CFB6F8948091B8
S1131DF0A7038330B0F4E0916202E80FE33008F007
S1131E00E350FF27EE0FFF1FEC5AFD4F00811181B5
S1131E10F182E0828F5F8093A70387E00E94B40081
S1131E2078018C2D99278FBFF0926102E0926002B5
S1131E30C3C0892F8150833008F09CC08150823008
S1131E40E0F43091EB033130C1F420E080913003B1
S1131E50882309F421E0222381F02F9883E08093E2
S1131E60D1033093300380918400909185006BE21C
S1131E7073E00E94930182E068C0933009F042C08D
S1131E808091EB03833009F097C00E9427078823D1
S1131E90C9F128988FE88EBD0DB407FEFDCF8EB52D
S1131EA01EBC0DB407FEFDCF8EB5289A809181002B
S1131EB080648093810080E286BB80916F008062A1
S1131EC080936F0090918002289888EC8EBD0DB4A9
S1131ED007FEFDCF8EB590669EBD0DB407FEFDCF07
S1131EE08EB5289A289882EC8EBD0DB407FEFDCFDE
S1131EF08EB586E08EBD0DB407FEFDCF8EB5289A53
S1131F0084E023C080911E028150823000F58091CC
S1131F10EB038530E1F40E9427078823C1F0289859
S1131F2082EC8EBD0DB407FEFDCF8EB583E08EBD71
S1131F300DB407FEFDCF8EB5289A80916F008F7D7A
S1131F4080936F001092D20383E08093EB0390910F
S1131F501E02913041F48091EB038330B1F52F9A46
S1131F609093EB0325C0923039F58091EB038330D5
S1131F7061F51EC0973001F50E9427078823E1F020
S1131F8090918002289888EC8EBD0DB407FEFDCF99
S1131F908EB590669EBD0DB407FEFDCF8EB5289A12
S1131FA08091EB03853021F484E08093EB0304C03B
S1131FB088E080931E0204C080911E02883029F4B8
S1131FC010921E0285E00E94B40080911E028823B4
S1131FD031F58091EB038530F9F48091D2038823A5
S1131FE0D9F480918E028823B9F48091EC0388237C
S1131FF099F490E080913003882309F491E09923C7
S113200059F080911D02813039F486E00E94B400B9
S113201080911E02882319F480E00E94E4008091DC
S11320203003823009F098C010923003C090D1037D
S1132030F2E0CF1609F46CC023E0C21609F470C0B4
S113204031E0C31609F088C02091890230918A02D8
S113205080918400909185004091EC03403859F4BC
S11320601092EC0380911D02813009F075C086E066
S11320700E94B40071C08901081B190B47FF03C0FB
S113208010161106ECF0C0918C02D0918D02809153
S11320908E028823A9F4CE010E945307992788232E
S11320A051F488A98E7F88ABC0928E02D0936703C7
S11320B0C093660329C09927F82E882329F102C00A
S11320C085E0F82E2091EC03822F99278F770197D2
S11320D059F4207822602093EC0380E198E00E9478
S11320E0EA010E94590638C027FF0AC010161106DB
S11320F03CF480E88093EC03C8010E94590602C0B6
S11321001092EC038F2D09C083E08093EC0324C06C
S113211010928E021092EC0380E00E94C9081CC049
S11321208091EB03823019F4C092EB0313C08091C9
S11321301E02863079F410921E02289881E88EBD22
S11321400DB407FEFDCF8EB51EBC0DB407FEFDCF4A
S11321508EB5289A0E94E2108FB7F894282F33275F
S113216080917D02813061F081E080937D022FBFF8
S113217031CB289A85E08093EB0310921E0225CF81
S113218010927D022FBFDF91CF911F910F91FF908D
S1132190EF90DF90CF90BF90AF9008958FB7F894F1
S11321A0282F332780917D02815080937D028038CF
S11321B011F02FBF089581E080937D022FBF0E940C
S11321C0E00B08958FB7F894282F332780917D0270
S11321D0882329F0806880937D022FBF089581E0D1
S11321E080937D022FBF0E94E00B089578941F9284
S11321F00F920FB60F9211242F933F934F935F9337
S11322006F937F938F939F93AF93BF93EF93FF93BA
S11322108091840090918500209186003091870000
S11322208FB7F894992730932F0320932E0321E03E
S11322302093D2038FBF0E94E210FF91EF91BF91D0
S1132240AF919F918F917F916F915F914F913F914A
S11322502F910F900FBE0F901F90189578941F9296
S11322600F920FB60F9211242F933F934F935F93C6
S11322706F937F938F939F93AF93BF93EF93FF934A
S113228080916F008D7F80936F0078949FB7F8944E
S113229080913003813019F482E080933003892FD8
S11322A099278FBF0E94E210FF91EF91BF91AF91E8
S11322B09F918F917F916F915F914F913F912F915A
S11322C00F900FBE0F901F9018951F938FB7F8941F
S11322D0992720917D022F5F20937D028FBF8091EB
S11322E01D02882311F015E023C080911E0288236B
S11322F0E1F48091EB03813049F490E08091300364
S1132300882309F491E0992381F005C0853019F4FC
S113231089E090E00CC083E080931E020E94E210EA
S113232084E080931D0210E003C085E090E0182F44
S11323300E94CE10812F99271F9108951F93CF9348
S1132340DF93182FC0916502D09166021092660245
S1132350109265028091B1038D7F8093B1038091C7
S113236087029091880299A788A78A858F33A9F458
S113237080E00E94B20680910B02823070F4E82F54
S1132380FF27EE0FFF1FE156FC4F608171816C1730
S11323907D0719F4412F0E94B809DF91CF911F9155
S11323A008957F928F929F92AF92BF92CF92DF92C5
S11323B0EF92FF920F931F93CF93DF93873009F42B
S11323C00AC2883098F4833009F497C0843038F412
S11323D0813009F444C0823008F079C02CC08530C3
S11323E009F416C1863008F073C1BAC08B3099F075
S11323F08C3038F4893009F408C38A3008F01AC3E1
S1132400FAC28D3009F4D5C38D3008F4C4C38E30BC
S113241009F0E9C308C08091E403882309F4E3C305
S113242020E031E099C38FB7F8942091A80320FDF0
S1132430C3C320E0C5C3809163029091640280FF0E
S113244002C0129801C0129A81FF02C0119801C003
S1132450119A82FF02C01098C6C3109AC4C32FB742
S1132460F8943327809181028093070282E080935D
S11324700C022FBF80910702882309F0B4C3809116
S11324808202909183020E94EA08082F11270023F8
S113249009F4A9C380E00E94B206C0918202D091DF
S11324A08302CE010E94900080910B02823008F0DA
S11324B09AC3E82FFF27EE0FFF1FE156FC4F608100
S11324C071816C177D0709F08EC3402F6FC3E091B3
S11324D06502F091660280A591A5892B21F061E047
S11324E0CF010E94920080916502909166020E9441
S11324F0D308882309F477C368C180917C028823B8
S113250061F52091DD033091DE034091DF035091AA
S1132510E003EFB7F894FF2760915C0270915D02CD
S113252080915E0290915F02E090E503F090E603F3
S11325300091E7031091E8036E0D7F1D801F911F2A
S1132540EFBF2093DD033093DE034093DF0350930A
S1132550E00310927C020E94DC040E94330343C017
S11325600E9433035B016C018FB7F8949927109292
S11325708B028FBF5FEFE52E5FEFF52E5FEF052F28
S11325805FE7152F60E0E9EAF3E0808581FF1CC076
S113259080819181A281B381A6019501281B390B09
S11325A04A0B5B0BDA01C9012481358146815781CD
S11325B0281B390B4A0B5B0B2E153F0540075107AF
S11325C01CF479018A0161E0399633E0E43CF307B5
S11325D0E1F6662309F407C31E141F04100611064E
S11325E02CF0C601B5010E94E20AFDC2E092DD03AF
S11325F0F092DE030093DF031093E00381E0809305
S11326007C02A8019701C601B5010E94DC04EBC25B
S113261080911D0210921D02843009F050C08091F7
S1132620140290911502A0911602B091170200971E
S1132630A105B10531F51092140210921502109201
S11326401602109217021092180210921902109298
S11326501A0210921B0210921C0280E00E94AF0228
S11326600FB7F894112780E090E00E9496020FBF04
S11326700E949A0380E00E94120481E080935A022F
S113268003C080E00E94120481E080935B021092F8
S113269064021092630280910002909101020197FA
S11326A009F0A1C20E943303AB01BC01EE2400ED8A
S11326B017E020E030E082E00E945C0394C28530A1
S11326C009F491C2863009F48EC280931D028BC234
S11326D08FB7F894992710917B028FBF80911D02C8
S11326E0823011F4112339F0809168038F5F809355
S11326F06803863020F083E080931D023CC08FB7CE
S1132700F894992720917D022F5F20937D028FBF3B
S11327102091C8033091C9038091EC038823D1F43C
S113272090E080913003882309F491E0992391F09B
S113273030938D0220938C0281E08093EC0386EB2E
S113274093E20E94EA010E94590682E080931D02EE
S113275010E00AC080916803853011F483E001C061
S113276081E080931D0215E00E94CE1080911D022D
S1132770833009F038C210921D02E091C803F09131
S1132780C90320918702309188022F5F3F4F309315
S113279088022093870280A980FF02C080E018C0CD
S11327A0E0916502F091660280A591A5281739078A
S11327B070F4CF010E944C04009739F0AC016627F5
S11327C0772780E00E947B030EC282E00AC2812F39
S11327D00E949E1108C28FB7F894282F3327809146
S11327E0A703882309F4B5C1E0916202FF27EE0F25
S11327F0FF1FEC5AFD4FC081D1812FBF8A858F33D3
S113280009F0D9C0CE010E949000FC01E0816881EA
S11328108F812E819927582F44273327422B532BFE
S11328208FB7F894992720910202309103028FBF49
S11328304217530721F04F5F5F4F09F0C0C08CE08F
S1132840882E912C8C0E9D1EFF27E03621F0E13658
S113285009F0B5C08BC08C852D859927F82FEE27FC
S11328603327E22BF32B2E857F859889798832E1F3
S1132870E433F30721F0AA24BB24650108C0A09027
S11328800E02B0900F02C0901002D09011028091FD
S11328905B02882309F493C06D50892F9927AA27D6
S11328A0BB27EE24F82E092F1A2F33274427552748
S11328B0522F442733272227872F9927AA27BB275C
S11328C0DC0199278827282B392B4A2B5B2B872D52
S11328D09927AA27BB27282B392B4A2B5B2BE22AC3
S11328E0F32A042B152BA114B104C104D10451F40F
S11328F0E114F1040105110571F1E453F24109F009
S11329005EC019C0E114F1040105110529F4E45372
S1132910F24109F054C016C0D801C7018A199B09B5
S1132920AC09BD09181619061A061B067CF4E453F3
S1132930F24109F044C06650A8019701C40106960B
S11329400E94060780E00E94120439C0EA14FB04C6
S11329500C051D0549F4E453F24189F580911C02EC
S11329608F5F80931C022BC0CF0122C080915B0239
S1132970882329F18C852D859927982F882733273B
S1132980822B932B84539241D1F480910E02909127
S11329900F02A0911002B09111020097A105B10598
S11329A071F0F40180819927982F8827822B932B2B
S11329B00E942D0A04C08FB7F89499278FBF9FB740
S11329C0F89480916202E82FFF27EE0FFF1FEC5A64
S11329D0FD4FD183C0838F5F80936202833010F0F8
S11329E0109262028091A70381508093A703892FDC
S11329F099278FBFF0CE0E940D022FB7F89433278A
S1132A0070937F0260937E02A4C08FB7F8949927D5
S1132A101092C5031092C4031092EA031092E903C2
S1132A201092200210921F0210929E0310929D0396
S1132A308FBFD9C02FB7F894332780913203809386
S1132A400A0282E080930D022FBF80910A0288233C
S1132A5009F0C9C0209A289A8091EB03882309F0D1
S1132A6075C08EEF91E0019701960197E1F71698F2
S1132A702F9886E090E0019701960197E1F7169A66
S1132A80289883EC8EBD0DB407FEFDCF8EB51EBC19
S1132A900DB407FEFDCF8EB5289A289882EC8EBD22
S1132AA00DB407FEFDCF8EB588E08EBD0DB407FED4
S1132AB0FDCF8EB5289A8EEF91E00197019601978C
S1132AC0E1F728988EEC8EBD0DB407FEFDCF8EB5D0
S1132AD08DE48EBD0DB407FEFDCF8EB5289A2898DF
S1132AE089EC8EBD0DB407FEFDCF8EB587EC8EBD8F
S1132AF00DB407FEFDCF8EB5289A289885EC8EBDBF
S1132B000DB407FEFDCF8EB580E88EBD0DB407FE73
S1132B10FDCF8EB5289A109269038BE080938002D2
S1132B20289888EC8EBD0DB407FEFDCF8EB58BE6DC
S1132B308EBD0DB407FEFDCF8EB5289A2F9A81E085
S1132B408093EB0380E00E94E4004DC00E94E210F9
S1132B504AC02FBF48C0330F9091E403832F8923C9
S1132B60B1F0E22FFF27EE0FFF1FE156FC4F118259
S1132B701082832F809598239093E403222311F0ED
S1132B80213029F410928602330F2F5FE5CF2F5F97
S1132B90283008F328C080910B02E82FFF27EE0F9E
S1132BA0FF1FE156FC4F6081718141E00E94B8092A
S1132BB01AC00E94FA0617C02E7F2093A80321E0B2
S1132BC099278FBF222379F080915B02882341F0FB
S1132BD080918602882321F484E392E10E942D0AE5
S1132BE08EE00E94B400DF91CF911F910F91FF906E
S1132BF0EF90DF90CF90BF90AF909F908F907F9099
S1132C0008958091E1038F3FB1F0282F3327F90114
S1132C10E459FD4F80818093E1038F3F11F4809349
S1132C20F2038FEF80832F3F31F0822F0E94D11166
S1132C3081E090E0089580E090E008951F931FB72D
S1132C40F8944FE050E06FEF70E08CE692E00E9461
S1132C50C6198FEF8093E1038093F20356985E9830
S1132C6054985C9880916F008F7D80936F00209AB8
S1132C70289A279A2F980E9A169A83E393E09093B2
S1132C80610280936002109293028AE58093850228
S1132C9081E08093810080E28093B60083E080939A
S1132CA0B10080918400909185004AE720918400CE
S1132CB0309185002817390708F44150442311F056
S1132CC0C901F4CF9091B2008091B2008917E1F369
S1132CD020918400309185009091B2008091B200DF
S1132CE08917E1F38091840090918500821B930BF6
S1132CF0409675E0969587957A95E1F79093E3036E
S1132D008093E2031092B1008091B100809381001E
S1132D10809181008093B6001092B20010928500D9
S1132D20109284008FEF87BB87B386BB8091B60077
S1132D308571E1F70A9A099A089A129A119A109AD7
S1132D4018B88FEF87B90C981498109285001092D8
S1132D50840080916F00816080936F008091810076
S1132D60887F82608093810081E085BF0E94011684
S1132D708823E1F780E094E0909313028093120299
S1132D8010921C0210921402109215021092160254
S1132D9010921702109218021092190210921A023D
S1132DA010921B021092A8031092C7038FEF809316
S1132DB0310380E00E9467062091000230910102F5
S1132DC02F5F3F4FC901AA27BB2780938F0290939F
S1132DD09002A0939102B093920285E992E09093BD
S1132DE0550280935402C3969093570280935602DF
S1132DF08BEF92E090935902809358028091B60031
S1132E0080628093B6008091B60081FDFCCF82E0A1
S1132E108093B0008091B60080FDFCCF83E0809366
S1132E20B1008091B60083FDFCCF86EE8093B300A1
S1132E30809170008260809370000E9450048FEF34
S1132E409FEF9093D4038093D3039093D6038093FE
S1132E50D5039093D8038093D7039093DA03809398
S1132E60D9039093DC038093DB0380910002829565
S1132E70807F809394028FEF809384020E940116D6
S1132E808823E1F7812F99278FBF78940E946511D9
S1132E908FB7F894482F552757C080917000992711
S1132EA083709070892B19F4E5E0F0E014C08091F0
S1132EB0B6008A71E1F78091B3009091B200891B4A
S1132EC08C3038F08091B200853F18F4E3E0F0E0F4
S1132ED002C0E2E0F0E080916E00867009F5809116
S1132EE06F008E72E9F4809171008E72C9F40CB493
S1132EF007FC16C08091C100807E91F48091C900C6
S1132F00807E71F48091BC0082FD0AC080917A00B9
S1132F1087FF03C081E090E005C085E090E002C037
S1132F2080E090E023B78E1708F4E82FFF27E453DE
S1132F30FF4FE491207F2160E22BE3BF78948895D2
S1132F40F89483B78E7F83BF8091E1038F3F09F4A8
S1132F50A4CF282F3327F901E459FD4F80818093B2
S1132F60E1038F3F11F48093F2038FEF80832F3FAF
S1132F7009F493CF4FBF822F0E94D11189CFACE2C5
S1132F80B0E0E5ECF7E10C948619222E332E442EA2
S1132F90552E662E772E882E992EFE013196A8E0A6
S1132FA01192AA95E9F729823A824B825C826D825A
S1132FB07E828F829886FE013996B8E01192BA9586
S1132FC0E9F7A986BA86CB86DC86ED86FE860F876E
S1132FD0188B89819A81AB81BC8189A79AA7ABA7F9
S1132FE0BCA77C018D018FEF9FEFA0E0B0E0E82249
S1132FF0F9220A231B2389A59AA5ABA5BCA51D010B
S11330004424552489859A85AB85BC858DA39EA3CC
S1133010AFA3B8A75C016D018FEF9FEFA0E0B0E014
S1133020A822B922CA22DB228DA19EA1AFA1B8A5F4
S11330303D0188249924C801B701A60195010E9485
S1133040671969A37AA38BA39CA3C801B701A40140
S113305093010E9467197B018C01C201B101A60191
S113306095010E9467195B016C01C201B101A401C1
S113307093010E9467193B014C01EA0CFB1C0C1DD7
S11330801D1D89A19AA1ABA1BCA19D01442755276F
S11330902E0D3F1D401F511F2A153B054C055D0594
S11330A040F480E090E0A1E0B0E0680E791E8A1E52
S11330B09B1ECA01AA27BB27860D971DA81DB91DF3
S11330C08D8F9E8FAF8FB8A3A9013327222789A1A3
S11330D09AA1ABA1BCA1A070B070280F391F4A1FE0
S11330E05B1F298F3A8F4B8F5C8FA98CBA8CCB8C4A
S11330F0DC8CED8CFE8C0F8D18A1FE01719698E08E
S113310011929A95E9F7ED8AFE8A0F8B188F2D811B
S11331103E814F8158856DA17EA18FA198A50E9403
S113312067193B014C012D853E854F85588969A55A
S11331307AA58BA59CA50E9467192D893E894F8984
S1133140588D260F371F481F591F260D371D481D40
S1133150591D2D8B3E8B4F8B588F6D887E888F88A1
S1133160988C2A2D3B2D4C2D5D2D662D772D882D89
S1133170992DE2E1AC960C94A219A0E1B0E0E3EC45
S1133180F8E10C948619222E332E442E552E662EE9
S1133190772E882E992E002309F466C088E0FE015C
S11331A0319611928A95E9F729833A834B835C839C
S11331B06D837E838F829887E0E2E01B1E16CCF538
S11331C02D813E814F815885602F772767FD70954B
S11331D0DA01C901062E04C0B695A795979587957F
S11331E00A94D2F78D879E87AF87B88B04C0220FCD
S11331F0331F441F551FEA95D2F789819A81AB8109
S1133200BC8104C0B695A795979587956A95D2F722
S1133210282B392B4A2B5B2B29873A874B875C87D2
S113322029843A844B845C846D847E848F8498885A
S11332301BC01D861E861F86188A2E2F332727FD46
S11332403095309521953F4F8D819E81AF81B88512
S113325004C0B695A795979587952A95D2F789873F
S11332609A87AB87BC87DCCF222D332D442D552D77
S1133270662D772D882D992DE2E160960C94A21984
S1133280AA1BBB1B51E107C0AA1FBB1FA617B70788
S113329010F0A61BB70B881F991F5A95A9F78095A4
S11332A09095BC01CD01089597FB092E07260AD0FD
S11332B077FD04D0E5DF06D000201AF470956195FF
S11332C07F4F0895F6F7909581959F4F0895629FDB
S11332D0D001739FF001829FE00DF11D649FE00D0A
S11332E0F11D929FF00D839FF00D749FF00D659F6B
S11332F0F00D9927729FB00DE11DF91F639FB00D6A
S1133300E11DF91FBD01CF01112408952F923F92B1
S11333104F925F926F927F928F929F92AF92BF92E1
S1133320CF92DF92EF92FF920F931F93CF93DF938D
S1133330CDB7DEB7CA1BDB0B0FB6F894DEBF0FBEEA
S1133340CDBF09942A88398848885F846E847D8437
S11333508C849B84AA84B984C884DF80EE80FD8039
S11333600C811B81AA81B981CE0FD11D0FB6F894AF
S1133370DEBF0FBECDBFED010895FB01DC0102C02D
S113338001900D9241505040D8F70895DC0101C0DE
S10F33906D9341505040E0F70895FFCFCA
S10F339C0100010022FFFFFFFFFFFF0201
S9030000FC
