S01700006275696C642F697269732F6D61696E2E7372656343
S11300000C9485010C94A4010C94A4010C94A401F7
S11300100C94A4010C94A4010C94A4010C94A401C8
S11300200C94A4010C94A4010C94A4010C94A401B8
S11300300C94A4010C94D90E0C94A4010C9485097D
S11300400C9456180C948E180C945B0A0C94660A43
S11300500C94710A0C94A4010C94A4010C94A401B2
S11300600C94A6090C94C90C0C94A4010C944C0D8A
S11300700C94A4010C949F0A0C94A4010C94A60E55
S11300800C94850E0C94900E0C949B0E0C94B90E4B
S11300900C94680E0C94A4010C947A0E0C94A40194
S11300A00C94A4010C94A4010C94A4010C94A40138
S11300B00C94A4010C94A4010C94A4010C94A40128
S11300C00C94A4010C94A4010C94A401D2200E213C
S11300D025215821B3214422CB22CE22D922ED223C
S11300E07C23AC23AF23B8231324C724E724EA24B6
S11300F0C225E225E425EF2514263526C9204B2701
S113010059274F2800002110422063308440A55015
S1130110C660E770088129914AA16BB18CC1ADD149
S1130120CEE1EFF13112100273325222B5529442F1
S1130130F772D662399318837BB35AA3BDD39CC399
S1130140FFF3DEE36224433420040114E664C7743D
S1130150A44485546AA54BB528850995EEE5CFF5E9
S1130160ACC58DD55336722611163006D776F66691
S11301709556B4465BB77AA719973887DFF7FEE739
S11301809DD7BCC7C448E5588668A778400861185D
S113019002282338CCC9EDD98EE9AFF94889699989
S11301A00AA92BB9F55AD44AB77A966A711A500A31
S11301B0333A122AFDDBDCCBBFFB9EEB799B588BD9
S11301C03BBB1AABA66C877CE44CC55C222C033C7D
S11301D0600C411CAEED8FFDECCDCDDD2AAD0BBD29
S11301E0688D499D977EB66ED55EF44E133E322ED1
S11301F0511E700E9FFFBEEFDDDFFCCF1BBF3AAF79
S1130200599F788F8891A981CAB1EBA10CD12DC1D6
S11302104EF16FE18010A100C230E320045025406C
S113022046706760B9839893FBA3DAB33DC31CD3CC
S11302307FE35EF3B1029012F322D23235421452BC
S113024077625672EAB5CBA5A89589856EF54FE518
S11302502CD50DC5E234C324A0148104667447640C
S113026024540544DBA7FAB79987B8975FE77EF76C
S11302701DC73CD7D326F2369106B016576676765C
S1130280154634564CD96DC90EF92FE9C899E98938
S11302908AB9ABA94458654806782768C018E108AC
S11302A08238A3287DCB5CDB3FEB1EFBF98BD89B0C
S11302B0BBAB9ABB754A545A376A167AF10AD01AFC
S11302C0B32A923A2EFD0FED6CDD4DCDAABD8BAD58
S11302D0E89DC98D267C076C645C454CA23C832C4C
S11302E0E01CC10C1FEF3EFF5DCF7CDF9BAFBABFAC
S11302F0D98FF89F176E367E554E745E932EB23E9C
S1130300D10EF01E00020E060C0411241FBECFEF06
S1130310D1E2DEBFCDBF12E0A0E0B2E0E8E1FCE54F
S113032000E00BBF02C007900D92AA31B107D9F7C4
S113033019E0AAE1B2E001C01D92AC34B107E1F7C3
S11303400E9467290C940B2E0C9400008FB7F8942C
S1130350992708958FBF0895AC01E3E8F4E080E0A5
S113036090E09C01858180FF05C080819181841784
S1130370950741F0C90101963E968A30910589F7A7
S11303802FEF30E0C90108950E94AC018F3F99F02E
S11303909927880F991FFC0123E0EE0FFF1F2A9570
S11303A0E1F7E81BF90BED57FB4F858181FF03C093
S11303B08285938508958FEF90E008950E94AC01A3
S11303C08F3F19F481E090E008959927880F991FD1
S11303D0FC0143E0EE0FFF1F4A95E1F7E81BF90B20
S11303E0ED57FB4F85818860858380E090E0089518
S11303F02F923F924F925F926F927F928F929F9231
S1130400AF92BF92CF92DF92EF92FF920F931F931E
S1130410CF93DF93CDB7DEB729970FB6F894DEBF3D
S11304200FBECDBF6FB76983F89420904A03309014
S11304304B0340904C0350904D036624772488244A
S1130440EEE4AE2E73E8B72ECC24DD24EE24FF2494
S113045000E010E0222D332D442D552D662D772DEF
S1130460882D90E00E94D82B2A833B834C835D83A4
S11304706E837F8388879987822E932EA42EB52E30
S11304802401350100E20E94D62CA22EB32EC42EE4
S1130490D52EA301920156954795379527952A0D98
S11304A03B1D4C1D5D1D57FF05C05F772F5F3F4F00
S11304B04F4F5F4F20934A0330934B0340934C03B9
S11304C050934D03E9818E2F99278FBFCA01B9013B
S11304D029960FB6F894DEBF0FBECDBFDF91CF9142
S11304E01F910F91FF90EF90DF90CF90BF90AF904E
S11304F09F908F907F906F905F904F903F902F9040
S11305000895282F9FB7F894E82FFF27E259FD4F4D
S113051080818F3F81F4E0912A09E21771F40BC0C6
S113052020930D0904C0FF27E259FD4F2083209337
S11305302A0920E007C025E005C080910D098F3FFE
S113054091F7EECF892F99278FBF822F992708958E
S1130550EF920F931F93AE2D99E0899FF001112420
S1130560EF5EFA4F40835183628373830483158360
S113057026833783A17080858E7F8A2B8260808753
S113058083E00E9481021F910F91EF9008957FB73D
S1130590F8946091B2002091690230916A0240910E
S11305A06B0250916C02B99B11C08091B300909181
S11305B0B200280F311D411D511D2F5F3F4F4F4F7A
S11305C05F4F290F311D411D511D04C0260F311DE0
S11305D0411D511D872F99278FBFCA01B901089565
S11305E06D3118F080E090E008950C9608956E5FE8
S11305F00E94F002009709F0029608950B96089560
S1130600CF93DF93FC01DC0111962181662351F025
S1130610ED0189819927982F882733272062822B1F
S1130620932B09C0ED0189819927982F88273327B7
S1130630822B932B8F7D8183892F99278983DF9147
S1130640CF910895FC01CB01428553859A0163E063
S1130650220F331F6A95E1F7240F351F2B5F3F4F9D
S1130660820F931F6AE070E00E94652D7387628792
S11306700895FC0164859585662339F48AE0989F82
S1130680B00111246A5070400BC077278AE0989F0C
S1130690C00111240E94792D6A5070401486158679
S11306A0CF010E942203089580914702E82FFF277B
S11306B0EE0FFF1FE056F74F0190F081E02D2091DF
S11306C04902222351F08F5F809347028D3011F449
S11306D010924702215020934902CF0108958FB709
S11306E0F894992722B134E0232722B98FBF0895C3
S11306F0AC0120916A042C3018F081E090E0089558
S113070080915103682F620F712D711DFB016C30B4
S1130710710508F03C97EE0FFF1FE55EF94F51831A
S113072040832F5F20936A0480E090E00895AC0139
S1130730209136042C3018F081E090E008958091E7
S11307401709682F620F712D711DFB016C30710543
S113075008F03C97EE0FFF1FE55DF64F5183408391
S11307602F5F2093360480E090E008950F931F9349
S1130770CF93DF93EC01892BE9F02091C1083091EC
S1130780C2088FEF2F3F3807A9F080915B028130B8
S113079019F4198218820BC00091C3081091C4087F
S11307A0C9010E94C401080F191F1983088380E03E
S11307B090E002C081E090E0DF91CF911F910F9112
S11307C00895FC0180818D5099270895685F0E94E7
S11307D0F002009709F0089608951F931FB7F89444
S11307E080912309882341F481E10E9481028823B6
S11307F019F481E080932309812F99278FBF1F91DA
S11308000895EF92FF921F93CF93DF937C01EB0146
S1130810142F80911B02882309F0A7C0443009F0EB
S1130820A4C0672B09F4A1C00E946F038A812B81A5
S11308309927F82FEE273327E22BF32B8881298180
S11308409927582F44273327422B532B6091260294
S1130850709127026F5F7F4F709327026093260287
S113086080911C0290911D028417950740F45093C7
S11308701D0240931C02F0932302E0932202809114
S11308801E0290911F024817590740F450931F020B
S113089040931E02F0932502E093240280912802E3
S11308A090912902840F951F909329028093280226
S11308B00E94652D709321026093200288819981A2
S11308C0AA81BB818093E6089093E708A093E80887
S11308D0B093E9088FEF8093E0088093DF0889E8FC
S11308E08093E5081093E3088091390290913A02CD
S11308F0892B09F03AC02FB7F894332785E0809309
S11309003C0210923D028AED98E090933802809365
S1130910370282E090E090933A0280933902109279
S11309203F0210923E0280E180933B022FBF9FB7AB
S1130930F8948091FC03882311F020E006C081E044
S11309408093FC031092FD0321E0892F99278FBF28
S1130950222339F00E94ED03109881E080931B025A
S113096004C010923A0210923902C701DF91CF916C
S11309701F91FF90EF900895FC01635F60830895D9
S1130980882319F08CB5806402C08CB58F7B8CBD34
S11309900895882319F08CB5806802C08CB58F77D0
S11309A08CBD08950F931F9380E00E94C0040FB77D
S11309B0F8941127229A2398219A8CB580618CBDD2
S11309C080E00E94C9048DB581608DBD8CB5877FA0
S11309D08CBD8CB58B7F8CBD8CB58E7F8CBD81E03E
S11309E00E94C0040FBF1F910F9108950F931F938E
S11309F0CF93DF93182F0FB7F89480912B0288239D
S1130A0011F40E94D204802F99278FBF8FB7F894D6
S1130A10C82FDD272C2F80912B02882361F481E0DD
S1130A2080932B021093F50389E00E948102CFBFCB
S1130A3080E090E021C0E12FFF27ED50FC4F808142
S1130A408F3F89F4E0910902E11789F40CC01093F7
S1130A50080204C0FF27ED50FC4F108310930902D5
S1130A6080E090E002C085E090E02FBF05C0809157
S1130A7008028F3F79F7EBCFDF91CF911F910F9150
S1130A8008958FB7F89420917A0430917B044091B3
S1130A907C0450917D04E0918400F0918500B09B2A
S1130AA008C02F5F3F4F4F4F5F4FE0918400F0919C
S1130AB0850099278FBFC901772766279F0144279F
S1130AC05527622B732B842B952B0895FC0180A949
S1130AD0826080AB08958C960895AC01EFB7F894CA
S1130AE02091840030918500C901841B950B0396E5
S1130AF08617970720F0B9016D5F7F4F02C0640F1E
S1130B00751F6115710511F461E070E0615070406A
S1130B10709389006093880082E086BB80916F00A7
S1130B20826080936F008E2F99278FBF0895FC01F8
S1130B30828121819927982F88273327822B932B11
S1130B4085FF1FC087749C7C81549848D1F48781A9
S1130B5046812FB7F8943327609102027091030203
S1130B602FBF20E09927982F88275527842B952B72
S1130B708617970709F021E081E02827822F99271B
S1130B80089580E090E00895EF92FF920F931F93F1
S1130B907C018FB7F89499270091A8021091A902BB
S1130BA00F5E1E4F1093A9020093A8020151114039
S1130BB08FBF87E00E948102C801B7010E94652DA2
S1130BC08A5D9E4F1F910F91FF90EF9008959FB7FC
S1130BD0F894809116068A3011F020E006C020E0D7
S1130BE080910903843009F421E0892F99278FBF6C
S1130BF0222349F083E10E9481028FB7F894992758
S1130C001092340206C08FB7F894992721E02093FC
S1130C1034028FBF08952FB7F89433278093C6000A
S1130C20E0ECF0E08081806480832FBF0895FC01B4
S1130C306115710519F481E090E008958091F8033D
S1130C409091F903892B19F085E090E00895709351
S1130C50CA086093C908F093F903E093F80310926B
S1130C603E0310923D0381E080933F038091C000D6
S1130C7080648093C0008091C10080648093C1002F
S1130C80808121E030E030933E0320933D030E94B5
S1130C900B0680E090E00895809145028E7F80935A
S1130CA045028EE780938D0261E070E08DE892E06A
S1130CB00E94170699270895982F969596959695CC
S1130CC0E8E6F2E0E90FF11D877021E030E002C0B0
S1130CD0220F331F8A95E2F7808182239927089592
S1130CE01F93CF93DF9380913002882319F081E022
S1130CF090E051C08FB7F894282F3327122F80919A
S1130D003302882369F581E080933302109246030D
S1130D102FBF2FB7F894332780917A00806880938F
S1130D207A002FBF8FB7F894C82FDD279C2F8091AE
S1130D300C02813099F480913302813021F48FE0E8
S1130D400E94810209C0823049F480914603809355
S1130D500C0283E080933302CFBF1BC09FBF19C036
S1130D6080E00E945C06882319F085E090E007C0CB
S1130D708091680281608093680280E090E01FBFE8
S1130D80282F882319F481E080933002822F992739
S1130D9002C020E0F8CFDF91CF911F910895982FE2
S1130DA0969596959695E0E1F5E0E90FF11D87702B
S1130DB021E030E002C0220F331F8A95E2F78081E0
S1130DC0822399270895AC01209149022D3018F00F
S1130DD081E090E0089580914802E82FFF27EE0F0C
S1130DE0FF1FE056F74F518340838F5F8093480283
S1130DF08D3011F4109248022F5F2093490280E055
S1130E0090E0089580911509882319F02FE170E08E
S1130E1002C078E021E0622FEFB7F8948091A60237
S1130E208E7F8093A60280917C00982F9F7182957B
S1130E3086958695837019F080E090E012C0822F29
S1130E408850863118F081E090E00BC040E050E01B
S1130E503327892F99272817390711F441E050E0E7
S1130E60CA01982F9170990F8091A6028178262F3C
S1130E702F71422F440F440F892B842B8093A60299
S1130E80332720937C00783059F580910E09909196
S1130E900F0921E08638920718F087E090E01FC020
S1130EA0833C910518F086E090E019C081369105E5
S1130EB018F085E090E013C08033910518F084E0C9
S1130EC090E00DC08831910518F083E090E007C0F0
S1130ED00C9718F082E090E002C080E090E0782F58
S1130EE07770887D872B886D992780937A008E2F61
S1130EF099278FBF089508950F931F93CF93DF937E
S1130F00282F3327C901880F991FFC01A3E0EE0F96
S1130F10FF1FAA95E1F7E81BF90BED57FB4F8581FD
S1130F2082FF03C062838B7F85838281962F981B07
S1130F30628383818F5F838386E08683992361F054
S1130F408481890F815084839B3030F0148281E046
S1130F508383178211861086C901880F991FFC01AB
S1130F6063E0EE0FFF1F6A95E1F7E81BF90BED57FD
S1130F70FB4F8381833008F471C000811181C3E881
S1130F80D4E0888199818017910709F061C08D812F
S1130F9080FF5EC08E81882311F081508E838F8103
S1130FA0882311F081508F838E81882351F48F819F
S1130FB0882339F48D8191E089278D8319861886D9
S1130FC042C08D8182608D839B816C81690F633007
S1130FD008F463E077278FEF989FC00111240E94E3
S1130FE0792D888529E0829FC00111240596860FFA
S1130FF0911D6AE070E00E94792D68871B821C8233
S11310004985662301F14423F1F0772781E09EEFBF
S11310100E94652DCB019B0153E0220F331F5A958B
S1131020E1F7642F7727880F991F820F931F0E947F
S1131030652D6A5070406F3F710519F010F06CE334
S113104070E0772702C06CE370E0CE010E942203B7
S11310502E9685E0CF30D80709F093CFDF91CF915A
S11310601F910F91089580E090E0E8E8F4E09C017E
S1131070808180FF08C0C90101963E968A3091059F
S1131080B1F72FEF30E0C90108959EE0899FF00188
S11310901124ED57FB4F71836083128213821482F3
S11310A085E0858386E08683878310861186138690
S11310B012860895982FAFEF60E070E040E050E0B2
S11310C0E8E8F4E08081282F332720FF0BC021FFBC
S11310D009C023FD07C0258136812617370710F084
S11310E0A42FB9014F5F5F4F3E964A30510551F727
S11310F0892F99276817790718F48FEF90E00895DE
S11311008A2F99270895AC01309167028FEF4F3FE2
S1131110580711F020E012C0832F99270895E22F79
S1131120FF2783E0EE0FFF1F8A95E1F7E155FD4F9E
S1131130808191818417950719F02F5F231779F720
S1131140822F99270895FC0180818D509927089555
S11311501F93CF93DF93162FC0E0D0E06AE10E9483
S1131160F702FC0180818123811711F4C1E0D0E0F2
S1131170CE01DF91CF911F910895FC0182A593A523
S11311800895AF92BF92CF92DF92EF92FF920F93A6
S11311901F93F82E5A016B010E94C702AB01BC01D8
S11311A0EE24960185018F2D0E94A8021F910F91B4
S11311B0FF90EF90DF90CF90BF90AF900895DF92B3
S11311C0EF92FF920F931F938FB7F894282F332732
S11311D0D22E9091B3008091B20047B3981711F0CA
S11311E041FF02C02FBF71C0809141038823E1F108
S11311F00E94C702E0905C02F0905D0200915E02E2
S113120010915F02209118093091190940911A092F
S113121050911B096E197F09800B910B621773079C
S11312208407950720F01092410371E01EC02E0D33
S11312303F1D401F511F8091690290916A02A09145
S11312406B02B0916C02281B390B4A0B5B0B273ED7
S113125031054105510540F4822F223010F070E031
S113126005C070E082E002C070E086EE682F615035
S11312708091B60083FDFCCF8091B200681709F419
S11312806F5F2091690230916A0240916B02509124
S11312906C02DA01C9010196A11DB11D860F911DD1
S11312A0A11DB11D82179307A407B50710F4622F7F
S11312B060958091B60083FDFCCF6093B300DFBEE0
S11312C0772319F082E00E9481021F910F91FF9011
S11312D0EF90DF900895AFB7F894BB27E1E0E09377
S11312E0410360935C0270935D0280935E0290936D
S11312F05F02209318093093190940931A095093F7
S11313001B09AFBF0E94DF0808951F920F920FB60A
S11313100F9211248F938091B0008093B00080913C
S1131320B60081FDFCCF8F910F900FBE0F901F90E0
S113133018951F93182F81E00E94C0041EBD0DB4A0
S113134007FEFDCF8EB599271F9108951F920F9226
S11313500FB60F9211248F929F92AF92BF92CF92A9
S1131360DF92EF92FF920F931F932F933F934F932C
S11313705F936F937F938F939F93AF93BF93CF9319
S1131380DF93EF93FF932EB5E091AD05F091AE0599
S1131390309739F08091740490917504E80FF91F27
S11313A02083809174049091750401969093750440
S11313B08093740480E00E94C904C0917404D091A5
S11313C075048091520290915302C817D90708F00E
S11313D044C000911E0910911F098090AD059090A2
S11313E0AE052AE0A22EB12CAC0EBD1E8A159B05BB
S11313F008F45C016401CC0EDD1E7801EC0EFD1EC8
S113140015C00115110519F0F701808101C080E0B4
S11314100E9499098114910411F0F60180832196A8
S11314200894C11CD11C0894E11CF11CC50101974E
S1131430C817D90730F381E00E94C90401151105CA
S113144031F00C0F1D1FF80180818EBD01C01EBC40
S1131450D0937504C093740411C01092AE05109219
S1131460AD0510921F0910921E091092530210929A
S1131470520210927504109274048EB5FF91EF918C
S1131480DF91CF91BF91AF919F918F917F916F9198
S11314905F914F913F912F911F910F91FF90EF908A
S11314A0DF90CF90BF90AF909F908F900F900FBE22
S11314B00F901F90189578941F920F920FB60F9269
S11314C011240F900FBE0F901F90189578941F92BF
S11314D00F920FB60F9211240F900FBE0F901F9012
S11314E0189578941F920F920FB60F9211242F9390
S11314F03F938F939F93AF93BF932FB7F894332762
S113150080917A0490917B04A0917C04B0917D0435
S11315100196A11DB11D80937A0490937B04A0933E
S11315207C04B0937D042FBFBF91AF919F918F91A5
S11315303F912F910F900FBE0F901F9018951F92FF
S11315400F920FB60F9211242F933F934F935F93F3
S11315506F937F938F939F93AF93BF93EF93FF9377
S1131560409178005091790078948FB7F894992736
S11315702091A602322F3695317021708FBF22231D
S113158051F580917A00877F80937A0080913404AA
S1131590813021F0823009F048C008C0332341F083
S11315A0509315064093140680E112C0332319F4B6
S11315B00E9402073AC010923404809115098823CE
S11315C0A1F510924E035093A3024093A2028EE021
S11315D00E9481022AC08FB7F89499278FBF2FB732
S11315E0F894332780917A00582F5770482F40720F
S11315F0987D942B952B8074977B982B90619F7783
S1131600892F992780937A00887D842B852B877373
S11316108061992780937A00887D842B852B877B32
S11316208069992780937A002FBFFF91EF91BF9132
S1131630AF919F918F917F916F915F914F913F9166
S11316402F910F900FBE0F901F901895E4E0F1E0DA
S11316506927660FF11DE60FF11DC895982F802D9F
S11316603196C89590250895982F8091400288233B
S113167089F5992379F531E03093400280910D0288
S11316808093410220913502822F817080936602FB
S1131690809112029091130290934302809342022C
S11316A0809136028093440232273170267EE32FE4
S11316B0FF27EE0FFF1FE25FFD4F80819181909322
S11316C0130280931202232B2093350286E10E9499
S11316D0810208958091350280FF02C08B7F01C092
S11316E08D7F8093350208950F931F93082F162F33
S11316F0809109038130D9F0813038F0823009F4C7
S11317004AC0833009F00EC159C0002309F43EC118
S11317101092BC081092BB0810921A061092D508B9
S11317201092400310927F0410927E041FC1002384
S113173009F02CC180917E0490917F040E94260BB5
S113174090937F0480937E0482E080930903109336
S1131750D508143409F0E6C00BC18695869503C0FC
S1131760809135028695817009F0DCC08091350244
S1131770992311F0846001C08260809335028091C6
S11317803502877E886080933502109236028FEF8F
S113179080930D02FBC0002309F0C4C06093400392
S11317A080917E0490917F040E94260B90937F0485
S11317B080937E0483E080930903E8C080911A0635
S11317C08F3F09F4AFC0002309F447C0823008F406
S11317D0A9C0E091BB08EE2309F4D1C04E2F4150BB
S11317E0E42FFF27E554F74F82819927382F2227CA
S11317F0442311F4E2E002C0E42FE150FF27E55452
S1131800F74F82819927282B392B80917E04909160
S11318107F042817390709F085C080E00E94340B43
S11318203091400380916C0420916D04982F9F5F48
S1131830963008F090E0921709F474C0E82FFF275F
S1131840E459FB4F32838F5F80936C04863010F031
S113185010926C040E94ED0365C0823008F44EC0FF
S1131860E091BC08FF27E554F74F8281482F5527A4
S1131870342F20913502822F869586958695837024
S113188099278130910519F00297F9F40EC0277E4B
S1131890206120933502442311F485E001C080E0E7
S11318A08093360230930D0210C080913602833348
S11318B060F4E0911202F0911302E80FF11D4083ED
S11318C0809136028F5F809336028091BC08E82FA6
S11318D0FF27E554F74F62818F5F8093BC08833004
S11318E010F01092BC08772780917E0490917F04B9
S11318F00E94260B90937F0480937E048091BB0802
S1131900E82FFF27E554F74F12838F5F8093BB08BE
S1131910833010F01092BB0880911A068F5F809379
S11319201A0634C01092BC081092BB081092090326
S113193010921A061092D5081092400310927F0458
S113194010927E04809145028D7F8093450281E050
S11319500E94340B80913402882331F084E0809318
S113196009030E94E70512C0002381F081E023CF20
S113197080913502982F917080FDEFCEF1CE809149
S1131980BF089927382F222742E036CF1F910F91A5
S113199008951F920F920FB60F9211242F933F9325
S11319A04F935F936F937F938F939F93AF93BF9363
S11319B0EF93FF938091C00087FF42C06091C600FF
S11319C0E0918004F0918104309719F1809121090C
S11319D090912209E80FF91F6083019690932209E0
S11319E08093210920914509309146098217930774
S11319F038F110928104109280048091E3058330C1
S1131A00F9F08091C1008F778093C1001092E305B3
S1131A1017C06E3719F460E081E010C08091450270
S1131A206D3721F48260809345020AC081FF05C0AE
S1131A308D7F8093450280E2682780E00E94740BCA
S1131A40FF91EF91BF91AF919F918F917F916F9192
S1131A505F914F913F912F910F900FBE0F901F9068
S1131A601895982F8D57823068F4809145028160D3
S1131A708093450280E28927809319068DE780933D
S1131A808D0202C090938D0261E070E08DE892E0D7
S1131A900E9417069927089578941F920F920FB603
S1131AA00F921124FF920F931F932F933F934F9301
S1131AB05F936F937F938F939F93AF93BF93CF93D2
S1131AC0DF93EF93FF9320913D0330913E03809188
S1131AD0C9089091CA082817390780F4E091F803DF
S1131AE0F091F903E20FF31F80812F5F3F4F309392
S1131AF03E0320933D030E940B06D4C01092F903C9
S1131B001092F80310923F038091C1008F7B809361
S1131B10C1008091450280FF0EC08E7F80934502F4
S1131B208091190680938D0261E070E08DE892E067
S1131B300E941706B7C080911606843009F494C039
S1131B40853040F4823021F18330B8F5813009F0DA
S1131B50A4C00DC0863009F495C0863008F48BC04B
S1131B60873009F496C0883009F097C099C08091F5
S1131B70F4030E94310D182F83E0809316066091C0
S1131B80F40380914309909144090E94260B10C0EC
S1131B90809114090E94310D182F83E0809316065A
S1131BA06091140980914309909144090E94260B85
S1131BB090934409809343096EC0FFB6F894E09172
S1131BC00F05FF27EE0FFF1FE550FC4F80810E9499
S1131BD0310D082F10910F05C12FDD27FE01EE0FE7
S1131BE0FF1FE550FC4F60818091430990914409A7
S1131BF00E94260B90934409809343092091F0039B
S1131C002F5F2093F003113039F580913C02E0916D
S1131C103702F0913802E80FF11DE0818F5F809365
S1131C203C0290913B02981730F482E08093FC03CD
S1131C3040E050E002C04E2F5527DE01AA0FBB1F23
S1131C40FD01E650FC4F8081823031F02F3F21F0BE
S1131C50A550BC4F4C9303C084E080931606102F0C
S1131C608F2D99278FBF17C0809143090E94310D92
S1131C70182F85E00BC0809144090E94310D182F64
S1131C8086E004C00E944C06182F87E08093160655
S1131C9002C088E003C0112329F089E0809316066E
S1131CA00E94ED03FF91EF91DF91CF91BF91AF912E
S1131CB09F918F917F916F915F914F913F912F9160
S1131CC01F910F91FF900F900FBE0F901F901895CA
S1131CD01F920F920FB60F9211248F938091C80018
S1131CE087FF02C08091CE008F910F900FBE0F909E
S1131CF01F90189578941F920F920FB60F9211248B
S1131D000F900FBE0F901F90189578941F920F920A
S1131D100FB60F9211240F900FBE0F901F901895BD
S1131D2078941F920F920FB60F9211240F900FBE4A
S1131D300F901F90189578941F920F920FB60F92E0
S1131D4011240F900FBE0F901F90189578941F9236
S1131D500F920FB60F9211248F939F93809194004A
S1131D60909195009F918F910F900FBE0F901F90AF
S1131D70189578941F920F920FB60F9211242F93F7
S1131D803F938F939F932FB7F894332780915203F7
S1131D9090915303019690935303809352032FBF62
S1131DA09F918F913F912F910F900FBE0F901F9095
S1131DB018951F920F920FB60F9211242F933F93F1
S1131DC04F935F936F937F938F939F93AF93BF933F
S1131DD0EF93FF938091B0008093B0008091B600A0
S1131DE081FDFCCF8091B30099270196AA27BB27D8
S1131DF02091690230916A0240916B0250916C0209
S1131E00280F391F4A1F5B1F2093690230936A020F
S1131E1040936B0250936C0278940E94DF08FF9108
S1131E20EF91BF91AF919F918F917F916F915F914E
S1131E304F913F912F910F900FBE0F901F901895C7
S1131E4021E020933A062093EF03209184003091FF
S1131E508500BC01C9010E946D050895FF920F938E
S1131E601F938C010E94A308F82E62E0C8010E940F
S1131E70F002FC01208133272F703070C901880FD4
S1131E80991F820F931FF81A8EEFF80E8F2D992742
S1131E901F910F91FF9008950F931F93982F1FB7D1
S1131EA0F89480912B02823099F580910A02891767
S1131EB079F58091080220E030E08F3F11F421E0B1
S1131EC030E0232BF1F49FEF90930A028F3F19F433
S1131ED02FEF30E00DC0282F3327F901ED50FC4FD0
S1131EE08081809308028F3F11F4909309029083BC
S1131EF02093F50381E080932B0289E00E94810204
S1131F0005C08FEF80930A0210922B0201E001C0FA
S1131F1000E0812F99278FBF1FB7F89480912B027F
S1131F20882311F40E94C004812F99278FBF90E069
S1131F30013009F491E081E09827892F99271F91B6
S1131F400F9108951F93982F1FB7F89480912A0238
S1131F50823099F580910702891779F580910502FD
S1131F6020E030E08F3F11F421E030E0232BF1F446
S1131F709FEF909307028F3F19F42FEF30E00DC0CD
S1131F80282F3327F901E255FD4F80818093050204
S1131F908F3F11F49093060290832093AB0281E06B
S1131FA080932A0280E00E94810205C08FEF809313
S1131FB0070210922A0221E001C020E0812F992714
S1131FC08FBF90E0213009F491E081E09827892FB8
S1131FD099271F9108958FB7F894282F3327922FAC
S1131FE080910A02882331F480912B02823011F40B
S1131FF02FBF13C09FBF8FB7F894282F332780912A
S11320002B02882369F482E080932B0210920A0247
S11320102FBF0E94D204209A289A81E090E008956C
S11320202FBF80E00E94F60480E090E008954F9274
S11320305F926F927F928F929F92AF92BF92CF9254
S1132040DF92EF92FF920F931F93CF93DF932C01B4
S113205080915102882309F04DC180912009853077
S113206009F048C10E94EB0F882309F443C1809111
S1132070C008882309F03EC1E201E096F20180A97C
S113208082FD02C090E003C0F20192A99F7080918A
S11320903504981781F090933504289885EC8EBD0B
S11320A00DB407FEFDCF8EB590689EBD0DB407FE3E
S11320B0FDCF8EB5289A42010894811C911CF4012D
S11320C08181F201218140E09927982F88273327C5
S11320D0822B932B87749C7C8154984809F441E0AB
S11320E0442301F1289886E88EBD0DB407FEFDCF88
S11320F08EB51EBC0DB407FEFDCF8EB5289A992768
S11321008F71907020914F034091FF02240F312D65
S1132110311D43E0359527954A95E1F7281739078E
S11321200CF4E8C0289882EC8EBD0DB407FEFDCFF8
S11321308EB589E08EBD0DB407FEFDCF8EB5289A0D
S11321400E9441057B018C01888184FD03C0C0E0AD
S1132150D0E006C0F20180818550E201C80FD11D94
S1132160289881E88EBD0DB407FEFDCF8EB51EBC48
S11321700DB407FEFDCF8EB5289A8F71893021F0FA
S113218087E080932009B6C08FB7F89499272F9AD7
S113219020918400309185008FBF2F98289880E685
S11321A08EBDF20190810DB407FEFDCF8EB59EBDAC
S11321B0792F7250773010F4672F01C067E0F40173
S11321C0962F41910DB407FEFDCF8EB54EBD9150B3
S11321D0C1F76150F401E60FF11D6F5F31962E19BE
S11321E03F092E553F4F3901882477FC8094982C61
S11321F06E0C7F1C801E911E209719F4972F961B3E
S11322001FC088819981AA81BB8186199709A80971
S1132210B9098B83292F3A2F4B2F55272A839D01E8
S11322204427552729838B2F9927AA27BB278883DF
S1132230E5CF20810DB407FEFDCF31968EB52EBDBE
S11322409150B8F70DB407FEFDCF8EB5289A2898A3
S113225082EC8EBD0DB407FEFDCF8EB586E08EBD3B
S11322600DB407FEFDCF8EB5289A209779F18881A9
S1132270E9802A81AB80332744275527542F432FE5
S1132280322F22279927AA27BB27B82FAA279927B5
S11322908827FF24002711278701FF24EE248E2995
S11322A09F29A02BB12BBB24CC24DD248A299B2974
S11322B0AC29BD29282B392B4A2B5B2B260D371D26
S11322C0481D591D288339834A835B83C2010E94B8
S11322D06605C2010E946B05FC01608271828282E4
S11322E0938286E08093200984E08093510280E009
S11322F090E002C085E090E0DF91CF911F910F91B3
S1132300FF90EF90DF90CF90BF90AF909F908F9011
S11323107F906F905F904F9008952FB7F894332774
S113232080938C022FBF85E00E94810208959C0156
S113233080915002882319F085E090E0089530934D
S113234018062093170681E08093500210923304FC
S113235085E00E94810280E090E00895CF93DF93AE
S1132360EC018FE38A87809150038F5F8093500341
S11323708B838091640290916502892B11F025E092
S113238017C088A599A5892B21F061E0CE010E9490
S11323900003CE010E9497119927282F882341F426
S11323A0D0936502C0936402109206031092050351
S11323B0822F9927DF91CF910895FF920F931F9356
S11323C0CF93DF93F82E8B01EA01422F2D3118F0C1
S11323D086E090E08CC0FE0131968181298150E035
S11323E09927982F88273327822B932B87749C7CDB
S11323F08154984809F451E0552321F481E48983F8
S113240088E88183435F48832FB7F894332780910A
S11324100202909103022FBF8887892F9927898709
S11324202FB7F8943327809104022FBF99278C8308
S11324301D82CE010E94FE02FC01F0820E83812FD8
S113244099278F838FB7F894282F332780912A02F6
S1132450882371F482E080932A02109207022FBF2E
S1132460CE010E94AE119927182F882399F00FC02E
S11324702FBFD093AD02C093AC028FB7F894C82F8E
S1132480DD272C2F80912A02882399F406C080E04E
S11324900E94A20F812F99272AC081E080932A02EB
S11324A01092AB0280E00E948102CFBF80E090E0F6
S11324B01EC08091AE028F3F89F4E0910602EE23A4
S11324C069F010C01092050204C0FF27E255FD4FC9
S11324D010821092060280E090E002C085E090E055
S11324E02FBF05C0809105028F3F79F7EBCFDF91B5
S11324F0CF911F910F91FF900895EF92FF920F9348
S11325001F93CF93DF93E82E8B01F42E81E08E1579
S113251018F481E090E03BC0CE2DDD27CC0FDD1F09
S1132520CA58DB4F88819981892B19F085E090E0A6
S11325302EC079836883EDE0FE0EFB01F082F3EF99
S1132540FF0E80911402823018F480E090E01FC0E6
S1132550CB010E94FE02FC018081F801678177278C
S1132560762F662726813327622B732BE092140281
S11325702F2DA8010E94DD119927282F882329F0E7
S113258082E08093140219821882822F9927DF91A6
S1132590CF911F910F91FF90EF900895CF93DF9308
S11325A0EC010E948308282F809167022817D1F03C
S11325B0382F31503093670213C0822F992743E09C
S11325C0880F991F4A95E1F7DC01A155BD4FFC0125
S11325D0E954FD4F88E001900D928150E1F72F5F9F
S11325E0231758F38091C1089091C2088C179D0756
S11325F0A1F48FEF9FEF9093C2088093C1081092CB
S1132600C4081092C3081092C5081092C60881E04D
S113261080934F028AE10E948102DF91CF91089555
S11326201F93CF93DF93EC01162F8091150288231B
S113263019F5CE010E948308E82F80916702E817FC
S113264048F4FF2753E0EE0FFF1F5A95E1F7E155D9
S1132650FD4F17838091C608882311F0112349F098
S11326608091C1089091C2088C179D0729F4112309
S113267019F08AE10E948102DF91CF911F910895A0
S1132680AF92BF92CF92DF92EF92FF920F931F937C
S1132690CF93DF938091C008882309F413C10E946B
S11326A0EB0F882309F40EC18FB7F8949927C091D2
S11326B0ED03D091EE038FBF1092C00828988FE8E5
S11326C08EBD0DB407FEFDCF8EB51EBC0DB407FE46
S11326D0FDCF8EB5289A982FA82EBB24A0FE0CC03F
S11326E080915102833011F0873031F485E080937A
S11326F0200988E080935102A2FE5FC080915102BC
S1132700863019F41092510203C0882309F055C091
S1132710943009F041C0289886E88EBD0DB407FEB8
S1132720FDCF8EB51EBC0DB407FEFDCF2EB5289A85
S11327302F718091FF02982F96959695322F391B11
S1132740830F8093FF02E0916002F091610280A9FF
S11327508B7F886080AB22AB0E9441056B017C01BA
S11327600091600210916102C8010E946605C801CF
S11327700E946B05FC01CC19DD092797CE01AA271D
S113278097FDA095BA2F8C0D9D1DAE1DBF1D808396
S11327909183A283B3830EC0E0916002F091610241
S11327A080A9877F80ABE0916002F091610280A9EB
S11327B08D7F80AB85E080935102A3FE83C080911E
S11327C05102843009F04BC085E0809320091092B7
S11327D0510280914903833019F41092490372C065
S11327E0E0913104F0913204828121819927982F5C
S11327F088273327822B932B85FF29C087749C7CE1
S11328008154984821F5878126819927982F882714
S11328103327822B932B8F5F9F4FC9F090E08091D9
S1132820EF03882309F491E0992389F012E01093CF
S11328303A0681E08093EF038091840090918500B3
S113284061EE72E00E946D05109349033BC0109243
S113285049031092240980E00E948D1133C0853011
S113286089F580912009873091F4289882EC8EBDF7
S11328700DB407FEFDCF8EB586E08EBD0DB407FE08
S1132880FDCF8EB5289A85E08093200917C020914A
S11328904F03289886E88EBD0DB407FEFDCF8EB594
S11328A01EBC0DB407FEFDCF8EB5289A8F71922FF2
S11328B096959695891B280F20934F0389E0809362
S11328C0510208C090915102992309F4E2C299304F
S11328D009F00FC2289880E28EBD0DB407FEFDCF2B
S11328E08EB51EBC0DB407FEFDCF8EB5482F5527FF
S11328F0433008F49EC3842F99278A970CF099C318
S11329001EBCE0916002F09161024083542F52504A
S1132910573010F4452F01C047E09F012F5F3F4F10
S1132920942FF90160E070E00DB407FEFDCF8EB581
S11329301EBC808381916827062E6295607F602586
S1132940072E762F62956F70062666957627672781
S1132950660F660F660F6025915031F74150D9011B
S1132960A40FB11D4F5F1196E0916002F0916102D6
S11329708181282F3327277030702230310509F4E4
S113298091E09923B9F080914903823081F48381E5
S1132990E0913104F09132049381891741F490E07D
S11329A02230310509F091E081E098270EC080E0E3
S11329B090E00DC08FB7F894282F332790E08091D2
S11329C08204833008F491E02FBF892F9927892B43
S11329D009F42FC3952F941B18C00DB407FEFDCF27
S11329E08EB51EBC8C938D916827062E6295607FF0
S11329F06025072E762F62956F70062666957627DA
S1132A006727660F660F660F6025915030F70DB487
S1132A1007FEFDCF8EB51EBC9B012827022E2295F2
S1132A20207F2025032E322F22952F7002262695F3
S1132A3032272327220F220F220F20250DB407FE51
S1132A40FDCF8EB51EBC2827022E2295207F20257F
S1132A50032E322F22952F70022626953227232704
S1132A60220F220F220F20250DB407FEFDCF8EB5B5
S1132A70E0916002F091610281AB289A85E0809335
S1132A80200910925102232B09F0FFC1E09060024B
S1132A90F090610257010894A11CB11CF7018181D7
S1132AA090E08770823009F491E0292F3327122FA8
S1132AB0809149038230C9F480916F008D7F8093A7
S1132AC06F001092EF03E0913104F091320480A979
S1132AD0222311F0816001C08E7F80AB10924903E4
S1132AE01092240980E00E948D11112309F0FCC08A
S1132AF0C7010E9497058823A9F085E080933704D5
S1132B0082E08093380410923904F5018281809325
S1132B103A0487E394E00E941710882319F483E0B1
S1132B20809349030091840010918500C7010E949D
S1132B309705882311F0045E1C4F1093080300933B
S1132B4007038091840090918500081B190BC8012C
S1132B50101611066CF420912409222331F40E94EA
S1132B60200F80E88093240903C02068209324095F
S1132B70F501808527819927582F44273327422B35
S1132B80532B80916D02282F3327F901EE0FFF1F7D
S1132B90E553F74F808191817091E2058417950781
S1132BA069F4F901EB5DF64F8081871709F467C07A
S1132BB0872F8F5F8093E20580831DC000E010E0C3
S1132BC080E090E0CBECD8E0E5E2F9E0DF01682FAB
S1132BD09C01888199818417950779F420936D026B
S1132BE09091E2058C91891709F449C0892F8F5F70
S1132BF08093E2058C9300E829C08081972F981B6D
S1132C00091710F4092F122F6F5FC901019611964D
S1132C102296319685309105D1F66530B9F410933A
S1132C206D02A12FBB27FD01EE0FFF1FE553F74FE8
S1132C30518340838091E2058F5F8093E205FD011B
S1132C40EB5DF64F8083A95BB64F1C929091E20531
S1132C50892F8F778F3779F40F3768F0E5E2F9E041
S1132C60292F207880818F6789132083319639E05A
S1132C70EA32F307B9F780916D02282F3327F50163
S1132C809281A22FBB27FD01E95BF64F808180FF73
S1132C9007C0FD01EB5CF94F8081981729F102C050
S1132CA081608083AB5CB94F9C93CFB6F8948091DC
S1132CB082048330B0F4E0916302E80FE33008F05B
S1132CC0E350FF27EE0FFF1FEC5AFD4F00811181E7
S1132CD0F182E0828F5F8093820486E00E94810209
S1132CE078018C2D99278FBFF0926102E0926002E7
S1132CF0C3C0892F8150833008F09CC0815082303A
S1132D00E0F4309120093130C1F420E08091EF03E8
S1132D10882309F421E0222381F02F9883E0809313
S1132D203A063093EF0380918400909185006BE222
S1132D3073E00E946D0582E068C0933009F042C0E0
S1132D4080912009833009F097C00E94EB0F8823FB
S1132D50C9F128988FE88EBD0DB407FEFDCF8EB55E
S1132D601EBC0DB407FEFDCF8EB5289A809181005C
S1132D7080648093810080E286BB80916F008062D2
S1132D8080936F009091AA02289888EC8EBD0DB4B0
S1132D9007FEFDCF8EB590669EBD0DB407FEFDCF38
S1132DA08EB5289A289882EC8EBD0DB407FEFDCF0F
S1132DB08EB586E08EBD0DB407FEFDCF8EB5289A84
S1132DC084E023C0809151028150823000F58091CB
S1132DD020098530E1F40E94EB0F8823C1F0289884
S1132DE082EC8EBD0DB407FEFDCF8EB583E08EBDA3
S1132DF00DB407FEFDCF8EB5289A80916F008F7DAC
S1132E0080936F001092C00883E080932009909112
S1132E105102913041F4809120098330B1F52F9A09
S1132E209093200925C0923039F580912009833090
S1132E3061F51EC0973001F50E94EB0F8823E1F085
S1132E409091AA02289888EC8EBD0DB407FEFDCFA0
S1132E508EB590669EBD0DB407FEFDCF8EB5289A43
S1132E6080912009853021F484E08093200904C0F6
S1132E7088E08093510204C080915102883029F483
S1132E801092510284E00E948102809151028823B1
S1132E9031F5809120098530F9F48091C0088823A8
S1132EA0D9F4809149038823B9F4809124098823B3
S1132EB099F490E08091EF03882309F491E0992339
S1132EC059F080915002813039F485E00E948102EA
S1132ED080915102882319F480E00E944C0F809164
S1132EE0EF03823009F098C01092EF03C0903A06C5
S1132EF0F2E0CF1609F46CC023E0C21609F470C0E6
S1132F0031E0C31609F088C020910703309108030B
S1132F10809184009091850040912409403859F4AF
S1132F201092240980915002813009F075C085E027
S1132F300E94810271C08901081B190B47FF03C05D
S1132F4010161106ECF0C0914703D091480380910C
S1132F5049038823A9F4CE010E94171099278823D6
S1132F6051F488A98E7F88ABC0924903D093320470
S1132F70C093310429C09927F82E882329F102C06F
S1132F8065E0F62E20912409822F99278F770197E7
S1132F9059F4207822602093240980E198E00E946B
S1132FA0C4050E94200F38C027FF0AC0101611065E
S1132FB03CF480E880932409C8010E94200F02C0D9
S1132FC0109224098F2D09C083E08093240924C022
S1132FD0109249031092240980E00E948D111CC0B4
S1132FE080912009823019F4C092200913C0809185
S1132FF05102863079F410925102289881E88EBDEE
S11330000DB407FEFDCF8EB51EBC0DB407FEFDCF7B
S11330108EB5289A0E9442188FB7F894282F332728
S11330208091A702813061F081E08093A7022FBFD5
S113303031CB289A85E0809320091092510225CF44
S11330401092A7022FBFDF91CF911F910F91FF9094
S1133050EF90DF90CF90BF90AF9008958FB7F89422
S1133060282F33278091A70281508093A7028038AC
S113307011F02FBF089581E08093A7022FBF0E9413
S1133080401308958FB7F894282F33278091A7020F
S1133090882329F080688093A7022FBF089581E0D8
S11330A08093A7022FBF0E944013089578941F9223
S11330B00F920FB60F9211242F933F934F935F9368
S11330C06F937F938F939F93AF93BF93EF93FF93EC
S11330D08091840090918500209186003091870032
S11330E08FB7F89499273093EE032093ED0321E0F2
S11330F02093C0088FBF0E944218FF91EF91BF91A7
S1133100AF919F918F917F916F915F914F913F917B
S11331102F910F900FBE0F901F90189578941F92C7
S11331200F920FB60F9211242F933F934F935F93F7
S11331306F937F938F939F93AF93BF93EF93FF937B
S113314080916F008D7F80936F0078949FB7F8947F
S11331508091EF03813019F482E08093EF03892F8B
S113316099278FBF0E944218FF91EF91BF91AF91B1
S11331709F918F917F916F915F914F913F912F918B
S11331800F900FBE0F901F9018951F938FB7F89450
S113319099272091A7022F5F2093A7028FBF8091C8
S11331A05002882311F015E023C080915102882336
S11331B0E1F480912009813049F490E08091EF039B
S11331C0882309F491E0992381F005C0853019F42E
S11331D089E090E00CC083E0809351020E94421881
S11331E084E08093500210E003C085E090E0182F43
S11331F00E942E18812F99271F91089568E00E943C
S1133200F002FC0184819927982F88272581332790
S1133210822B932B08951F93CF93DF93162FC0E037
S1133220D0E068E00E94F002FC01808181238117D4
S113323011F4C1E0D0E0CE01DF91CF911F91089548
S113324068E00E94F002FC0187819927089568E0F4
S11332500E94F002FC0181819927089568E00E9490
S1133260F002FC0186819927089568E00E94F0022B
S1133270FC0184819927982F882725813327822B65
S1133280932B0895BF92CF92DF92EF92FF920F9308
S11332901F93CF93DF937C01B0905A02D0906B04BC
S11332A0CC2428C00D2D03701127C7010E943519A5
S11332B0E801CC0FDD1FCC0FDD1FC00FD11FC2579B
S11332C0DD4F288139818217930791F4C7010E9449
S11332D02E199A81981761F4C7010E9427199C81BD
S11332E0981731F4C7010E9420199B81981721F087
S11332F0C394D394CB14B1F68C2D9927DF91CF913D
S11333001F910F91FF90EF90DF90CF90BF900895A1
S1133310AF92BF92CF92DF92EF92FF921F93CF931F
S1133320DF935C01FC018281882359F4B0921D096A
S1133330A0921C098281882309F088C010921A0285
S113334085C0442309F47AC0F501C080D1808091FE
S11333505A02843009F046C0C6010E9442192091E5
S11333605A02622F0E94592D492F9217D8F599239A
S113337059F480916B049927019664E070E00E94EF
S1133380792D80936B0429C080916B04840F912D57
S1133390911D9C0123703070E901CC0FDD1FCC0F0F
S11333A0DD1FC20FD31F019664E070E00E94792DE7
S11333B0FC01EE0FFF1FEE0FFF1FE80FF91FC257AE
S11333C0DD4FE257FD4F85E0019009928150E1F70E
S11333D04F5F80915A024817B8F280915A02815087
S11333E080935A0210915A0280916B04810F912D9F
S11333F0911D837090707C01EE0CFF1CEE0CFF1C81
S1133400E80EF91E8EE892E0E80EF91EC6010E944D
S11334103519F70191838083C6010E942E19F701A3
S11334208283C6010E942719F7018483C6010E9482
S11334302019F70183831F5F10935A02F5018081DD
S113344091810E947803C5010E949703DF91CF9177
S11334501F91FF90EF90DF90CF90BF90AF900895B1
S1133460AF92BF92CF92DF92EF92FF920F931F938E
S11334708091160290911702A0911802B09119023E
S1133480B695A7959795879580930003909301032C
S1133490A0930203B09303030E94F801E090000399
S11334A0F09001030091020310910303A801970116
S11334B00E948C2D5B016C01AE0CBF1CC01ED11E82
S11334C0A0920003B0920103C0920203D0920303BE
S11334D01092BA0880912B058D7F80932B050E9452
S11334E0C702AB01BC0111E0E12E9601850182E027
S11334F00E94A8021F910F91FF90EF90DF90CF9050
S1133500BF90AF900895AF92BF92CF92DF92EF92A7
S11335100F931F935B016C010E94C702AB01BC01B6
S113352081E0E82E9601850184E00E94A8021F91A3
S11335300F91EF90DF90CF90BF90AF900895CF920E
S1133540DF92EF92FF920F931F936C017B010E9415
S1133550F801DC01CB01B6010E94652DE80EF91ECD
S113356000271127C801B7010E94831A1F910F91E8
S1133570FF90EF90DF90CF9008950F931F93CF9318
S1133580DF93EC01E0914702FF27EE0FFF1FE056A7
S1133590F74F00811181662329F06CE170E08CE122
S11335A090E02FC08091460283FF3DC088A980FD32
S11335B03AC08F819927982F88272E813327822B11
S11335C0932B0E94AC01982F8F3F71F08EE0989F4F
S11335D0F0011124ED57FB4F85858F5F858785307A
S11335E018F0CF010E9439038AE10E948102F80198
S11335F0838181508383882339F067E070E087E01A
S113360090E00E949F1A3FC00E945403809146029A
S11336108F7E8093460267E070E087E090E00E942E
S11336209F1A40E02CC00E945403809146028F7E72
S11336308093460267E070E087E090E00E949F1A62
S11336408F819927982F88272E813327822B932BBC
S11336500E94AC01982F8F3F89F08EE0989FF00173
S11336601124ED57FB4F84858F5F848785858F5F99
S11336708587853018F0CF010E94390341E0BE01EF
S1133680C8010E948819DF91CF911F910F9108956D
S1133690AF92BF92CF92DF92EF92FF920F931F935C
S11336A0CF93DF93D82E5B01C42EE82FFF27EE0FB4
S11336B0FF1FEA58FB4F1182108280911402992750
S11336C0019662E070E00E94792D682F80931402C5
S11336D000E0462F5527FA01EE0FFF1FEA58FB4F73
S11336E0C081D181209799F0E62FE695E695E6957D
S11336F0FF27EA5EF64F808199279A012770307080
S113370002C0959587952A95E2F780FF0DC0CA01FE
S1133710019662E070E00E94792D682F0F5F0230FD
S1133720C1F6009314021FC0609314026230D8F4EF
S1133730E88083EFE80EFF240F811127102F002764
S11337408E819927082B192BCE010E94FE02FC01C1
S11337502E2DAE01B80180810E94DD11882319F05D
S113376089E10E948102DD2021F081E0D81689F4EC
S113377005C06C2DC5010E94BD1A0BC08AE0A816B5
S113378083E0B80631F480914E02882311F0109240
S11337904E02DF91CF911F910F91FF90EF90DF9038
S11337A0CF90BF90AF9008951F93CF93DF93182FBE
S11337B0C0916402D0916502109265021092640275
S11337C0809119058D7F809319058091050390914F
S11337D0060399A788A78A858F33A9F480E00E94FD
S11337E0A20F80911402823070F4E82FFF27EE0FAD
S11337F0FF1FEA58FB4F608171816C177D0719F434
S1133800412F0E94481BDF91CF911F9108952F9261
S11338103F924F925F926F927F928F929F92AF925C
S1133820BF92CF92DF92EF92FF920F931F93CF93A9
S1133830DF93CDB7DEB722970FB6F894DEBF0FBE85
S1133840CDBF8FB7F894282F332780918204882323
S113385009F421C3E0916302FF27EE0FFF1FEC5A26
S1133860FD4FC080D1802FBFF60182858F3309F0D0
S1133870EFC2C6010E94FE02FC017081D6016D9167
S11338803D01F601878126819927582F4427332744
S1133890422B532B8FB7F894992720910202309131
S11338A003028FBF4217530721F04F5F5F4F09F0A8
S11338B0EFC2062F0D50703721F0713709F0CCC2DA
S11338C080C1F601878126819927982F882733277D
S11338D0822B932B8F5F9F4F09F091C062E0C6014A
S11338E00E94F0027C01F601818520859927B82E7B
S11338F0AA243327A22AB32AD7010C910E947B075A
S1133900C5010E94AC018F3F21F0F7016181772747
S11339100CC00E943308182F8F3F51F0B5010E944C
S11339204508F70161817727812F0E947C071CC01D
S113393087E30E945A08182F8F3F09F45EC0992725
S1133940880F991FFC0153E0EE0FFF1F5A95E1F712
S1133950E81BF90BED57FB4F808191810E94CE1239
S1133960B501812F0E9445084FE0942E902209F45E
S113397044C0C6010E94A308182F682FC6010E94E4
S1133980F002810F911D8C0183E0989EC0011124E7
S1133990081B190B8FB7F894992740900202509096
S11339A003028FBFFF2483E0F89EF0011124E00F8F
S11339B0F11F808121819927982F88273327822B13
S11339C0932B84159505B1F4E280C5010E94AC01E6
S11339D08F3F81F09927880F991FFC01B3E0EE0F08
S11339E0FF1FBA95E1F7E81BF90BED57FB4FE18692
S11339F086E08783F394F914B1F60E947B07C6012D
S1133A000E942E0F853009F027C2F301F0849780BD
S1133A1065E0C6010E94F7028C0160E4C6010E94C1
S1133A20A808882E58010894A11CB11CF8018181B2
S1133A3015010894211C311CF50121819927982F27
S1133A4088273327822B932B8F5F9F4F09F4A3C0C2
S1133A508F2D9927F82EEE24892D9927E82AF92A03
S1133A60E3E04E2E512C400E511EF801838174E088
S1133A70672E712C600E711E24819927982F882738
S1133A803327822B932B892B49F5C7010E94AC0164
S1133A908F3F09F50E9433088F3F11F0B70119C019
S1133AA080E00E945A08182F8F3FA9F09927880FA9
S1133AB0991FFC0143E0EE0FFF1F4A95E1F7E81B55
S1133AC0F90BED57FB4F808191810E94CE12B70113
S1133AD0812F0E944508C7010E94DE01D2019C90FB
S1133AE0F3017080D501BC90F101A080C7010E9450
S1133AF0C4018C01C7010E948308E82F8A3009F4AD
S1133B0046C0892D9927782F6627872D9927682BFA
S1133B10792B8B2D9927582F44278A2D9927482BA9
S1133B20592B80916702E817F1F40233110578F5F7
S1133B302FB7F8943327FF27B3E0EE0FFF1FBA9592
S1133B40E1F7E155FD4FF182E082538342837583AF
S1133B50648381E086831782809167028F5F8093FC
S1133B6067022FBF14C08FB7F8949927FF27A3E0EB
S1133B70EE0FFF1FAA95E1F7E155FD4FF182E082B8
S1133B80538342837583648321E026838FBF682D2A
S1133B90C7010E94101360E8C6010E94A808882388
S1133BA009F45AC180E890E0A0E0B0E080931602E6
S1133BB090931702A0931802B09319020E94301A2E
S1133BC04BC1C6010E942019982EC6010E942719D4
S1133BD0182F1F5F68E0C6010E94F0023C01FC013F
S1133BE011830D3108F038C1C6010E94421920E04A
S1133BF090915A02891708F421E0222309F02CC17C
S1133C0020914902822F9927A82E882309F43EC0C7
S1133C10B0904702B20E37C0FCE0FB1510F0EB2D5C
S1133C2002C0EB2DED50FF27EE0FFF1FE056F74FBC
S1133C300190F081E02DE080F180C7010E943519E8
S1133C408C01C6010E94351908171907E1F4C70150
S1133C500E942E19182FC6010E942E19181799F4C4
S1133C60C7010E942719182FC6010E942719181787
S1133C7051F4C7010E942019182FC6010E9420196F
S1133C80181709F4E9C0BA94AA9431F680915B023A
S1133C908823A9F0C6010E94E1032EEE921609F0D2
S1133CA0DBC08850082F1127602FC6010E94E6034D
S1133CB0402FBC01C6010E9401046C01CDC080E00C
S1133CC020916A04222309F481E0882309F0C4C006
S1133CD090913604992309F481E0882309F0BCC04B
S1133CE0992309F4B9C080911709E82FFF27EE0F33
S1133CF0FF1FE55DF64F0081118111821082915002
S1133D00909336048F5F809317098C3011F41092CE
S1133D1017090115110509F49FC0222309F49CC059
S1133D2080915103E82FFF27EE0FFF1FE55EF94F47
S1133D30E080F18011821082215020936A048F5F09
S1133D40809351038C3011F410925103E114F10467
S1133D5009F482C083E3D7011D928A95E9F7E8E26A
S1133D60F0E0CE0EDF1E8BE0D6011D928A95E9F7B6
S1133D70E8EDFFEFCE0EDF1ED801CD92DC928FEF7F
S1133D80F80182838EE18383C8010E94E3068823BD
S1133D9089F5CE0101960E94B603882311F5F3013B
S1133DA0828123819927982F88273327822B932B6D
S1133DB029813A8128173907A0F080E890E0A0E033
S1133DC0B0E08093160290931702A0931802B09368
S1133DD019020E94301A6CE170E08CE190E00E94BC
S1133DE09F1A80913D0581FD03C087E10E948102F5
S1133DF0670132C0C7010E947803C8010E9497037B
S1133E002BC0F6011185008560E8C6010E940B19DC
S1133E10882371F080E890E0A0E0B0E0809316027F
S1133E2090931702A0931802B09319020E94301ABB
S1133E3060E4C6010E940B19682F812F9927982FDF
S1133E408827202F3327822B932B0E94101304C022
S1133E508FB7F89499278FBF9FB7F8948091630226
S1133E60E82FFF27EE0FFF1FEC5AFD4FD182C082CF
S1133E708F5F80936302833010F01092630280910D
S1133E808204815080938204892F99278FBFD9CCD3
S1133E90713711F7B6CF2FBF22960FB6F894DEBF55
S1133EA00FBECDBFDF91CF911F910F91FF90EF9087
S1133EB0DF90CF90BF90AF909F908F907F906F9046
S1133EC05F904F903F902F900895AF92BF92CF9202
S1133ED0DF92EF92FF920F931F93CF93DF935B01D7
S1133EE06C01C0E0D0E0E1E1F5E07C2F608561FF8A
S1133EF019C12081318142815381E480F58006819A
S1133F001781D601C501821B930BA40BB50B8E152B
S1133F109F05A007B10708F405C160FF03C06D7FCA
S1133F20608708C02E0D3F1D401F511F2083318321
S1133F3042835383723009F457C0733030F47723CB
S1133F4071F0713009F0F4C013C0743009F4B9C0D1
S1133F50743008F4A8C0753009F0EAC0B9C0809183
S1133F60640290916502892B09F4E2C081E0A6C045
S1133F709FB7F89420912D02222319F421E030E018
S1133F800FC080910B02813019F020E030E008C0AE
S1133F9040E050E02150223010F441E050E09A011A
S1133FA0892F99278FBF222309F4C2C08FB7F894B1
S1133FB0082F1127902F80910B02813099F4809162
S1133FC02D02813021F48AE00E94810209C08230EE
S1133FD049F480913B0680930B0283E080932D0289
S1133FE00FBFA6C09FBFA4C080914C02882309F4D0
S1133FF09FC080914D02882309F49AC08091BA0829
S1134000882349F58AE10E9481028BE10E948102A2
S1134010A0901602B0901702C0901802D090190216
S11340208091000390910103A0910203B0910303D6
S1134030A81AB90ACA0ADB0A81E08093BA080E9466
S1134040C702AB01BC0101E0E02E9601850182E0CC
S11340500E94A8026DC08091160290911702A0914F
S11340601802B0911902880F991FAA1FBB1F8093D1
S1134070160290931702A0931802B093190281506C
S1134080904DA740B04060F080E090EDA7E0B0E034
S11340908093160290931702A0931802B09319020A
S11340A00E94301A45C080914C02882309F440C014
S11340B080914D02882309F43BC08AE10E94810269
S11340C037C0809146028F7E8093460287E1F6CF07
S11340D02FB7F894332782B191E0892782B92FBF93
S11340E08FB7F894C82FDD2780912D02882371F4AF
S11340F090932D0210923B06CFBF80912E0288230D
S113410011F48BE0DBCF90932F0212C080E00E9469
S1134110CF06882329F480911005816080931005CF
S1134120CFBF06C021963996C630D10509F0DDCE41
S113413083E00E948102DF91CF911F910F91FF9044
S1134140EF90DF90CF90BF90AF9008958F929F92A1
S1134150AF92BF92CF92DF92EF92FF920F931F9391
S1134160CF93DF93CDB7DEB722970FB6F894DEBFB7
S11341700FBECDBFE82FFF27EC31F10510F00C94F2
S11341803729EA59FF4FEE0FFF1F0590F491E02DF8
S1134190099480911609882311F40C94372910E0AE
S11341A001E049C62FB7F89433278091AB0280937E
S11341B0070282E080932A022FBF8091070288239E
S11341C011F00C9437298091AC029091AD020E94B9
S11341D0AE11E82EFF24EE2011F40C94372980E070
S11341E00E94A20F0091AC021091AD02C8010E947E
S11341F0FE0280911402823010F00C943729E82FCB
S1134200FF27EE0FFF1FEA58FB4F60817181601793
S1134210710711F00C9437294E2D48C6E0916402C1
S1134220F091650280A591A5892B21F061E0CF0171
S11342300E94000380916402909165020E9497118C
S1134240882311F40C943729A0C18091A4028823F7
S113425061F52091D6083091D7084091D808509143
S1134260D908EFB7F894FF2760915C0270915D0262
S113427080915E0290915F02E0901809F090190914
S113428000911A0910911B096E0D7F1D801F911F4B
S1134290EFBF2093D6083093D7084093D8085093A3
S11342A0D9081092A4020E946B090E94C70244C05C
S11342B00E94C7025B016C018FB7F8949927109292
S11342C041038FBFBFEFEB2EBFEFFB2EBFEF0B2FD2
S11342D0BFE71B2F60E0E1E1F5E0808581FF1CC0B2
S11342E080819181A281B381A6019501281B390B9C
S11342F04A0B5B0BDA01C901248135814681578160
S1134300281B390B4A0B5B0B2E153F054007510741
S11343101CF479018A0161E0399635E0E734F3074A
S1134320E1F6662311F40C9437291E141F041006B9
S1134330110634F0C601B5010E94651F0C9437299B
S1134340E092D608F092D7080093D8081093D908C1
S113435081E08093A402A8019701C601B5010E94DF
S11343606B090C94372980915002109250028430CA
S113437009F07CC0A1E0DA2ED0924C0280914D026B
S11343808823C1F00E94F8017B018C014FEF5FE1AB
S1134390E422F5220E94C702AB01BC0180E090E157
S11343A0E80EF91E870122273327F1E0EF2E82E081
S11343B00E94A8028091460284608093460290E0A5
S11343C080914902882309F491E0992319F487E143
S11343D00E9481028091460282608093460280910D
S11343E04D028823B9F4D0924D0280E890E0A0E019
S11343F0B0E08093160290931702A0931802B09332
S113440019020E94301A40E050E260E070E083E05C
S11344100E94C10880910002909101020197F1F479
S11344204091C1085091C2082FB7F8943327D09215
S11344305B0280913306909134069093C208809376
S1134440C1081092C4081092C3082FBF4F5F5F4F7A
S113445009F00DC787E10E94810209C744EF51E0CA
S113446060E070E085E00E94C10801C7853031F446
S113447010924C02809146028B7FCCC4863009F4A2
S1134480F6C680935002F3C68FB7F894992710911B
S11344908C028FBF80915002823011F4112339F0C5
S11344A0809133048F5F80933304863020F083E05F
S11344B0809350023CC08FB7F89499272091A702AB
S11344C02F5F2093A7028FBF209117063091180603
S11344D0809124098823D1F490E08091EF0388230C
S11344E009F491E0992391F0309348032093470312
S11344F081E08093240986EB93E20E94C4050E9424
S1134500200F82E08093500210E00AC080913304AF
S1134510853011F483E001C081E08093500215E0FE
S11345200E942E1880915002833009F0A0C6109288
S11345305002E0911706F09118062091050330917E
S113454006032F5F3F4F309306032093050380A992
S113455080FF02C080E01CC0E0916402F09165021B
S113456080A591A52817390790F4CF010E94BD08B2
S11345708C01892B51F00E94C702AB01BC01222798
S11345803327E1E0EE2E80E01FC281E064CF812F6B
S11345900E94D41B6CC60E94071C69C60E94F801C5
S11345A02FB7F89433277093A9026093A8022FBF02
S11345B05EC68FB7F89499271092AE051092AD0598
S11345C010921F0910921E09109253021092520267
S11345D0109275041092740424C12FB7F8943327F1
S11345E08091F50380930A0282E080932B022FBF0F
S11345F080910A02882309F03AC6209A289A809169
S11346002009882309F075C08EEF91E00197019687
S11346100197E1F716982F9886E090E001970196AC
S11346200197E1F7169A289883EC8EBD0DB407FE26
S1134630FDCF8EB51EBC0DB407FEFDCF8EB5289AF6
S1134640289882EC8EBD0DB407FEFDCF8EB588E0B0
S11346508EBD0DB407FEFDCF8EB5289A8EEF91E086
S1134660019701960197E1F728988EEC8EBD0DB461
S113467007FEFDCF8EB58DE48EBD0DB407FEFDCFD4
S11346808EB5289A289889EC8EBD0DB407FEFDCF0F
S11346908EB587EC8EBD0DB407FEFDCF8EB5289A7E
S11346A0289885EC8EBD0DB407FEFDCF8EB580E84D
S11346B08EBD0DB407FEFDCF8EB5289A1092350439
S11346C08BE08093AA02289888EC8EBD0DB407FE77
S11346D0FDCF8EB58BE68EBD0DB407FEFDCF8EB536
S11346E0289A2F9A81E08093200980E00E944C0F41
S11346F0BEC50E944218BBC52FB7F89433278091DA
S11347003B0680930B0283E080932D022FBF109110
S11347100B028FB7F894282F3327922F80910C0225
S1134720882359F480913302833039F42FBF809168
S11347303102882309F09BC502C09FBF98C582E05F
S113474080933404109215090E94020781E080933B
S113475031021093A5028BC50E94700688C5809112
S11347603002813009F083C575986D988DE073CE61
S11347708FB7F894C82E80913302833009F041C07A
S113478080910C028823E9F580916802882309F05E
S113479056C54AC5ED2DE695E695E695FF274D2DC0
S11347A05527E859FD4F9A012770307081E090E059
S11347B002C0880F991F2A95E2F78095208128234B
S11347C020830093320212C00F5F1F4F0130110586
S11347D011F400E010E0D02E802F0E945C068823A4
S11347E0C9F60E151F0581F74FEF50E040934603BD
S11347F08FEF80930C0281E0809333028FE00E945C
S11348008102CFBE1092300280912F02813011F4C8
S11348100E9470068FB7F894992710922F02109275
S11348202E028FBF24C510923102A090A202B09034
S1134830A30280904E039090A5028FB7F894C82EDF
S113484080912D02833009F041C080910B028915BB
S1134850E9F580911005882309F000C5F6C4ED2D13
S1134860E695E695E695FF274D2D5527E05FFA4F2F
S11348709A012770307081E090E002C0880F991F80
S11348802A95E2F7809520812823208300932C0227
S113489012C00F5F1F4F0130110511F400E010E04A
S11348A0D02E802F0E94CF068823C9F60E151F052F
S11348B081F74FEF50E040933B068FEF80930B025C
S11348C081E080932D028AE00E948102CFBE99206C
S11348D009F0CDC4882009F0CAC480911A02882343
S11348E009F0C5C40AED18E064E0C8010E94E603BB
S11348F0FC0180910002909101028383892F992702
S11349008283A1828B2D992780838091460281FF27
S1134910AEC46CE0C8010E94BC0468E0C8010E94F7
S1134920F002FC0180910002909101028583892F9D
S113493099278483809162028F5F80936202815001
S113494086838EEE87831182E0911C09F0911D0904
S1134950309709F48CC41183008312828EE183831F
S1134960CF010E94E306882309F081C480914602A6
S113497082FF05C084FD03C087E10E94810210927A
S11349801D0910921C0981E080931A0270C42FB78C
S1134990F89433278091460380930C0283E080933C
S11349A033022FBF80910C02882309F060C46D9AF2
S11349B0759A0E94C702AB01BC0121E0E22E0AE015
S11349C010E020E030E081E00E94A80250C4109280
S11349D034044DC48FB7F89410922309209116061D
S11349E040E0283009F441E030E0293009F431E0B6
S11349F0442311F4332351F010921606E0910F056D
S1134A00FF27EE0FFF1FE650FC4F108299278FBF40
S1134A10442311F4332319F1809114098F5F809397
S1134A2014098091F4038334A1F49FB7F89420917E
S1134A306D0480916C04821741F0822F8F5F809304
S1134A406D04863010F010926D04892F99278FBF62
S1134A500AC0A0E0442309F4A1E071E006C02223C7
S1134A6011F010E069C0A0E070E08FB7F8949927C6
S1134A70209134028FBF222341F08FB7F8949927F5
S1134A802AE0209316068FBF43C08FB7F894992766
S1134A906091FA034091FC038FBF8FB7F894282FDD
S1134AA0332750E090916C0480916D04981709F4B9
S1134AB051E02FBF552349F5662339F55FB7F894C4
S1134AC082E08093FA038FB7F894282F332740E0CD
S1134AD090916C0480916D04981709F441E02FBF04
S1134AE0442311F080E006C0E0916D04FF27E459EF
S1134AF0FB4F82818093FB03852F99278FBF83E42B
S1134B008093F40310920F050BC04150423010F013
S1134B1010E007C085E48093F40381E080930F05DF
S1134B2011E0772349F08FB7F8949927A0933D02B9
S1134B308FBF85E10E948102809116068A3019F4A4
S1134B400E94E70594C3112309F491C32FB7F89485
S1134B50332710924409109243091092F00381E024
S1134B60809316062FBF0E944C06882309F47FC346
S1134B708FB7F894992729E0209316068FBF0E94D7
S1134B80ED0375C38091C1008F7B8093C100809138
S1134B90C1008F778093C1001092E30510923F0308
S1134BA08091C10088608093C1008091C1008061C0
S1134BB08093C1008091C10080688093C1000E94ED
S1134BC0C51855C384E147CC8091C100877F809389
S1134BD0C1008091C1008F7E8093C10048C31092B0
S1134BE03A02109239028FB7F89499278FBFE09157
S1134BF03702F091380280913F02882309F037C3CD
S1134C008385893809F033C3109AEA5DF84009F0C6
S1134C102EC38FB7F894992722B132E0232722B903
S1134C208FBF10921B0223C38FB7F894992720914A
S1134C30420230914302409166028FBF8FB7F894CD
S1134C40E42FFF27EE0FFF1FE25FFD4F3183208328
S1134C5020913502442311F02B7F01C02D7F209336
S1134C603502109240029927DCCD8091460284FDE2
S1134C70FEC290E080914902882309F491E09923CF
S1134C8009F0F5C280915B02882359F420E08091F9
S1134C90C1089091C2088F5F9F4F09F021E0222341
S1134CA031F0CE0101960E94B603882339F060E109
S1134CB077E280E090E00E94831AD9C2E091470233
S1134CC0FF27EE0FFF1FE056F74FC080D180F6019B
S1134CD000811181C8010E94E103982EA090C108AF
S1134CE0B090C208C8010E94421920E090915A0273
S1134CF0891708F421E0222359F00E945403F60195
S1134D00808191810E947803C6010E949703A2CBFF
S1134D1080915B02F601E080F180882389F168E0EC
S1134D20C7010E94F002FC011781A091F603B09123
S1134D30F703F70183E301900D928150E1F7E090CE
S1134D40F603F090F703C7010E94E1031E3E69F4E5
S1134D508850082F1127602FC7010E94E603402FB7
S1134D60BC01C7010E9401047C01F092F703E092A8
S1134D70F60360E0F601808191810E94BD1A77C23A
S1134D8009811A8168E0C7010E94F002FC010383D3
S1134D90012F1127028368E0F601808191810E942E
S1134DA0F002FC0180818F73808361E0F6018081D1
S1134DB091810E940003809146028860809346029C
S1134DC080FF0FC068E0F601808191810E94F002AB
S1134DD0FC01808180648083809146028E7F809371
S1134DE04602F60100811181F801A6828B2D9927D4
S1134DF08783C8010E94FE02FC0181E78083492D5C
S1134E00B80180E00E947D129927882331F48091B3
S1134E1046028061809346022AC2823009F027C28A
S1134E206CE1F601808191810E94BC0413CB81E086
S1134E3080934E021CC220911609802F822329F1EF
S1134E40E12FFF27EE0FFF1FEA58FB4F40815181EE
S1134E5011821082802F8095282320931609112314
S1134E6019F0113091F405C063E0CA010E94BD1A23
S1134E70FBC14A50534009F0F7C180914E02882388
S1134E8009F4F2C110924E02EFC11F5F183008F00E
S1134E90EEC1000FD0CF80911402E82FFF27EE0F50
S1134EA0FF1FEA58FB4F6081718141E00E94481B5B
S1134EB0DEC180915B02882309F0D9C1AA24BB24F6
S1134EC05FEFE52EF52E4FEF842E942ECC24DD24B7
S1134ED049C0022F112733E0000F111F3A95E1F763
S1134EE001551D4FF80122813381FFEF2F3F3F070A
S1134EF0B1F180913306909134062817390779F17E
S1134F00F801808191810E94C401BC01F8014481AF
S1134F105581480F591F208131818091C10890919A
S1134F20C2082817390779F48FB7F8949927248190
S1134F3035813093C4082093C30827812093C60881
S1134F408FBF4A010CC0F8018781882341F4623382
S1134F50710528F44E155F0510F458017A01089480
S1134F60C11CD11C2C2D80916702C81608F4B1CF46
S1134F70FFEFEF16FFEFFF0609F47DC02FEF821657
S1134F802FEF920691F08091C608882341F080911A
S1134F90C3089091C4080A96E816F90630F0C701D0
S1134FA00F968815990508F066C0809110099091B4
S1134FB01109A0911209B09113090196A11DB11D07
S1134FC08093100990931109A0931209B0931309C7
S1134FD08091C1089091C2080E94AC018F3F81F07A
S1134FE09927880F991FFC0103E0EE0FFF1F0A9514
S1134FF0E1F7E81BF90BED57FB4F8581877F85832C
S1135000F501808191810E94DE01F5018081918109
S11350100E94AC018F3F41F0EEE08E9FF00111241D
S1135020ED57FB4F158614862FB7F8943327F501F7
S1135030808191819093C2088093C1088481958175
S11350409093C4088093C30887818093C6082FBFB8
S1135050C4018E199F09459770F080E890E0A0E0A4
S1135060B0E08093160290931702A0931802B093B5
S113507019020E94301A80914F02882369F4FFEFCD
S11350808F16FFEF9F0641F42FEFE2162FEFF20683
S113509019F087E10E94810210924F02E8C08091CA
S11350A04E02882309F0E3C0E091F103F091F2038A
S11350B010828091C1089091C208E091F103F091AF
S11350C0F2038283892F9927818380915B0288234D
S11350D029F08091C3089091C40820C08091C10830
S11350E09091C2080091C3081091C4083FEF8F3F0C
S11350F0930781F4E091F103F091F2030483812F8B
S113510099278383E091F103F091F2038081806811
S113511080830CC00E94C401800F911FE091F103B1
S1135120F091F2038483892F9927838362E08AE0D4
S113513093E00E94F0026C0168E08AE093E00E9430
S1135140F702E5E0AE2EB12CA80EB91EFF2440E014
S113515000E010E073E0E72E80914B02992701965E
S1135160800F911F6AE070E00E94792D9C019927BD
S1135170880F991FDC0153E0AA0FBB1F5A95E1F772
S1135180A81BB90BAD57BB4FFD018581992780FF43
S113519015C081FF13C08D919C911197FE9CA001B5
S11351A011244A0D5B1DFA018183892F992780837D
S11351B0FD018085FA018283F394422F09301105A1
S11351C029F00F5F1F4FF6E0FF1530F640934B02B6
S11351D080914A028F5F80934A028150F601818355
S11351E08F2D8F7080838FEF809310038093110332
S11351F08AE093E00E94FE02FC0180E7808383E062
S1135200F89EC0011124895F482F55276AE073E096
S113521081E00E947D129927882309F408CE843006
S113522031F510924C0223C081E080930C0210925D
S1135230330280917A008F7780937A00E2CA80915A
S11352403202E82EFF248701BFCA81E080930B025B
S113525010922D0280932E028CE036CB80912C028A
S1135260E82EFF24870115CB000F1F5FE4CD2296A3
S11352700FB6F894DEBF0FBECDBFDF91CF911F9163
S11352800F91FF90EF90DF90CF90BF90AF909F90E1
S11352908F90089580910D098F3FB1F0282F332707
S11352A0F901E259FD4F808180930D098F3F11F47C
S11352B080932A098FEF80832F3F31F0822F0E9441
S11352C0A62081E090E0089580E090E00895FF92A8
S11352D00F931F93FFB6F8944CE150E06FEF70E02A
S11352E08EE692E00E94042E8FEF80930D09809346
S11352F02A0956985E9854985C9880916F008F7D27
S113530080936F00209A289A279A2F980E9A169ABB
S11353108EEF93E0909361028093600210924F03AA
S11353208AE58093FF0281E08093810080E280938C
S1135330B60083E08093B100809184009091850051
S11353404AE720918400309185002817390708F432
S11353504150442311F0C901F4CF9091B2008091DF
S1135360B2008917E1F32091840030918500909177
S1135370B2008091B2008917E1F38091840090918A
S11353808500821B930B409665E0969587956A95F8
S1135390E1F790930F0980930E091092B100809168
S11353A0B10080938100809181008093B6001092B7
S11353B0B20010928500109284008FEF87BB87B3F0
S11353C086BB8091B6008571E1F70A9A099A089A1A
S11353D0129A119A109A18B88FEF87B90C981498EA
S11353E010929500109294008091710081608093D6
S11353F0710080919100887F826080939100109267
S11354007A00109285001092840080916F00816070
S113541080936F0080918100887F826080938100F7
S113542081E085BF0E944A298823E1F710926B042A
S113543010925A02EBE2F9E084EE95E081939193A5
S1135440049629E0E334F207C9F78CE0809336042C
S113545010921709EBE1F6E08CE396E081939193C7
S1135460C39626E0E333F207C9F78CE080936A041D
S11354701092510310924C0210924D021092100996
S113548010921109109212091092130910925B02E2
S11354908FEF9FEF9093C2088093C1081092C408C5
S11354A01092C3081092C5081092C60810926702A1
S11354B08FB7F894992720910202309103028FBF8D
S11354C030933406209333066AE18AE093E00E9425
S11354D0F7029093F2038093F10382E493E09093B4
S11354E01D0980931C098FEA95E09093F70380933C
S11354F0F6038FB7F89499272091020230910302A2
S11355008FBF30938B0220938A0210926202E8E8E4
S1135510F4E010823E9685E0E431F807D1F712E01A
S113552006E060910E0970910F09882799275CE0C5
S1135530660F771F881F991F5A95D1F720E031EE27
S113554040E050E00E948C2D215030402093C40054
S1135550832F99278093C5001093C0000093C20045
S11355601092C1002093CC008093CD001093C8000A
S11355700093CA001092C90084E490E09093C80894
S11355808093C7081092FA031092FC031092160637
S11355901092F0031092F40310921409109244092B
S11355A0109243091092230910920F051092BC081F
S11355B01092BB081092090310921A061092D50893
S11355C01092400310927F0410927E0410926D0496
S11355D010926C0410926802109210058FEF809361
S11355E0F30380E00E94F60420910002309101024E
S11355F02F5F3F4FC901AA27BB2780934A0390938B
S11356004B03A0934C03B0934D0384E593E0909334
S1135610550280935402C396909357028093560286
S11356208AEB93E090935902809358028091B600DC
S113563080628093B6008091B60081FDFCCF82E049
S11356408093B0008091B60080FDFCCF83E080930E
S1135650B1008091B60083FDFCCF86EE8093B30049
S1135660809170008260809370000E94DF088FEF49
S11356709FEF9093CC088093CB089093CE088093AF
S1135680CD089093D0088093CF089093D20880934C
S1135690D1089093D4088093D30880910002829516
S11356A0807F809350038FEF8093AE020E944A293B
S11356B08823E1F78F2D99278FBF789482E10E9488
S11356C081028FB7F894482F552757C080917000F6
S11356D0992783709070892B19F4E5E0F0E014C0E9
S11356E08091B6008A71E1F78091B3009091B20085
S11356F0891B8C3038F08091B200853F18F4E3E0C8
S1135700F0E002C0E2E0F0E080916E00867009F5FE
S113571080916F008E72E9F4809171008E72C9F4E9
S11357200CB407FC16C08091C100807E91F4809176
S1135730C900807E71F48091BC0082FD0AC0809112
S11357407A0087FF03C081E090E005C085E090E027
S113575002C080E090E023B78E1708F4E82FFF27FB
S1135760EC5FFC4FE491207F2160E22BE3BF78944F
S11357708895F89483B78E7F83BF80910D098F3FFE
S113578009F4A4CF282F3327F901E259FD4F808172
S113579080930D098F3F11F480932A098FEF808342
S11357A02F3F09F493CF4FBF822F0E94A62089CFA9
S11357B0ACE2B0E0EEEDFBE20C94CD2D222E332EC4
S11357C0442E552E662E772E882E992EFE01319664
S11357D0A8E01192AA95E9F729823A824B825C8269
S11357E06D827E828F829886FE013996B8E011928E
S11357F0BA95E9F7A986BA86CB86DC86ED86FE865D
S11358000F87188B89819A81AB81BC8189A79AA75C
S1135810ABA7BCA77C018D018FEF9FEFA0E0B0E0A8
S1135820E822F9220A231B2389A59AA5ABA5BCA5C6
S11358301D014424552489859A85AB85BC858DA397
S11358409EA3AFA3B8A75C016D018FEF9FEFA0E00B
S1135850B0E0A822B922CA22DB228DA19EA1AFA169
S1135860B8A53D0188249924C801B701A601950172
S11358700E94AE2D69A37AA38BA39CA3C801B70190
S1135880A40193010E94AE2D7B018C01C201B101E0
S1135890A60195010E94AE2D5B016C01C201B1010C
S11358A0A40193010E94AE2D3B014C01EA0CFB1CA8
S11358B00C1D1D1D89A19AA1ABA1BCA19D0144276A
S11358C055272E0D3F1D401F511F2A153B054C0522
S11358D05D0540F480E090E0A1E0B0E0680E791E40
S11358E08A1E9B1ECA01AA27BB27860D971DA81DC9
S11358F0B91D8D8F9E8FAF8FB8A3A901332722279F
S113590089A19AA1ABA1BCA1A070B070280F391FC6
S11359104A1F5B1F298F3A8F4B8F5C8FA98CBA8CDF
S1135920CB8CDC8CED8CFE8C0F8D18A1FE01719656
S113593098E011929A95E9F7ED8AFE8A0F8B188FF9
S11359402D813E814F8158856DA17EA18FA198A59F
S11359500E94AE2D3B014C012D853E854F85588913
S113596069A57AA58BA59CA50E94AE2D2D893E899B
S11359704F89588D260F371F481F591F260D371D75
S1135980481D591D2D8B3E8B4F8B588F6D887E88FB
S11359908F88988C2A2D3B2D4C2D5D2D662D772DCF
S11359A0882D992DE2E1AC960C94E92DA0E1B0E0AC
S11359B0ECEDFCE20C94CD2D222E332E442E552EEC
S11359C0662E772E882E992E002309F466C088E06F
S11359D0FE01319611928A95E9F729833A834B8324
S11359E05C836D837E838F829887E0E2E01B1E16C2
S11359F0CCF52D813E814F815885602F772767FD37
S1135A007095DA01C901062E04C0B695A79597953D
S1135A1087950A94D2F78D879E87AF87B88B04C089
S1135A20220F331F441F551FEA95D2F789819A81AB
S1135A30AB81BC8104C0B695A795979587956A9567
S1135A40D2F7282B392B4A2B5B2B29873A874B8794
S1135A505C8729843A844B845C846D847E848F843F
S1135A6098881BC01D861E861F86188A2E2F3327F2
S1135A7027FD3095309521953F4F8D819E81AF81D3
S1135A80B88504C0B695A795979587952A95D2F7BA
S1135A9089879A87AB87BC87DCCF222D332D442D91
S1135AA0552D662D772D882D992DE2E160960C9465
S1135AB0E92D991B79E004C0991F961708F0961BED
S1135AC0881F7A95C9F780950895AA1BBB1B51E1DD
S1135AD007C0AA1FBB1FA617B70710F0A61BB70B5A
S1135AE0881F991F5A95A9F780959095BC01CD01FF
S1135AF0089597FB092E07260AD077FD04D0E5DF29
S1135B0006D000201AF4709561957F4F0895F6F73A
S1135B10909581959F4F0895A1E21A2EAA1BBB1B55
S1135B20FD010DC0AA1FBB1FEE1FFF1FA217B30765
S1135B30E407F50720F0A21BB30BE40BF50B661F7B
S1135B40771F881F991F1A9469F76095709580953F
S1135B5090959B01AC01BD01CF010895629FD001D6
S1135B60739FF001829FE00DF11D649FE00DF11D14
S1135B70929FF00D839FF00D749FF00D659FF00DC3
S1135B809927729FB00DE11DF91F639FB00DE11DB0
S1135B90F91FBD01CF01112408952F923F924F9216
S1135BA05F926F927F928F929F92AF92BF92CF92A9
S1135BB0DF92EF92FF920F931F93CF93DF93CDB7B2
S1135BC0DEB7CA1BDB0B0FB6F894DEBF0FBECDBF2A
S1135BD009942A88398848885F846E847D848C84FB
S1135BE09B84AA84B984C884DF80EE80FD800C8104
S1135BF01B81AA81B981CE0FD11D0FB6F894DEBFE7
S1135C000FBECDBFED010895DC0101C06D9341507D
S10B5C105040E0F70895FFCFB6
S1135C180100010022FFFFFFFFFFFF0101FF47050D
S10D5C287A05470502018000000020
S9030000FC
