S01700006275696C642F697269732F6D61696E2E7372656343
S11300000C9469000C9488000C9488000C9488006B
S11300100C9488000C9488000C9488000C9488003C
S11300200C9488000C9488000C9488000C9488002C
S11300300C9488000C948E070C9488000C9472061F
S11300400C9411110C9449110C944A070C94550703
S11300500C9460070C9488000C9488000C9488001D
S11300600C9493060C9488000C9488000C948800DB
S11300700C9488000C9488000C9488000C948800DC
S11300800C9488000C9488000C9488000C948800CC
S11300900C9488000C9488000C9488000C948800BC
S11300A00C9488000C9488000C9488000C948800AC
S11300B00C9488000C9488000C9488000C9488009C
S11300C00C9488000C9488000C94880000020E069E
S11300D00C0411241FBECFEFD1E2DEBFCDBF12E06E
S11300E0A0E0B2E0E2E5F6E400E00BBF02C0079056
S11300F00D92A231B107D9F718E0A2E1B2E001C034
S11301001D92AD35B107E1F70E94F71E0C94282328
S11301100C9400008FB7F894992708958FBF089521
S1130120AC01EFE1F4E080E090E09C01858180FF88
S113013005C0808191818417950741F0C90101961A
S11301403E968A30910589F72FEF30E0C901089572
S11301500E9490008F3F99F09927880F991FFC0106
S113016023E0EE0FFF1F2A95E1F7E81BF90BE15E90
S1130170FB4F858181FF03C08285938508958FEFAE
S113018090E008950E9490008F3F19F481E090E080
S113019008959927880F991FFC0143E0EE0FFF1F74
S11301A04A95E1F7E81BF90BE15EFB4F8581886016
S11301B0858380E090E008952F923F924F925F9262
S11301C06F927F928F929F92AF92BF92CF92DF9263
S11301D0EF92FF920F931F93CF93DF93CDB7DEB7C8
S11301E029970FB6F894DEBF0FBECDBF6FB76983F2
S11301F0F8942090FE023090FF024090000350904B
S11302000103662477248824EEE4AE2E73E8B72E27
S1130210CC24DD24EE24FF2400E010E0222D332D35
S1130220442D552D662D772D882D90E00E94F520C4
S11302302A833B834C835D836E837F83888799877E
S1130240822E932EA42EB52E2401350100E20E94A5
S1130250F321A22EB32EC42ED52EA30192015695BE
S11302604795379527952A0D3B1D4C1D5D1D57FF5E
S113027005C05F772F5F3F4F4F4F5F4F2093FE02C4
S11302803093FF024093000350930103E9818E2FC2
S113029099278FBFCA01B90129960FB6F894DEBF1A
S11302A00FBECDBFDF91CF911F910F91FF90EF90C3
S11302B0DF90CF90BF90AF909F908F907F906F9082
S11302C05F904F903F902F900895282F9FB7F894F8
S11302D0E82FFF27E55CFD4F80818F3F81F4E0919B
S11302E03F08E21771F40BC02093270804C0FF27CE
S11302F0E55CFD4F208320933F0820E007C025E004
S113030005C0809127088F3F91F7EECF892F992759
S11303108FBF822F99270895EF920F931F93AE2DCD
S113032099E0899FF0011124E555FB4F40835183E7
S1130330628373830483158326833783A170808546
S11303408E7F8A2B8260808783E00E9465011F91E3
S11303500F91EF9008957FB7F8946091B2002091C7
S11303603602309137024091380250913902B99BDC
S113037011C08091B3009091B200280F311D411D2E
S1130380511D2F5F3F4F4F4F5F4F290F311D411DAF
S1130390511D04C0260F311D411D511D872F992762
S11303A08FBFCA01B90108956D3118F080E090E063
S11303B008950C9608956E5F0E94D401009709F089
S11303C0029608950B960895CF93DF93FC01DC0108
S11303D011962181662351F0ED0189819927982F87
S11303E0882733272062822B932B09C0ED01898152
S11303F09927982F88273327822B932B8F7D8183EE
S1130400892F99278983DF91CF910895FC01CB012E
S1130410428553859A0163E0220F331F6A95E1F701
S1130420240F351F2B5F3F4F820F931F6AE070E04C
S11304300E948222738762870895FC0164859585F2
S1130440662339F48AE0989FB00111246A50704001
S11304500BC077278AE0989FC00111240E9496223E
S11304606A50704014861586CF010E9406020895D2
S113047080911602E82FFF27EE0FFF1FEC53F84F71
S11304800190F081E02D20911802222351F08F5F1A
S1130490809316028D3011F410921602215020938D
S11304A01802CF010895AC01209112042C3018F0E9
S11304B081E090E0089580910403682F620F712D0C
S11304C0711DFB016C30710508F03C97EE0FFF1FA6
S11304D0E05CFA4F518340832F5F2093120480E045
S11304E090E00895AC012091DE032C3018F081E0F7
S11304F090E0089580912F08682F620F712D711D6F
S1130500FB016C30710508F03C97EE0FFF1FE05CB7
S1130510F74F518340832F5F2093DE0380E090E008
S113052008950F931F93CF93DF93EC01892BE9F088
S11305302091E0073091E1078FEF2F3F3807A9F0B2
S113054080912A02813019F4198218820BC000911B
S1130550E2071091E307C9010E94A800080F191FC0
S11305601983088380E090E002C081E090E0DF918D
S1130570CF911F910F910895FC0180818D5099278F
S11305800895685F0E94D401009709F008960895C1
S11305908FB7F894992722B132E0232722B98FBF6D
S11305A00895FC01635F60830895882319F08CB576
S11305B0806402C08CB58F7B8CBD08950F931F930C
S11305C0982F1FB7F89480911402823099F5809186
S11305D00A02891779F58091080220E030E08F3F04
S11305E011F421E030E0232BF1F49FEF90930A0201
S11305F08F3F19F42FEF30E00DC0282F3327F90176
S1130600ED55FC4F8081809308028F3F11F4909345
S1130610090290832093A40381E08093140289E06B
S11306200E94650105C08FEF80930A0210921402A4
S113063001E001C000E0812F99278FBF1FB7F89414
S113064080911402882311F40E94D502812F9927E6
S11306508FBF90E0013009F491E081E09827892F61
S113066099271F910F910895882319F08CB58068FC
S113067002C08CB58F778CBD08950F931F9380E0D3
S11306800E94D5020FB7F8941127229A2398219A31
S11306908CB580618CBD80E00E9434038DB581608F
S11306A08DBD8CB5877F8CBD8CB58B7F8CBD8CB597
S11306B08E7F8CBD81E00E94D5020FBF1F910F91E8
S11306C008958FB7F89420911A0430911B04409137
S11306D01C0450911D04E0918400F0918500B09BAE
S11306E008C02F5F3F4F4F4F5F4FE0918400F09160
S11306F0850099278FBFC901772766279F01442763
S11307005527622B732B842B952B0895FC0180A90C
S1130710826080AB08958C960895AC01EFB7F8948D
S11307202091840030918500C901841B950B0396A8
S11307308617970720F0B9016D5F7F4F02C0640FE1
S1130740751F6115710511F461E070E0615070402E
S1130750709389006093880082E086BB80916F006B
S1130760826080936F008E2F99278FBF0895FC01BC
S1130770828121819927982F88273327822B932BD5
S113078085FF1FC087749C7C81549848D1F487816D
S113079046812FB7F89433276091020270910302C7
S11307A02FBF20E09927982F88275527842B952B36
S11307B08617970709F021E081E02827822F9927DF
S11307C0089580E090E00895EF92FF920F931F93B5
S11307D07C018FB7F8949927009163021091640209
S11307E00F5E1E4F10936402009363020151114087
S11307F08FBF87E00E946501C801B7010E94822271
S11308008A5D9E4F1F910F91FF90EF900895089578
S11308100F931F93CF93DF93282F3327C901880F9A
S1130820991FFC01A3E0EE0FFF1FAA95E1F7E81B57
S1130830F90BE15EFB4F858182FF03C062838B7FEE
S113084085838281962F981B628383818F5F838344
S113085086E08683992361F08481890F81508483A3
S11308609B3030F0148281E08383178211861086D6
S1130870C901880F991FFC0173E0EE0FFF1F7A95E1
S1130880E1F7E81BF90BE15EFB4F8381833008F449
S113089071C000811181CFE1D4E0888199818017F2
S11308A0910709F061C08D8180FF5EC08E8188232D
S11308B011F081508E838F81882311F081508F83B2
S11308C08E81882351F48F81882339F48D8191E0BE
S11308D089278D831986188642C08D8182608D8315
S11308E09B816C81690F633008F463E077278FEF95
S11308F0989FC00111240E949622888529E0829F36
S1130900C00111240596860F911D6AE070E00E94D3
S1130910962268871B821C824985662301F1442341
S1130920F1F0772781E09EEF0E948222CB019B01A8
S113093063E0220F331F6A95E1F7642F7727880F4E
S1130940991F820F931F0E9482226A5070406F3F4A
S1130950710519F010F06CE370E0772702C06CE3C6
S113096070E0CE010E9406022E9684E0CB3AD807AE
S113097009F093CFDF91CF911F910F91089580E0FB
S113098090E0E4E2F4E09C01808180FF08C0C901AA
S113099001963E968A309105B1F72FEF30E0C901F8
S11309A008959EE0899FF0011124E15EFB4F71835D
S11309B0608312821382148285E0858386E08683B5
S11309C0878310861186138612860895982FAFEFB9
S11309D060E070E040E050E0E4E2F4E08081282F41
S11309E0332720FF0BC021FF09C023FD07C0258149
S11309F036812617370710F0A42FB9014F5F5F4FD8
S1130A003E964A30510551F7892F9927681779077F
S1130A1018F48FEF90E008958A2F99270895AC0178
S1130A20309135028FEF4F3F580711F020E012C08C
S1130A30832F99270895E22FFF2783E0EE0FFF1FEE
S1130A408A95E1F7E659FD4F8081918184179507D6
S1130A5019F02F5F231779F7822F99270895CF93E1
S1130A60DF93EC010E940F05282F8091350228178F
S1130A70D1F0382F31503093350213C0822F99278B
S1130A8043E0880F991F4A95E1F7DC01A659BD4F51
S1130A90FC01EE58FD4F88E001900D928150E1F782
S1130AA02F5F231758F38091E0079091E1078C178B
S1130AB09D07A1F48FEF9FEF9093E1078093E007E8
S1130AC01092E3071092E2071092E4071092E507F0
S1130AD081E080931E028DE00E946501DF91CF9139
S1130AE00895FC0180818D50992708951F93CF9319
S1130AF0DF93162FC0E0D0E06AE10E94DB01FC0125
S1130B0080818123811711F4C1E0D0E0CE01DF910F
S1130B10CF911F910895AC01209118022D3018F047
S1130B2081E090E0089580911702E82FFF27EE0FEF
S1130B30FF1FEC53F84F518340838F5F809317025C
S1130B408D3011F4109217022F5F2093180280E069
S1130B5090E00895FC0182A593A50895AF92BF92F9
S1130B60CF92DF92EF92FF920F931F93F82E5A01C8
S1130B706B010E94AB01AB01BC01EE24960185011F
S1130B808F2D0E948C011F910F91FF90EF90DF90A9
S1130B90CF90BF90AF900895DF92EF92FF920F93A2
S1130BA01F938FB7F894282F3327D22E9091B30038
S1130BB08091B20047B3981711F041FF02C02FBFD4
S1130BC071C08091F6028823E1F10E94AB01E090AC
S1130BD02B02F0902C0200912D0210912E022091F4
S1130BE030083091310840913208509133086E1921
S1130BF07F09800B910B621773078407950720F018
S1130C001092F60271E01EC02E0D3F1D401F511FB1
S1130C108091360290913702A0913802B091390246
S1130C20281B390B4A0B5B0B273E31054105510547
S1130C3040F4822F223010F070E005C070E082E0B2
S1130C4002C070E086EE682F61508091B60083FD8B
S1130C50FCCF8091B200681709F46F5F20913602CF
S1130C60309137024091380250913902DA01C901BA
S1130C700196A11DB11D860F911DA11DB11D8217E5
S1130C809307A407B50710F4622F60958091B6000E
S1130C9083FDFCCF6093B300DFBE772319F082E0BD
S1130CA00E9465011F910F91FF90EF90DF900895CE
S1130CB0AFB7F894BB27E1E0E093F60260932B0210
S1130CC070932C0280932D0290932E02209330086F
S1130CD0309331084093320850933308AFBF0E94D9
S1130CE0CC0508951F920F920FB60F9211248F9383
S1130CF08091B0008093B0008091B60081FDFCCF5C
S1130D008F910F900FBE0F901F9018951F93182F5F
S1130D1081E00E94D5021EBD0DB407FEFDCF8EB545
S1130D2099271F9108951F920F920FB60F921124C5
S1130D308F929F92AF92BF92CF92DF92EF92FF92E7
S1130D400F931F932F933F934F935F936F937F93CF
S1130D508F939F93AF93BF93CF93DF93EF93FF93BF
S1130D602EB5E091D804F091D904309739F08091F0
S1130D70140490911504E80FF91F20838091140442
S1130D80909115040196909315048093140480E0C7
S1130D900E943403C0911404D0911504809121025F
S1130DA090912202C817D90708F046C0009136086E
S1130DB0109137088090D8049090D9040F2EFAE04F
S1130DC0AF2EBB24F02DAC0EBD1E8A159B0508F476
S1130DD05C016401CC0EDD1E7801EC0EFD1E15C015
S1130DE00115110519F0F701808101C080E00E940E
S1130DF086068114910411F0F601808321960894EB
S1130E00C11CD11C0894E11CF11CC5010197C81731
S1130E10D90730F381E00E9434030115110531F044
S1130E200C0F1D1FF80180818EBD01C01EBCD09324
S1130E301504C093140411C01092D9041092D8045C
S1130E401092370810923608109222021092210252
S1130E5010921504109214048EB5FF91EF91DF9156
S1130E60CF91BF91AF919F918F917F916F915F913E
S1130E704F913F912F911F910F91FF90EF90DF9031
S1130E80CF90BF90AF909F908F900F900FBE0F9018
S1130E901F90189578941F920F920FB60F921124F9
S1130EA00F900FBE0F901F90189578941F920F9279
S1130EB00FB60F9211240F900FBE0F901F9018952C
S1130EC078941F920F920FB60F9211242F933F9391
S1130ED08F939F93AF93BF932FB7F8943327809149
S1130EE01A0490911B04A0911C04B0911D04019656
S1130EF0A11DB11D80931A0490931B04A0931C049C
S1130F00B0931D042FBFBF91AF919F918F913F91DB
S1130F102F910F900FBE0F901F9018951F920F9254
S1130F200FB60F9211242F933F934F935F936F93B8
S1130F307F938F939F93AF93BF93EF93FF9380918E
S1130F40B0008093B0008091B60081FDFCCF809109
S1130F50B30099270196AA27BB2720913602309126
S1130F6037024091380250913902280F391F4A1F25
S1130F705B1F20933602309337024093380250931C
S1130F80390278940E94CC05FF91EF91BF91AF9103
S1130F909F918F917F916F915F914F913F912F918D
S1130FA00F900FBE0F901F90189521E020935F05BE
S1130FB02093A0032091840030918500BC01C901D5
S1130FC00E948D0308950F931F93CF93DF93182FDF
S1130FD00FB7F89480911402882311F40E943D0302
S1130FE0802F99278FBF8FB7F894C82FDD272C2F18
S1130FF080911402882361F481E080931402109399
S1131000A40389E00E946501CFBF80E090E021C085
S1131010E12FFF27ED55FC4F80818F3F89F4E0914C
S11310200902E11789F40CC01093080204C0FF27D9
S1131030ED55FC4F10831093090280E090E002C04C
S113104085E090E02FBF05C0809108028F3F79F7BB
S1131050EBCFDF91CF911F910F9108958FB7F89443
S1131060282F3327922F80910A02882331F480910C
S11310701402823011F42FBF13C09FBF8FB7F894AE
S1131080282F332780911402882369F482E0809307
S1131090140210920A022FBF0E943D03209A289A3C
S11310A081E090E008952FBF80E00E94E30780E094
S11310B090E00895FF920F931F938C010E94710595
S11310C0F82E62E0C8010E94D401FC01208133277C
S11310D02F703070C901880F991F820F931FF81A5F
S11310E08EEFF80E8F2D99271F910F91FF90089581
S11310F01F93982F1FB7F89480911302823099F5AB
S113110080910702891779F58091050220E030E08B
S11311108F3F11F421E030E0232BF1F49FEF909303
S113112007028F3F19F42FEF30E00DC0282F33272B
S1131130F901E759FD4F8081809305028F3F11F437
S11311409093060290832093660281E080931302B9
S113115080E00E94650105C08FEF80930702109222
S1131160130221E001C020E0812F99278FBF90E076
S1131170213009F491E081E09827892F99271F9164
S11311800895AF92BF92CF92DF92EF92FF920F93A6
S11311901F9380910D0290910E02A0910F02B091C5
S11311A01002B695A795979587958093BB02909367
S11311B0BC02A093BD02B093BE020E94DC00E0908A
S11311C0BB02F090BC020091BD021091BE02A801C6
S11311D097010E94A9225B016C01AE0CBF1CC01ECA
S11311E0D11EA092BB02B092BC02C092BD02D092AA
S11311F0BE021092DE078091BC048D7F8093BC04F4
S11312000E94AB01AB01BC01F1E0EF2E9601850118
S113121081E00E948C011F910F91FF90EF90DF906D
S1131220CF90BF90AF9008952FB7F8943327809351
S11312304C022FBF85E00E94650108959C018091B6
S11312401F02882319F085E090E0089530933F054C
S113125020933E0581E080931F021092DC0385E019
S11312600E94650180E090E00895CF93DF93EC0144
S11312708FE38A87809103038F5F809303038B83BB
S11312808091330290913402892B11F025E017C02C
S113129088A599A5892B21F061E0CE010E94E40183
S11312A0CE010E941E099927282F882341F4D09348
S11312B03402C09333021092C0021092BF02822FF4
S11312C09927DF91CF910895FF920F931F93CF93A6
S11312D0DF93F82E8B01EA01422F2D3118F086E0BE
S11312E090E08CC0FE0131968181298150E09927DC
S11312F0982F88273327822B932B87749C7C8154C7
S1131300984809F451E0552321F481E4898388E85D
S11313108183435F48832FB7F89433278091020277
S1131320909103022FBF8887892F992789872FB728
S1131330F8943327809104022FBF99278C831D8250
S1131340CE010E94E201FC01F0820E83812F9927D5
S11313508F838FB7F894282F332780911302882323
S113136071F482E080931302109207022FBFCE0122
S11313700E9435099927182F882399F00FC02FBF91
S1131380D0936802C09367028FB7F894C82FDD2703
S11313902C2F80911302882399F406C080E00E94C8
S11313A07808812F99272AC081E080931302109234
S11313B0660280E00E946501CFBF80E090E01EC01D
S11313C0809169028F3F89F4E0910602EE2369F06F
S11313D010C01092050204C0FF27E759FD4F108288
S11313E01092060280E090E002C085E090E02FBFFA
S11313F005C0809105028F3F79F7EBCFDF91CF9144
S11314001F910F91FF900895EF92FF920F931F93F6
S1131410CF93DF93E82E8B01F42E81E08E1518F420
S113142081E090E03BC0CE2DDD27CC0FDD1FCA5EEE
S1131430DB4F88819981892B19F085E090E02EC0DB
S113144079836883EDE0FE0EFB01F082F3EFFF0E7B
S113145080910B02823018F480E090E01FC0CB0131
S11314600E94E201FC018081F80167817727762FD1
S1131470662726813327622B732BE0920B022F2DD4
S1131480A8010E9464099927282F882329F082E063
S113149080930B0219821882822F9927DF91CF91B2
S11314A01F910F91FF90EF9008951F93CF93DF93B7
S11314B0EC01162F80910C02882319F5CE010E94AD
S11314C00F05E82F80913502E81748F4FF2763E001
S11314D0EE0FFF1F6A95E1F7E659FD4F17838091E0
S11314E0E507882311F0112349F08091E0079091DA
S11314F0E1078C179D0729F4112319F08DE00E9450
S11315006501DF91CF911F9108954F925F926F9281
S11315107F928F929F92AF92BF92CF92DF92EF927F
S1131520FF920F931F93CF93DF932C01809120029E
S1131530882309F04DC180913808853009F048C1ED
S11315400E942E08882309F443C18091DF07882371
S113155009F03EC1E201E096F20180A982FD02C0D9
S113156090E003C0F20192A99F708091DD03981767
S113157081F09093DD03289885EC8EBD0DB407FEB1
S1131580FDCF8EB590689EBD0DB407FEFDCF8EB520
S1131590289A42010894811C911CF4018181F20172
S11315A0218140E09927982F88273327822B932B7A
S11315B087749C7C8154984809F441E0442301F1E8
S11315C0289886E88EBD0DB407FEFDCF8EB51EBCEF
S11315D00DB407FEFDCF8EB5289A99278F719070B0
S11315E0209102034091BA02240F312D311D43E0B2
S11315F0359527954A95E1F7281739070CF4E8C083
S1131600289882EC8EBD0DB407FEFDCF8EB589E01F
S11316108EBD0DB407FEFDCF8EB5289A0E946103DE
S11316207B018C01888184FD03C0C0E0D0E006C04A
S1131630F20180818550E201C80FD11D289881E80C
S11316408EBD0DB407FEFDCF8EB51EBC0DB407FED6
S1131650FDCF8EB5289A8F71893021F087E0809371
S11316603808B6C08FB7F89499272F9A2091840030
S1131670309185008FBF2F98289880E68EBDF201A7
S113168090810DB407FEFDCF8EB59EBD792F7250AB
S1131690773010F4672F01C067E0F401962F419171
S11316A00DB407FEFDCF8EB54EBD9150C1F761500C
S11316B0F401E60FF11D6F5F31962E193F092E5587
S11316C03F4F3901882477FC8094982C6E0C7F1C42
S11316D0801E911E209719F4972F961B1FC0888196
S11316E09981AA81BB8186199709A809B9098B83B5
S11316F0292F3A2F4B2F55272A839D0144275527FD
S113170029838B2F9927AA27BB278883E5CF20819C
S11317100DB407FEFDCF31968EB52EBD9150B8F7AE
S11317200DB407FEFDCF8EB5289A289882EC8EBDA5
S11317300DB407FEFDCF8EB586E08EBD0DB407FE59
S1131740FDCF8EB5289A209779F18881E9802A8186
S1131750AB80332744275527542F432F322F22277A
S11317609927AA27BB27B82FAA2799278827FF24B8
S1131770002711278701FF24EE248E299F29A02BFF
S1131780B12BBB24CC24DD248A299B29AC29BD2977
S1131790282B392B4A2B5B2B260D371D481D591D31
S11317A0288339834A835B83C2010E948603C20172
S11317B00E948B03FC01608271828282938286E0A4
S11317C08093380884E08093200280E090E002C097
S11317D085E090E0DF91CF911F910F91FF90EF9002
S11317E0DF90CF90BF90AF909F908F907F906F903D
S11317F05F904F900895AF92BF92CF92DF92EF9295
S1131800FF920F931F93CF93DF938091DF07882379
S113181009F413C10E942E08882309F40EC18FB75E
S1131820F8949927C0919E03D0919F038FBF109283
S1131830DF0728988FE88EBD0DB407FEFDCF8EB567
S11318401EBC0DB407FEFDCF8EB5289A982FA82E86
S1131850BB24A0FE0CC080912002833011F087309D
S113186031F485E08093380888E080932002A2FE5A
S11318705FC080912002863019F41092200203C0C8
S1131880882309F055C0943009F041C0289886E8AF
S11318908EBD0DB407FEFDCF8EB51EBC0DB407FE84
S11318A0FDCF2EB5289A2F718091BA02982F969564
S11318B09695322F391B830F8093BA02E0912F0241
S11318C0F091300280A98B7F886080AB22AB0E94AC
S11318D061036B017C0100912F0210913002C80159
S11318E00E948603C8010E948B03FC01CC19DD0908
S11318F02797CE01AA2797FDA095BA2F8C0D9D1D81
S1131900AE1DBF1D80839183A283B3830EC0E0917B
S11319102F02F091300280A9877F80ABE0912F02E3
S1131920F091300280A98D7F80AB85E08093200206
S1131930A3FE83C080912002843009F04BC085E06F
S113194080933808109220028091FD02833019F4AC
S11319501092FD0272C0E091DA03F091DB03828100
S113196021819927982F88273327822B932B85FF52
S113197029C087749C7C8154984821F587812681ED
S11319809927982F88273327822B932B8F5F9F4F7C
S1131990C9F090E08091A003882309F491E0992391
S11319A089F012E010935F0581E08093A003809199
S11319B084009091850061EE72E00E948D03109383
S11319C0FD023BC01092FD021092390880E00E9493
S11319D0140933C0853089F580913808873091F433
S11319E0289882EC8EBD0DB407FEFDCF8EB586E03F
S11319F08EBD0DB407FEFDCF8EB5289A85E0809389
S1131A00380817C020910203289886E88EBD0DB4CB
S1131A1007FEFDCF8EB51EBC0DB407FEFDCF8EB5FF
S1131A20289A8F71922F96959695891B280F20934B
S1131A30020389E08093200208C090912002992338
S1131A4009F4E2C2993009F00FC2289880E28EBDF1
S1131A500DB407FEFDCF8EB51EBC0DB407FEFDCF41
S1131A608EB5482F5527433008F49EC3842F9927F9
S1131A708A970CF099C31EBCE0912F02F0913002BA
S1131A804083542F5250573010F4452F01C047E083
S1131A909F012F5F3F4F942FF90160E070E00DB478
S1131AA007FEFDCF8EB51EBC808381916827062E6C
S1131AB06295607F6025072E762F62956F700626EB
S1131AC0669576276727660F660F660F6025915027
S1131AD031F74150D901A40FB11D4F5F1196E09128
S1131AE02F02F09130028181282F33272770307024
S1131AF02230310509F491E09923B9F08091FD0277
S1131B00823081F48381E091DA03F091DB039381E5
S1131B10891741F490E02230310509F091E081E029
S1131B2098270EC080E090E00DC08FB7F894282F5E
S1131B30332790E080911E04833008F491E02FBF96
S1131B40892F9927892B09F42FC3952F941B18C02B
S1131B500DB407FEFDCF8EB51EBC8C938D91682706
S1131B60062E6295607F6025072E762F62956F7032
S1131B700626669576276727660F660F660F60252B
S1131B80915030F70DB407FEFDCF8EB51EBC9B01FE
S1131B902827022E2295207F2025032E322F2295DE
S1131BA02F700226269532272327220F220F220F79
S1131BB020250DB407FEFDCF8EB51EBC2827022EAE
S1131BC02295207F2025032E322F22952F70022666
S1131BD0269532272327220F220F220F20250DB40A
S1131BE007FEFDCF8EB5E0912F02F091300281AB5C
S1131BF0289A85E08093380810922002232B09F05C
S1131C00FFC1E0902F02F090300257010894A11C0C
S1131C10B11CF701818190E08770823009F491E072
S1131C20292F3327122F8091FD028230C9F480912D
S1131C306F008D7F80936F001092A003E091DA0310
S1131C40F091DB0380A9222311F0816001C08E7F13
S1131C5080AB1092FD021092390880E00E941409B2
S1131C60112309F0FCC0C7010E94B7038823A9F01F
S1131C7085E08093DF0382E08093E0031092E10328
S1131C80F50182818093E2038FED93E00E94850A3F
S1131C90882319F483E08093FD020091840010915D
S1131CA08500C7010E94B703882311F0045E1C4F0E
S1131CB01093C2020093C102809184009091850028
S1131CC0081B190BC801101611066CF42091390871
S1131CD0222331F40E94D50780E88093390803C099
S1131CE0206820933908F501808527819927582F8A
S1131CF044273327422B532B80913A02282F332732
S1131D00F901EE0FFF1FE75EF74F8081918170911B
S1131D100D058417950769F4F901E65CF74F808196
S1131D20871709F467C0872F8F5F80930D05808321
S1131D301DC000E010E080E090E0C9E1D8E0EAE3F3
S1131D40F8E0DF01682F9C01888199818417950749
S1131D5079F420933A0290910D058C91891709F436
S1131D6049C0892F8F5F80930D058C9300E829C0AB
S1131D708081972F981B091710F4092F122F6F5F7A
S1131D80C901019611962296319685309105D1F6B6
S1131D906530B9F410933A02A12FBB27FD01EE0F71
S1131DA0FF1FE75EF74F5183408380910D058F5FDE
S1131DB080930D05FD01E65CF74F8083A85AB74F69
S1131DC01C9290910D05892F8F778F3779F40F37F7
S1131DD068F0EAE3F8E0292F207880818F6789137F
S1131DE02083319638E0EF33F307B9F780913A0254
S1131DF0282F3327F5019281A22FBB27FD01E85A32
S1131E00F74F808180FF07C0FD01E65AFA4F8081B9
S1131E10981729F102C081608083A65ABA4F9C9317
S1131E20CFB6F89480911E048330B0F4E09132026E
S1131E30E80FE33008F0E350FF27EE0FFF1FED5DDE
S1131E40FD4F00811181F182E0828F5F80931E0437
S1131E5086E00E94650178018C2D99278FBFF0924E
S1131E603002E0922F02C3C0892F8150833008F0E2
S1131E709CC081508230E0F4309138083130C1F494
S1131E8020E08091A003882309F421E0222381F03B
S1131E902F9883E080935F053093A00380918400A2
S1131EA0909185006BE273E00E948D0382E068C02C
S1131EB0933009F042C080913808833009F097C00C
S1131EC00E942E088823C9F128988FE88EBD0DB48E
S1131ED007FEFDCF8EB51EBC0DB407FEFDCF8EB53B
S1131EE0289A8091810080648093810080E286BB7F
S1131EF080916F00806280936F00909165022898B2
S1131F0088EC8EBD0DB407FEFDCF8EB590669EBDE8
S1131F100DB407FEFDCF8EB5289A289882EC8EBDAD
S1131F200DB407FEFDCF8EB586E08EBD0DB407FE61
S1131F30FDCF8EB5289A84E023C080912002815081
S1131F40823000F5809138088530E1F40E942E0833
S1131F508823C1F0289882EC8EBD0DB407FEFDCF16
S1131F608EB583E08EBD0DB407FEFDCF8EB5289AE5
S1131F7080916F008F7D80936F001092DF0783E064
S1131F808093380890912002913041F48091380870
S1131F908330B1F52F9A9093380825C0923039F5E3
S1131FA080913808833061F51EC0973001F50E9496
S1131FB02E088823E1F090916502289888EC8EBD64
S1131FC00DB407FEFDCF8EB590669EBD0DB407FE21
S1131FD0FDCF8EB5289A80913808853021F484E0AD
S1131FE08093380804C088E08093200204C0809164
S1131FF02002883029F41092200284E00E946501B6
S113200080912002882331F5809138088530F9F4D5
S11320108091DF078823D9F48091FD028823B9F4E5
S113202080913908882399F490E08091A003882353
S113203009F491E0992359F080911F02813039F419
S113204085E00E94650180912002882319F480E0D4
S11320500E94DE028091A003823009F098C01092A1
S1132060A003C0905F05F2E0CF1609F46CC023E032
S1132070C21609F470C031E0C31609F088C020917B
S1132080C1023091C20280918400909185004091F8
S11320903908403859F41092390880911F02813070
S11320A009F075C085E00E94650171C08901081BB3
S11320B0190B47FF03C010161106ECF0C091FB0288
S11320C0D091FC028091FD028823A9F4CE010E94E4
S11320D0850A9927882351F488A98E7F88ABC092FA
S11320E0FD02D093DB03C093DA0329C09927F82EAD
S11320F0882329F102C065E0F62E20913908822F49
S113210099278F77019759F4207822602093390812
S113211080E198E00E94E4030E94D50738C027FFBD
S11321200AC0101611063CF480E880933908C801EF
S11321300E94D50702C0109239088F2D09C083E090
S11321408093390824C01092FD021092390880E06F
S11321500E9414091CC080913808823019F4C0927E
S1132160380813C080912002863079F4109220023E
S1132170289881E88EBD0DB407FEFDCF8EB51EBC38
S11321800DB407FEFDCF8EB5289A0E94FD108FB7BF
S1132190F894282F332780916202813061F081E026
S11321A0809362022FBF31CB289A85E08093380850
S11321B01092200225CF109262022FBFDF91CF919F
S11321C01F910F91FF90EF90DF90CF90BF90AF9051
S11321D008958FB7F894282F332780916202815095
S11321E080936202803811F02FBF089581E08093BC
S11321F062022FBF0E94FB0B08958FB7F894282F1B
S1132200332780916202882329F0806880936202D8
S11322102FBF089581E0809362022FBF0E94FB0BC1
S1132220089578941F920F920FB60F9211242F9352
S11322303F934F935F936F937F938F939F93AF934A
S1132240BF93EF93FF938091840090918500209138
S11322508600309187008FB7F894992730939F03B5
S113226020939E0321E02093DF078FBF0E94FD107F
S1132270FF91EF91BF91AF919F918F917F916F915A
S11322805F914F913F912F910F900FBE0F901F9030
S1132290189578941F920F920FB60F9211242F93D2
S11322A03F934F935F936F937F938F939F93AF93DA
S11322B0BF93EF93FF9380916F008D7F80936F00A6
S11322C078949FB7F8948091A003813019F482E048
S11322D08093A003892F99278FBF0E94FD10FF913F
S11322E0EF91BF91AF919F918F917F916F915F918A
S11322F04F913F912F910F900FBE0F901F90189503
S11323001F938FB7F8949927209162022F5F20932F
S113231062028FBF80911F02882311F015E023C051
S1132320809120028823E1F480913808813049F4B7
S113233090E08091A003882309F491E0992381F02F
S113234005C0853019F489E090E00CC083E08093E7
S113235020020E94FD1084E080931F0210E003C05D
S113236085E090E0182F0E94E910812F99271F9192
S1132370089568E00E94D401FC0184819927982F74
S1132380882725813327822B932B08951F93CF937E
S1132390DF93162FC0E0D0E068E00E94D401FC0176
S11323A080818123811711F4C1E0D0E0CE01DF9157
S11323B0CF911F91089568E00E94D401FC018781A8
S11323C09927089568E00E94D401FC01818199272E
S11323D0089568E00E94D401FC018681992708953C
S11323E068E00E94D401FC0184819927982F8827F2
S11323F025813327822B932B0895BF92CF92DF92AE
S1132400EF92FF920F931F93CF93DF937C01B090D1
S11324102902D0901304CC2428C00D2D0370112759
S1132420C7010E94F011E801CC0FDD1FCC0FDD1FA6
S1132430C00FD11FC35BDD4F2881398182179307F9
S113244091F4C7010E94E9119A81981761F4C701B8
S11324500E94E2119C81981731F4C7010E94DB119C
S11324609B81981721F0C394D394CB14B1F68C2D8F
S11324709927DF91CF911F910F91FF90EF90DF90FB
S1132480CF90BF9008958F929F92AF92BF92CF92B8
S1132490DF92EF92FF921F93CF93DF935C014B0186
S11324A0FC018281882371F4B0923508A09234082B
S11324B08281882311F41092120268E0C4010E9400
S11324C0D40189C0442309F47AC0F501C080D180C5
S11324D080912902843009F046C0C6010E94FD1192
S11324E020912902622F0E947622492F9217D8F553
S11324F0992359F4809113049927019664E070E0BC
S11325000E9496228093130429C080911304840F9F
S1132510912D911D9C0123703070E901CC0FDD1FBA
S1132520CC0FDD1FC20FD31F019664E070E00E9440
S11325309622FC01EE0FFF1FEE0FFF1FE80FF91F9D
S1132540C35BDD4FE35BFD4F85E001900992815051
S1132550E1F74F5F809129024817B8F28091290270
S11325608150809329021091290280911304810FD4
S1132570912D911D837090707C01EE0CFF1CEE0C6C
S1132580FF1CE80EF91E8DE492E0E80EF91EC60168
S11325900E94F011F70191838083C6010E94E91122
S11325A0F7018283C6010E94E211F7018483C60108
S11325B00E94DB11F70183831F5F1093290268E0F7
S11325C0C4010E94D401F501808191810E945302CB
S11325D0C5010E947202DF91CF911F91FF90EF908D
S11325E0DF90CF90BF90AF909F908F9008959F926F
S11325F0AF92BF92CF92DF92EF92FF920F931F930D
S1132600CF93DF935B016C01C0E0D0E0EBEAF4E030
S11326109C2E608561FF0CC12081318142815381F0
S1132620E480F58006811781D601C501821B930BD6
S1132630A40BB50B8E159F05A007B10708F4F8C0CD
S113264060FF03C06D7F608708C02E0D3F1D401FD3
S1132650511F208331834283538322E0921609F46D
S113266079C0291538F0992071F081E0981609F0A5
S1132670E5C012C023E0921609F47AC084E09816EB
S113268009F0DCC07CC08091330290913402892B24
S113269009F4D4C081E069C080911B02882309F445
S11326A0CDC080911C02882309F4C8C08091DE0744
S11326B0882341F58DE00E9465018EE00E9465014A
S11326C0A0900D02B0900E02C0900F02D0901002A4
S11326D08091BB029091BC02A091BD02B091BE0258
S11326E0A81AB90ACA0ADB0A9092DE070E94AB0153
S11326F0AB01BC0181E0E82E9601850181E00E94D6
S11327008C019CC080910D0290910E02A0910F0249
S1132710B0911002880F991FAA1FBB1F80930D024E
S113272090930E02A0930F02B09310028150904D2B
S1132730A740B04060F080E090EDA7E0B0E0809367
S11327400D0290930E02A0930F02B09310020E9408
S1132750C10874C080911B02882309F46FC0809162
S11327601C02882309F46AC08DE00E94650166C0DA
S1132770809115028F7E809315028AE0F6CF2FB7E1
S1132780F894332782B191E0892782B92FBF8091D1
S11327901202882309F052C0C6EED7E062E0CE01EF
S11327A00E94C102FC018AEA818380838091150220
S11327B081FF3CC06AE0CE010E94D10268E0CE01F4
S11327C00E94D401FC018091000290910102858352
S11327D0892F99278483809131028F5F80933102FE
S11327E0815086838EEE87831182E0913408F091C4
S11327F035083097D9F0D183C08312828EE1838368
S1132800CF010E948B05882389F48091150282FFF1
S113281005C084FD03C08AE00E946501109235085A
S11328201092340881E08093120208C0129806C006
S113283021963996C530D10509F0EACE83E00E948D
S11328406501DF91CF911F910F91FF90EF90DF9081
S1132850CF90BF90AF909F900895AF92BF92CF92C8
S1132860DF92EF920F931F935B016C010E94AB0107
S1132870AB01BC0191E0E92E9601850183E00E9441
S11328808C011F910F91EF90DF90CF90BF90AF908C
S11328900895CF92DF92EF92FF920F931F936C01F2
S11328A07B010E94DC00DC01CB01B6010E94822284
S11328B0E80EF91E00271127C801B7010E942D1444
S11328C01F910F91FF90EF90DF90CF9008950F9399
S11328D01F93CF93DF93EC01E0911602FF27EE0FD5
S11328E0FF1FEC53F84F00811181662329F06CE13E
S11328F070E08CE190E02FC08091150283FF3DC011
S113290088A980FD3AC08F819927982F88272E8126
S11329103327822B932B0E949000982F8F3F71F0C6
S11329208EE0989FF0011124E15EFB4F85858F5F57
S11329308587853018F0CF010E941D028DE00E942A
S11329406501F801838181508383882339F067E02E
S113295070E087E090E00E9449143FC00E94380272
S1132960809115028F7E8093150267E070E087E006
S113297090E00E94491440E02CC00E9438028091EB
S113298015028F7E8093150267E070E087E090E087
S11329900E9449148F819927982F88272E813327E5
S11329A0822B932B0E949000982F8F3F89F08EE00A
S11329B0989FF0011124E15EFB4F84858F5F84872B
S11329C085858F5F8587853018F0CF010E941D02B1
S11329D041E0BE01C8010E944312DF91CF911F91D3
S11329E00F910895AF92BF92CF92DF92EF92FF9230
S11329F00F931F93CF93DF93D82E5B01C42EE82F40
S1132A00FF27EE0FFF1FEA5EFB4F118210828091B9
S1132A100B029927019662E070E00E949622682FCB
S1132A2080930B0200E0462F5527FA01EE0FFF1F9B
S1132A30EA5EFB4FC081D181209799F0E62FE6959D
S1132A40E695E695FF27E25DF74F808199279A0185
S1132A502770307002C0959587952A95E2F780FF1C
S1132A600DC0CA01019662E070E00E949622682FB0
S1132A700F5F0230C1F600930B021FC060930B027C
S1132A806230D8F4E88083EFE80EFF240F81112729
S1132A90102F00278E819927082B192BCE010E9415
S1132AA0E201FC012E2DAE01B80180810E9464096F
S1132AB0882319F08CE00E946501DD2021F081E07B
S1132AC0D81689F405C06C2DC5010E9467140BC08B
S1132AD083ECA81682E0B80631F480911D028823A5
S1132AE011F010921D02DF91CF911F910F91FF9071
S1132AF0EF90DF90CF90BF90AF9008951F93CF9346
S1132B00DF93182FC0913302D09134021092340213
S1132B10109233028091B3048D7F8093B30480912B
S1132B20BF029091C00299A788A78A858F33A9F420
S1132B3080E00E94780880910B02823070F4E82FC4
S1132B40FF27EE0FFF1FEA5EFB4F608171816C1758
S1132B507D0719F4412F0E94F214DF91CF911F9148
S1132B6008952F923F924F925F926F927F928F922D
S1132B709F92AF92BF92CF92DF92EF92FF920F9308
S1132B801F93CF93DF93CDB7DEB722970FB6F89498
S1132B90DEBF0FBECDBF8FB7F894282F33278091A7
S1132BA01E04882309F413C3E0913202FF27EE0FB9
S1132BB0FF1FED5DFD4FC080D1802FBFF6018285E0
S1132BC08F3309F0E1C2C6010E94E201FC01708169
S1132BD0D6016D913D01F601878126819927582FF1
S1132BE044273327422B532B8FB7F89499272091EE
S1132BF00202309103028FBF4217530721F04F5F47
S1132C005F4F09F0E1C2062F0D50703721F0713784
S1132C1009F0BEC280C1F601878126819927982FC9
S1132C2088273327822B932B8F5F9F4F09F091C006
S1132C3062E0C6010E94D4017C01F60181852085F1
S1132C409927B82EAA243327A22AB32AD7010C9194
S1132C500E940704C5010E9490008F3F21F0F701F4
S1132C60618177270CC00E94BF04182F8F3F51F059
S1132C70B5010E94D104F70161817727812F0E9459
S1132C8008041CC087E30E94E604182F8F3F09F450
S1132C905EC09927880F991FFC0153E0EE0FFF1FB8
S1132CA05A95E1F7E81BF90BE15EFB4F80819181B6
S1132CB00E942F05B501812F0E94D1044FE0942E6C
S1132CC0902209F444C0C6010E947105182F682F90
S1132CD0C6010E94D401810F911D8C0183E0989E4E
S1132CE0C0011124081B190B8FB7F8949927409041
S1132CF00202509003028FBFFF2483E0F89EF0018C
S1132D001124E00FF11F808121819927982F8827B2
S1132D103327822B932B84159505B1F4E280C501EA
S1132D200E9490008F3F81F09927880F991FFC0122
S1132D30B3E0EE0FFF1FBA95E1F7E81BF90BE15E74
S1132D40FB4FE18686E08783F394F914B1F60E9481
S1132D500704C6010E945A08853009F019C2F3011C
S1132D60F084978065E0C6010E94DB018C0160E479
S1132D70C6010E947605882E58010894A11CB11C36
S1132D80F801818115010894211C311CF501218170
S1132D909927982F88273327822B932B8F5F9F4F58
S1132DA009F4A3C08F2D9927F82EEE24892D992795
S1132DB0E82AF92AE3E04E2E512C400E511EF80168
S1132DC0838174E0672E712C600E711E2481992713
S1132DD0982F88273327822B932B892B49F5C701FA
S1132DE00E9490008F3F09F50E94BF048F3F11F0AD
S1132DF0B70119C080E00E94E604182F8F3FA9F0A4
S1132E009927880F991FFC0143E0EE0FFF1F4A9595
S1132E10E1F7E81BF90BE15EFB4F808191810E9491
S1132E202F05B701812F0E94D104C7010E94C2005F
S1132E30D2019C90F3017080D501BC90F101A08077
S1132E40C7010E94A8008C01C7010E940F05E82F4A
S1132E508A3009F446C0892D9927782F6627872D53
S1132E609927682B792B8B2D9927582F44278A2D46
S1132E709927482B592B80913502E817F1F4023336
S1132E80110578F52FB7F8943327FF27B3E0EE0F39
S1132E90FF1FBA95E1F7E659FD4FF182E0825383B3
S1132EA042837583648381E086831782809135022F
S1132EB08F5F809335022FBF14C08FB7F894992782
S1132EC0FF27A3E0EE0FFF1FAA95E1F7E659FD4F98
S1132ED0F182E082538342837583648321E02683F5
S1132EE08FBF682DC7010E94550A60E8C6010E9481
S1132EF07605882309F44CC180E890E0A0E0B0E0B6
S1132F0080930D0290930E02A0930F02B0931002CF
S1132F100E94C1083DC1C6010E94DB11982EC60162
S1132F200E94E211182F1F5F68E0C6010E94D401BD
S1132F303C01FC0111830D3108F02AC1C6010E9435
S1132F40FD1120E090912902891708F421E0222341
S1132F5009F01EC120911802822F9927A82E8823D8
S1132F6009F43EC0B0901602B20E37C0FCE0FB1567
S1132F7010F0EB2D02C0EB2DED50FF27EE0FFF1FDD
S1132F80EC53F84F0190F081E02DE080F180C7010F
S1132F900E94F0118C01C6010E94F0110817190754
S1132FA0E1F4C7010E94E911182FC6010E94E9113A
S1132FB0181799F4C7010E94E211182FC6010E9444
S1132FC0E211181751F4C7010E94DB11182FC60132
S1132FD00E94DB11181709F4DBC0BA94AA9431F6E5
S1132FE080912A02882339F02EEE921609F0D0C07F
S1132FF00E94C802CDC080E020911204222309F46B
S113300081E0882309F0C4C09091DE03992309F478
S113301081E0882309F0BCC0992309F4B9C08091E8
S11330202F08E82FFF27EE0FFF1FE05CF74F00810A
S113303011811182108291509093DE038F5F8093EF
S11330402F088C3011F410922F080115110509F482
S11330509FC0222309F49CC080910403E82FFF271A
S1133060EE0FFF1FE05CFA4FE080F18011821082C6
S11330702150209312048F5F809304038C3011F449
S113308010920403E114F10409F482C083E3D7012C
S11330901D928A95E9F7E8E2F0E0CE0EDF1E8BE0A0
S11330A0D6011D928A95E9F7E8EDFFEFCE0EDF1EFB
S11330B0D801CD92DC928FEFF80182838EE1838375
S11330C0C8010E948B05882389F5CE0101960E94D0
S11330D09102882311F5F301828123819927982F86
S11330E088273327822B932B29813A812817390784
S11330F0A0F080E890E0A0E0B0E080930D0290930F
S11331000E02A0930F02B09310020E94C1086CE15A
S113311070E08CE190E00E9449148091CE0481FD1E
S113312003C08AE00E946501670132C0C7010E94A2
S11331305302C8010E9472022BC0F601118500855A
S113314060E8C6010E94C611882371F080E890E00F
S1133150A0E0B0E080930D0290930E02A0930F02C2
S1133160B09310020E94C10860E4C6010E94C61117
S1133170682F812F9927982F8827202F3327822B78
S1133180932B0E94550A04C08FB7F89499278FBFD8
S11331909FB7F89480913202E82FFF27EE0FFF1FAC
S11331A0ED5DFD4FD182C0828F5F80933202833008
S11331B010F01092320280911E04815080931E04FC
S11331C0892F99278FBFE7CC713711F7B6CF2FBF5F
S11331D022960FB6F894DEBF0FBECDBFDF91CF911C
S11331E01F910F91FF90EF90DF90CF90BF90AF9021
S11331F09F908F907F906F905F904F903F902F9013
S113320008958F929F92AF92BF92CF92DF92EF92E6
S1133210FF920F931F93CF93DF93CDB7DEB722971F
S11332200FB6F894DEBF0FBECDBF873009F429C2B4
S1133230883098F4833009F4AEC0843038F4813097
S113324009F460C0823008F073C024C0853009F4EA
S11332508CC1863008F012C2F6C08B3099F08C30E5
S113326038F4893009F42DC28A3008F0B9C214C286
S11332708D3009F4CEC38D3008F4BDC38E3009F00F
S113328086C5BDC480912E08882309F480C510E04A
S113329001E081C32FB7F8943327809166028093AD
S11332A0070282E0809313022FBF809107028823D4
S11332B009F06DC580916702909168020E943509FA
S11332C0E82EFF24EE2009F462C580E00E9478080D
S11332D00091670210916802C8010E94E201809186
S11332E00B02823008F053C5E82FFF27EE0FFF1FB3
S11332F0EA5EFB4F608171816017710709F047C571
S11333004E2D84C3E0913302F091340280A591A53F
S1133310892B21F061E0CF010E94E4018091330206
S1133320909134020E941E09882309F430C5A0C17B
S113333080916102882361F520912308309124084B
S11333404091250850912608EFB7F894FF27609123
S11333502B0270912C0280912D0290912E02E0900C
S11333603008F090310800913208109133086E0D46
S11333707F1D801F911FEFBF2093230830932408E3
S11333804093250850932608109261020E94580623
S11333900E94AB0143C00E94AB015B016C018FB77B
S11333A0F89499271092F6028FBF3FEFE32E3FEF78
S11333B0F32E3FEF032F3FE7132F60E0EBEAF4E037
S11333C0808581FF1CC080819181A281B381A60187
S11333D09501281B390B4A0B5B0BDA01C9012481C7
S11333E0358146815781281B390B4A0B5B0B2E15FF
S11333F03F05400751071CF479018A0161E03996C1
S113340034E0E83DF307E1F6662309F4C0C41E1472
S11334101F04100611062CF0C601B5010E94F71214
S1133420B6C4E0922308F092240800932508109370
S1133430260881E080936102A8019701C601B501C5
S11334400E945806A4C480911F0210921F02843067
S113345009F07DC021E0D22ED0921B0280911C0283
S11334608823C1F00E94DC007B018C014FEF5FE1F7
S1133470E422F5220E94AB01AB01BC0180E090E1A3
S1133480E80EF91E87012227332791E0E92E81E017
S11334900E948C018091150284608093150290E053
S11334A080911802882309F491E0992319F48AE0A1
S11334B00E946501809115028260809315028091BB
S11334C01C028823B9F4D0921C0280E890E0A0E0AA
S11334D0B0E080930D0290930E02A0930F02B0937C
S11334E010020E94C10840E050E260E070E082E017
S11334F00E94AE0580910002909101020197F1F4BF
S11335004091E0075091E1072FB7F8943327D09208
S11335102A0280915805909159059093E107809370
S1133520E0071092E3071092E2072FBF4F5F5F4F4F
S113353019F48AE00E946501119829C440ED57E00E
S113354060E070E084E00E94AE05129820C48530EB
S113355031F410921B02809115028B7F0BC28630CE
S113356009F415C480931F0212C48FB7F8949927E5
S113357010914C028FBF80911F02823011F41123ED
S113358039F08091DC038F5F8093DC03863020F078
S113359083E080931F023CC08FB7F8949927209151
S11335A062022F5F209362028FBF20913E0530910B
S11335B03F05809139088823D1F490E08091A003DD
S11335C0882309F491E0992391F03093FC0220932D
S11335D0FB0281E08093390886EB93E20E94E403C6
S11335E00E94D50782E080931F0210E00AC08091F8
S11335F0DC03853011F483E001C081E080931F0275
S113360015E00E94E91080911F02833009F0BFC3C6
S113361010921F02E0913E05F0913F052091BF02F8
S11336203091C0022F5F3F4F3093C0022093BF02FE
S113363080A980FF02C080E01EC0E0913302F091B7
S1133640340280A591A528173907A0F4CF010E9460
S1133650AA058C01892B61F00E94AB01AB01BC016E
S11336602227332781E0E82E80E00E948C018FC35B
S113367081E009C1812F0E947E1589C30E94B11582
S113368086C30E94DC002FB7F8943327709364023A
S1133690609363022FBF7BC38FB7F894992710926E
S11336A0D9041092D8041092370810923608109258
S11336B022021092210210921504109214048FBF5A
S11336C066C32FB7F89433278091A40380930A022A
S11336D082E0809314022FBF80910A02882309F0AC
S11336E056C3209A289A80913808882309F075C017
S11336F08EEF91E0019701960197E1F716982F98C4
S113370086E090E0019701960197E1F7169A2898D0
S113371083EC8EBD0DB407FEFDCF8EB51EBC0DB47B
S113372007FEFDCF8EB5289A289882EC8EBD0DB485
S113373007FEFDCF8EB588E08EBD0DB407FEFDCF2C
S11337408EB5289A8EEF91E0019701960197E1F7E3
S113375028988EEC8EBD0DB407FEFDCF8EB58DE49A
S11337608EBD0DB407FEFDCF8EB5289A289889EC3E
S11337708EBD0DB407FEFDCF8EB587EC8EBD0DB4A6
S113378007FEFDCF8EB5289A289885EC8EBD0DB422
S113379007FEFDCF8EB580E88EBD0DB407FEFDCFCC
S11337A08EB5289A1092DD038BE0809365022898E9
S11337B088EC8EBD0DB407FEFDCF8EB58BE68EBDB5
S11337C00DB407FEFDCF8EB5289A2F9A81E0809321
S11337D0380880E00E94DE02DAC20E94FD10D7C2DF
S11337E08091150284FDD3C290E080911802882351
S11337F009F491E0992309F0CAC280912A0288232E
S113380059F420E08091E0079091E1078F5F9F4F8A
S113381009F021E0222331F0CE0101960E949102A9
S1133820882339F060E177E280E090E00E942D1473
S1133830AEC2E0911602FF27EE0FFF1FEC53F84FC4
S1133840C080D180F60100811181C8010E94BC02B0
S1133850982EA090E007B090E107C8010E94FD11E6
S113386020E090912902891708F421E0222371F0C5
S11338700E943802F601808191810E945302C601A0
S11338800E9472028AE00E94650181C280912A022C
S1133890F601E080F180882319F168E0C7010E94F5
S11338A0D401FC019781A091A503B091A603F7016F
S11338B083E301900D928150E1F70091A5031091EB
S11338C0A6039E3E11F40E94C8021093A60300931F
S11338D0A50360E0F601808191810E94671457C2BC
S11338E009811A8168E0C7010E94D401FC010383A5
S11338F0012F1127028368E0F601808191810E94E3
S1133900D401FC0180818F73808361E0F6018081A2
S113391091810E94E40180911502886080931502D0
S113392080FF0FC068E0F601808191810E94D4017C
S1133930FC01808180648083809115028E7F809356
S11339401502F60100811181F801A6828B2D9927B9
S11339508783C8010E94E201FC0181E78083492D2D
S1133960B80180E00E94040A9927882331F48091E9
S113397015028061809315020AC2823009F007C2E1
S11339806CE1F601808191810E94D1027BCF81E0BC
S113399080931D02FCC120912E08802F822329F1DF
S11339A0E12FFF27EE0FFF1FEA5EFB4F408151819D
S11339B011821082802F8095282320932E081123B2
S11339C019F0113091F405C063E0CA010E94671434
S11339D0DBC1435C524009F0D7C180911D028823AA
S11339E009F4D2C110921D02CFC11F5F183008F034
S11339F0CEC1000FD0CF80910B02E82FFF27EE0F2E
S1133A00FF1FEA5EFB4F6081718141E00E94F21466
S1133A10BEC180912A02882309F0B9C1AA24BB241B
S1133A205FEFE52EF52E4FEF842E942ECC24DD246B
S1133A3049C0022F112733E0000F111F3A95E1F717
S1133A4006591D4FF80122813381FFEF2F3F3F07B5
S1133A50B1F180915805909159052817390779F1EA
S1133A60F801808191810E94A800BC01F801448181
S1133A705581480F591F208131818091E007909131
S1133A80E1072817390779F48FB7F8949927248127
S1133A9035813093E3072093E20727812093E507DC
S1133AA08FBF4A010CC0F8018781882341F4623337
S1133AB0710528F44E155F0510F458017A01089435
S1133AC0C11CD11C2C2D80913502C81608F4B1CF2D
S1133AD0FFEFEF16FFEFFF0609F47DC02FEF82160C
S1133AE02FEF920691F08091E507882341F08091B1
S1133AF0E2079091E3070A96E816F90630F0C70149
S1133B000F968815990508F066C080912A0890914F
S1133B102B08A0912C08B0912D080196A11DB11D70
S1133B2080932A0890932B08A0932C08B0932D0817
S1133B308091E0079091E1070E9490008F3F81F00F
S1133B409927880F991FFC0103E0EE0FFF1F0A95C8
S1133B50E1F7E81BF90BE15EFB4F8581877F8583E5
S1133B60F501808191810E94C200F50180819181DB
S1133B700E9490008F3F41F0EEE08E9FF0011124EF
S1133B80E15EFB4F158614862FB7F8943327F501B1
S1133B90808191819093E1078093E00784819581EE
S1133BA09093E3078093E20787818093E5072FBF13
S1133BB0C4018E199F09459770F080E890E0A0E059
S1133BC0B0E080930D0290930E02A0930F02B09385
S1133BD010020E94C10880911E02882369F4FFEF3D
S1133BE08F16FFEF9F0641F42FEFE2162FEFF20638
S1133BF019F08AE00E94650110921E02C8C08091EB
S1133C001D02882309F0C3C0E091A103F091A2032F
S1133C1010828091E0079091E107E091A103F09177
S1133C20A2038283892F9927818380912A02882382
S1133C3029F08091E2079091E30720C08091E0078A
S1133C409091E1070091E2071091E3073FEF8F3F66
S1133C50930781F4E091A103F091A2030483812FDF
S1133C6099278383E091A103F091A2038081806866
S1133C7080830CC00E94A800800F911FE091A103D3
S1133C80F091A2038483892F9927838362E083ECD4
S1133C9092E00E94D4016C0168E083EC92E00E94FF
S1133CA0DB01E5E0AE2EB12CA80EB91E40E0FF24E6
S1133CB000E010E073E0E72E80911A029927019644
S1133CC0800F911F6AE070E00E9496229C01992760
S1133CD0880F991FDC0153E0AA0FBB1F5A95E1F727
S1133CE0A81BB90BA15EBB4FFD018581992780FFFD
S1133CF015C081FF13C08D919C911197FE9CA0016A
S1133D0011244A0D5B1DFA018183892F9927808331
S1133D10FD018085FA018283F394422F0930110555
S1133D2029F00F5F1F4FF6E0FF1530F640931A029B
S1133D30809119028F5F809319028150F60181836B
S1133D408F2D8F7080838FEF8093C9028093CA0276
S1133D5083EC92E00E94E201FC0180E7808383E02F
S1133D60F89EC0011124895F482F552763EC72E047
S1133D7081E00E94040A9927882309F408CE84303C
S1133D8031F410921B0203C0000F1F5F04CE229671
S1133D900FB6F894DEBF0FBECDBFDF91CF911F9158
S1133DA00F91FF90EF90DF90CF90BF90AF909F90D6
S1133DB08F900895809127088F3FB1F0282F3327E3
S1133DC0F901E55CFD4F8081809327088F3F11F452
S1133DD080933F088FEF80832F3F31F0822F0E9422
S1133DE0011981E090E0089580E090E008951F9328
S1133DF01FB7F8944FE050E06FEF70E08BE392E070
S1133E000E9421238FEF8093270880933F085698C0
S1133E105E9854985C9880916F008F7D80936F00BA
S1133E20209A289A279A2F980E9A169A87EA93E04E
S1133E309093300280932F02109202038AE58093BC
S1133E40BA0281E08093810080E28093B60083E02F
S1133E508093B10080918400909185004AE720917D
S1133E608400309185002817390708F44150442311
S1133E7011F0C901F4CF9091B2008091B20089177A
S1133E80E1F320918400309185009091B2008091FB
S1133E90B2008917E1F38091840090918500821B20
S1133EA0930B409655E0969587955A95E1F7909334
S1133EB02908809328081092B1008091B100809362
S1133EC08100809181008093B6001092B20010921C
S1133ED08500109284008FEF87BB87B386BB8091E7
S1133EE0B6008571E1F70A9A099A089A129A119A0A
S1133EF0109A18B88FEF87B90C981498109285000F
S1133F001092840080916F00816080936F00809193
S1133F108100887F82608093810081E085BF0E9458
S1133F20DA1E8823E1F71092130410922902E0E4C8
S1133F30F8E08EE095E081939193049628E0E835CB
S1133F40F207C9F78CE08093DE0310922F08E0E4B7
S1133F50F5E080E695E081939193C39625E0E835FA
S1133F60F207C9F78CE080931204109204031092B4
S1133F701B0210921C0210922A0810922B08109215
S1133F802C0810922D0810922A028FEF9FEF909325
S1133F90E1078093E0071092E3071092E207109282
S1133FA0E4071092E507109235028FB7F894992729
S1133FB020910202309103028FBF30935905209360
S1133FC058056AE183EC92E00E94DB019093A2031E
S1133FD08093A10387EF92E090933508809334088F
S1133FE08AED94E09093A6038093A5038FB7F89489
S1133FF0992720910202309103028FBF30934B0224
S113400020934A0210923102E4E2F4E010823E96D8
S113401084E0E03BF807D1F78FEF8093A30380E0BF
S11340200E94E30720910002309101022F5F3F4F6D
S1134030C901AA27BB278093FE029093FF02A09395
S11340400003B093010385E093E0909324028093EE
S11340502302C39690932602809325028BE693E075
S113406090932802809327028091B6008062809307
S1134070B6008091B60081FDFCCF82E08093B00051
S11340808091B60080FDFCCF83E08093B1008091E5
S1134090B60083FDFCCF86EE8093B3008091700060
S11340A08260809370000E94CC058FEF9FEF909305
S11340B01A088093190890931C0880931B08909306
S11340C01E0880931D089093200880931F089093E6
S11340D0220880932108809100028295807F80933A
S11340E003038FEF809369020E94DA1E8823E1F7AD
S11340F0812F99278FBF78940E9480118FB7F894ED
S1134100482F552757C0809170009927837090706D
S1134110892B19F4E5E0F0E014C08091B6008A71AF
S1134120E1F78091B3009091B200891B8C3038F094
S11341308091B200853F18F4E3E0F0E002C0E2E0D1
S1134140F0E080916E00867009F580916F008E72A8
S1134150E9F4809171008E72C9F40CB407FC16C0A6
S11341608091C100807E91F48091C900807E71F4B9
S11341708091BC0082FD0AC080917A0087FF03C051
S113418081E090E005C085E090E002C080E090E02E
S113419023B78E1708F4E82FFF27E453FF4FE49169
S11341A0207F2160E22BE3BF78948895F89483B74D
S11341B08E7F83BF809127088F3F09F4A4CF282FD7
S11341C03327F901E55CFD4F8081809327088F3FF9
S11341D011F480933F088FEF80832F3F09F493CF2E
S11341E04FBF822F0E94011989CFACE2B0E0EBEF00
S11341F0F0E20C94EA22222E332E442E552E662E03
S1134200772E882E992EFE013196A8E01192AA9558
S1134210E9F729823A824B825C826D827E828F82A8
S11342209886FE013996B8E01192BA95E9F7A98605
S1134230BA86CB86DC86ED86FE860F87188B89814D
S11342409A81AB81BC8189A79AA7ABA7BCA77C0143
S11342508D018FEF9FEFA0E0B0E0E822F9220A235E
S11342601B2389A59AA5ABA5BCA51D0144245524EF
S113427089859A85AB85BC858DA39EA3AFA3B8A77A
S11342805C016D018FEF9FEFA0E0B0E0A822B9229E
S1134290CA22DB228DA19EA1AFA1B8A53D0188242D
S11342A09924C801B701A60195010E94CB2269A3F4
S11342B07AA38BA39CA3C801B701A40193010E9414
S11342C0CB227B018C01C201B101A60195010E94A0
S11342D0CB225B016C01C201B101A40193010E94D4
S11342E0CB223B014C01EA0CFB1C0C1D1D1D89A1BA
S11342F09AA1ABA1BCA19D01442755272E0D3F1DBA
S1134300401F511F2A153B054C055D0540F480E014
S113431090E0A1E0B0E0680E791E8A1E9B1ECA01DF
S1134320AA27BB27860D971DA81DB91D8D8F9E8FAB
S1134330AF8FB8A3A9013327222789A19AA1ABA1E2
S1134340BCA1A070B070280F391F4A1F5B1F298FB2
S11343503A8F4B8F5C8FA98CBA8CCB8CDC8CED8C18
S1134360FE8C0F8D18A1FE01719698E011929A951A
S1134370E9F7ED8AFE8A0F8B188F2D813E814F81DC
S113438058856DA17EA18FA198A50E94CB223B01E7
S11343904C012D853E854F85588969A57AA58BA545
S11343A09CA50E94CB222D893E894F89588D260FCA
S11343B0371F481F591F260D371D481D591D2D8BAA
S11343C03E8B4F8B588F6D887E888F88988C2A2DD2
S11343D03B2D4C2D5D2D662D772D882D992DE2E1F9
S11343E0AC960C940623A0E1B0E0E9EFF1E20C9462
S11343F0EA22222E332E442E552E662E772E882E18
S1134400992E002309F466C088E0FE0131961192CA
S11344108A95E9F729833A834B835C836D837E8392
S11344208F829887E0E2E01B1E16CCF52D813E8139
S11344304F815885602F772767FD7095DA01C90190
S1134440062E04C0B695A795979587950A94D2F73A
S11344508D879E87AF87B88B04C0220F331F441FFC
S1134460551FEA95D2F789819A81AB81BC8104C03A
S1134470B695A795979587956A95D2F7282B392BEA
S11344804A2B5B2B29873A874B875C8729843A849C
S11344904B845C846D847E848F8498881BC01D86C5
S11344A01E861F86188A2E2F332727FD30953095B8
S11344B021953F4F8D819E81AF81B88504C0B6950B
S11344C0A795979587952A95D2F789879A87AB8779
S11344D0BC87DCCF222D332D442D552D662D772D11
S11344E0882D992DE2E160960C940623991B79E0BE
S11344F004C0991F961708F0961B881F7A95C9F770
S113450080950895AA1BBB1B51E107C0AA1FBB1FBE
S1134510A617B70710F0A61BB70B881F991F5A954B
S1134520A9F780959095BC01CD01089597FB092EBC
S113453007260AD077FD04D0E5DF06D000201AF460
S1134540709561957F4F0895F6F7909581959F4FEB
S11345500895A1E21A2EAA1BBB1BFD010DC0AA1FC0
S1134560BB1FEE1FFF1FA217B307E407F50720F0D8
S1134570A21BB30BE40BF50B661F771F881F991F53
S11345801A9469F760957095809590959B01AC019C
S1134590BD01CF010895629FD001739FF001829FF6
S11345A0E00DF11D649FE00DF11D929FF00D839FBE
S11345B0F00D749FF00D659FF00D9927729FB00D5B
S11345C0E11DF91F639FB00DE11DF91FBD01CF016E
S11345D0112408952F923F924F925F926F927F928F
S11345E08F929F92AF92BF92CF92DF92EF92FF92FF
S11345F00F931F93CF93DF93CDB7DEB7CA1BDB0BAB
S11346000FB6F894DEBF0FBECDBF09942A8839884F
S113461048885F846E847D848C849B84AA84B98456
S1134620C884DF80EE80FD800C811B81AA81B98162
S1134630CE0FD11D0FB6F894DEBF0FBECDBFED0176
S11346400895DC0101C06D9341505040E0F7089596
S1054650FFCF96
S11346520100010022FFFFFFFFFFFF0201800000B3
S1054662000052
S9030000FC
