S01700006275696C642F697269732F6D61696E2E7372656343
S11300000C9469000C9488000C9488000C9488006B
S11300100C9488000C9488000C9488000C9488003C
S11300200C9488000C9488000C9488000C9488002C
S11300300C9488000C949A010C9488000C9486010A
S11300400C9488000C9488000C9488000C9488000C
S11300500C9488000C9488000C9488000C948800FC
S11300600C9488000C9488000C9488000C948800EC
S11300700C9488000C9488000C9488000C948800DC
S11300800C9488000C9488000C9488000C948800CC
S11300900C9488000C9488000C9488000C948800BC
S11300A00C9488000C9488000C9488000C948800AC
S11300B00C9488000C9488000C9488000C9488009C
S11300C00C9488000C9488000C94880000020E069E
S11300D00C0411241FBECFEFD1E2DEBFCDBF12E06E
S11300E0A0E0B2E0E8E6F8E000E00BBF02C0079051
S11300F00D92A030B107D9F712E0A0E0B2E001C040
S11301001D92A132B107E1F70E94F2020C9433046C
S11301100C9400008FB7F894992708958FBF089521
S11301207FB7F8946091B2002091040230910502E7
S11301304091060250910702B99B11C08091B3000F
S11301409091B200280F311D411D511D2F5F3F4F6B
S11301504F4F5F4F290F311D411D511D04C0260F04
S1130160311D411D511D872F99278FBFCA01B90128
S11301700895282F9FB7F894E82FFF27E85FFD4FD5
S113018080818F3F81F4E0912002E21771F40BC06B
S11301902093190204C0FF27E85FFD4F20832093BA
S11301A0200220E007C025E005C0809119028F3F9E
S11301B091F7EECF892F99278FBF822F9927089522
S11301C0DF92EF92FF920F931F938FB7F894282F2B
S11301D03327D22E9091B3008091B20047B3981781
S11301E011F041FF02C02FBF71C080910B02882320
S11301F0E1F10E949000E0900002F0900102009171
S113020002021091030220911C0230911D024091C0
S11302101E0250911F026E197F09800B910B621709
S113022073078407950720F010920B0271E01EC03B
S11302302E0D3F1D401F511F809104029091050215
S1130240A0910602B0910702281B390B4A0B5B0BE5
S1130250273E31054105510540F4822F223010F02C
S113026070E005C070E082E002C070E086EE682FA6
S113027061508091B60083FDFCCF8091B200681775
S113028009F46F5F20910402309105024091060247
S113029050910702DA01C9010196A11DB11D860F13
S11302A0911DA11DB11D82179307A407B50710F472
S11302B0622F60958091B60083FDFCCF6093B300FC
S11302C0DFBE772319F080E00E94B9001F910F91DF
S11302D0FF90EF90DF900895AFB7F894BB27E1E06B
S11302E0E0930B0260930002709301028093020278
S11302F09093030220931C0230931D0240931E022C
S113030050931F02AFBF0E94E00008951F920F9206
S11303100FB60F9211248F938091B0008093B00098
S11303208091B60081FDFCCF8F910F900FBE0F908E
S11303301F9018951F920F920FB60F9211242F93AE
S11303403F934F935F936F937F938F939F93AF9359
S1130350BF93EF93FF938091B0008093B00080919E
S1130360B60081FDFCCF8091B30099270196AA279E
S1130370BB2720910402309105024091060250915E
S11303800702280F391F4A1F5B1F20930402309372
S11303900502409306025093070278940E94E000FD
S11303A0FF91EF91BF91AF919F918F917F916F9149
S11303B05F914F913F912F910F900FBE0F901F901F
S11303C01895EF92FF920F931F93E0911402E1FFAF
S11303D04CC020910C0230910D0240910E025091BC
S11303E00F02E0901002F09011020091120210919D
S11303F01302621B730B840B950B6E157F0580072C
S1130400910708F432C0E0FF04C0ED7FE0931402CA
S11304100CC02E0D3F1D401F511F20930C02309322
S11304200D0240930E0250930F028FB7F89420E010
S1130430029B21E0019B2260009B246099278FBFCF
S11304408FB7F8942150332720FF02C0129801C0BF
S1130450129A21FF02C0119801C0119A22FF02C012
S1130460109801C0109A99278FBF81E00E94B900AB
S11304701F910F91FF90EF900895EF92FF920F93C9
S11304801F930E9490007B018C018FB7F8949927E9
S113049010920B028FBF8091140281FF3DC08091A6
S11304A00C0290910D02A0910E02B0910F02A801CE
S11304B09701281B390B4A0B5B0BDA01C901209108
S11304C01002309111024091120250911302281B24
S11304D0390B4A0B5B0B2F3F8FEF38078FEF480721
S11304E08FE75807C9F012161306140615062CF0E8
S11304F0C801B7010E94E1010FC020931502309397
S11305001602409317025093180281E080930A0266
S1130510C801B7010E946C011F910F91FF90EF90E9
S11305200895EF92FF920F931F9380910A028823FC
S113053061F52091150230911602409117025091F5
S11305401802EFB7F894FF2760910002709101023E
S11305508091020290910302E0901C02F0901D022F
S113056000911E0210911F026E0D7F1D801F911FAE
S1130570EFBF209315023093160240931702509355
S1130580180210920A020E946C010E9490000E94BC
S1130590E1011F910F91FF90EF900895809119024E
S11305A08F3FE9F0282F3327F901E85FFD4F808161
S11305B0809319028F3F11F4809320028FEF808380
S11305C02F3F69F0222319F0213021F005C00E9449
S11305D0910202C00E943D0281E090E0089580E013
S11305E090E008951F931FB7F89442E050E06FEF36
S11305F070E088E092E00E942C048FEF809319024F
S11306008093200281E08093810080E28093B60091
S113061083E08093B10080918400909185004AE743
S113062020918400309185002817390708F441503F
S1130630442311F0C901F4CF9091B2008091B2002B
S11306408917E1F320918400309185009091B200E4
S11306508091B2008917E1F3809184009091850024
S1130660821B930B409625E0969587952A95E1F792
S113067090931B0280931A021092B1008091B100F2
S113068080938100809181008093B6001092B20023
S113069010928500109284008FEF87BB87B386BBCE
S11306A08091B6008571E1F70A9A099A089A129A1C
S11306B0119A109A18B88FEF87B90C98149881E0A2
S11306C085BF0E94CE028823E1F78091B600806244
S11306D08093B6008091B60081FDFCCF82E08093C8
S11306E0B0008091B60080FDFCCF83E08093B10020
S11306F08091B60083FDFCCF86EE8093B300809199
S113070070008260809370000E94E0000E94CE021C
S11307108823E1F7812F99278FBF78940E94900056
S113072060930C0270930D0280930E0290930F025B
S11307308DE790E0A0E0B0E0809310029093110266
S1130740A0931202B0931302809114028E7F8260F0
S11307508093140281E00E94B9008FB7F894482F67
S1130760552757C080917000992783709070892B0A
S113077019F4E5E0F0E014C08091B6008A71E1F765
S11307808091B3009091B200891B8C3038F0809135
S1130790B200853F18F4E3E0F0E002C0E2E0F0E0EC
S11307A080916E00867009F580916F008E72E9F475
S11307B0809171008E72C9F40CB407FC16C080914C
S11307C0C100807E91F48091C900807E71F4809193
S11307D0BC0082FD0AC080917A0087FF03C081E0DB
S11307E090E005C085E090E002C080E090E023B78F
S11307F08E1708F4E82FFF27E453FF4FE491207F7E
S11308002160E22BE3BF78948895F89483B78E7FB8
S113081083BF809119028F3F09F4A4CF282F332777
S1130820F901E85FFD4F8081809319028F3F11F435
S1130830809320028FEF80832F3F09F493CF4FBF23
S1130840222321F0213009F088CF03C00E949102B5
S113085084CF0E943D0281CFDC0101C06D934150E1
S10B08605040E0F70895FFCFBA
S9030000FC
