S01700006275696C642F697269732F6D61696E2E7372656343
S11300000C947B010C949A010C949A010C949A011F
S11300100C949A010C949A010C949A010C949A01F0
S11300200C949A010C949A010C949A010C949A01E0
S11300300C949A010C94960A0C949A010C94C7059A
S11300400C94BE120C94F6120C949F060C94AA06FF
S11300500C94B5060C949A010C949A010C949A0190
S11300600C94E8050C9486080C949A010C940909E4
S11300700C949A010C949A010C949A010C94630ABE
S11300800C94420A0C944D0A0C94580A0C94760A67
S11300900C94250A0C949A010C94370A0C949A0136
S11300A00C949A010C949A010C949A010C949A0160
S11300B00C949A010C949A010C949A010C949A0150
S11300C00C949A010C949A010C949A015D13901368
S11300D0101452146914791417155115AD15C1155E
S11300E05016281758175C1767178C175513D11714
S11300F000002110422063308440A550C660E770A0
S1130100088129914AA16BB18CC1ADD1CEE1EFF147
S11301103112100273325222B5529442F772D662EF
S1130120399318837BB35AA3BDD39CC3FFF3DEE397
S11301306224433420040114E664C774A44485543F
S11301406AA54BB528850995EEE5CFF5ACC58DD5E7
S11301505336722611163006D776F6669556B4468F
S11301605BB77AA719973887DFF7FEE79DD7BCC737
S1130170C448E5588668A7784008611802282338DF
S1130180CCC9EDD98EE9AFF9488969990AA92BB987
S1130190F55AD44AB77A966A711A500A333A122A2F
S11301A0FDDBDCCBBFFB9EEB799B588B3BBB1AABD7
S11301B0A66C877CE44CC55C222C033C600C411C7F
S11301C0AEED8FFDECCDCDDD2AAD0BBD688D499D27
S11301D0977EB66ED55EF44E133E322E511E700ECF
S11301E09FFFBEEFDDDFFCCF1BBF3AAF599F788F77
S11301F08891A981CAB1EBA10CD12DC14EF16FE157
S11302008010A100C230E32004502540467067608E
S1130210B9839893FBA3DAB33DC31CD37FE35EF3A6
S1130220B1029012F322D2323542145277625672DE
S1130230EAB5CBA5A89589856EF54FE52CD50DC5F6
S1130240E234C324A014810466744764245405442E
S1130250DBA7FAB79987B8975FE77EF71DC73CD746
S1130260D326F2369106B01657667676154634567E
S11302704CD96DC90EF92FE9C899E9898AB9ABA996
S11302804458654806782768C018E1088238A328CE
S11302907DCB5CDB3FEB1EFBF98BD89BBBAB9ABBE6
S11302A0754A545A376A167AF10AD01AB32A923A1E
S11302B02EFD0FED6CDD4DCDAABD8BADE89DC98D36
S11302C0267C076C645C454CA23C832CE01CC10C6E
S11302D01FEF3EFF5DCF7CDF9BAFBABFD98FF89F86
S11302E0176E367E554E745E932EB23ED10EF01EBE
S11302F000020E060C0411241FBECFEFD1E2DEBFB4
S1130300CDBF12E0A0E0B2E0EEE3F8E300E00BBF03
S113031002C007900D92A431B107D9F714E0A4E10B
S1130320B2E001C01D92AD38B107E1F70E94181880
S11303300C941E1C0C9400008FB7F8949927089510
S11303408FBF0895282F9FB7F894E82FFF27EE5BFF
S1130350FD4F80818F3F81F4E0918304E21771F4B3
S11303600BC020936E0404C0FF27EE5BFD4F208377
S11303702093830420E007C025E005C080916E042B
S11303808F3F91F7EECF892F99278FBF822F99271F
S113039008951F931FB7F89480917C04882341F437
S11303A08AE00E94A201882319F481E080937C04EE
S11303B0812F99278FBF1F910895382FFA01422F5B
S11303C02D3118F082E090E008956683872F9927F5
S11303D085833387218780911C0290911D02892B8C
S11303E019F085E090E008952FB7F894332785E05D
S11303F080931F0210922002F0931B02E0931A02D2
S113040082E090E090931D0280931C0210922202DD
S113041010922102445F40931E022FBF9FB7F894AD
S113042080911903882311F020E006C081E08093B5
S1130430190310921A0321E0892F99278FBF2223D1
S113044029F00E94C90180E090E0089510921D02F5
S113045010921C0281E090E00895EF92FF921F93A6
S1130460CF93DF93182F7B01E82FFF27EE0FFF1F99
S1130470E157FC4F1182108210921302A0918F0356
S1130480B0919003109721F08091720480FF11C005
S113049081E08093130203C081E10E94A201112331
S11304A0E1F481E2E81684E0F806B9F4109214024B
S11304B014C0FD01359624813327ED016D81772722
S11304C0762F662781819927682B792BAD01868148
S11304D00E94DD01882319F3DFCFDF91CF911F91B3
S11304E0FF90EF900895EF920F931F93AE2D99E034
S11304F0899FF0011124E556FC4F408351836283A8
S113050073830483158326833783A17080858E7F4C
S11305108A2B8260808781E00E94A2011F910F9143
S1130520EF9008957FB7F8946091B20020913D0256
S113053030913E0240913F0250914002B99B11C05C
S11305408091B3009091B200280F311D411D511DBF
S11305502F5F3F4F4F4F5F4F290F311D411D511DDD
S113056004C0260F311D411D511D872F99278FBFB0
S1130570CA01B90108959FB7F894809117048A308D
S113058011F020E006C020E080916402843009F478
S113059021E0892F99278FBF222349F08CE00E9404
S11305A0A2018FB7F89499271092170206C08FB74B
S11305B0F894992721E0209317028FBF08952FB74D
S11305C0F89433278093C600E0ECF0E080818064E7
S11305D080832FBF0895FC016115710519F481E032
S11305E090E008958091150390911603892B19F0DA
S11305F085E090E0089570935E0460935D04F09349
S11306001603E0931503109266021092650281E0CE
S1130610809367028091C00080648093C0008091C1
S1130620C10080648093C100808121E030E0309378
S11306306602209365020E94DF0280E090E0089544
S1130640809128028E7F809328028EE78093550242
S113065061E070E085E592E00E94EB02992708953D
S1130660882319F08CB5806402C08CB58F7B8CBD57
S113067008950F931F93982F1FB7F8948091160233
S1130680823099F580910B02891779F580910902DE
S113069020E030E08F3F11F421E030E0232BF1F42F
S11306A09FEF90930B028F3F19F42FEF30E00DC0B2
S11306B0282F3327F901EE5EFC4F808180930902D5
S11306C08F3F11F490930A0290832093140381E0E6
S11306D08093160289E00E94A20105C08FEF8093E7
S11306E00B021092160201E001C000E0812F99274D
S11306F08FBF1FB7F89480911602882311F40E94CB
S11307003003812F99278FBF90E0013009F491E0E5
S113071081E09827892F99271F910F9108958823A5
S113072019F08CB5806802C08CB58F778CBD0895A4
S11307300F931F9380E00E9430030FB7F8941127A2
S1130740229A2398219A8CB580618CBD80E00E9406
S11307508F038DB581608DBD8CB5877F8CBD8CB5C5
S11307608B7F8CBD8CB58E7F8CBD81E00E94300365
S11307700FBF1F910F910895FB0121E030E002C0EB
S1130780220F331F8A95E2F780A9822B80AB08954C
S11307908FB7F89420919103309192034091930381
S11307A050919403E0918400F0918500B09B08C0BF
S11307B02F5F3F4F4F4F5F4FE0918400F0918500D2
S11307C099278FBFC901772766279F01442755279B
S11307D0622B732B842B952B0895FC0140E050E091
S11307E082819927982F882721813327822B932B65
S11307F087749C7C8154984811F441E050E0CA010C
S11308000895FC0187819927982F8827268133270B
S1130810822B932B0895AC01EFB7F89420918400B8
S113082030918500C901841B950B039686179707A1
S113083020F0B9016D5F7F4F02C0640F751F611511
S1130840710511F461E070E06150704070938900AB
S11308506093880082E086BB80916F008260809301
S11308606F008E2F99278FBF089520E030E0FC01A0
S113087081818770823011F421E030E0C90108954C
S1130880CF93DF93EC01898185FF1AC0CE010E94CA
S1130890ED038823A9F0CE010E9401042FB7F89438
S11308A0332740910402509105022FBF20E08417A2
S11308B0950709F021E081E02827822F992702C0BB
S11308C080E090E0DF91CF910895FB0121E030E0DA
S11308D002C0220F331F8A95E2F780A98223992749
S11308E00895EF92FF920F931F937C018FB7F894B2
S11308F0992700915802109159020F5E1E4F1093D0
S1130900590200935802015111408FBF87E00E94A1
S1130910A201C801B7010E948B1B8A5D9E4F1F91E3
S11309200F91FF90EF9008951F93982F1FB7F8949D
S113093080911502823099F580910802891779F522
S11309408091060220E030E08F3F11F421E030E096
S1130950232BF1F49FEF909308028F3F19F42FEFAC
S113096030E00DC0282F3327F901E25AFD4F808172
S1130970809306028F3F11F4909307029083209393
S11309805B0281E08093150282E00E94A20105C00F
S11309908FEF809308021092150221E001C020E03D
S11309A0812F99278FBF90E0213009F491E081E0F5
S11309B09827892F99271F910895E0913A02F09181
S11309C03B0210923B0210923A028091AC038D7F5D
S11309D08093AC03809160029091610291A780A7FB
S11309E082858F3319F480E00E9494040895FC01F9
S11309F080A591A50895FC0182A593A50895CF93A0
S1130A00DF93FC01DC0111962181662351F0ED0195
S1130A1089819927982F882733272062822B932B4B
S1130A2009C0ED0189819927982F88273327822BC4
S1130A30932B8F7D8183892F99278983DF91CF9190
S1130A400895DF92EF92FF920F931F938FB7F8945C
S1130A50282F3327D22E9091B3008091B20047B350
S1130A60981711F041FF02C02FBF71C08091690235
S1130A708823E1F10E949202E0903302F090340264
S1130A800091350210913602209173043091740460
S1130A9040917504509176046E197F09800B910B77
S1130AA0621773078407950720F01092690271E0BA
S1130AB01EC02E0D3F1D401F511F80913D0290917D
S1130AC03E02A0913F02B0914002281B390B4A0B11
S1130AD05B0B273E31054105510540F4822F22303E
S1130AE010F070E005C070E082E002C070E086EEB5
S1130AF0682F61508091B60083FDFCCF8091B200D5
S1130B00681709F46F5F20913D0230913E024091D5
S1130B103F0250914002DA01C9010196A11DB11DA5
S1130B20860F911DA11DB11D82179307A407B50758
S1130B3010F4622F60958091B60083FDFCCF609322
S1130B40B300DFBE772319F080E00E94A2011F9159
S1130B500F91FF90EF90DF900895AFB7F894BB2703
S1130B60E1E0E0936902609333027093340280936E
S1130B7035029093360220937304309374044093A7
S1130B80750450937604AFBF0E94210508951F9207
S1130B900F920FB60F9211248F938091B00080931F
S1130BA0B0008091B60081FDFCCF8F910F900FBEF5
S1130BB00F901F9018951F93182F81E00E94300307
S1130BC01EBD0DB407FEFDCF8EB599271F91089564
S1130BD01F920F920FB60F9211248F929F92AF9291
S1130BE0BF92CF92DF92EF92FF920F931F932F93B6
S1130BF03F934F935F936F937F938F939F93AF93A1
S1130C00BF93CF93DF93EF93FF932EB5E09113043B
S1130C10F0911404309739F080918D0390918E03F4
S1130C20E80FF91F208380918D0390918E03019624
S1130C3090938E0380938D0380E00E948F03C09174
S1130C408D03D0918E0380912B0290912C02C817B2
S1130C50D90708F046C00091770410917804809079
S1130C601304909014040F2EFAE0AF2EBB24F02D41
S1130C70AC0EBD1E8A159B0508F45C016401CC0E04
S1130C80DD1E7801EC0EFD1E15C00115110519F0CD
S1130C90F701808101C080E00E94DB05811491048A
S1130CA011F0F601808321960894C11CD11C08948C
S1130CB0E11CF11CC5010197C817D90730F381E085
S1130CC00E948F030115110531F00C0F1D1FF8014F
S1130CD080818EBD01C01EBCD0938E03C0938D0352
S1130CE011C01092140410921304109278041092FC
S1130CF0770410922C0210922B0210928E03109201
S1130D008D038EB5FF91EF91DF91CF91BF91AF919C
S1130D109F918F917F916F915F914F913F912F910F
S1130D201F910F91FF90EF90DF90CF90BF90AF9005
S1130D309F908F900F900FBE0F901F9018957894EE
S1130D401F920F920FB60F9211240F900FBE0F90A7
S1130D501F90189578941F920F920FB60F9211243A
S1130D600F900FBE0F901F90189578941F920F92BA
S1130D700FB60F9211242F933F938F939F93AF93AA
S1130D80BF932FB7F89433278091910390919203E6
S1130D90A0919303B09194030196A11DB11D80937A
S1130DA0910390939203A0939303B09394032FBF62
S1130DB0BF91AF919F918F913F912F910F900FBE53
S1130DC00F901F901895E0EFF0E06927660FF11D72
S1130DD0E60FF11DC895982F802D3196C895902562
S1130DE00895982F80912302882389F5992379F512
S1130DF031E03093230280910C02809324022091ED
S1130E001802822F817080933C028091110290918C
S1130E1012029093260280932502809119028093F6
S1130E20270232273170267EE32FFF27EE0FFF1FA4
S1130E30E35FFD4F808191819093120280931102B0
S1130E40232B209318028FE00E94A2010895809121
S1130E50180280FF02C08B7F01C08D7F809318022F
S1130E6008950F931F93082F162F809164028130E9
S1130E70D9F0813038F0823009F44AC0833009F067
S1130E800EC159C0002309F43EC1109256041092B9
S1130E90550410921B041092690410926802109277
S1130EA09603109295031FC1002309F02CC1809171
S1130EB09503909196030E94E30690939603809382
S1130EC0950382E08093640210936904143409F05A
S1130ED0E6C00BC18695869503C08091180286955D
S1130EE0817009F0DCC080911802992311F08460AC
S1130EF001C082608093180280911802877E886006
S1130F0080931802109219028FEF80930C02FBC099
S1130F10002309F0C4C06093680280919503909106
S1130F2096030E94E306909396038093950383E0CF
S1130F3080936402E8C080911B048F3F09F4AFC022
S1130F40002309F447C0823008F4A9C0E091550495
S1130F50EE2309F4D1C04E2F4150E42FFF27EB5A62
S1130F60FB4F82819927382F2227442311F4E2E092
S1130F7002C0E42FE150FF27EB5AFB4F82819927EF
S1130F80282B392B809195039091960328173907C4
S1130F9009F085C080E00E94F106309168028091DA
S1130FA0850320918603982F9F5F963008F090E088
S1130FB0921709F474C0E82FFF27EB57FC4F3283D4
S1130FC08F5F80938503863010F0109285030E9412
S1130FD0C90165C0823008F44EC0E0915604FF2771
S1130FE0EB5AFB4F8281482F5527342F209118024A
S1130FF0822F8695869586958370992781309105F1
S113100019F00297F9F40EC0277E2061209318028C
S1131010442311F485E001C080E0809319023093E9
S11310200C0210C080911902833360F4E091110224
S1131030F0911202E80FF11D4083809119028F5F35
S11310408093190280915604E82FFF27EB5AFB4F37
S113105062818F5F80935604833010F0109256049F
S1131060772780919503909196030E94E3069093CD
S113107096038093950380915504E82FFF27EB5A3C
S1131080FB4F12838F5F80935504833010F01092CE
S1131090550480911B048F5F80931B0434C010920D
S11310A05604109255041092640210921B0410927C
S11310B0690410926802109296031092950380912D
S11310C028028D7F8093280281E00E94F10680919E
S11310D01702882331F084E0809364020E94BB02EB
S11310E012C0002381F081E023CF80911802982F51
S11310F0917080FDEFCEF1CE809159049927382F5D
S1131100222742E036CF1F910F9108951F920F922C
S11311100FB60F9211242F933F934F935F936F93C6
S11311207F938F939F93AF93BF93EF93FF9380919C
S1131130C00087FF42C06091C600E0919703F09120
S11311409803309719F180917A0490917B04E80F09
S1131150F91F6083019690937B0480937A04209115
S11311608604309187048217930738F1109298030C
S113117010929703809116048330F9F08091C10096
S11311808F778093C1001092160417C06E3719F43C
S113119060E081E010C0809128026D3721F4826004
S11311A0809328020AC081FF05C08D7F80932802A6
S11311B080E2682780E00E943107FF91EF91BF91A0
S11311C0AF919F918F917F916F915F914F913F91DB
S11311D02F910F900FBE0F901F901895982F8D5739
S11311E0823068F48091280281608093280280E232
S11311F0892780931A048DE78093550202C0909347
S1131200550261E070E085E592E00E94EB029927C7
S1131210089578941F920F920FB60F921124FF92A3
S11312200F931F932F933F934F935F936F937F93EA
S11312308F939F93AF93BF93CF93DF93EF93FF93DA
S1131240209165023091660280915D0490915E0464
S11312502817390780F4E0911503F0911603E20F83
S1131260F31F80812F5F3F4F309366022093650206
S11312700E94DF02D4C0109216031092150310923C
S113128067028091C1008F7B8093C1008091280206
S113129080FF0EC08E7F8093280280911A04809371
S11312A0550261E070E085E592E00E94EB02B7C070
S11312B080911704843009F494C0853040F482305E
S11312C021F18330B8F5813009F0A4C00DC0863017
S11312D009F495C0863008F48BC0873009F496C0B1
S11312E0883009F097C099C0809113030E94EE08DA
S11312F0182F83E080931704609113038091840472
S1131300909185040E94E30610C0809171040E94AC
S1131310EE08182F83E08093170460917104809184
S11313208404909185040E94E3069093850480933D
S113133084046EC0FFB6F894E0919A03FF27EE0F81
S1131340FF1FE85EFC4F80810E94EE08082F109179
S11313509A03C12FDD27FE01EE0FFF1FE85EFC4F4D
S1131360608180918404909185040E94E3069093A7
S1131370850480938404209111032F5F209311032B
S1131380113039F580911F02E0911A02F0911B028D
S1131390E80FF11DE0818F5F80931F0290911E0280
S11313A0981730F482E08093190340E050E002C0C3
S11313B04E2F5527DE01AA0FBB1FFD01E95EFC4F2E
S11313C08081823031F02F3F21F0A85EBC4F4C93D6
S11313D003C084E080931704102F8F2D99278FBFAB
S11313E017C0809184040E94EE08182F85E00BC07A
S11313F0809185040E94EE08182F86E004C00E94A4
S11314002003182F87E08093170402C088E003C0EC
S1131410112329F089E0809317040E94C901FF91E8
S1131420EF91DF91CF91BF91AF919F918F917F9178
S11314306F915F914F913F912F911F910F91FF9069
S11314400F900FBE0F901F9018951F920F920FB61A
S11314500F9211248F938091C80087FF02C080915E
S1131460CE008F910F900FBE0F901F901895789417
S11314701F920F920FB60F9211240F900FBE0F9070
S11314801F90189578941F920F920FB60F92112403
S11314900F900FBE0F901F90189578941F920F9283
S11314A00FB60F9211240F900FBE0F901F90189536
S11314B078941F920F920FB60F9211240F900FBEC3
S11314C00F901F90189578941F920F920FB60F9259
S11314D011248F939F9380919400909195009F91F4
S11314E08F910F900FBE0F901F90189578941F92B4
S11314F00F920FB60F9211242F933F938F939F93C4
S11315002FB7F89433278091730290917402019657
S113151090937402809373022FBF9F918F913F9198
S11315202F910F900FBE0F901F9018951F920F923E
S11315300FB60F9211242F933F934F935F936F93A2
S11315407F938F939F93AF93BF93EF93FF93809178
S1131550B0008093B0008091B60081FDFCCF8091F3
S1131560B30099270196AA27BB2720913D02309109
S11315703E0240913F0250914002280F391F4A1FFA
S11315805B1F20933D0230933E0240933F025093F1
S1131590400278940E942105FF91EF91BF91AF9191
S11315A09F918F917F916F915F914F913F912F9177
S11315B00F900FBE0F901F90189521E020935404B4
S11315C0209310032091840030918500BC01C9014F
S11315D00E940B0408950F931F93CF93DF93182F4A
S11315E00FB7F89480911602882311F40E9498038F
S11315F0802F99278FBF8FB7F894C82FDD272C2F02
S113160080911602882361F481E08093160210937E
S1131610140389E00E94A201CFBF80E090E021C0C2
S1131620E12FFF27EE5EFC4F80818F3F89F4E0912C
S11316300A02E11789F40CC01093090204C0FF27C1
S1131640EE5EFC4F108310930A0280E090E002C02B
S113165085E090E02FBF05C0809109028F3F79F7A4
S1131660EBCFDF91CF911F910F910895AF92BF926D
S1131670CF92DF92EF92FF920F931F935B016C0165
S11316806091A30361FF1FC020919B0330919C03D1
S113169040919D0350919E03E0909F03F090A0031E
S11316A00091A1031091A203D601C501821B930BE3
S11316B0A40BB50B8E159F05A007B10720F0EBE92D
S11316C0F3E090E021C0E4EAF3E06091AC0361FF51
S11316D096C02091A4033091A5034091A603509194
S11316E0A703E090A803F090A9030091AA03109126
S11316F0AB03A21AB30AC40AD50AAE14BF04C006C7
S1131700D10608F47CC091E060FF04C080858D7F21
S1131710808708C02E0D3F1D401F511F2083318339
S113172042835383992321F0913009F068C05EC04D
S113173080911402882309F062C080910002909184
S1131740010280933004292F332720932F0463E070
S113175070E00E948B1B019680932E04892F992799
S113176080932D048091020290910302019690933C
S1131770030280930202019780933204892F9927F0
S11317808093310441E254E08FEF809327048093E7
S1131790260488E080932C0480918F039091900319
S11317A0892B69F55093900340938F0386E08093CF
S11317B02A04809113028823A9F01092130226E0D0
S11317C06FEF7FEF88E00E94DD019927282F88239F
S11317D049F081E0809313021092900310928F03DA
S11317E0222369F481E08093140209C080913A02B3
S11317F090913B02892B19F083E00E94A20181E0C1
S11318000E94A2011F910F91FF90EF90DF90CF9063
S1131810BF90AF9008958FB7F894282F3327922F55
S113182080910B02882331F480911602823011F4E6
S11318302FBF13C09FBF8FB7F894282F33278091F1
S11318401602882369F482E08093160210920B0238
S11318502FBF0E949803209A289A81E090E008956F
S11318602FBF80E00E94EB0A80E090E008959C0185
S113187080912902882319F085E090E0089530933F
S113188019042093180481E08093290210925003D4
S113189085E00E94A20180E090E008952FB7F894BB
S11318A03327809354022FBF85E00E94A20108953C
S11318B04F925F926F927F928F929F92AF92BF925C
S11318C0CF92DF92EF92FF920F931F93CF93DF9308
S11318D02C0180912A02882309F03FC18091790468
S11318E0853009F03AC10E940B0C882309F435C1F4
S11318F080915A04882309F030C1B20182E00E9429
S11319006504882311F490E003C0F20192A99F704A
S113191080915103981781F090935103289885EC96
S11319208EBD0DB407FEFDCF8EB590689EBD0DB47F
S113193007FEFDCF8EB5289AC2010E94ED038823CD
S113194001F1289886E88EBD0DB407FEFDCF8EB553
S11319501EBC0DB407FEFDCF8EB5289A99278F7152
S113196090702091710240915F02240F312D311D3E
S113197043E0359527954A95E1F7281739070CF484
S1131980ECC0289882EC8EBD0DB407FEFDCF8EB559
S113199089E08EBD0DB407FEFDCF8EB5289A0E9456
S11319A0C8036B017C01B20184E00E9465048823B2
S11319B019F4C0E0D0E006C0F20180818550E20154
S11319C0C80FD11D289881E88EBD0DB407FEFDCF48
S11319D08EB51EBC0DB407FEFDCF8EB5289A8F714F
S11319E0893021F087E080937904B7C08FB7F894E9
S11319F099272F9A20918400309185008FBF2F98CA
S1131A00289880E68EBDF20190810DB407FEFDCFCB
S1131A108EB59EBD192F1250173010F4612F01C0DE
S1131A2067E0A2014F5F5F4FFA01962F71910DB4E9
S1131A3007FEFDCF8EB57EBD9150C1F76150FA010E
S1131A40E60FF11D6F5F31962C193D092E553F4F5E
S1131A503901882477FC8094982C6C0C7D1C8E1C96
S1131A609F1C209719F4912F961B1FC08881998180
S1131A70AA81BB8186199709A809B9098B83292FE3
S1131A803A2F4B2F55272A839D0144275527298315
S1131A908B2F9927AA27BB278883E5CF20810DB4F4
S1131AA007FEFDCF31968EB52EBD9150B8F70DB41B
S1131AB007FEFDCF8EB5289A289882EC8EBD0DB412
S1131AC007FEFDCF8EB586E08EBD0DB407FEFDCFBB
S1131AD08EB5289A209779F18881E9802A81AB8094
S1131AE0332744275527542F432F322F2227992752
S1131AF0AA27BB27B82FAA2799278827FF240027BE
S1131B0011278701FF24EE248E299F29A02BB12BB6
S1131B10BB24CC24DD248A299B29AC29BD29282B6C
S1131B20392B4A2B5B2B260D371D481D591D288345
S1131B3039834A835B83B20181E00E94BC03F201D2
S1131B4064A675A686A697A686E08093790484E0A9
S1131B5080932A0280E090E002C085E090E0DF916B
S1131B60CF911F910F91FF90EF90DF90CF90BF9096
S1131B70AF909F908F907F906F905F904F9008955B
S1131B80AF92BF92CF92DF92EF92FF920F931F9387
S1131B90CF93DF9380915A04882309F40BC10E94E8
S1131BA00B0C882309F406C18FB7F8949927C091C8
S1131BB00E03D0910F038FBF10925A0428988FE818
S1131BC08EBD0DB407FEFDCF8EB51EBC0DB407FE51
S1131BD0FDCF8EB5289A982FA82EBB24A0FE0CC04A
S1131BE080912A02833011F0873031F485E08093AC
S1131BF0790488E080932A02A2FE63C080912A02BD
S1131C00863019F410922A0203C0882309F059C0BF
S1131C10943009F045C0289886E88EBD0DB407FEBF
S1131C20FDCF8EB51EBC0DB407FEFDCFFEB4289AC1
S1131C302FE1F22280915F02982F969596953F2D81
S1131C40391B830F80935F02009137021091380291
S1131C50F80180A98B7F80ABB80183E00E94BC03AC
S1131C60F801F2AA0E94C8037B018C01C0903702DC
S1131C70D0903802B60181E00E94BC03CE19DF097E
S1131C802797CE01AA2797FDA095BA2F8E0D9F1DE9
S1131C90A01FB11FF60184A795A7A6A7B7A70EC0DA
S1131CA0E0913702F091380280A9877F80ABE09100
S1131CB03702F091380280A98D7F80AB85E0809354
S1131CC02A02A3FE77C080912A02843009F03FC023
S1131CD085E08093790410922A0280916C0283300B
S1131CE019F410926C0266C0C0914E03D0914F0358
S1131CF0898185FF24C0CE010E94ED038823F9F079
S1131D00CE010E9401048F5F9F4FC9F090E0809143
S1131D101003882309F491E0992389F012E01093C9
S1131D20540481E080931003809184009091850095
S1131D3061EE72E00E940B0410936C023BC010929F
S1131D406C0210927D0480E00E944E0C33C08530FA
S1131D5089F580917904873091F4289882EC8EBDBE
S1131D600DB407FEFDCF8EB586E08EBD0DB407FE23
S1131D70FDCF8EB5289A85E08093790417C0209111
S1131D807102289886E88EBD0DB407FEFDCF8EB58E
S1131D901EBC0DB407FEFDCF8EB5289A8F71922F0D
S1131DA096959695891B280F2093710289E080935C
S1131DB02A0208C090912A02992309F4E6C29930B4
S1131DC009F013C2289880E28EBD0DB407FEFDCF42
S1131DD08EB51EBC0DB407FEFDCF8EB5482F55271A
S1131DE0433008F4A2C3842F99278A970CF09DC32B
S1131DF01EBCE0913702F091380240830EEFE02ED2
S1131E00E40E26E02E1510F0FE2C02C017E0F12E91
S1131E109F012F5F3F4F9F2DF901CC24DD240DB48A
S1131E2007FEFDCF8EB51EBC80838191A601482795
S1131E30042E4295407F4025052E542F42954F7025
S1131E400426469554274527440F440F440F402544
S1131E506A01915021F7FA9489010F0D111DF39431
S1131E600F5F1F4FC0913702D0913802CE010E94FC
S1131E7035048823C1F080916C02823089F48B810F
S1131E80E0914E03F0914F039381891749F48981BE
S1131E9090E08770823009F091E081E098270EC0CD
S1131EA080E090E00DC08FB7F894282F332790E09E
S1131EB080919903833008F491E02FBF892F9927EB
S1131EC0892B09F432C39E2D9F191CC00DB407FE43
S1131ED0FDCF8EB51EBCF801808381918F019601E0
S1131EE02827022E2295207F2025032E322F22958B
S1131EF02F700226269532272327220F220F220F26
S1131F0020256901915010F70DB407FEFDCF8EB561
S1131F101EBC96012827022E2295207F2025032E01
S1131F20322F22952F700226269532272327220F3F
S1131F30220F220F20250DB407FEFDCF8EB51EBC47
S1131F402827022E2295207F2025032E322F22952A
S1131F502F700226269532272327220F220F220FC5
S1131F6020250DB407FEFDCF8EB5E0913702F09128
S1131F70380281AB289A85E08093790410922A0272
S1131F80232B09F0FEC1E0903702F0903802C7011C
S1131F900E943504282F3327122F80916C0282303F
S1131FA0E1F480916F008D7F80936F001092100395
S1131FB0E0914E03F0914F03222329F0BF0180E00A
S1131FC00E94BC0303C080A98E7F80AB10926C0278
S1131FD010927D0480E00E944E0C112309F000C190
S1131FE0C7010E9440048823A9F085E0809352032E
S1131FF082E08093530310925403F701838180930A
S1132000550382E593E00E94580C882319F483E079
S113201080936C020091840010918500C7010E9496
S11320204004882311F0045E1C4F10936302009354
S113203062028091840090918500081B190BC801ED
S1132040101611066CF420917D04222331F40E94B1
S1132050DD0A80E880937D0403C0206820937D041A
S113206067010894C11CD11CF7018185208599273B
S1132070582F44273327422B532B80914102282F7A
S11320803327F901EE0FFF1FE15AFB4F8081918145
S1132090709115048417950769F4F901E258FB4F10
S11320A08081871709F467C0872F8F5F8093150499
S11320B080831DC000E010E080E090E0CFE5D4E034
S11320C0EEE7F4E0DF01682F9C0188819981841791
S11320D0950779F420934102909115048C91891706
S11320E009F449C0892F8F5F809315048C9300E80D
S11320F029C08081972F981B091710F4092F122FDC
S11321006F5FC9010196119622963196853091052B
S1132110D1F66530B9F410934102A12FBB27FD011C
S1132120EE0FFF1FE15AFB4F51834083809115044A
S11321308F5F80931504FD01E258FB4F8083A857FD
S1132140BB4F1C9290911504892F8F778F3779F4A8
S11321500F3768F0EEE7F4E0292F207880818F674D
S113216089132083319634E0E338F307B9F780917B
S11321704102282F3327F6019281A22FBB27FD01AC
S1132180E857FB4F808180FF07C0FD01E45EFB4FF1
S11321908081981729F102C081608083A45EBB4FBF
S11321A09C93DFB6F894809199038330B0F4E09166
S11321B03902E80FE33008F0E350FF27EE0FFF1F6A
S11321C0E35DFD4F00811181F182E0828F5F809396
S11321D0990386E00E94A20178018D2D99278FBF73
S11321E0F0923802E0923702C3C0892F81508330C5
S11321F008F09CC081508230E0F430917904313091
S1132200C1F420E080911003882309F421E0222303
S113221081F02F9883E080935404309310038091CD
S11322208400909185006BE273E00E940B0482E0CD
S113223068C0933009F042C080917904833009F07A
S113224097C00E940B0C8823C9F128988FE88EBD93
S11322500DB407FEFDCF8EB51EBC0DB407FEFDCF39
S11322608EB5289A8091810080648093810080E2F9
S113227086BB80916F00806280936F0090915A02B8
S1132280289888EC8EBD0DB407FEFDCF8EB5906600
S11322909EBD0DB407FEFDCF8EB5289A289882EC1A
S11322A08EBD0DB407FEFDCF8EB586E08EBD0DB498
S11322B007FEFDCF8EB5289A84E023C080912A02C0
S11322C08150823000F5809179048530E1F40E94D8
S11322D00B0C8823C1F0289882EC8EBD0DB407FE48
S11322E0FDCF8EB583E08EBD0DB407FEFDCF8EB558
S11322F0289A80916F008F7D80936F0010925A040A
S113230083E08093790490912A02913041F4809182
S113231079048330B1F52F9A9093790425C09230D3
S113232039F580917904833061F51EC0973001F549
S11323300E940B0C8823E1F090915A02289888ECB3
S11323408EBD0DB407FEFDCF8EB590669EBD0DB457
S113235007FEFDCF8EB5289A80917904853021F44B
S113236084E08093790404C088E080932A0204C046
S113237080912A02883029F410922A0284E00E9473
S1132380A20180912A02882331F580917904853055
S1132390F9F480915A048823D9F480916C0288233B
S11323A0B9F480917D04882399F490E0809110031E
S11323B0882309F491E0992359F08091290281300E
S11323C039F485E00E94A20180912A02882319F43D
S11323D080E00E94390380911003823009F098C094
S11323E010921003F0905404F2E0FF1609F46CC04C
S11323F023E0F21609F470C031E0F31609F088C046
S11324002091620230916302809184009091850052
S113241040917D04403859F410927D048091290242
S1132420813009F075C085E00E94A20171C0890164
S1132430081B190B47FF03C010161106ECF0C091DE
S11324406A02D0916B0280916C028823A9F4CE01B8
S11324500E94580C9927882351F488A98E7F88AB51
S1132460F0926C02D0934F03C0934E0329C0992776
S1132470F82E882329F102C055E0F52E20917D0421
S1132480822F99278F77019759F42078226020931F
S11324907D0480E198E00E9471040E94DD0A38C046
S11324A027FF0AC0101611063CF480E880937D04CF
S11324B0C8010E94DD0A02C010927D048F2D09C05C
S11324C083E080937D0424C010926C0210927D04FA
S11324D080E00E944E0C1CC080917904823019F473
S11324E0F092790413C080912A02863079F4109214
S11324F02A02289881E88EBD0DB407FEFDCF8EB563
S11325001EBC0DB407FEFDCF8EB5289A0E94AA12F8
S11325108FB7F894282F332780915702813061F0C8
S113252081E0809357022FBF35CB289A85E08093B2
S1132530790410922A0225CF109257022FBFDF91FF
S1132540CF911F910F91FF90EF90DF90CF90BF90AC
S1132550AF9008958FB7F894282F332780915702AE
S1132560882329F08068809357022FBF089581E063
S1132570809357022FBF0E94C00D089578941F9234
S11325800F920FB60F9211242F933F934F935F93A3
S11325906F937F938F939F93AF93BF93EF93FF9327
S11325A0809184009091850020918600309187006D
S11325B08FB7F894992730930F0320930E0321E0EB
S11325C020935A048FBF0E94AA12FF91EF91BF91EA
S11325D0AF919F918F917F916F915F914F913F91B7
S11325E02F910F900FBE0F901F90189578941F9203
S11325F00F920FB60F9211242F933F934F935F9333
S11326006F937F938F939F93AF93BF93EF93FF93B6
S113261080916F008D7F80936F0078949FB7F894BA
S113262080911003813019F482E080931003892F84
S113263099278FBF0E94AA12FF91EF91BF91AF918A
S11326409F918F917F916F915F914F913F912F91C6
S11326500F900FBE0F901F9018952F923F924F929C
S11326605F926F927F928F929F92AF92BF92CF921E
S1132670DF92EF92FF920F931F93CF93DF93CDB727
S1132680DEB729970FB6F894DEBF0FBECDBFE82F93
S1132690FF27E231F10508F095C4EA59FF4FEE0F28
S11326A0FF1F0590F491E02D099480917204882312
S11326B009F488C440E051E053C480915602882351
S11326C061F520916A0430916B0440916C0450913F
S11326D06D04EFB7F894FF276091330270913402D0
S11326E08091350290913602E0907304F090740466
S11326F000917504109176046E0D7F1D801F911F4B
S1132700EFBF20936A0430936B0440936C0450939E
S11327106D04109256020E94AD050E9492026DC093
S11327200E9492025B016C018FB7F8949927109272
S113273069028FBF8091A30381FF25C080919B0311
S113274090919C03A0919D03B0919E03A6019501D5
S1132750281B390B4A0B5B0BE0909F03F090A003FE
S11327600091A1031091A203E21AF30A040B150BC2
S11327703FEFE3163FEFF3063FEF03073FE713078F
S113278011F061E009C02FEFE22E2FEFF22E2FEFB0
S1132790022F2FE7122F60E08091AC0381FF21C04C
S11327A08091A4039091A503A091A603B091A703DF
S11327B0A6019501281B390B4A0B5B0BDA01C901F1
S11327C02091A8033091A9034091AA035091AB032F
S11327D0281B390B4A0B5B0B2E153F05400751078D
S11327E02CF0662309F4EEC3A80197011216130610
S11327F0140615062CF0C601B5010E94360BE2C37F
S113280020936A0430936B0440936C0450936D04DA
S113281081E080935602C601B5010E94AD05D2C382
S11328202FB7F894332780915B028093080282E0EB
S1132830809315022FBF80910802882309F0C2C338
S113284000915C0210915D028FE3F8018287809110
S113285072028F5F80937202838380913A02909117
S11328603B02892BD9F4C8010E94F704892B21F07B
S113287061E0C8010E94FF04C8010E94370C992737
S1132880882349F410933B0200933A0210926102A8
S11328901092600297C3882309F494C380E00E94D5
S11328A0940490C300913A0210913B02C8010E9423
S11328B0F704892B21F061E0C8010E94FF04809194
S11328C03A0290913B020E94370C882309F47AC3A0
S11328D0A8C08091290210922902843009F472C39D
S11328E0853009F46FC3863009F46CC380932902E0
S11328F069C38FB7F8949927F09054028FBF8091E1
S11329002902823011F4FF2039F0809150038F5F47
S113291080935003863020F083E0809329024EC0D8
S11329208FB7F8949927209157022F5F209357026D
S11329308FBF209118043091190480917D0488235D
S1132940D1F490E080911003882309F491E0992355
S113295091F030936B0220936A0281E080937D04AE
S113296086EB93E20E9471040E94DD0A82E0809368
S11329702902FF240BC080915003853011F483E0B9
S113298001C081E08093290295E0F92E8FB7F89475
S1132990282F332780915702815080935702803823
S11329A011F02FBF06C081E0809357022FBF0E9411
S11329B0C00D80912902833009F004C310922902CA
S11329C060911804709119040091600210916102E1
S11329D00F5F1F4F109361020093600280E00E941A
S11329E06504882311F080E01FC0C0903A02D090A3
S11329F03B02C6010E94F70408171907A0F4C60198
S1132A000E94FB048C01892B61F00E949202AB01AD
S1132A10BC012227332781E0E82E81E00E94730263
S1132A20D1C283E046C28F2D0E94DD04CBC28FB792
S1132A30F894282F332780919903882309F48EC2B0
S1132A40E0913902FF27EE0FFF1FE35DFD4F008188
S1132A5011812FBFF80182858F3319F0C8010E94BC
S1132A6001048FB7F89499278FBF9FB7F89480918A
S1132A703902E82FFF27EE0FFF1FE35DFD4F11839F
S1132A8000838F5F80933902833010F010923902F3
S1132A9080919903815080939903892F99278FBF3F
S1132AA0C6CFFFB7F983F89420906D0230906E0280
S1132AB040906F0250907002662477248824FEE4CC
S1132AC0AF2EE3E8BE2ECC24DD24EE24FF2400E068
S1132AD010E0222D332D442D552D662D772D882D74
S1132AE090E00E940A1A2A833B834C835D836E83A1
S1132AF07F8388879987822E932EA42EB52E240156
S1132B00350100E20E94081BA22EB32EC42ED52E3E
S1132B10A301920156954795379527952A0D3B1D9C
S1132B204C1D5D1D57FF05C05F772F5F3F4F4F4F13
S1132B305F4F20936D0230936E0240936F02509367
S1132B4070026981862F99278FBF8FB7F8949927D0
S1132B50309359022093580213C08FB7F8949927E1
S1132B6010921404109213041092780410927704B3
S1132B7010922C0210922B0210928E0310928D034D
S1132B80EBC12FB7F89433278091140380930B0281
S1132B9082E0809316022FBF80910B02882309F0F4
S1132BA011C2209A289A80917904882309F075C06B
S1132BB08EEF91E0019701960197E1F716982F980F
S1132BC086E090E0019701960197E1F7169A28981C
S1132BD083EC8EBD0DB407FEFDCF8EB51EBC0DB4C7
S1132BE007FEFDCF8EB5289A289882EC8EBD0DB4D1
S1132BF007FEFDCF8EB588E08EBD0DB407FEFDCF78
S1132C008EB5289A8EEF91E0019701960197E1F72E
S1132C1028988EEC8EBD0DB407FEFDCF8EB58DE4E5
S1132C208EBD0DB407FEFDCF8EB5289A289889EC89
S1132C308EBD0DB407FEFDCF8EB587EC8EBD0DB4F1
S1132C4007FEFDCF8EB5289A289885EC8EBD0DB46D
S1132C5007FEFDCF8EB580E88EBD0DB407FEFDCF17
S1132C608EB5289A109251038BE080935A022898CB
S1132C7088EC8EBD0DB407FEFDCF8EB58BE68EBD00
S1132C800DB407FEFDCF8EB5289A2F9A81E080936C
S1132C90790480E00E94390395C10E94AA1292C16E
S1132CA08FB7F89410927C042091170440E02830E8
S1132CB009F441E030E0293009F431E0442311F40F
S1132CC0332351F010921704E0919A03FF27EE0F7B
S1132CD0FF1FE95EFC4F108299278FBF442311F434
S1132CE0332319F1809171048F5F80937104809173
S1132CF013038334A1F49FB7F89420918603809141
S1132D008503821741F0822F8F5F8093860386307C
S1132D1010F010928603892F99278FBF0AC0A0E074
S1132D20442309F4A1E071E006C0222311F010E06D
S1132D3069C0A0E070E08FB7F8949927209117023A
S1132D408FBF222341F08FB7F89499272AE020936C
S1132D5017048FBF43C08FB7F89499276091170366
S1132D60409119038FBF8FB7F894282F332750E071
S1132D709091850380918603981709F451E02FBF41
S1132D80552349F5662339F55FB7F89482E08093BB
S1132D9017038FB7F894282F332740E090918503C9
S1132DA080918603981709F441E02FBF442311F062
S1132DB080E006C0E0918603FF27EB57FC4F828139
S1132DC080931803852F99278FBF83E4809313037F
S1132DD010929A030BC04150423010F010E007C02B
S1132DE085E48093130381E080939A0311E07723B1
S1132DF049F08FB7F8949927A09320028FBF8EE0F3
S1132E000E94A201809117048A3019F40E94BB0227
S1132E10D9C0112309F4D6C02FB7F89433271092E0
S1132E208504109284041092110381E080931704A6
S1132E302FBF0E942003882309F4C4C08FB7F894DD
S1132E40992729E0209317048FBF0E94C901BAC0B3
S1132E508091C1008F7B8093C1008091C1008F77E6
S1132E608093C10010921604109267028091C100F1
S1132E7088608093C1008091C10080618093C1000B
S1132E808091C10080688093C1000E949202AB01CE
S1132E90BC01EE240AEF10E020E030E080E00E9464
S1132EA073028FB7F89499271298119A109A68CEE2
S1132EB08DE00E94A20186C08091C100877F80932B
S1132EC0C1008091C1008F7E8093C1007BC01092AD
S1132ED01D0210921C028FB7F8949927409120028A
S1132EE08FBF80912102811143E020911A02309119
S1132EF01B0280912202882309F064C0809113028E
S1132F00882309F05FC060918F037091900362176A
S1132F10730709F057C050C08FB7F89499272091D0
S1132F2025023091260240913C028FBF8FB7F8945E
S1132F30E42FFF27EE0FFF1FE35FFD4F3183208354
S1132F4020911802442311F02B7F01C02D7F209380
S1132F5018021092230299278FBF34C02FBF32C0AA
S1132F6090917204852F8923B9F0E42FFF27EE0F87
S1132F70FF1FE157FC4F2081318111821082852F80
S1132F808095982390937204442331F42152344061
S1132F90B1F41092140213C04F5F483098F4550FE7
S1132FA0DFCF80911302E82FFF27EE0FFF1FE157B9
S1132FB0FC4F6081718141E00E942D0203C0550FD6
S1132FC041E0CECF29960FB6F894DEBF0FBECDBF39
S1132FD0DF91CF911F910F91FF90EF90DF90CF90F1
S1132FE0BF90AF909F908F907F906F905F904F9025
S1132FF03F902F90089580916E048F3FB1F0282F59
S11330003327F901EE5BFD4F808180936E048F3F7F
S113301011F4809383048FEF80832F3F31F0822F4C
S11330200E942D1381E090E0089580E090E00895DF
S1133030FF920F931F93FFB6F89442E150E06FEFB5
S113304070E082E492E00E94171C8FEF80936E047C
S11330508093830456985E9854985C9880916F008E
S11330608F7D80936F00209A289A279A2F980E9A22
S1133070169A8BE193E09093380280933702109272
S113308071028AE580935F0281E08093810080E28F
S11330908093B60083E08093B10080918400909186
S11330A085004AE72091840030918500281739076C
S11330B008F44150442311F0C901F4CF9091B200B7
S11330C08091B2008917E1F320918400309185004A
S11330D09091B2008091B2008917E1F3809184004D
S11330E090918500821B930B409665E09695879599
S11330F06A95E1F79093700480936F041092B10085
S11331008091B10080938100809181008093B6000A
S11331101092B20010928500109284008FEF87BB4A
S113312087B386BB8091B6008571E1F70A9A099A44
S1133130089A129A119A109A18B88FEF87B90C98B6
S113314014981092950010929400809171008160FF
S11331508093710080919100887F826080939100B8
S1133160109285001092840080916F00816080939A
S11331706F0080918100887F82608093810081E06C
S113318085BF0E94FB178823E1F712E006E06091F7
S11331906F0470917004882799275CE0660F771F8D
S11331A0881F991F5A95D1F720E031EE40E050E096
S11331B00E949F1B215030402093C400832F9927E5
S11331C08093C5001093C0000093C2001092C10008
S11331D02093CC008093CD001093C8000093CA00C4
S11331E01092C90084E490E090935C0480935B04A3
S11331F010921703109219031092170410921103DE
S11332001092130310927104109285041092840496
S113321010927C0410929A03109256041092550452
S11332201092640210921B041092690410926802B6
S113323010929603109295031092860310928503C0
S11332408FEF8093120380E00E94EB0A209100022A
S1133250309101022F5F3F4FC901AA27BB278093FA
S11332606D0290936E02A0936F02B093700285E793
S113327092E090932E0280932D02C3969093300295
S113328080932F028BED92E090933202809331026F
S11332908FEF9FEF9093600480935F049093620498
S11332A08093610490936404809363049093660410
S11332B0809365049093680480936704809100026E
S11332C08295807F809372028FEF80935E0280915B
S11332D0B60080628093B6008091B60081FDFCCF79
S11332E082E08093B0008091B60080FDFCCF83E043
S11332F08093B1008091B60083FDFCCF86EE80936D
S1133300B300809170008260809370000E94210558
S11333100E94FB178823E1F78F2D99278FBF78949C
S11333208BE00E94A2018FB7F894482F552757C00D
S113333080917000992783709070892B19F4E5E0CF
S1133340F0E014C08091B6008A71E1F78091B30077
S11333509091B200891B8C3038F08091B200853F87
S113336018F4E3E0F0E002C0E2E0F0E080916E00E7
S1133370867009F580916F008E72E9F48091710076
S11333808E72C9F40CB407FC16C08091C100807E13
S113339091F48091C900807E71F48091BC0082FD1B
S11333A00AC080917A0087FF03C081E090E005C0E5
S11333B085E090E002C080E090E023B78E1708F427
S11333C0E82FFF27E051FD4FE491207F2160E22B9D
S11333D0E3BF78948895F89483B78E7F83BF8091F8
S11333E06E048F3F09F4A4CF282F3327F901EE5B35
S11333F0FD4F808180936E048F3F11F4809383048A
S11334008FEF80832F3F09F493CF4FBF822F0E9409
S11334102D1389CFACE2B0E0E0E1FAE10C94E01BBB
S1133420222E332E442E552E662E772E882E992E3C
S1133430FE013196A8E01192AA95E9F729823A8211
S11334404B825C826D827E828F829886FE013996E1
S1133450B8E01192BA95E9F7A986BA86CB86DC86DC
S1133460ED86FE860F87188B89819A81AB81BC819A
S113347089A79AA7ABA7BCA77C018D018FEF9FEF0B
S1133480A0E0B0E0E822F9220A231B2389A59AA52B
S1133490ABA5BCA51D014424552489859A85AB851B
S11334A0BC858DA39EA3AFA3B8A75C016D018FEF6C
S11334B09FEFA0E0B0E0A822B922CA22DB228DA1AE
S11334C09EA1AFA1B8A53D0188249924C801B701E4
S11334D0A60195010E94C11B69A37AA38BA39CA397
S11334E0C801B701A40193010E94C11B7B018C0197
S11334F0C201B101A60195010E94C11B5B016C01CF
S1133500C201B101A40193010E94C11B3B014C0102
S1133510EA0CFB1C0C1D1D1D89A19AA1ABA1BCA129
S11335209D01442755272E0D3F1D401F511F2A156D
S11335303B054C055D0540F480E090E0A1E0B0E07F
S1133540680E791E8A1E9B1ECA01AA27BB27860DF8
S1133550971DA81DB91D8D8F9E8FAF8FB8A3A9018C
S11335603327222789A19AA1ABA1BCA1A070B07076
S1133570280F391F4A1F5B1F298F3A8F4B8F5C8F8F
S1133580A98CBA8CCB8CDC8CED8CFE8C0F8D18A1A5
S1133590FE01719698E011929A95E9F7ED8AFE8AF8
S11335A00F8B188F2D813E814F8158856DA17EA18F
S11335B08FA198A50E94C11B3B014C012D853E851E
S11335C04F85588969A57AA58BA59CA50E94C11B26
S11335D02D893E894F89588D260F371F481F591F43
S11335E0260D371D481D591D2D8B3E8B4F8B588F33
S11335F06D887E888F88988C2A2D3B2D4C2D5D2DCF
S1133600662D772D882D992DE2E1AC960C94FC1B48
S1133610A0E1B0E0EEE0FBE10C94E01B222E332E9F
S1133620442E552E662E772E882E992E002309F4CB
S113363066C088E0FE01319611928A95E9F72983E4
S11336403A834B835C836D837E838F829887E0E229
S1133650E01B1E16CCF52D813E814F815885602FCD
S1133660772767FD7095DA01C901062E04C0B69567
S1133670A795979587950A94D2F78D879E87AF87EC
S1133680B88B04C0220F331F441F551FEA95D2F78D
S113369089819A81AB81BC8104C0B695A795979521
S11336A087956A95D2F7282B392B4A2B5B2B2987D0
S11336B03A874B875C8729843A844B845C846D8485
S11336C07E848F8498881BC01D861E861F86188A58
S11336D02E2F332727FD3095309521953F4F8D812F
S11336E09E81AF81B88504C0B695A79597958795B7
S11336F02A95D2F789879A87AB87BC87DCCF222D9E
S1133700332D442D552D662D772D882D992DE2E1ED
S113371060960C94FC1BAA1BBB1B51E107C0AA1F9B
S1133720BB1FA617B70710F0A61BB70B881F991F5E
S11337305A95A9F780959095BC01CD010895A1E211
S11337401A2EAA1BBB1BFD010DC0AA1FBB1FEE1F17
S1133750FF1FA217B307E407F50720F0A21BB30B62
S1133760E40BF50B661F771F881F991F1A9469F7DE
S113377060957095809590959B01AC01BD01CF013A
S11337800895629FD001739FF001829FE00DF11DA7
S1133790649FE00DF11D929FF00D839FF00D749FC7
S11337A0F00D659FF00D9927729FB00DE11DF91F73
S11337B0639FB00DE11DF91FBD01CF0111240895D0
S11337C02F923F924F925F926F927F928F929F922D
S11337D0AF92BF92CF92DF92EF92FF920F931F931B
S11337E0CF93DF93CDB7DEB7CA1BDB0B0FB6F894CC
S11337F0DEBF0FBECDBF09942A88398848885F840C
S11338006E847D848C849B84AA84B984C884DF807C
S1133810EE80FD800C811B81AA81B981CE0FD11D60
S11338200FB6F894DEBF0FBECDBFED010895DC01E5
S111383001C06D9341505040E0F70895FFCF62
S113383E010001000100FFFFFFFFFFFFFFAD03E0EA
S107384E03AD0301BE
S9030000FC
