S01700006275696C642F697269732F6D61696E2E7372656343
S11300000C9469000C9488000C9488000C9488006B
S11300100C9488000C9488000C9488000C9488003C
S11300200C9488000C9488000C9488000C9488002C
S11300300C9488000C943E040C9488000C942203C5
S11300400C94F10D0C94290E0C94FA030C940504F1
S11300500C9410040C9488000C9488000C94880070
S11300600C9443030C9488000C9488000C9488002E
S11300700C9488000C9488000C9488000C948800DC
S11300800C9488000C9488000C9488000C948800CC
S11300900C9488000C9488000C9488000C948800BC
S11300A00C9488000C9488000C9488000C948800AC
S11300B00C9488000C9488000C9488000C9488009C
S11300C00C9488000C9488000C94880000020E069E
S11300D00C0411241FBECFEFD1E2DEBFCDBF12E06E
S11300E0A0E0B2E0E2E8FBE200E00BBF02C0079050
S11300F00D92AE30B107D9F713E0AEE0B2E001C023
S11301001D92A53DB107E1F70E9449120C94C01558
S11301100C9400008FB7F894992708958FBF089521
S1130120CF93DF93FC01DC0111962181662351F00A
S1130130ED0189819927982F882733272062822B04
S1130140932B09C0ED0189819927982F882733279C
S1130150822B932B8F7D8183892F99278983DF912C
S1130160CF910895282F9FB7F894E82FFF27E75DD4
S1130170FD4F80818F3F81F4E091CF03E21771F44A
S11301800BC02093BE0304C0FF27E75DFD4F20830F
S11301902093CF0320E007C025E005C08091BE0373
S11301A08F3F91F7EECF892F99278FBF822F992701
S11301B00895882319F08CB5806402C08CB58F7BB8
S11301C08CBD08950F931F93982F1FB7F8948091B7
S11301D01002823099F580910C02891779F580918B
S11301E00A0220E030E08F3F11F421E030E0232BBD
S11301F0F1F49FEF90930C028F3F19F42FEF30E04E
S11302000DC0282F3327F901E651FD4F80818093DB
S11302100A028F3F11F490930B0290832093EB0218
S113022081E08093100289E00E94B20005C08FEF44
S113023080930C021092100201E001C000E0812FB3
S113024099278FBF1FB7F89480911002882311F467
S11302500E94D900812F99278FBF90E0013009F4C3
S113026091E081E09827892F99271F910F91089594
S1130270882319F08CB5806802C08CB58F778CBD4B
S113028008950F931F9380E00E94D9000FB7F8944C
S11302901127229A2398219A8CB580618CBD80E025
S11302A00E9438018DB581608DBD8CB5877F8CBD72
S11302B08CB58B7F8CBD8CB58E7F8CBD81E00E940C
S11302C0D9000FBF1F910F9108958FB7F894209113
S11302D05A0330915B0340915C0350915D03E091BC
S11302E08400F0918500B09B08C02F5F3F4F4F4FB3
S11302F05F4FE0918400F091850099278FBFC90179
S1130300772766279F0144275527622B732B842B5D
S1130310952B0895FC0180A9826080AB08958C968A
S11303200895AC01EFB7F8942091840030918500D2
S1130330C901841B950B03968617970720F0B90112
S11303406D5F7F4F02C0640F751F6115710511F455
S113035061E070E0615070407093890060938800A0
S113036082E086BB80916F00826080936F008E2F45
S113037099278FBF0895FC01828121819927982FA5
S113038088273327822B932B85FF1FC087749C7C7F
S113039081549848D1F4878146812FB7F894332744
S11303A060910402709105022FBF20E09927982FD5
S11303B088275527842B952B8617970709F021E06A
S11303C081E02827822F9927089580E090E00895FE
S11303D021E02093AE032093E90220918400309120
S11303E08500BC01C9010E9491010895EF92FF921A
S11303F00F931F937C018FB7F894992700913802CB
S1130400109139020F5E1E4F109339020093380287
S1130410015111408FBF87E00E94B200C801B701AB
S11304200E944F158A5D9E4F1F910F91FF90EF9090
S113043008959FB7F894282F332720FF02C01298FD
S113044001C0129A21FF02C0119801C0119A22FF23
S113045002C0109801C0109A892F99278FBF089560
S1130460FC0182A593A50895EF920F931F93AE2DDF
S113047099E0899FF0011124E15AFC4F4083518394
S1130480628373830483158326833783A1708085F5
S11304908E7F8A2B8260808781E00E94B2001F9148
S11304A00F91EF9008957FB7F8946091B200209176
S11304B02402309125024091260250912702B99BD3
S11304C011C08091B3009091B200280F311D411DDD
S11304D0511D2F5F3F4F4F4F5F4F290F311D411D5E
S11304E0511D04C0260F311D411D511D872F992711
S11304F08FBFCA01B9010895DF92EF92FF920F9363
S11305001F938FB7F894282F3327D22E9091B300DE
S11305108091B20047B3981711F041FF02C02FBF7A
S113052071C0809144028823E1F10E945302E0905B
S11305301B02F0901C0200911D0210911E022091DA
S1130540C2033091C3034091C4035091C5036E1993
S11305507F09800B910B621773078407950720F0BE
S11305601092440271E01EC02E0D3F1D401F511F0A
S11305708091240290912502A0912602B091270235
S1130580281B390B4A0B5B0B273E310541055105EE
S113059040F4822F223010F070E005C070E082E059
S11305A002C070E086EE682F61508091B60083FD32
S11305B0FCCF8091B200681709F46F5F2091240288
S11305C0309125024091260250912702DA01C90197
S11305D00196A11DB11D860F911DA11DB11D82178C
S11305E09307A407B50710F4622F60958091B600B5
S11305F083FDFCCF6093B300DFBE772319F080E066
S11306000E94B2001F910F91FF90EF90DF90089528
S1130610AFB7F894BB27E1E0E093440260931B0278
S113062070931C0280931D0290931E022093C203B8
S11306303093C3034093C4035093C503AFBF0E94D8
S11306407C0208951F920F920FB60F9211248F937C
S11306508091B0008093B0008091B60081FDFCCF02
S11306608F910F900FBE0F901F9018951F93182F06
S113067081E00E94D9001EBD0DB407FEFDCF8EB5EA
S113068099271F9108951F920F920FB60F9211246C
S11306908F929F92AF92BF92CF92DF92EF92FF928E
S11306A00F931F932F933F934F935F936F937F9376
S11306B08F939F93AF93BF93CF93DF93EF93FF9366
S11306C02EB5E0917103F0917203309739F0809167
S11306D0560390915703E80FF91F20838091560326
S11306E0909157030196909357038093560380E0AB
S11306F00E943801C0915603D09157038091130290
S113070090911402C817D90708F046C00091C60397
S11307101091C70380907103909072030F2EFAE03A
S1130720AF2EBB24F02DAC0EBD1E8A159B0508F41C
S11307305C016401CC0EDD1E7801EC0EFD1E15C0BB
S11307400115110519F0F701808101C080E00E94B4
S113075036038114910411F0F601808321960894E4
S1130760C11CD11C0894E11CF11CC5010197C817D8
S1130770D90730F381E00E9438010115110531F0E9
S11307800C0F1D1FF80180818EBD01C01EBCD093CB
S11307905703C093560311C0109272031092710351
S11307A01092C7031092C6031092140210921302FF
S11307B010925703109256038EB5FF91EF91DF917B
S11307C0CF91BF91AF919F918F917F916F915F91E5
S11307D04F913F912F911F910F91FF90EF90DF90D8
S11307E0CF90BF90AF909F908F900F900FBE0F90BF
S11307F01F90189578941F920F920FB60F921124A0
S11308000F900FBE0F901F90189578941F920F921F
S11308100FB60F9211240F900FBE0F901F901895D2
S113082078941F920F920FB60F9211242F933F9337
S11308308F939F93AF93BF932FB7F89433278091EF
S11308405A0390915B03A0915C03B0915D03019600
S1130850A11DB11D80935A0390935B03A0935C0385
S1130860B0935D032FBFBF91AF919F918F913F9143
S11308702F910F900FBE0F901F9018951F920F92FB
S11308800FB60F9211242F933F934F935F936F935F
S11308907F938F939F93AF93BF93EF93FF93809135
S11308A0B0008093B0008091B60081FDFCCF8091B0
S11308B0B30099270196AA27BB27209124023091DF
S11308C025024091260250912702280F391F4A1F02
S11308D05B1F2093240230932502409326025093F9
S11308E0270278940E947C02FF91EF91BF91AF910F
S11308F09F918F917F916F915F914F913F912F9134
S11309000F900FBE0F901F9018950F931F93CF93C6
S1130910DF93182F0FB7F89480911002882311F4F5
S11309200E944101802F99278FBF8FB7F894C82F59
S1130930DD272C2F80911002882361F481E08093BD
S113094010021093EB0289E00E94B200CFBF80E056
S113095090E021C0E12FFF27E651FD4F80818F3FBA
S113096089F4E0910B02E11789F40CC010930A0298
S113097004C0FF27E651FD4F108310930B0280E063
S113098090E002C085E090E02FBF05C080910A028C
S11309908F3F79F7EBCFDF91CF911F910F9108959E
S11309A08FB7F894282F3327922F80910C02882335
S11309B031F480911002823011F42FBF13C09FBF15
S11309C08FB7F894282F332780911002882369F475
S11309D082E08093100210920C022FBF0E9441010A
S11309E0209A289A81E090E008952FBF80E00E9429
S11309F0850480E090E008954F925F926F927F9219
S1130A008F929F92AF92BF92CF92DF92EF92FF921A
S1130A100F931F93CF93DF932C01809112028823AD
S1130A2009F04DC18091C803853009F048C10E9486
S1130A30D004882309F443C18091AF03882309F0CB
S1130A403EC1E201E096F20180A982FD02C090E07D
S1130A5003C0F20192A99F7080912203981781F03C
S1130A6090932203289885EC8EBD0DB407FEFDCF2C
S1130A708EB590689EBD0DB407FEFDCF8EB5289A45
S1130A8042010894811C911CF4018181F2012181AD
S1130A9040E09927982F88273327822B932B87743C
S1130AA09C7C8154984809F441E0442301F128983E
S1130AB086E88EBD0DB407FEFDCF8EB51EBC0DB409
S1130AC007FEFDCF8EB5289A99278F7190702091DB
S1130AD04C0240913F02240F312D311D43E03595E6
S1130AE027954A95E1F7281739070CF4E8C02898A8
S1130AF082EC8EBD0DB407FEFDCF8EB589E08EBDB0
S1130B000DB407FEFDCF8EB5289A0E9465017B01C6
S1130B108C01888184FD03C0C0E0D0E006C0F201EE
S1130B2080818550E201C80FD11D289881E88EBDCF
S1130B300DB407FEFDCF8EB51EBC0DB407FEFDCF70
S1130B408EB5289A8F71893021F087E08093C8038D
S1130B50B6C08FB7F89499272F9A209184003091CA
S1130B6085008FBF2F98289880E68EBDF201908172
S1130B700DB407FEFDCF8EB59EBD792F7250773030
S1130B8010F4672F01C067E0F401962F41910DB472
S1130B9007FEFDCF8EB54EBD9150C1F76150F401F3
S1130BA0E60FF11D6F5F31962E193F092E553F4F09
S1130BB03901882477FC8094982C6E0C7F1C801E4D
S1130BC0911E209719F4972F961B1FC08881998135
S1130BD0AA81BB8186199709A809B9098B83292F92
S1130BE03A2F4B2F55272A839D01442755272983C4
S1130BF08B2F9927AA27BB278883E5CF20810DB4A3
S1130C0007FEFDCF31968EB52EBD9150B8F70DB4C9
S1130C1007FEFDCF8EB5289A289882EC8EBD0DB4C0
S1130C2007FEFDCF8EB586E08EBD0DB407FEFDCF69
S1130C308EB5289A209779F18881E9802A81AB8042
S1130C40332744275527542F432F322F2227992700
S1130C50AA27BB27B82FAA2799278827FF2400276C
S1130C6011278701FF24EE248E299F29A02BB12B65
S1130C70BB24CC24DD248A299B29AC29BD29282B1B
S1130C80392B4A2B5B2B260D371D481D591D2883F4
S1130C9039834A835B83C2010E948A01C2010E9494
S1130CA08F01FC01608271828282938286E080934C
S1130CB0C80384E08093120280E090E002C085E0E3
S1130CC090E0DF91CF911F910F91FF90EF90DF9013
S1130CD0CF90BF90AF909F908F907F906F905F90D8
S1130CE04F9008951F93982F1FB7F89480910F0287
S1130CF0823099F580910902891779F5809107026C
S1130D0020E030E08F3F11F421E030E0232BF1F4B8
S1130D109FEF909309028F3F19F42FEF30E00DC03D
S1130D20282F3327F901E25CFD4F8081809307026D
S1130D308F3F11F490930802908320933B0281E04B
S1130D4080930F0282E00E94B20005C08FEF80936F
S1130D50090210920F0221E001C020E0812F99279F
S1130D608FBF90E0213009F491E081E09827892F2A
S1130D7099271F9108952FB7F8943327809335024C
S1130D802FBF85E00E94B20008959C01809111025A
S1130D90882319F085E090E008953093750320933B
S1130DA0740381E0809311021092210385E00E9474
S1130DB0B20080E090E00895CF93DF93EC018FE3DD
S1130DC08A8780914D028F5F80934D028B8380913F
S1130DD0220290912302892B11F025E017C088A5E7
S1130DE099A5892B21F061E0CE010E949000CE01EB
S1130DF00E94C5069927282F882341F4D093230203
S1130E00C09322021092410210924002822F99272D
S1130E10DF91CF9108951F93CF93DF93182FFA0199
S1130E20422F2D3118F086E090E08AC0DF01119640
S1130E30ED018981218150E09927982F8827332754
S1130E40822B932B87749C7C8154984809F451E03D
S1130E50552329F481E4818388E8ED018983435F84
S1130E6040832FB7F89433278091040290910502B0
S1130E702FBF8087892F992781872FB7F89433272D
S1130E80809106022FBF9927848315821387668376
S1130E90872F992787838FB7F894282F332780913A
S1130EA00F02882371F482E080930F0210920902EA
S1130EB02FBFCF010E94DC069927182F882399F0B1
S1130EC00FC02FBFF0933D02E0933C028FB7F8941C
S1130ED0C82FDD272C2F80910F02882399F406C098
S1130EE080E00E947206812F99272AC081E08093B6
S1130EF00F0210923B0282E00E94B200CFBF80E05A
S1130F0090E01EC080913E028F3F89F4E091080278
S1130F10EE2369F010C01092070204C0FF27E25CC0
S1130F20FD4F10821092080280E090E002C085E03C
S1130F3090E02FBF05C0809107028F3F79F7EBCF78
S1130F40DF91CF911F910895AF92BF92CF92DF921C
S1130F50EF92FF920F931F935B016C016091670303
S1130F6061FF1FC020915F033091600340916103D2
S1130F7050916203E0906303F09064030091650371
S1130F8010916603D601C501821B930BA40BB50B0C
S1130F908E159F05A007B10720F0EFE5F3E090E080
S1130FA021C0E8E6F3E06091700361FF8BC02091FB
S1130FB068033091690340916A0350916B03E09098
S1130FC06C03F0906D0300916E0310916F03A21AED
S1130FD0B30AC40AD50AAE14BF04C006D10608F485
S1130FE071C091E060FF04C080858D7F808708C058
S1130FF02E0D3F1D401F511F208331834283538395
S1131000992321F0913009F05DC053C080910E0204
S1131010882309F057C080910002909101028093C7
S11310208A03892F992780938903809102029091E2
S11310300302019690930302809302020197809326
S11310408C03892F992780938B038FEF80938103DF
S11310508093820388E08093860380915803909163
S11310605903892B79F54BE753E050935903409387
S1131070580383E180937B0380910D028823A9F0B8
S113108010920D0226E06FEF7FEF88E00E940B07BD
S11310909927282F882349F081E080930D0210922C
S11310A0590310925803222369F481E080930E02BD
S11310B009C08091220290912302892B19F083E0C8
S11310C00E94B20081E00E94B2001F910F91FF9034
S11310D0EF90DF90CF90BF90AF9008951F93CF9380
S11310E0DF93182FEB01E82FFF27EE0FFF1FE85ABD
S11310F0FC4F1182108210920D02E0915803F0917E
S11311005903309721F08091C10380FF0FC081E023
S113111080930D0203C08BE00E94B2001123C1F43E
S1131120CB57D340A9F410920E0212C020812D5047
S1131130332767817727762F662786819927682B3F
S1131140792BAF0183850E940B07882339F3E3CF02
S1131150DF91CF911F9108951F93CF93DF93182FA1
S1131160C0912202D09123021092230210922202F3
S1131170809170038D7F80937003809140029091E1
S1131180410299A788A78A858F3389F480E00E9459
S1131190720680910D02882351F460915803709176
S11311A059036C177D0719F4412F0E946E08DF91D3
S11311B0CF911F910895AF92BF92CF92DF92EF9299
S11311C0FF920F931F93CF93DF938091AF038823F4
S11311D009F413C10E94D004882309F40EC18FB707
S11311E0F8949927C091E702D091E8028FBF10923A
S11311F0AF0328988FE88EBD0DB407FEFDCF8EB5E2
S11312001EBC0DB407FEFDCF8EB5289A982FA82ECC
S1131210BB24A0FE0CC080911202833011F08730F1
S113122031F485E08093C80388E080931202A2FE23
S11312305FC080911202863019F41092120203C02A
S1131240882309F055C0943009F041C0289886E8F5
S11312508EBD0DB407FEFDCF8EB51EBC0DB407FECA
S1131260FDCF2EB5289A2F7180913F02982F969525
S11312709695322F391B830F80933F02E0911F0212
S1131280F091200280A98B7F886080AB22AB0E9402
S113129065016B017C0100911F0210912002C801BD
S11312A00E948A01C8010E948F01FC01CC19DD094A
S11312B02797CE01AA2797FDA095BA2F8C0D9D1DC7
S11312C0AE1DBF1D80839183A283B3830EC0E091C2
S11312D01F02F091200280A9877F80ABE0911F025A
S11312E0F091200280A98D7F80AB85E0809312026B
S11312F0A3FE83C080911202843009F04BC085E0C4
S11313008093C8031092120280914702833019F42B
S11313101092470272C0E0911F03F0912003828172
S113132021819927982F88273327822B932B85FF98
S113133029C087749C7C8154984821F58781268133
S11313409927982F88273327822B932B8F5F9F4FC2
S1131350C9F090E08091E902882309F491E099238F
S113136089F012E01093AE0381E08093E90280914A
S113137084009091850061EE72E00E9491011093C7
S113138047023BC0109247021092C90380E00E94BA
S1131390BB0633C0853089F58091C803873091F44A
S11313A0289882EC8EBD0DB407FEFDCF8EB586E085
S11313B08EBD0DB407FEFDCF8EB5289A85E08093CF
S11313C0C80317C020914C02289886E88EBD0DB43E
S11313D007FEFDCF8EB51EBC0DB407FEFDCF8EB546
S11313E0289A8F71922F96959695891B280F209392
S11313F04C0289E08093120208C090911202992352
S113140009F4E2C2993009F00FC2289880E28EBD37
S11314100DB407FEFDCF8EB51EBC0DB407FEFDCF87
S11314208EB5482F5527433008F49EC3842F99273F
S11314308A970CF099C31EBCE0911F02F091200220
S11314404083542F5250573010F4452F01C047E0C9
S11314509F012F5F3F4F942FF90160E070E00DB4BE
S113146007FEFDCF8EB51EBC808381916827062EB2
S11314706295607F6025072E762F62956F70062631
S1131480669576276727660F660F660F602591506D
S113149031F74150D901A40FB11D4F5F1196E0916E
S11314A01F02F09120028181282F3327277030708A
S11314B02230310509F491E09923B9F08091470273
S11314C0823081F48381E0911F03F09120039381A2
S11314D0891741F490E02230310509F091E081E070
S11314E098270EC080E090E00DC08FB7F894282FA5
S11314F0332790E080915E03833008F491E02FBF9E
S1131500892F9927892B09F42FC3952F941B18C071
S11315100DB407FEFDCF8EB51EBC8C938D9168274C
S1131520062E6295607F6025072E762F62956F7078
S11315300626669576276727660F660F660F602571
S1131540915030F70DB407FEFDCF8EB51EBC9B0144
S11315502827022E2295207F2025032E322F229524
S11315602F700226269532272327220F220F220FBF
S113157020250DB407FEFDCF8EB51EBC2827022EF4
S11315802295207F2025032E322F22952F700226AC
S1131590269532272327220F220F220F20250DB450
S11315A007FEFDCF8EB5E0911F02F091200281ABC2
S11315B0289A85E08093C80310921202232B09F025
S11315C0FFC1E0901F02F090200257010894A11C73
S11315D0B11CF701818190E08770823009F491E0B9
S11315E0292F3327122F809147028230C9F480912A
S11315F06F008D7F80936F001092E902E0911F03CA
S1131600F091200380A9222311F0816001C08E7F14
S113161080AB109247021092C90380E00E94BB067F
S1131620112309F0FCC0C7010E94BB018823A9F063
S113163085E08093230382E08093240310922503A2
S1131640F50182818093260383E293E00E94FC04E7
S1131650882319F483E08093470200918400109159
S11316608500C7010E94BB01882311F0045E1C4F52
S1131670109343020093420280918400909185006C
S1131680081B190BC801101611066CF42091C9032C
S1131690222331F40E94E80180E88093C90303C047
S11316A020682093C903F501808527819927582F45
S11316B044273327422B532B80912802282F33278A
S11316C0F901EE0FFF1FE055FC4F8081918170916D
S11316D073038417950769F4F901E653FC4F80817D
S11316E0871709F467C0872F8F5F80937303808304
S11316F01DC000E010E080E090E0C0EBD3E0EAEC35
S1131700F3E0DF01682F9C01888199818417950794
S113171079F420932802909173038C91891709F42A
S113172049C0892F8F5F809373038C9300E829C08D
S11317308081972F981B091710F4092F122F6F5FC0
S1131740C901019611962296319685309105D1F6FC
S11317506530B9F410932802A12FBB27FD01EE0FC9
S1131760FF1FE055FC4F51834083809173038F5FCB
S113177080937303FD01E653FC4F8083A053BC4F59
S11317801C9290917303892F8F778F3779F40F37D9
S113179068F0EAECF3E0292F207880818F678913C1
S11317A02083319633E0EF3CF307B9F780912802A8
S11317B0282F3327F5019281A22FBB27FD01E05387
S11317C0FC4F808180FF07C0FD01EA58FC4F8081F7
S11317D0981729F102C081608083AA58BC4F9C935A
S11317E0CFB6F89480915E038330B0F4E091210287
S11317F0E80FE33008F0E350FF27EE0FFF1FEB5E26
S1131800FD4F00811181F182E0828F5F80935E033E
S113181086E00E94B20078018C2D99278FBFF09248
S11318202002E0921F02C3C0892F8150833008F048
S11318309CC081508230E0F43091C8033130C1F44F
S113184020E08091E902882309F421E0222381F039
S11318502F9883E08093AE033093E9028091840053
S1131860909185006BE273E00E94910182E068C070
S1131870933009F042C08091C803833009F097C0C7
S11318800E94D0048823C9F128988FE88EBD0DB436
S113189007FEFDCF8EB51EBC0DB407FEFDCF8EB581
S11318A0289A8091810080648093810080E286BBC5
S11318B080916F00806280936F0090913A02289823
S11318C088EC8EBD0DB407FEFDCF8EB590669EBD2F
S11318D00DB407FEFDCF8EB5289A289882EC8EBDF4
S11318E00DB407FEFDCF8EB586E08EBD0DB407FEA8
S11318F0FDCF8EB5289A84E023C0809112028150D6
S1131900823000F58091C8038530E1F40E94D00450
S11319108823C1F0289882EC8EBD0DB407FEFDCF5C
S11319208EB583E08EBD0DB407FEFDCF8EB5289A2B
S113193080916F008F7D80936F001092AF0383E0DE
S11319408093C80390911202913041F48091C803AE
S11319508330B1F52F9A9093C80325C0923039F59E
S11319608091C803833061F51EC0973001F50E9451
S1131970D0048823E1F090913A02289888EC8EBD37
S11319800DB407FEFDCF8EB590669EBD0DB407FE67
S1131990FDCF8EB5289A8091C803853021F484E068
S11319A08093C80304C088E08093120204C080912D
S11319B01202883029F41092120284E00E94B200CC
S11319C080911202882331F58091C8038530F9F49F
S11319D08091AF038823D9F4809147028823B9F416
S11319E08091C903882399F490E08091E9028823C7
S11319F009F491E0992359F080911102813039F46E
S1131A0085E00E94B20080911202882319F480E0DC
S1131A100E94E2008091E902823009F098C010929D
S1131A20E902C090AE03F2E0CF1609F46CC023E0E3
S1131A30C21609F470C031E0C31609F088C02091C1
S1131A40420230914302809184009091850040913C
S1131A50C903403859F41092C903809111028130AE
S1131A6009F075C085E00E94B20071C08901081BAD
S1131A70190B47FF03C010161106ECF0C091450284
S1131A80D0914602809147028823A9F4CE010E9496
S1131A90FC049927882351F488A98E7F88ABC092CF
S1131AA04702D0932003C0931F0329C09927F82E1F
S1131AB0882329F102C085E0F82E2091C903822FE2
S1131AC099278F77019759F4207822602093C903CE
S1131AD080E198E00E94F6010E94E80138C027FFE7
S1131AE00AC0101611063CF480E88093C903C801AB
S1131AF00E94E80102C01092C9038F2D09C083E03F
S1131B008093C90324C0109247021092C90380E055
S1131B100E94BB061CC08091C803823019F4C09295
S1131B20C80313C080911202863079F41092120215
S1131B30289881E88EBD0DB407FEFDCF8EB51EBC7E
S1131B400DB407FEFDCF8EB5289A0E94DD0D8FB728
S1131B50F894282F332780913702813061F081E097
S1131B60809337022FBF31CB289A85E08093C80336
S1131B701092120225CF109237022FBFDF91CF911E
S1131B801F910F91FF90EF90DF90CF90BF90AF9097
S1131B9008958FB7F894282F332780913702815006
S1131BA080933702803811F02FBF089581E080932D
S1131BB037022FBF0E94DB0808958FB7F894282FAF
S1131BC0332780913702882329F080688093370275
S1131BD02FBF089581E0809337022FBF0E94DB0856
S1131BE0089578941F920F920FB60F9211242F9399
S1131BF03F934F935F936F937F938F939F93AF9391
S1131C00BF93EF93FF93809184009091850020917E
S1131C108600309187008FB7F89499273093E802B3
S1131C202093E70221E02093AF038FBF0E94DD0DD4
S1131C30FF91EF91BF91AF919F918F917F916F91A0
S1131C405F914F913F912F910F900FBE0F901F9076
S1131C50189578941F920F920FB60F9211242F9318
S1131C603F934F935F936F937F938F939F93AF9320
S1131C70BF93EF93FF9380916F008D7F80936F00EC
S1131C8078949FB7F8948091E902813019F482E046
S1131C908093E902892F99278FBF0E94DD0DFF9160
S1131CA0EF91BF91AF919F918F917F916F915F91D0
S1131CB04F913F912F910F900FBE0F901F90189549
S1131CC01F938FB7F8949927209137022F5F2093A1
S1131CD037028FBF80911102882311F015E023C0D1
S1131CE0809112028823E1F48091C803813049F481
S1131CF090E08091E902882309F491E0992381F02E
S1131D0005C0853019F489E090E00CC083E080932D
S1131D1012020E94DD0D84E08093110210E003C0E2
S1131D2085E090E0182F0E94C90D812F99271F91FB
S1131D3008952F923F924F925F926F927F928F926B
S1131D409F92AF92BF92CF92DF92EF92FF920F9346
S1131D501F93CF93DF93CDB7DEB729970FB6F894CF
S1131D60DEBF0FBECDBF382F853009F445C18630A4
S1131D7090F4823009F4DBC0833030F4882341F1DD
S1131D80813009F050C357C0833009F400C1843056
S1131D9009F049C312C1883009F46DC2893038F49E
S1131DA0863009F4B4C1873009F03DC308C28A30D3
S1131DB039F08A3008F474C28B3009F034C322C37A
S1131DC08091C103882309F42EC340E051E0F9C295
S1131DD080913602882361F52091BA033091BB03C8
S1131DE04091BC035091BD03EFB7F894FF27609175
S1131DF01B0270911C0280911D0290911E02E090C2
S1131E00C203F090C3030091C4031091C5036E0D87
S1131E107F1D801F911FEFBF2093BA033093BB0334
S1131E204093BC035093BD03109236020E940803F2
S1131E300E94530269C00E9453025B016C018FB778
S1131E40F8949927109244028FBF8091670381FF11
S1131E5024C080915F0390916003A0916103B091CD
S1131E60620386017501E81AF90A0A0B1B0B20911B
S1131E7063033091640340916503509166032E1906
S1131E803F09400B510B2F3F0FEF30070FEF400777
S1131E900FE7500711F061E005C02FEF3FEF4FEF60
S1131EA05FE760E08091700381FF24C08091680344
S1131EB090916903A0916A03B0916B038601750147
S1131EC0E81AF90A0A0B1B0BD801C701E0906C034E
S1131ED0F0906D0300916E0310916F03E81AF90AF4
S1131EE00A0B1B0BE216F306040715071CF4A801E2
S1131EF0970103C0662309F496C21216130614064A
S1131F0015062CF0C601B5010E94A4078CC22093CB
S1131F10BA033093BB034093BC035093BD0381E0E9
S1131F2080933602C601B5010E9408037CC28FB7B4
S1131F30F894992720913B022093090230930F02D1
S1131F408FBF80910902882309F06DC280913C0201
S1131F5090913D020E94DC06082F1127002309F40A
S1131F6062C280E00E94720620913C0230913D02E0
S1131F7080910D02882309F056C260915803709134
S1131F8059036217730709F04EC2402F46C2E0910D
S1131F902202F091230280A591A5892B21F061E012
S1131FA0CF010E94900080912202909123020E940E
S1131FB0C506882309F437C2A2C080911102109289
S1131FC01102843081F40E945302AB01BC01EE245F
S1131FD00AEF10E020E030E080E00E94340281E06B
S1131FE00E94190220C2853009F41DC2863009F40A
S1131FF01AC28093110217C28FB7F89499271091CF
S113200035028FBF80911102823011F4112339F00F
S1132010809121038F5F80932103863020F083E039
S1132020809311023CC08FB7F8949927209137020E
S11320302F5F209337028FBF209174033091750373
S11320408091C9038823D1F490E08091E902882328
S113205009F491E0992391F03093460220934502CC
S113206081E08093C90386EB93E20E94F6010E940B
S1132070E80182E08093110210E00AC080912103FC
S1132080853011F483E001C081E08093110215E0F2
S11320900E94C90D80911102833009F0C4C11092CD
S11320A01102E0917403F091750320914002309184
S11320B041022F5F3F4F309341022093400280A999
S11320C080FF02C080E020C0E0912202F091230250
S11320D080A591A528173907B0F4CF010E943002DA
S11320E08C01892B61F00E945302AB01BC012227B1
S11320F03327E1E0EE2E81E00E94340294C183E0B4
S11321000E94B20090C1812F0E94AC088CC18FB78D
S1132110F894282F332780915E03882309F44FC154
S1132120E0912102FF27EE0FFF1FEB5EFD4F0081C0
S113213011812FBFF80182858F3309F56385708182
S1132140878126819927582F44273327422B532BE5
S11321508FB7F894992720910402309105028FBF1C
S11321604217530719F04F5F5F4F69F4683059F411
S1132170733149F4F80181890E94190204C08FB7B0
S1132180F89499278FBF9FB7F89480912102E82F84
S1132190FF27EE0FFF1FEB5EFD4F118300838F5F60
S11321A080932102833010F01092210280915E030B
S11321B0815080935E03892F99278FBFA8CFFFB7E3
S11321C0F983F894209048023090490240904A02E2
S11321D050904B026624772488249EE4A92E83E839
S11321E0B82ECC24DD24EE24FF2400E010E0222DC0
S11321F0332D442D552D662D772D882D90E00E948A
S1132200CE132A833B834C835D836E837F838887CD
S11322109987822E932EA42EB52E2401350100E237
S11322200E94CC14A22EB32EC42ED52EA30192014B
S113223056954795379527952A0D3B1D4C1D5D1DD9
S113224057FF05C05F772F5F3F4F4F4F5F4F20937E
S113225048023093490240934A0250934B02E9806A
S11322608E2D99278FBF8FB7F89499273093390211
S11322702093380213C08FB7F894992710927203F1
S1132280109271031092C7031092C60310921402A5
S11322901092130210925703109256038FBFC3C0BB
S11322A02FB7F89433278091EB0280930C0282E0DD
S11322B0809310022FBF80910C02882309F0B3C0D1
S11322C0209A289A8091C803882309F075C08EEF5C
S11322D091E0019701960197E1F716982F9886E00F
S11322E090E0019701960197E1F7169A289883ECFC
S11322F08EBD0DB407FEFDCF8EB51EBC0DB407FE1A
S1132300FDCF8EB5289A289882EC8EBD0DB407FEB9
S1132310FDCF8EB588E08EBD0DB407FEFDCF8EB522
S1132320289A8EEF91E0019701960197E1F728989A
S11323308EEC8EBD0DB407FEFDCF8EB58DE48EBD43
S11323400DB407FEFDCF8EB5289A289889EC8EBD72
S11323500DB407FEFDCF8EB587EC8EBD0DB407FE20
S1132360FDCF8EB5289A289885EC8EBD0DB407FE56
S1132370FDCF8EB580E88EBD0DB407FEFDCF8EB5C2
S1132380289A109222038BE080933A02289888ECD2
S11323908EBD0DB407FEFDCF8EB58BE68EBD0DB49C
S11323A007FEFDCF8EB5289A2F9A81E08093C8034B
S11323B080E00E94E20037C00E94DD0D34C02FBFD0
S11323C032C09091C103852F8923B9F0E42FFF27F0
S11323D0EE0FFF1FE85AFC4F2081318111821082D9
S11323E0852F809598239093C103442331F42B5770
S11323F03340B1F410920E0213C04F5F483098F48A
S1132400550FDFCF80910D02E82FFF27EE0FFF1F3E
S1132410E85AFC4F6081718141E00E946E0803C05C
S1132420550F41E0CECF29960FB6F894DEBF0FBE0C
S1132430CDBFDF91CF911F910F91FF90EF90DF906F
S1132440CF90BF90AF909F908F907F906F905F9050
S11324504F903F902F9008958091BE038F3FB1F02D
S1132460282F3327F901E75DFD4F80818093BE0358
S11324708F3F11F48093CF038FEF80832F3F31F090
S1132480822F0E94990E81E090E0089580E090E010
S113249008951F931FB7F8944CE050E06FEF70E07D
S11324A089E292E00E94B9158FEF8093BE03809376
S11324B0CF0356985E9854985C9880916F008F7DF6
S11324C080936F00209A289A279A2F980E9A169A2A
S11324D08CEE92E09093200280931F0210924C02A3
S11324E08AE580933F0281E08093810080E28093BB
S11324F0B60083E08093B1008091840090918500C0
S11325004AE720918400309185002817390708F4A0
S11325104150442311F0C901F4CF9091B20080914D
S1132520B2008917E1F320918400309185009091E5
S1132530B2008091B2008917E1F3809184009091F8
S11325408500821B930B4096F5E096958795FA9546
S1132550E1F79093C0038093BF031092B100809180
S1132560B10080938100809181008093B600109225
S1132570B20010928500109284008FEF87BB87B35E
S113258086BB8091B6008571E1F70A9A099A089A88
S1132590129A119A109A18B88FEF87B90C98149858
S11325A0109285001092840080916F008160809366
S11325B06F0080918100887F82608093810081E038
S11325C085BF0E942C128823E1F78FEF8093EA02E3
S11325D080E00E94850420910002309101022F5F67
S11325E03F4FC901AA27BB27809348029093490211
S11325F0A0934A02B0934B028EE492E090931602A9
S113260080931502C396909318028093170284EB6B
S113261092E090931A02809319028FEF9FEF9093A8
S1132620B1038093B0039093B3038093B203909368
S1132630B5038093B4039093B7038093B603909348
S1132640B9038093B803809100028295807F8093C0
S11326504D028FEF80933E028091B600806280939A
S1132660B6008091B60081FDFCCF82E08093B0007B
S11326708091B60080FDFCCF83E08093B10080910F
S1132680B60083FDFCCF86EE8093B300809170008A
S11326908260809370000E947C020E942C12882326
S11326A0E1F7812F99278FBF78940E94600E8FB72E
S11326B0F894482F552757C080917000992783704C
S11326C09070892B19F4E5E0F0E014C08091B60015
S11326D08A71E1F78091B3009091B200891B8C302C
S11326E038F08091B200853F18F4E3E0F0E002C0D6
S11326F0E2E0F0E080916E00867009F580916F0051
S11327008E72E9F4809171008E72C9F40CB407FCE6
S113271016C08091C100807E91F48091C900807EB2
S113272071F48091BC0082FD0AC080917A0087FF19
S113273003C081E090E005C085E090E002C080E045
S113274090E023B78E1708F4E82FFF27E453FF4FD8
S1132750E491207F2160E22BE3BF78948895F8947C
S113276083B78E7F83BF8091BE038F3F09F4A4CFCC
S1132770282F3327F901E75DFD4F80818093BE0345
S11327808F3F11F48093CF038FEF80832F3F09F4A1
S113279093CF4FBF822F0E94990E89CFACE2B0E055
S11327A0E4EDF3E10C948215222E332E442E552EA3
S11327B0662E772E882E992EFE013196A8E011926E
S11327C0AA95E9F729823A824B825C826D827E82E5
S11327D08F829886FE013996B8E01192BA95E9F78E
S11327E0A986BA86CB86DC86ED86FE860F87188B93
S11327F089819A81AB81BC8189A79AA7ABA7BCA721
S11328007C018D018FEF9FEFA0E0B0E0E822F92278
S11328100A231B2389A59AA5ABA5BCA51D014424A5
S1132820552489859A85AB85BC858DA39EA3AFA3CA
S1132830B8A75C016D018FEF9FEFA0E0B0E0A82284
S1132840B922CA22DB228DA19EA1AFA1B8A53D0168
S113285088249924C801B701A60195010E94631533
S113286069A37AA38BA39CA3C801B701A401930114
S11328700E9463157B018C01C201B101A60195017F
S11328800E9463155B016C01C201B101A4019301B3
S11328900E9463153B014C01EA0CFB1C0C1D1D1D21
S11328A089A19AA1ABA1BCA19D01442755272E0D56
S11328B03F1D401F511F2A153B054C055D0540F483
S11328C080E090E0A1E0B0E0680E791E8A1E9B1EB5
S11328D0CA01AA27BB27860D971DA81DB91D8D8F78
S11328E09E8FAF8FB8A3A9013327222789A19AA16C
S11328F0ABA1BCA1A070B070280F391F4A1F5B1F89
S1132900298F3A8F4B8F5C8FA98CBA8CCB8CDC8C43
S1132910ED8CFE8C0F8D18A1FE01719698E011923A
S11329209A95E9F7ED8AFE8A0F8B188F2D813E81E7
S11329304F8158856DA17EA18FA198A50E94631532
S11329403B014C012D853E854F85588969A57AA5A3
S11329508BA59CA50E9463152D893E894F89588DAE
S1132960260F371F481F591F260D371D481D591D97
S11329702D8B3E8B4F8B588F6D887E888F88988CDB
S11329802A2D3B2D4C2D5D2D662D772D882D992DCF
S1132990E2E1AC960C949E15A0E1B0E0E2EDF4E126
S11329A00C948215222E332E442E552E662E772E0D
S11329B0882E992E002309F466C088E0FE01319622
S11329C011928A95E9F729833A834B835C836D835B
S11329D07E838F829887E0E2E01B1E16CCF52D8162
S11329E03E814F815885602F772767FD7095DA0106
S11329F0C901062E04C0B695A795979587950A94A4
S1132A00D2F78D879E87AF87B88B04C0220F331F00
S1132A10441F551FEA95D2F789819A81AB81BC8105
S1132A2004C0B695A795979587956A95D2F7282BF4
S1132A30392B4A2B5B2B29873A874B875C87298460
S1132A403A844B845C846D847E848F8498881BC014
S1132A501D861E861F86188A2E2F332727FD309544
S1132A60309521953F4F8D819E81AF81B88504C0FB
S1132A70B695A795979587952A95D2F789879A87CA
S1132A80AB87BC87DCCF222D332D442D552D662DED
S1132A90772D882D992DE2E160960C949E15AA1B42
S1132AA0BB1B51E107C0AA1FBB1FA617B70710F035
S1132AB0A61BB70B881F991F5A95A9F78095909567
S1132AC0BC01CD010895629FD001739FF001829FE4
S1132AD0E00DF11D649FE00DF11D929FF00D839FA9
S1132AE0F00D749FF00D659FF00D9927729FB00D46
S1132AF0E11DF91F639FB00DE11DF91FBD01CF0159
S1132B00112408952F923F924F925F926F927F9279
S1132B108F929F92AF92BF92CF92DF92EF92FF92E9
S1132B200F931F93CF93DF93CDB7DEB7CA1BDB0B95
S1132B300FB6F894DEBF0FBECDBF09942A8839883A
S1132B4048885F846E847D848C849B84AA84B98441
S1132B50C884DF80EE80FD800C811B81AA81B9814D
S1132B60CE0FD11D0FB6F894DEBF0FBECDBFED0161
S1132B700895DC0101C06D9341505040E0F7089581
S1052B80FFCF81
S1112B8201000100010022FFFFFFFFFFFF0121
S9030000FC
