S01700006275696C642F697269732F6D61696E2E7372656343
S11300000C9469000C9488000C9488000C9488006B
S11300100C9488000C9488000C9488000C9488003C
S11300200C9488000C9488000C9488000C9488002C
S11300300C9488000C949A010C9488000C9486010A
S11300400C9488000C9488000C9488000C9488000C
S11300500C9488000C9488000C9488000C948800FC
S11300600C9488000C9488000C9488000C948800EC
S11300700C9488000C9488000C9488000C948800DC
S11300800C9488000C9488000C9488000C948800CC
S11300900C9488000C9488000C9488000C948800BC
S11300A00C9488000C9488000C9488000C948800AC
S11300B00C9488000C9488000C9488000C9488009C
S11300C00C9488000C9488000C94880000020E069E
S11300D00C0411241FBECFEFD1E2DEBFCDBF12E06E
S11300E0A0E0B2E0E2E6F8E000E00BBF02C0079057
S11300F00D92A030B107D9F712E0A0E0B2E001C040
S11301001D92A332B107E1F70E94EF020C94300470
S11301100C9400008FB7F894992708958FBF089521
S11301207FB7F8946091B2002091060230910702E3
S11301304091080250910902B99B11C08091B3000B
S11301409091B200280F311D411D511D2F5F3F4F6B
S11301504F4F5F4F290F311D411D511D04C0260F04
S1130160311D411D511D872F99278FBFCA01B90128
S11301700895282F9FB7F894E82FFF27E65FFD4FD7
S113018080818F3F81F4E0912202E21771F40BC069
S113019020931B0204C0FF27E65FFD4F20832093BA
S11301A0220220E007C025E005C080911B028F3F9A
S11301B091F7EECF892F99278FBF822F9927089522
S11301C0DF92EF92FF920F931F938FB7F894282F2B
S11301D03327D22E9091B3008091B20047B3981781
S11301E011F041FF02C02FBF71C080910D0288231E
S11301F0E1F10E949000E0900202F090030200916D
S113020004021091050220911E0230911F024091B8
S11302102002509121026E197F09800B910B621705
S113022073078407950720F010920D0271E01EC039
S11302302E0D3F1D401F511F809106029091070211
S1130240A0910802B0910902281B390B4A0B5B0BE1
S1130250273E31054105510540F4822F223010F02C
S113026070E005C070E082E002C070E086EE682FA6
S113027061508091B60083FDFCCF8091B200681775
S113028009F46F5F20910602309107024091080241
S113029050910902DA01C9010196A11DB11D860F11
S11302A0911DA11DB11D82179307A407B50710F472
S11302B0622F60958091B60083FDFCCF6093B300FC
S11302C0DFBE772319F080E00E94B9001F910F91DF
S11302D0FF90EF90DF900895AFB7F894BB27E1E06B
S11302E0E0930D0260930202709303028093040270
S11302F09093050220931E0230931F024093200224
S113030050932102AFBF0E94E00008951F920F9204
S11303100FB60F9211248F938091B0008093B00098
S11303208091B60081FDFCCF8F910F900FBE0F908E
S11303301F9018951F920F920FB60F9211242F93AE
S11303403F934F935F936F937F938F939F93AF9359
S1130350BF93EF93FF938091B0008093B00080919E
S1130360B60081FDFCCF8091B30099270196AA279E
S1130370BB27209106023091070240910802509158
S11303800902280F391F4A1F5B1F2093060230936E
S11303900702409308025093090278940E94E000F7
S11303A0FF91EF91BF91AF919F918F917F916F9149
S11303B05F914F913F912F910F900FBE0F901F901F
S11303C01895EF92FF920F931F93E0911602E1FFAD
S11303D049C020910E0230910F02409110025091B9
S11303E01102E0901202F090130200911402109195
S11303F01502621B730B840B950B6E157F0580072A
S1130400910780F1E0FF04C0ED7FE09316020CC079
S11304102E0D3F1D401F511F20930E0230930F02DB
S113042040931002509311028091000290910102B6
S1130430019690930102809300022FB7F8949927B4
S113044080FF02C0129801C0129A81FF02C0119865
S113045001C0119A82FF02C0109801C0109A822F25
S113046099278FBF81E00E94B9001F910F91FF90DF
S1130470EF900895EF92FF920F931F930E949000C4
S11304807B018C018FB7F894992710920D028FBFCE
S11304908091160281FF3DC080910E0290910F025F
S11304A0A0911002B0911102A8019701281B390BE9
S11304B04A0B5B0BDA01C90120911202309113023D
S11304C04091140250911502281B390B4A0B5B0B07
S11304D02F3F8FEF38078FEF48078FE75807C9F092
S11304E012161306140615062CF0C801B7010E9453
S11304F0E1010FC0209317023093180240931902B0
S113050050931A0281E080930C02C801B7010E9443
S11305106C011F910F91FF90EF900895EF92FF925D
S11305200F931F9380910C02882361F52091170289
S1130530309118024091190250911A02EFB7F894C1
S1130540FF2760910202709103028091040290914E
S11305500502E0901E02F0901F020091200210910B
S113056021026E0D7F1D801F911FEFBF2093170284
S1130570309318024093190250931A0210920C02FD
S11305800E946C010E9490000E94E1011F910F9152
S1130590FF90EF90089580911B028F3FE9F0282F80
S11305A03327F901E65FFD4F808180931B028F3F63
S11305B011F4809322028FEF80832F3F69F022236E
S11305C019F0213021F005C00E948E0202C00E9461
S11305D03A0281E090E0089580E090E008951F934E
S11305E01FB7F89442E050E06FEF70E08AE092E0C9
S11305F00E9429048FEF80931B028093220281E0E2
S11306008093810080E28093B60083E08093B10000
S113061080918400909185004AE720918400309174
S113062085002817390708F44150442311F0C90103
S1130630F4CF9091B2008091B2008917E1F3209138
S11306408400309185009091B2008091B2008917A6
S1130650E1F38091840090918500821B930B409676
S113066025E0969587952A95E1F790931D0280934E
S11306701C021092B1008091B1008093810080919E
S113068081008093B6001092B200109285001092FF
S113069084008FEF87BB87B386BB8091B6008571DA
S11306A0E1F70A9A099A089A129A119A109A18B8B4
S11306B08FEF87B90C98149881E085BF0E94CB0214
S11306C08823E1F78091B60080628093B600809120
S11306D0B60081FDFCCF82E08093B0008091B6002B
S11306E080FDFCCF83E08093B1008091B60083FD50
S11306F0FCCF86EE8093B30080917000826080937B
S113070070000E94E0000E94CB028823E1F7812F51
S113071099278FBF78940E94900060930E02709383
S11307200F0280931002909311028AEF90E0A0E0F0
S1130730B0E08093120290931302A0931402B0933A
S11307401502809116028E7F82608093160281E0EA
S11307500E94B9008FB7F894482F552757C080914D
S11307607000992783709070892B19F4E5E0F0E00C
S113077014C08091B6008A71E1F78091B300909122
S1130780B200891B8C3038F08091B200853F18F498
S1130790E3E0F0E002C0E2E0F0E080916E008670F9
S11307A009F580916F008E72E9F4809171008E7268
S11307B0C9F40CB407FC16C08091C100807E91F48A
S11307C08091C900807E71F48091BC0082FD0AC0D2
S11307D080917A0087FF03C081E090E005C085E046
S11307E090E002C080E090E023B78E1708F4E82F71
S11307F0FF27E453FF4FE491207F2160E22BE3BF06
S113080078948895F89483B78E7F83BF80911B0278
S11308108F3F09F4A4CF282F3327F901E65FFD4F5A
S1130820808180931B028F3F11F4809322028FEF0B
S113083080832F3F09F493CF4FBF222321F021302F
S113084009F088CF03C00E948E0284CF0E943A022E
S113085081CFDC0101C06D9341505040E0F7089511
S1050860FFCFC4
S9030000FC
