S01700006275696C642F697269732F6D61696E2E7372656343
S11300000C9469000C9488000C9488000C9488006B
S11300100C9488000C9488000C9488000C9488003C
S11300200C9488000C9488000C9488000C9488002C
S11300300C9488000C949A010C9488000C9486010A
S11300400C9488000C9488000C9488000C9488000C
S11300500C9488000C9488000C9488000C948800FC
S11300600C9488000C9488000C9488000C948800EC
S11300700C9488000C9488000C9488000C948800DC
S11300800C9488000C9488000C9488000C948800CC
S11300900C9488000C9488000C9488000C948800BC
S11300A00C9488000C9488000C9488000C948800AC
S11300B00C9488000C9488000C9488000C9488009C
S11300C00C9488000C9488000C94880000020E069E
S11300D00C0411241FBECFEFD1E2DEBFCDBF12E06E
S11300E0A0E0B2E0E2E9F8E000E00BBF02C0079054
S11300F00D92A030B107D9F712E0A0E0B2E001C040
S11301001D92A232B107E1F70E9402030C94480445
S11301100C9400008FB7F894992708958FBF089521
S11301207FB7F8946091B2002091040230910502E7
S11301304091060250910702B99B11C08091B3000F
S11301409091B200280F311D411D511D2F5F3F4F6B
S11301504F4F5F4F290F311D411D511D04C0260F04
S1130160311D411D511D872F99278FBFCA01B90128
S11301700895282F9FB7F894E82FFF27E85FFD4FD5
S113018080818F3F81F4E0912102E21771F40BC06A
S113019020931A0204C0FF27E85FFD4F20832093B9
S11301A0210220E007C025E005C080911A028F3F9C
S11301B091F7EECF892F99278FBF822F9927089522
S11301C0DF92EF92FF920F931F938FB7F894282F2B
S11301D03327D22E9091B3008091B20047B3981781
S11301E011F041FF02C02FBF71C080910C0288231F
S11301F0E1F10E949000E0900002F0900102009171
S113020002021091030220911D0230911E024091BE
S11302101F02509120026E197F09800B910B621707
S113022073078407950720F010920C0271E01EC03A
S11302302E0D3F1D401F511F809104029091050215
S1130240A0910602B0910702281B390B4A0B5B0BE5
S1130250273E31054105510540F4822F223010F02C
S113026070E005C070E082E002C070E086EE682FA6
S113027061508091B60083FDFCCF8091B200681775
S113028009F46F5F20910402309105024091060247
S113029050910702DA01C9010196A11DB11D860F13
S11302A0911DA11DB11D82179307A407B50710F472
S11302B0622F60958091B60083FDFCCF6093B300FC
S11302C0DFBE772319F081E00E94B9001F910F91DE
S11302D0FF90EF90DF900895AFB7F894BB27E1E06B
S11302E0E0930C0260930002709301028093020277
S11302F09093030220931D0230931E0240931F0229
S113030050932002AFBF0E94E00008951F920F9205
S11303100FB60F9211248F938091B0008093B00098
S11303208091B60081FDFCCF8F910F900FBE0F908E
S11303301F9018951F920F920FB60F9211242F93AE
S11303403F934F935F936F937F938F939F93AF9359
S1130350BF93EF93FF938091B0008093B00080919E
S1130360B60081FDFCCF8091B30099270196AA279E
S1130370BB2720910402309105024091060250915E
S11303800702280F391F4A1F5B1F20930402309372
S11303900502409306025093070278940E94E000FD
S11303A0FF91EF91BF91AF919F918F917F916F9149
S11303B05F914F913F912F910F900FBE0F901F901F
S11303C018959C01AD01205F384D4F4F5F4F03C01E
S11303D00196A11DB11D82179307A407B50730F03C
S11303E080589A41A640B04060F008C081386AE164
S11303F0960766E0A60760E0B60750F380E00E9427
S1130400B9000895EF92FF920F931F93E0911502A4
S1130410E1FF36C020910D0230910E0240910F028F
S113042050911002E0901102F09012020091130218
S113043010911402621B730B840B950B6E157F05D0
S113044080079107E8F0E0FF04C0ED7FE093150218
S11304500CC02E0D3F1D401F511F20930D023093E1
S11304600E0240930F02509310028FB7F89499270D
S113047022B134E0232722B98FBF80E00E94B90063
S113048082E00E94B9001F910F91FF90EF900895B0
S1130490EF92FF920F931F930E9490007B018C01B7
S11304A08FB7F894992710920C028FBF8091150290
S11304B081FF3DC080910D0290910E02A0910F0228
S11304C0B0911002A8019701281B390B4A0B5B0B52
S11304D0DA01C901209111023091120240911302F4
S11304E050911402281B390B4A0B5B0B2F3F8FEFE3
S11304F038078FEF48078FE75807C9F0121613061D
S1130500140615062CF0C801B7010E9402020FC0A0
S11305102093160230931702409318025093190245
S113052081E080930B02C801B7010E946C011F9106
S11305300F91FF90EF900895EF92FF920F931F9306
S113054080910B02882361F52091160230911702E5
S11305504091180250911902EFB7F894FF27609167
S11305600002709101028091020290910302E090D6
S11305701D02F0901E0200911F02109120026E0DC8
S11305807F1D801F911FEFBF209316023093170227
S1130590409318025093190210920B020E946C01AE
S11305A00E9490000E9402021F910F91FF90EF9011
S11305B0089580911A028F3F11F1282F3327F901F2
S11305C0E85FFD4F808180931A028F3F11F480937E
S11305D021028FEF80832F3F91F0213041F02130B1
S11305E018F0223039F008C00E94E10105C00E94D1
S11305F09C0202C00E94480281E090E0089580E0DD
S113060090E008951F931FB7F89443E050E06FEF14
S113061070E088E092E00E9441048FEF80931A0218
S11306208093210281E08093810080E28093B60070
S113063083E08093B10080918400909185004AE723
S113064020918400309185002817390708F441501F
S1130650442311F0C901F4CF9091B2008091B2000B
S11306608917E1F320918400309185009091B200C4
S11306708091B2008917E1F3809184009091850004
S1130680821B930B409625E0969587952A95E1F772
S113069090931C0280931B021092B1008091B100D0
S11306A080938100809181008093B6001092B20003
S11306B010928500109284008FEF87BB87B386BBAE
S11306C08091B6008571E1F70A9A099A089A129AFC
S11306D0119A109A18B88FEF87B90C98149881E082
S11306E085BF0E94D9028823E1F78091B600806219
S11306F08093B6008091B60081FDFCCF82E08093A8
S1130700B0008091B60080FDFCCF83E08093B100FF
S11307108091B60083FDFCCF86EE8093B300809178
S113072070008260809370000E94E0000E94D902F1
S11307308823E1F7812F99278FBF78940E94900036
S113074060930D0270930E0280930F029093100237
S11307508AEF90E0A0E0B0E080931102909312023F
S1130760A0931302B0931402809115028E7F8260CD
S11307708093150282E00E94B9008FB7F894482F45
S1130780552757C080917000992783709070892BEA
S113079019F4E5E0F0E014C08091B6008A71E1F745
S11307A08091B3009091B200891B8C3038F0809115
S11307B0B200853F18F4E3E0F0E002C0E2E0F0E0CC
S11307C080916E00867009F580916F008E72E9F455
S11307D0809171008E72C9F40CB407FC16C080912C
S11307E0C100807E91F48091C900807E71F4809173
S11307F0BC0082FD0AC080917A0087FF03C081E0BB
S113080090E005C085E090E002C080E090E023B76E
S11308108E1708F4E82FFF27E453FF4FE491207F5D
S11308202160E22BE3BF78948895F89483B78E7F98
S113083083BF80911A028F3F09F4A4CF282F332756
S1130840F901E85FFD4F808180931A028F3F11F414
S1130850809321028FEF80832F3F09F493CF4FBF02
S1130860213049F0213020F0223009F086CF06C033
S11308700E94E10182CF0E949C027FCF0E94480225
S11308807CCFDC0101C06D9341505040E0F70895E6
S1050890FFCF94
S9030000FC
