S01700006275696C642F697269732F6D61696E2E7372656343
S11300000C9469000C9488000C9488000C9488006B
S11300100C9488000C9488000C9488000C9488003C
S11300200C9488000C9488000C9488000C9488002C
S11300300C9488000C94BD010C9488000C94A901C4
S11300400C9488000C9488000C9488000C9488000C
S11300500C9488000C9488000C9488000C948800FC
S11300600C9488000C9488000C9488000C948800EC
S11300700C9488000C9488000C9488000C948800DC
S11300800C9488000C9488000C9488000C948800CC
S11300900C9488000C9488000C9488000C948800BC
S11300A00C9488000C9488000C9488000C948800AC
S11300B00C9488000C9488000C9488000C9488009C
S11300C00C9488000C9488000C94880000020E069E
S11300D00C0411241FBECFEFD1E2DEBFCDBF12E06E
S11300E0A0E0B2E0E4EDF8E000E00BBF02C007904E
S11300F00D92A030B107D9F712E0A0E0B2E001C040
S11301001D92A433B107E1F70E9432030C946904F1
S11301100C9400008FB7F894992708958FBF089521
S11301207FB7F8946091B2002091050230910602E5
S11301304091070250910802B99B11C08091B3000D
S11301409091B200280F311D411D511D2F5F3F4F6B
S11301504F4F5F4F290F311D411D511D04C0260F04
S1130160311D411D511D872F99278FBFCA01B90128
S11301700895282F9FB7F894E82FFF27E75FFD4FD6
S113018080818F3F81F4E0913302E21771F40BC058
S113019020932C0204C0FF27E75FFD4F20832093A8
S11301A0330220E007C025E005C080912C028F3F78
S11301B091F7EECF892F99278FBF822F9927089522
S11301C0DF92EF92FF920F931F938FB7F894282F2B
S11301D03327D22E9091B3008091B20047B3981781
S11301E011F041FF02C02FBF6FC080910C02882321
S11301F0D1F10E949000E0900102F090020200917F
S113020003021091040220912F0230913002409198
S11302103102509132026E197F09800B910B6217E3
S113022073078407950728F010920C0286EE71E09C
S11302301CC02E0D3F1D401F511F8091050290913F
S11302400602A0910702B0910802281B390B4A0B41
S11302505B0B273E31054105510528F4822F2230DE
S113026018F482E001C086EE70E0682F615080913E
S1130270B60083FDFCCF8091B200681709F46F5F6C
S11302802091050230910602409107025091080224
S1130290DA01C9010196A11DB11D860F911DA11D91
S11302A0B11D82179307A407B50710F4622F609558
S11302B08091B60083FDFCCF6093B300DFBE77234B
S11302C019F080E00E94B9001F910F91FF90EF9008
S11302D0DF900895AFB7F894BB27E1E0E0930C02F8
S11302E060930102709302028093030290930402CC
S11302F020932F0230933002409331025093320204
S1130300AFBF0E94E0000895DF92EF92FF920F9337
S11303101F93D82E7A018B010E94900029E0D29E6F
S1130320F0011124E35FFD4F608371838283938323
S1130330E482F5820683178380858E7F82608087BE
S113034081E00E94B9001F910F91FF90EF90DF9020
S113035008951F920F920FB60F9211248F938091DC
S1130360B0008093B0008091B60081FDFCCF8F91E6
S11303700F900FBE0F901F9018951F920F920FB6FB
S11303800F9211242F933F934F935F936F937F9317
S11303908F939F93AF93BF93EF93FF938091B0009C
S11303A08093B0008091B60081FDFCCF8091B300B2
S11303B099270196AA27BB272091050230910602AE
S11303C04091070250910802280F391F4A1F5B1FF2
S11303D020930502309306024093070250930802CB
S11303E078940E94E000FF91EF91BF91AF919F91AB
S11303F08F917F916F915F914F913F912F910F90CA
S11304000FBE0F901F901895AF92BF92CF92DF92BC
S1130410EF92FF920F931F93CF93DF935B016C01D5
S1130420C0E0D0E0EDE0F2E07C2F608561FF3EC0EB
S11304302081318142815381E480F58006811781D6
S1130440D601C501821B930BA40BB50B8E159F051A
S1130450A007B10758F160FF03C06D7F608708C033
S11304602E0D3F1D401F511F208331834283538330
S1130470772311F5809100028F5F809300029FB76C
S1130480F894282F332720FF02C0129801C0129A33
S113049021FF02C0119801C0119A22FF02C01098D6
S11304A001C0109A892F99278FBF06C021963996CB
S11304B0C330D10509F0B8CF81E00E94B900DF91C3
S11304C0CF911F910F91FF90EF90DF90CF90BF904D
S11304D0AF900895AF92BF92CF92DF92EF92FF92C6
S11304E00F931F930E9490005B016C018FB7F894E7
S11304F0992710920C028FBF8FEFE82E8FEFF82E02
S11305008FEF082F8FE7182F60E0EDE0F2E0808591
S113051081FF1CC080819181A281B381A6019501D4
S1130520281B390B4A0B5B0BDA01C9012481358185
S113053046815781281B390B4A0B5B0B2E153F054F
S1130540400751071CF479018A0161E0399632E0D1
S1130550E832F307E1F66623D9F01E141F041006EF
S113056011062CF0C601B5010E94040211C0E092EC
S11305702802F092290200932A0210932B0281E0B0
S113058080930B02A8019701C601B5010E946A017C
S11305901F910F91FF90EF90DF90CF90BF90AF909D
S11305A00895EF92FF920F931F9380910B0288237B
S11305B061F5209128023091290240912A0250913C
S11305C02B02EFB7F894FF276091010270910202A9
S11305D08091030290910402E0902F02F090300287
S11305E000913102109132026E0D7F1D801F911F08
S11305F0EFBF209328023093290240932A0250939C
S11306002B0210920B020E946A010E9490000E9429
S113061004021F910F91FF90EF90089580912C0296
S11306208F3FE9F0282F3327F901E75FFD4F8081E1
S113063080932C028F3F11F4809333028FEF8083D9
S11306402F3F69F0222319F0213021F005C00E94C8
S1130650D10202C00E946A0281E090E0089580E025
S113066090E008951F931FB7F89442E050E06FEFB5
S113067070E089E092E00E9462048FEF80932C0284
S11306808093330281E08093810080E28093B600FE
S113069083E08093B10080918400909185004AE7C3
S11306A020918400309185002817390708F44150BF
S11306B0442311F0C901F4CF9091B2008091B200AB
S11306C08917E1F320918400309185009091B20064
S11306D08091B2008917E1F38091840090918500A4
S11306E0821B930B409625E0969587952A95E1F712
S11306F090932E0280932D021092B1008091B1004C
S113070080938100809181008093B6001092B200A2
S113071010928500109284008FEF87BB87B386BB4D
S11307208091B6008571E1F70A9A099A089A129A9B
S1130730119A109A18B88FEF87B90C98149881E021
S113074085BF0E940E038823E1F78091B600806282
S11307508093B6008091B60081FDFCCF82E0809347
S1130760B0008091B60080FDFCCF83E08093B1009F
S11307708091B60083FDFCCF86EE8093B300809118
S113078070008260809370000E94E0000E940E035B
S11307908823E1F7812F99278FBF789444EF51E0A4
S11307A060E070E082E00E94840148EE53E060E083
S11307B070E081E00E94840140ED57E060E070E069
S11307C080E00E9484018FB7F894482F552757C0C2
S11307D080917000992783709070892B19F4E5E05B
S11307E0F0E014C08091B6008A71E1F78091B30003
S11307F09091B200891B8C3038F08091B200853F13
S113080018F4E3E0F0E002C0E2E0F0E080916E0072
S1130810867009F580916F008E72E9F48091710001
S11308208E72C9F40CB407FC16C08091C100807E9E
S113083091F48091C900807E71F48091BC0082FDA6
S11308400AC080917A0087FF03C081E090E005C070
S113085085E090E002C080E090E023B78E1708F4B2
S1130860E82FFF27E453FF4FE491207F2160E22B20
S1130870E3BF78948895F89483B78E7F83BF809183
S11308802C028F3F09F4A4CF282F3327F901E75F07
S1130890FD4F808180932C028F3F11F480933302AB
S11308A08FEF80832F3F09F493CF4FBF222321F092
S11308B0213009F088CF03C00E94D10284CF0E9466
S11308C06A0281CFDC0101C06D9341505040E0F7D2
S10708D00895FFCFB5
S9030000FC
