S01700006275696C642F697269732F6D61696E2E7372656343
S11300000C9469010C9488010C9488010C94880167
S11300100C9488010C9488010C9488010C94880138
S11300200C9488010C9488010C9488010C94880128
S11300300C9488010C94D5060C9488010C94C10688
S11300400C9488010C9488010C9488010C94880108
S11300500C9488010C9488010C9488010C948801F8
S11300600C9488010C94B1040C9488010C9434050C
S11300700C9488010C9488010C9488010C948E06CD
S11300800C946D060C9478060C9483060C94A106CB
S11300900C9450060C9488010C9462060C9488010C
S11300A00C9488010C9488010C9488010C948801A8
S11300B00C9488010C9488010C9488010C94880198
S11300C00C9488010C9488010C9488010000211080
S11300D0422063308440A550C660E77008812991AE
S11300E04AA16BB18CC1ADD1CEE1EFF13112100256
S11300F073325222B5529442F772D66239931883FE
S11301007BB35AA3BDD39CC3FFF3DEE36224433421
S113011020040114E664C774A44485546AA54BB54D
S113012028850995EEE5CFF5ACC58DD553367226F5
S113013011163006D776F6669556B4465BB77AA79D
S113014019973887DFF7FEE79DD7BCC7C448E55841
S11301508668A7784008611802282338CCC9EDD9ED
S11301608EE9AFF9488969990AA92BB9F55AD44A95
S1130170B77A966A711A500A333A122AFDDBDCCB3D
S1130180BFFB9EEB799B588B3BBB1AABA66C877C61
S1130190E44CC55C222C033C600C411CAEED8FFD8D
S11301A0ECCDCDDD2AAD0BBD688D499D977EB66E35
S11301B0D55EF44E133E322E511E700E9FFFBEEFDD
S11301C0DDDFFCCF1BBF3AAF599F788F8891A9819F
S11301D0CAB1EBA10CD12DC14EF16FE18010A10089
S11301E0C230E3200450254046706760B983989379
S11301F0FBA3DAB33DC31CD37FE35EF3B1029012D9
S1130200F322D2323542145277625672EAB5CBA544
S1130210A89589856EF54FE52CD50DC5E234C32428
S1130220A01481046674476424540544DBA7FAB718
S11302309987B8975FE77EF71DC73CD7D326F23678
S11302409106B01657667676154634564CD96DC964
S11302500EF92FE9C899E9898AB9ABA944586548C8
S113026006782768C018E1088238A3287DCB5CDBB8
S11302703FEB1EFBF98BD89BBBAB9ABB754A545A18
S1130280376A167AF10AD01AB32A923A2EFD0FED84
S11302906CDD4DCDAABD8BADE89DC98D267C076C68
S11302A0645C454CA23C832CE01CC10C1FEF3EFF58
S11302B05DCF7CDF9BAFBABFD98FF89F176E367EB8
S11302C0554E745E932EB23ED10EF01E00020E0601
S11302D00C0411241FBECFEFD1E2DEBFCDBF12E06C
S11302E0A0E0B2E0EEE4F7E100E00BBF02C007904B
S11302F00D92A830B107D9F713E0A8E0B2E001C02D
S11303001D92A131B107E1F70E94FB090C94A60BE1
S11303100C9400008FB7F894992708958FBF08951F
S11303207FB7F8946091B2002091220230912302A9
S11303304091240250912502B99B11C08091B300D1
S11303409091B200280F311D411D511D2F5F3F4F69
S11303504F4F5F4F290F311D411D511D04C0260F02
S1130360311D411D511D872F99278FBFCA01B90126
S11303700895282F9FB7F894E82FFF27EA5DFD4FD3
S113038080818F3F81F4E0910C03E21771F40BC07C
S11303902093010304C0FF27EA5DFD4F20832093CF
S11303A00C0320E007C025E005C0809101038F3FC6
S11303B091F7EECF892F99278FBF822F9927089520
S11303C01F931FB7F89480910B03882339F40E947C
S11303D0B901882319F481E080930B03812F9927B5
S11303E08FBF1F910895DF92EF92FF920F931F9397
S11303F08FB7F894282F3327D22E9091B300809191
S1130400B20047B3981711F041FF02C02FBF71C06B
S1130410809135028823E1F10E949001E0901D0251
S1130420F0901E0200911F021091200220910503FA
S11304303091060340910703509108036E197F0918
S1130440800B910B621773078407950720F01092B5
S1130450350271E01EC02E0D3F1D401F511F8091BB
S1130460220290912302A0912402B0912502281B1C
S1130470390B4A0B5B0B273E31054105510540F40E
S1130480822F223010F070E005C070E082E002C0DC
S113049070E086EE682F61508091B60083FDFCCF3A
S11304A08091B200681709F46F5F209122023091A5
S11304B023024091240250912502DA01C9010196D8
S11304C0A11DB11D860F911DA11DB11D821793079A
S11304D0A407B50710F4622F60958091B60083FDE0
S11304E0FCCF6093B300DFBE772319F086E00E944F
S11304F0B9011F910F91FF90EF90DF900895AFB76E
S1130500F894BB27E1E0E093350260931D027093F9
S11305101E0280931F0290932002209305033093C0
S113052006034093070350930803AFBF0E94F301EF
S113053008959FB7F8948091F0028A3011F020E07A
S113054006C020E080913002843009F421E0892F34
S113055099278FBF222349F082E00E94B9018FB707
S1130560F894992710920B0206C08FB7F894992734
S113057021E020930B028FBF08952FB7F8943327FF
S11305808093C600E0ECF0E08081806480832FBF1C
S11305900895FC016115710519F481E090E0089556
S11305A08091380290913902892B19F085E090E00E
S11305B008957093FB026093FA02F0933902E0937A
S11305C03802109232021092310281E08093330299
S11305D08091C00080648093C0008091C1008064D9
S11305E08093C100808121E030E030933202209377
S11305F031020E94BD0280E090E0089580911C02C7
S11306008E7F80931C028EE780932E0261E070E05F
S11306108EE292E00E94C90299270895ECECF0E082
S11306206927660FF11DE60FF11DC895982F802DDF
S11306303196C89590250895982F809117028823A4
S113064089F5992379F531E03093170280910002FE
S11306508093180220910C02822F817080932102D2
S1130660809105029091060290931A0280931902D8
S113067080910D0280931B0232273170267EE32F76
S1130680FF27EE0FFF1FEF5FFD4F80819181909355
S1130690060280930502232B20930C0285E00E941E
S11306A0B901089580910C0280FF02C08B7F01C0C4
S11306B08D7F80930C0208950F931F93082F162F9C
S11306C0809130028130D9F0813038F0823009F4E1
S11306D04AC0833009F00EC159C0002309F43EC159
S11306E01092F4021092F3021092F2021092FC02A1
S11306F01092340210927C0210927B021FC10023DC
S113070009F02CC180917B0290917C020E940E031F
S113071090937C0280937B0282E08093300210935A
S1130720FC02143409F0E6C00BC18695869503C01B
S113073080910C028695817009F0DCC080910C02D6
S1130740992311F0846001C0826080930C0280912F
S11307500C02877E886080930C0210920D028FEF4A
S113076080930002FBC0002309F0C4C060933402EC
S113077080917B0290917C020E940E0390937C02F4
S113078080937B0283E080933002E8C08091F20280
S11307908F3F09F4AFC0002309F447C0823008F446
S11307A0A9C0E091F302EE2309F4D1C04E2F4150C9
S11307B0E42FFF27ED50FD4F82819927382F222700
S11307C0442311F4E2E002C0E42FE150FF27ED508E
S11307D0FD4F82819927282B392B80917B029091A0
S11307E07C022817390709F085C080E00E941C03A9
S11307F0309134028091710220917202982F9F5F90
S1130800963008F090E0921709F474C0E82FFF279F
S1130810EF58FD4F32838F5F80937102863010F062
S1130820109271020E94E00165C0823008F44EC04B
S1130830E091F402FF27ED50FD4F8281482F5527A8
S1130840342F20910C02822F86958695869583708D
S113085099278130910519F00297F9F40EC0277E8B
S1130860206120930C02442311F485E001C080E050
S113087080930D023093000210C080910D028333E7
S113088060F4E0910502F0910602E80FF11D408347
S113089080910D028F5F80930D028091F402E82F06
S11308A0FF27ED50FD4F62818F5F8093F402833008
S11308B010F01092F402772780917B0290917C02D1
S11308C00E940E0390937C0280937B028091F3023A
S11308D0E82FFF27ED50FD4F12838F5F8093F302C3
S11308E0833010F01092F3028091F2028F5F8093B4
S11308F0F20234C01092F4021092F3021092300209
S11309001092F2021092FC021092340210927C02B5
S113091010927B0280911C028D7F80931C0281E0E7
S11309200E941C0380910B02882331F084E08093A1
S113093030020E94990212C0002381F081E023CF8B
S113094080910C02982F917080FDEFCEF1CE8091B2
S1130950F7029927382F222742E036CF1F910F91B3
S113096008951F920F920FB60F9211242F933F9365
S11309704F935F936F937F938F939F93AF93BF93A3
S1130980EF93FF938091C00087FF42C06091C6003F
S1130990E0917D02F0917E02309719F18091090374
S11309A090910A03E80FF91F6083019690930A035C
S11309B08093090320910F0330911003821793074A
S11309C038F110927E0210927D028091EF02833002
S11309D0F9F08091C1008F778093C1001092EF02EB
S11309E017C06E3719F460E081E010C080911C02DA
S11309F06D3721F4826080931C020AC081FF05C018
S1130A008D7F80931C0280E2682780E00E945C0353
S1130A10FF91EF91BF91AF919F918F917F916F91D2
S1130A205F914F913F912F910F900FBE0F901F90A8
S1130A301895982F8D57823068F480911C0281603C
S1130A4080931C0280E289278093F1028DE78093D2
S1130A502E0202C090932E0261E070E08EE292E0DA
S1130A600E94C9029927089578941F920F920FB695
S1130A700F921124FF920F931F932F933F934F9341
S1130A805F936F937F938F939F93AF93BF93CF9312
S1130A90DF93EF93FF9320913102309132028091E2
S1130AA0FA029091FB022817390780F4E09138028A
S1130AB0F0913902E20FF31F80812F5F3F4F309393
S1130AC03202209331020E94BD02D4C01092390236
S1130AD010923802109233028091C1008F7B809370
S1130AE0C10080911C0280FF0EC08E7F80931C0287
S1130AF08091F10280932E0261E070E08EE292E038
S1130B000E94C902B7C08091F002843009F494C0F5
S1130B10853040F4823021F18330B8F5813009F01A
S1130B20A4C00DC0863009F495C0863008F48BC08B
S1130B30873009F496C0883009F097C099C0809135
S1130B4037020E941905182F83E08093F002609108
S1130B50370280910D0390910E030E940E0310C082
S1130B60809104030E941905182F83E08093F002FA
S1130B706091040380910D0390910E030E940E0373
S1130B8090930E0380930D036EC0FFB6F894E0912A
S1130B907F02FF27EE0FFF1FE55CFD4F80810E945F
S1130BA01905082F10917F02C12FDD27FE01EE0FDA
S1130BB0FF1FE55CFD4F608180910D0390910E0352
S1130BC00E940E0390930E0380930D03209136022E
S1130BD02F5F20933602113039F580911302E09192
S1130BE00E02F0910F02E80FF11DE0818F5F8093F8
S1130BF0130290911202981730F482E080933C0221
S1130C0040E050E002C04E2F5527DE01AA0FBB1F63
S1130C10FD01E65CFD4F8081823031F02F3F21F0F1
S1130C20A55CBD4F4C9303C084E08093F002102F69
S1130C308F2D99278FBF17C080910D030E9419052E
S1130C40182F85E00BC080910E030E941905182F00
S1130C5086E004C00E94FE02182F87E08093F00211
S1130C6002C088E003C0112329F089E08093F002D8
S1130C700E94E001FF91EF91DF91CF91BF91AF917D
S1130C809F918F917F916F915F914F913F912F91A0
S1130C901F910F91FF900F900FBE0F901F9018950A
S1130CA01F920F920FB60F9211248F938091C80058
S1130CB087FF02C08091CE008F910F900FBE0F90DE
S1130CC01F90189578941F920F920FB60F921124CB
S1130CD00F900FBE0F901F90189578941F920F924B
S1130CE00FB60F9211240F900FBE0F901F901895FE
S1130CF078941F920F920FB60F9211240F900FBE8B
S1130D000F901F90189578941F920F920FB60F9220
S1130D1011240F900FBE0F901F90189578941F9276
S1130D200F920FB60F9211248F939F93809194008A
S1130D30909195009F918F910F900FBE0F901F90EF
S1130D40189578941F920F920FB60F9211242F9337
S1130D503F938F939F932FB7F89433278091790211
S1130D6090917A02019690937A02809379022FBF30
S1130D709F918F913F912F910F900FBE0F901F90D5
S1130D8018951F920F920FB60F9211248F93809192
S1130D90B0008093B0008091B60081FDFCCF8F91AC
S1130DA00F900FBE0F901F9018951F920F920FB6C1
S1130DB00F9211242F933F934F935F936F937F93DD
S1130DC08F939F93AF93BF93EF93FF938091B00062
S1130DD08093B0008091B60081FDFCCF8091B30078
S1130DE099270196AA27BB2720912202309123023A
S1130DF04091240250912502280F391F4A1F5B1F7E
S1130E00209322023093230240932402509325021C
S1130E1078940E94F301FF91EF91BF91AF919F915C
S1130E208F917F916F915F914F913F912F910F908F
S1130E300FBE0F901F901895EF92FF920F931F9380
S1130E40E0918802E1FF8CC0209180023091810200
S1130E504091820250918302E0908402F0908502D6
S1130E600091860210918702621B730B840B950B11
S1130E706E157F058007910708F472C0E0FF04C077
S1130E80ED7FE09388020CC02E0D3F1D401F511FC3
S1130E902093800230938102409382025093830214
S1130EA02091090230910A022F5F3F4F30930A02CA
S1130EB02093090280910802882309F051C02093ED
S1130EC04B02832F992780934A028FEF8093440229
S1130ED08093430289E88093490282E08093470229
S1130EE08091100290911102892B09F039C02FB71B
S1130EF0F894332785E080931302109214028EE352
S1130F0092E090930F0280930E0282E090E090931F
S1130F1011028093100210921602109215028EE0B4
S1130F20809312022FBF9FB7F89480913C028823CC
S1130F3011F020E006C081E080933C0210923D0253
S1130F4021E0892F99278FBF222331F00E94E001ED
S1130F5081E08093080204C01092110210921002E2
S1130F6087E00E94B9011F910F91FF90EF900895BF
S1130F70EF92FF920F931F93CF93DF93833009F483
S1130F802DC1843038F4813009F4E9C0823008F08E
S1130F9021C10DC0853009F448C1853008F429C148
S1130FA0863009F486C1873009F001C2B5C18FB714
S1130FB0F89410920B032091F00240E0283009F4D9
S1130FC041E030E0293009F431E0442311F43323C3
S1130FD051F01092F002E0917F02FF27EE0FFF1F05
S1130FE0E65CFD4F108299278FBF442311F433230D
S1130FF019F1809104038F5F809304038091370279
S11310008334A1F49FB7F894209172028091710205
S1131010821741F0822F8F5F80937202863010F026
S113102010927202892F99278FBF0AC0A0E044232F
S113103009F4A1E071E006C0222311F010E069C0B8
S1131040A0E070E08FB7F894992720910B028FBF2E
S1131050222341F08FB7F89499272AE02093F002D5
S11310608FBF43C08FB7F894992760913A0240919B
S11310703C028FBF8FB7F894282F332750E090910C
S1131080710280917202981709F451E02FBF552321
S113109049F5662339F55FB7F89482E080933A0204
S11310A08FB7F894282F332740E0909171028091F4
S11310B07202981709F441E02FBF442311F080E035
S11310C006C0E0917202FF27EF58FD4F82818093A2
S11310D03B02852F99278FBF83E4809337021092B8
S11310E07F020BC04150423010F010E007C085E48D
S11310F08093370281E080937F0211E0772349F0E7
S11311008FB7F8949927A09314028FBF84E00E94AC
S1131110B9018091F0028A3019F40E94990247C102
S1131120112309F444C12FB7F894332710920E0306
S113113010920D031092360281E08093F0022FBFCB
S11311400E94FE02882309F432C18FB7F8949927CC
S113115029E02093F0028FBF0E94E00128C1809112
S1131160C1008F7B8093C1008091C1008F778093F1
S1131170C1001092EF02109233028091C100886086
S11311808093C1008091C10080618093C1008091EF
S1131190C10080688093C1000E9490016093800226
S11311A070938102809382029093830288EE93E08D
S11311B0A0E0B0E08093840290938502A09386021D
S11311C0B0938702809188028E7F82608093880228
S11311D087E001C083E00E94B901E9C08091C100A9
S11311E0877F8093C1008091C1008F7E8093C1006E
S11311F0DEC010921102109210028FB7F894992752
S11312008FBFE0910E02F0910F02809116028823A5
S113121009F0CDC08385893809F0C9C0EE53F24086
S113122009F0C5C010920802C2C08FB7F89499277C
S113123020911802A0911902B0911A0230911B0258
S1131240409121028FBF2223E1F4932F9C50ED01A2
S11312508B858938B1F49230A1F4FD013D968D85DA
S113126080FF02C0129801C0129A808181FF02C0DF
S1131270119801C0119A808182FF02C0109801C0A8
S1131280109A8FB7F894E42FFF27EE0FFF1FEF5F3C
S1131290FD4FB183A08320910C02442311F02B7FD6
S11312A001C02D7F20930C021092170299278FBF43
S11312B07EC080912F02882361F52091FD02309138
S11312C0FE024091FF0250910003EFB7F894FF270C
S11312D060911D0270911E0280911F029091200264
S11312E0E0900503F09006030091070310910803B2
S11312F06E0D7F1D801F911FEFBF2093FD02309361
S1131300FE024093FF025093000310922F020E94AA
S11313107F020E94900139C00E9490017B018C01E0
S11313208FB7F8949927109235028FBF8091880265
S113133081FF3DC08091800290918102A091820240
S1131340B0918302A8019701281B390B4A0B5B0B50
S1131350DA01C9012091840230918502409186020C
S113136050918702281B390B4A0B5B0B2F3F8FEFE1
S113137038078FEF48078FE75807C9F0121613068E
S1131380140615062CF0C801B7010E941C070FC0F3
S11313902093FD023093FE024093FF02509300031A
S11313A081E080932F02C801B7010E947F02DF9180
S11313B0CF911F910F91FF90EF90089580910103B9
S11313C08F3FB1F0282F3327F901EA5DFD4F80816B
S11313D0809301038F3F11F480930C038FEF80837C
S11313E02F3F31F0822F0E94B80781E090E00895EA
S11313F080E090E00895FF920F931F93FFB6F89456
S113140048E050E06FEF70E086E292E00E949F0BAC
S11314108FEF8093010380930C0381E0809381001C
S113142080E28093B60083E08093B10080918400D1
S1131430909185004AE72091840030918500281717
S1131440390708F44150442311F0C901F4CF9091B5
S1131450B2008091B2008917E1F3209184003091A9
S113146085009091B2008091B2008917E1F38091D8
S1131470840090918500821B930B409635E09695ED
S113148087953A95E1F790930303809302031092B2
S1131490B1008091B100809381008091810080939C
S11314A0B6001092B20010928500109284008FEF63
S11314B087BB87B386BB8091B6008571E1F718B806
S11314C08FEF87B90C98149810929500109294009D
S11314D08091710081608093710080919100887F78
S11314E08260809391000A9A099A089A129A119A32
S11314F0109A81E085BF0E94DE098823E1F780917C
S1131500B60080628093B6008091B60081FDFCCF66
S113151082E08093B0008091B60080FDFCCF83E030
S11315208093B1008091B60083FDFCCF86EE80935A
S1131530B300809170008260809370000E94F30178
S113154012E006E060910203709103038827992753
S11315502CE0660F771F881F991F2A95D1F720E08A
S113156031EE40E050E00E947D0B2150304020934A
S1131570C400832F99278093C5001093C000009363
S1131580C2001092C1002093CC008093CD00109330
S1131590C8000093CA001092C90084E490E09093BC
S11315A0F9028093F80210923A0210923C021092CF
S11315B0F002109236021092370210920403109235
S11315C00E0310920D0310920B0310927F021092DF
S11315D0F4021092F302109230021092F20210926E
S11315E0FC021092340210927C0210927B02109240
S11315F07202109271020E94DE098823E1F78F2D96
S113160099278FBF789481E00E94B9018FB7F8942D
S1131610482F552757C08091700099278370907088
S1131620892B19F4E5E0F0E014C08091B6008A71CA
S1131630E1F78091B3009091B200891B8C3038F0AF
S11316408091B200853F18F4E3E0F0E002C0E2E0EC
S1131650F0E080916E00867009F580916F008E72C3
S1131660E9F4809171008E72C9F40CB407FC16C0C1
S11316708091C100807E91F48091C900807E71F4D4
S11316808091BC0082FD0AC080917A0087FF03C06C
S113169081E090E005C085E090E002C080E090E049
S11316A023B78E1708F4E82FFF27E453FD4FE49186
S11316B0207F2160E22BE3BF78948895F89483B768
S11316C08E7F83BF809101038F3F09F4A4CF282F1D
S11316D03327F901EA5DFD4F8081809301038F3F39
S11316E011F480930C038FEF80832F3F09F493CF81
S11316F04FBF822F0E94B80789CFA1E21A2EAA1BDE
S1131700BB1BFD010DC0AA1FBB1FEE1FFF1FA217AD
S1131710B307E407F50720F0A21BB30BE40BF50BAA
S1131720661F771F881F991F1A9469F76095709533
S1131730809590959B01AC01BD01CF010895DC011A
S111174001C06D9341505040E0F70895FFCF73
S10B174EFF8902BC02890200BC
S9030000FC
