:100000000C947E010C949D010C949D010C949D0117
:100010000C949D010C949D010C949D010C949D01E8
:100020000C949D010C949D010C949D010C949D01D8
:100030000C949D010C94230D0C949D010C94540878
:100040000C94D5160C940D170C942C090C943709AC
:100050000C9442090C949D010C949D010C949D01FB
:100060000C9475080C94130B0C949D010C94960B36
:100070000C949D010C949D010C949D010C94F00C2A
:100080000C94CF0C0C94DA0C0C94E50C0C94030D2E
:100090000C94B20C0C949D010C94C40C0C949D0116
:1000A0000C949D010C949D010C949D010C949D0158
:1000B0000C949D010C949D010C949D010C949D0148
:1000C0000C949D010C949D010C949D01F41E2C1F19
:1000D000421F751FCD1F5E20E720EA20F520092171
:1000E00098217022902292229D22C222E422EC1EAC
:1000F000FA230824FE2400002110422063308440AB
:10010000A550C660E770088129914AA16BB18CC1E6
:10011000ADD1CEE1EFF13112100273325222B5525D
:100120009442F772D662399318837BB35AA3BDD336
:100130009CC3FFF3DEE36224433420040114E6642D
:10014000C774A44485546AA54BB528850995EEE586
:10015000CFF5ACC58DD55336722611163006D7763D
:10016000F6669556B4465BB77AA719973887DFF7D6
:10017000FEE79DD7BCC7C448E5588668A778400805
:10018000611802282338CCC9EDD98EE9AFF9488926
:1001900069990AA92BB9F55AD44AB77A966A711A9D
:1001A000500A333A122AFDDBDCCBBFFB9EEB799B76
:1001B000588B3BBB1AABA66C877CE44CC55C222CED
:1001C000033C600C411CAEED8FFDECCDCDDD2AADC6
:1001D0000BBD688D499D977EB66ED55EF44E133E7D
:1001E000322E511E700E9FFFBEEFDDDFFCCF1BBF16
:1001F0003AAF599F788F8891A981CAB1EBA10CD1F0
:100200002DC14EF16FE18010A100C230E3200450F7
:10021000254046706760B9839893FBA3DAB33DC36A
:100220001CD37FE35EF3B1029012F322D232354247
:10023000145277625672EAB5CBA5A89589856EF5FA
:100240004FE52CD50DC5E234C324A0148104667497
:10025000476424540544DBA7FAB79987B8975FE74A
:100260007EF71DC73CD7D326F2369106B0165766E7
:100270007676154634564CD96DC90EF92FE9C899D2
:10028000E9898AB9ABA94458654806782768C01837
:10029000E1088238A3287DCB5CDB3FEB1EFBF98BAA
:1002A000D89BBBAB9ABB754A545A376A167AF10A87
:1002B000D01AB32A923A2EFD0FED6CDD4DCDAABDBA
:1002C0008BADE89DC98D267C076C645C454CA23CD7
:1002D000832CE01CC10C1FEF3EFF5DCF7CDF9BAF8A
:1002E000BABFD98FF89F176E367E554E745E932E27
:1002F000B23ED10EF01E00020E060C0411241FBEE9
:10030000CFEFD1E2DEBFCDBF12E0A0E0B2E0EAE283
:10031000F5E500E00BBF02C007900D92A831B107D0
:10032000D9F719E0A8E1B2E001C01D92A631B107EA
:10033000E1F70E94F6250C94942A0C9400008FB7E4
:10034000F894992708958FBF0895AC01EBE5F4E088
:1003500080E090E09C01858180FF05C080819181D3
:100360008417950741F0C90101963E968A309105A0
:1003700089F72FEF30E0C90108950E94A5018F3F52
:1003800099F09927880F991FFC0123E0EE0FFF1FBA
:100390002A95E1F7E81BF90BE55AFB4F858181FFB0
:1003A00003C08285938508958FEF90E008950E94A1
:1003B000A5018F3F19F481E090E008959927880FF7
:1003C000991FFC0143E0EE0FFF1F4A95E1F7E81B80
:1003D000F90BE55AFB4F85818860858380E090E0CA
:1003E00008952F923F924F925F926F927F928F92D9
:1003F0009F92AF92BF92CF92DF92EF92FF920F93B4
:100400001F93CF93DF93CDB7DEB729970FB6F8943C
:10041000DEBF0FBECDBF6FB76983F8942090240371
:1004200030902503409026035090270366247724BC
:100430008824EEE4AE2E73E8B72ECC24DD24EE241F
:10044000FF2400E010E0222D332D442D552D662D84
:10045000772D882D90E00E9461282A833B834C836E
:100460005D836E837F8388879987822E932EA42E47
:10047000B52E2401350100E20E945F29A22EB32E81
:10048000C42ED52EA30192015695479537952795F1
:100490002A0D3B1D4C1D5D1D57FF05C05F772F5F6B
:1004A0003F4F4F4F5F4F20932403309325034093DA
:1004B000260350932703E9818E2F99278FBFCA0106
:1004C000B90129960FB6F894DEBF0FBECDBFDF91FC
:1004D000CF911F910F91FF90EF90DF90CF90BF9041
:1004E000AF909F908F907F906F905F904F903F90D4
:1004F0002F900895282F9FB7F894E82FFF27EB5AE5
:10050000FD4F80818F3F81F4E091F408E21771F490
:100510000BC02093D80804C0FF27EB5AFD4F20835F
:100520002093F40820E007C025E005C08091D8089A
:100530008F3F91F7EECF892F99278FBF822F992771
:100540000895EF920F931F93AE2D99E0899FF001CC
:100550001124E851FB4F40835183628373830483EA
:10056000158326833783A17080858E7F8A2B8260D6
:10057000808783E00E947A021F910F91EF90089587
:100580007FB7F8946091B2002091500230915102EF
:100590004091520250915302B99B11C08091B30017
:1005A0009091B200280F311D411D511D2F5F3F4F0B
:1005B0004F4F5F4F290F311D411D511D04C0260FA4
:1005C000311D411D511D872F99278FBFCA01B901C8
:1005D00008956D3118F080E090E008950C9608952C
:1005E0006E5F0E94E902009709F0029608950B964B
:1005F0000895CF93DF93FC01DC01119621816623DE
:1006000051F0ED0189819927982F8827332720629F
:10061000822B932B09C0ED0189819927982F882778
:100620003327822B932B8F7D8183892F9927898371
:10063000DF91CF910895FC01CB01428553859A014A
:1006400063E0220F331F6A95E1F7240F351F2B5FFC
:100650003F4F820F931F6AE070E00E94EE2973877C
:1006600062870895FC0164859585662339F48AE0E4
:10067000989FB00111246A5070400BC077278AE020
:10068000989FC00111240E94022A6A50704014866B
:100690001586CF010E941B03089580912F02E82F39
:1006A000FF27EE0FFF1FE256F74F0190F081E02D7C
:1006B00020913102222351F08F5F80932F028D30E1
:1006C00011F410922F02215020933102CF0108958E
:1006D0008FB7F894992722B134E0232722B98FBF2E
:1006E0000895AC01209142042C3018F081E090E094
:1006F000089580912A03682F620F712D711DFB01EF
:100700006C30710508F03C97EE0FFF1FE65EF94F65
:10071000518340832F5F2093420480E090E008954E
:10072000AC0120910E042C3018F081E090E0089587
:100730008091E108682F620F712D711DFB016C30F3
:10074000710508F03C97EE0FFF1FEB50F74F5183F8
:1007500040832F5F20930E0480E090E008950F9374
:100760001F93CF93DF93EC01892BE9F02091BF0811
:100770003091C0088FEF2F3F3807A9F080914302D6
:10078000813019F4198218820BC00091C1081091B0
:10079000C208C9010E94BD01080F191F19830883EF
:1007A00080E090E002C081E090E0DF91CF911F9166
:1007B0000F910895FC0180818D5099270895685FFD
:1007C0000E94E902009709F0089608951F931FB749
:1007D000F8948091ED08882341F48AE00E947A021F
:1007E000882319F481E08093ED08812F99278FBF2A
:1007F0001F910895EF92FF921F93CF93DF937C0197
:10080000EB01142F80911902882309F05FC0443056
:1008100009F05CC0672B09F459C00E946803888105
:100820009981AA81BB818093F1059093F205A093F1
:10083000F305B093F4058FEF8093EB058093EA0501
:1008400089E88093F0051093EE0580912102909144
:100850002202892B09F03AC02FB7F894332785E09C
:10086000809324021092250285EE95E09093200259
:1008700080931F0282E090E09093220280932102F5
:10088000109227021092260280E1809323022FBF4C
:100890009FB7F8948091D503882311F020E006C01B
:1008A00081E08093D5031092D60321E0892F992708
:1008B0008FBF222339F00E94E603109881E08093D5
:1008C000190204C01092220210922102C701DF9186
:1008D000CF911F91FF90EF900895FC01635F6083BB
:1008E0000895882319F08CB5806402C08CB58F7B85
:1008F0008CBD0895882319F08CB5806802C08CB532
:100900008F778CBD08950F931F9380E00E94710430
:100910000FB7F8941127229A2398219A8CB58061F9
:100920008CBD80E00E947A048DB581608DBD8CB550
:10093000877F8CBD8CB58B7F8CBD8CB58E7F8CBD3D
:1009400081E00E9471040FBF1F910F9108950F93D2
:100950001F93CF93DF93182F0FB7F89480911B024A
:10096000882311F40E948304802F99278FBF8FB7AB
:10097000F894C82FDD272C2F80911B02882361F467
:1009800081E080931B021093CE0389E00E947A02DB
:10099000CFBF80E090E021C0E12FFF27E453FC4F60
:1009A00080818F3F89F4E0910902E11789F40CC03E
:1009B0001093080204C0FF27E453FC4F10831093E8
:1009C000090280E090E002C085E090E02FBF05C002
:1009D000809108028F3F79F7EBCFDF91CF911F9184
:1009E0000F9108958FB7F8942091520430915304D9
:1009F0004091540450915504E0918400F091850099
:100A0000B09B08C02F5F3F4F4F4F5F4FE091840076
:100A1000F091850099278FBFC901772766279F012D
:100A200044275527622B732B842B952B0895FC01AB
:100A300080A9826080AB08958C960895AC01EFB7D1
:100A4000F8942091840030918500C901841B950B96
:100A500003968617970720F0B9016D5F7F4F02C09C
:100A6000640F751F6115710511F461E070E061504C
:100A70007040709389006093880082E086BB80910B
:100A80006F00826080936F008E2F99278FBF08952B
:100A9000FC01828121819927982F88273327822B77
:100AA000932B85FF1FC087749C7C81549848D1F498
:100AB000878146812FB7F8943327609102027091A5
:100AC00003022FBF20E09927982F88275527842BD2
:100AD000952B8617970709F021E081E02827822FC0
:100AE0009927089580E090E00895EF92FF920F9388
:100AF0001F937C018FB7F89499270091840210917D
:100B000085020F5E1E4F10938502009384020151EF
:100B100011408FBF87E00E947A02C801B7010E948E
:100B2000EE298A5D9E4F1F910F91FF90EF900895DF
:100B30009FB7F8948091E2058A3011F020E006C05A
:100B400020E08091E402843009F421E0892F992784
:100B50008FBF222349F08CE00E947A028FB7F8946D
:100B6000992710921C0206C08FB7F894992721E0AC
:100B700020931C028FBF08952FB7F89433278093DA
:100B8000C600E0ECF0E08081806480832FBF089590
:100B9000FC016115710519F481E090E008958091E0
:100BA000D1039091D203892B19F085E090E008954C
:100BB0007093C8086093C708F093D203E093D10301
:100BC000109219031092180381E080931A03809108
:100BD000C00080648093C0008091C10080648093D5
:100BE000C100808121E030E0309319032093180385
:100BF0000E94BC0580E090E0089580912D028E7FD8
:100C000080932D028EE780936D0261E070E08DE6A7
:100C100092E00E94C8059927089508950F931F93A5
:100C2000CF93DF93282F3327C901880F991FFC0129
:100C3000A3E0EE0FFF1FAA95E1F7E81BF90BE55AB9
:100C4000FB4F858182FF03C062838B7F8583828116
:100C5000962F981B628383818F5F838386E08683D0
:100C6000992361F08481890F815084839B3030F017
:100C7000148281E08383178211861086C901880F50
:100C8000991FFC0173E0EE0FFF1F7A95E1F7E81B57
:100C9000F90BE55AFB4F8381833008F471C0008162
:100CA0001181CBE5D4E0888199818017910709F003
:100CB00061C08D8180FF5EC08E81882311F08150DC
:100CC0008E838F81882311F081508F838E818823BA
:100CD00051F48F81882339F48D8191E089278D83A8
:100CE0001986188642C08D8182608D839B816C81BC
:100CF000690F633008F463E077278FEF989FC00196
:100D000011240E94022A888529E0829FC0011124B3
:100D10000596860F911D6AE070E00E94022A68879E
:100D20001B821C824985662301F14423F1F0772759
:100D300081E09EEF0E94EE29CB019B0163E0220F30
:100D4000331F6A95E1F7642F7727880F991F820F69
:100D5000931F0E94EE296A5070406F3F710519F091
:100D600010F06CE370E0772702C06CE370E0CE0116
:100D70000E941B032E9684E0C73ED80709F093CF4C
:100D8000DF91CF911F910F91089580E090E0E0E610
:100D9000F4E09C01808180FF08C0C90101963E9665
:100DA0008A309105B1F72FEF30E0C90108959EE038
:100DB000899FF0011124E55AFB4F718360831282F1
:100DC0001382148285E0858386E08683878310867C
:100DD0001186138612860895982FAFEF60E070E0B9
:100DE00040E050E0E0E6F4E08081282F332720FF48
:100DF0000BC021FF09C023FD07C0258136812617BE
:100E0000370710F0A42FB9014F5F5F4F3E964A306D
:100E1000510551F7892F99276817790718F48FEF33
:100E200090E008958A2F99270895AC0130914F02E0
:100E30008FEF4F3F580711F020E012C0832F992702
:100E40000895E22FFF2783E0EE0FFF1F8A95E1F759
:100E5000E557FD4F808191818417950719F02F5F29
:100E6000231779F7822F99270895FC0180818D50EF
:100E7000992708951F93CF93DF93162FC0E0D0E0FA
:100E80006AE10E94F002FC0180818123811711F444
:100E9000C1E0D0E0CE01DF91CF911F910895FF9284
:100EA0000F931F938C010E943507F82E62E0C80152
:100EB0000E94E902FC01208133272F703070C901A4
:100EC000880F991F820F931FF81A8EEFF80E8F2D3F
:100ED00099271F910F91FF900895AC012091310245
:100EE0002D3018F081E090E0089580913002E82FD5
:100EF000FF27EE0FFF1FE256F74F518340838F5FAE
:100F0000809330028D3011F4109230022F5F2093C5
:100F1000310280E090E00895FC0182A593A5089538
:100F2000AF92BF92CF92DF92EF92FF920F931F93F7
:100F3000F82E5A016B010E94C002AB01BC01EE24E5
:100F4000960185018F2D0E94A1021F910F91FF90A4
:100F5000EF90DF90CF90BF90AF900895DF92EF9227
:100F6000FF920F931F938FB7F894282F3327D22E19
:100F70009091B3008091B20047B3981711F041FFF0
:100F800002C02FBF71C080911C038823E1F10E9431
:100F9000C002E0904402F090450200914602109198
:100FA00047022091E2083091E3084091E408509113
:100FB000E5086E197F09800B910B62177307840790
:100FC000950720F010921C0371E01EC02E0D3F1DEE
:100FD000401F511F8091500290915102A0915202E6
:100FE000B0915302281B390B4A0B5B0B273E31058E
:100FF0004105510540F4822F223010F070E005C009
:1010000070E082E002C070E086EE682F615080914F
:10101000B60083FDFCCF8091B200681709F46F5FC2
:10102000209150023091510240915202509153024E
:10103000DA01C9010196A11DB11D860F911DA11DE7
:10104000B11D82179307A407B50710F4622F6095AE
:101050008091B60083FDFCCF6093B300DFBE7723A1
:1010600019F082E00E947A021F910F91FF90EF9099
:10107000DF900895AFB7F894BB27E1E0E0931C033D
:101080006093440270934502809346029093470216
:101090002093E2083093E3084093E4085093E50876
:1010A000AFBF0E94AE0708951F920F920FB60F9226
:1010B00011248F938091B0008093B0008091B6008E
:1010C00081FDFCCF8F910F900FBE0F901F90189550
:1010D0001F93182F81E00E9471041EBD0DB407FEFE
:1010E000FDCF8EB599271F9108951F920F920FB6CD
:1010F0000F9211248F929F92AF92BF92CF92DF9264
:10110000EF92FF920F931F932F933F934F935F9311
:101110006F937F938F939F93AF93BF93CF93DF93FF
:10112000EF93FF932EB5E0917B05F0917C0530970E
:1011300039F080914C0490914D04E80FF91F208301
:1011400080914C0490914D04019690934D048093AE
:101150004C0480E00E947A04C0914C04D0914D046C
:1011600080913A0290913B02C817D90708F046C017
:101170000091E8081091E90880907B0590907C052B
:101180000F2EFAE0AF2EBB24F02DAC0EBD1E8A153B
:101190009B0508F45C016401CC0EDD1E7801EC0EA9
:1011A000FD1E15C00115110519F0F701808101C060
:1011B00080E00E9468088114910411F0F601808398
:1011C00021960894C11CD11C0894E11CF11CC50196
:1011D0000197C817D90730F381E00E947A040115FE
:1011E000110531F00C0F1D1FF80180818EBD01C06B
:1011F0001EBCD0934D04C0934C0411C010927C05CA
:1012000010927B051092E9081092E80810923B02B8
:1012100010923A0210924D0410924C048EB5FF9138
:10122000EF91DF91CF91BF91AF919F918F917F917E
:101230006F915F914F913F912F911F910F91FF906F
:10124000EF90DF90CF90BF90AF909F908F900F90D6
:101250000FBE0F901F90189578941F920F920FB6A3
:101260000F9211240F900FBE0F901F901895789435
:101270001F920F920FB60F9211240F900FBE0F9076
:101280001F90189578941F920F920FB60F92112409
:101290002F933F938F939F93AF93BF932FB7F89460
:1012A00033278091520490915304A0915404B0913B
:1012B00055040196A11DB11D8093520490935304CF
:1012C000A0935404B09355042FBFBF91AF919F9149
:1012D0008F913F912F910F900FBE0F901F901895F7
:1012E000E6EFF0E06927660FF11DE60FF11DC895E6
:1012F000982F802D3196C89590250895982F80912C
:101300002802882389F5992379F531E03093280262
:1013100080910B028093290220911D02822F8170FF
:1013200080934E02809110029091110290932B02B3
:1013300080932A0280911E0280932C023227317002
:10134000267EE32FFF27EE0FFF1FE45FFD4F808116
:1013500091819093110280931002232B20931D0200
:101360008FE00E947A02089580911D0280FF02C0E2
:101370008B7F01C08D7F80931D0208950F931F9373
:10138000082F162F8091E4028130D9F0813038F097
:10139000823009F44AC0833009F00EC159C00023DD
:1013A00009F43EC11092BA081092B90810921906B9
:1013B0001092D30810921B031092570410925604F7
:1013C0001FC1002309F02CC180915604909157044D
:1013D0000E947009909357048093560482E0809392
:1013E000E4021093D308143409F0E6C00BC18695CB
:1013F000869503C080911D028695817009F0DCC03E
:1014000080911D02992311F0846001C08260809355
:101410001D0280911D02877E886080931D021092BC
:101420001E028FEF80930B02FBC0002309F0C4C0A3
:1014300060931B0380915604909157040E94700999
:10144000909357048093560483E08093E402E8C0AD
:10145000809119068F3F09F4AFC0002309F447C0FB
:10146000823008F4A9C0E091B908EE2309F4D1C094
:101470004E2F4150E42FFF27E754F74F82819927E1
:10148000382F2227442311F4E2E002C0E42FE15078
:10149000FF27E754F74F82819927282B392B80911A
:1014A0005604909157042817390709F085C080E049
:1014B0000E947E0930911B038091440420914504D1
:1014C000982F9F5F963008F090E0921709F474C04F
:1014D000E82FFF27EC5BFB4F32838F5F8093440440
:1014E000863010F0109244040E94E60365C08230FA
:1014F00008F44EC0E091BA08FF27E754F74F828105
:10150000482F5527342F20911D02822F86958695CE
:101510008695837099278130910519F00297F9F427
:101520000EC0277E206120931D02442311F485E024
:1015300001C080E080931E0230930B0210C08091A6
:101540001E02833360F4E0911002F0911102E80F63
:10155000F11D408380911E028F5F80931E02809157
:10156000BA08E82FFF27E754F74F62818F5F809317
:10157000BA08833010F01092BA0877278091560489
:10158000909157040E9470099093570480935604D9
:101590008091B908E82FFF27E754F74F12838F5F38
:1015A0008093B908833010F01092B9088091190621
:1015B0008F5F8093190634C01092BA081092B90850
:1015C0001092E402109219061092D30810921B0395
:1015D000109257041092560480912D028D7F8093B3
:1015E0002D0281E00E947E0980911C02882331F047
:1015F00084E08093E4020E94980512C0002381F0E9
:1016000081E023CF80911D02982F917080FDEFCE55
:10161000F1CE8091BD089927382F222742E036CF9E
:101620001F910F9108951F920F920FB60F921124E0
:101630002F933F934F935F936F937F938F939F93DA
:10164000AF93BF93EF93FF938091C00087FF42C099
:101650006091C600E0915804F0915904309719F157
:101660008091EB089091EC08E80FF91F60830196D8
:101670009093EC088093EB0820910F0930911009AA
:101680008217930738F110925904109258048091F0
:10169000B1058330F9F08091C1008F778093C1004C
:1016A0001092B10517C06E3719F460E081E010C0E8
:1016B00080912D026D3721F4826080932D020AC043
:1016C00081FF05C08D7F80932D0280E2682780E036
:1016D0000E94BE09FF91EF91BF91AF919F918F91B1
:1016E0007F916F915F914F913F912F910F900FBE1E
:1016F0000F901F901895982F8D57823068F4809125
:101700002D02816080932D0280E289278093180644
:101710008DE780936D0202C090936D0261E070E0EE
:101720008DE692E00E94C8059927089578941F924B
:101730000F920FB60F921124FF920F931F932F93C6
:101740003F934F935F936F937F938F939F93AF9349
:10175000BF93CF93DF93EF93FF93209118033091C2
:1017600019038091C7089091C8082817390780F499
:10177000E091D103F091D203E20FF31F80812F5F3C
:101780003F4F30931903209318030E94BC05D4C027
:101790001092D2031092D10310921A038091C100CB
:1017A0008F7B8093C10080912D0280FF0EC08E7FC1
:1017B00080932D028091180680936D0261E070E0A5
:1017C0008DE692E00E94C805B7C08091E2058430A2
:1017D00009F494C0853040F4823021F18330B8F5AB
:1017E000813009F0A4C00DC0863009F495C0863060
:1017F00008F48BC0873009F496C0883009F097C090
:1018000099C08091CD030E947B0B182F83E08093B9
:10181000E2056091CD0380910D0990910E090E941F
:10182000700910C08091DF080E947B0B182F83E0A5
:101830008093E2056091DF0880910D0990910E0977
:101840000E94700990930E0980930D096EC0FFB637
:10185000F894E091E704FF27EE0FFF1FEC52FC4FD6
:1018600080810E947B0B082F1091E704C12FDD2798
:10187000FE01EE0FFF1FEC52FC4F608180910D09BD
:1018800090910E090E94700990930E0980930D09A2
:101890002091C9032F5F2093C903113039F580913E
:1018A0002402E0911F02F0912002E80FF11DE08177
:1018B0008F5F8093240290912302981730F482E086
:1018C0008093D50340E050E002C04E2F5527DE0143
:1018D000AA0FBB1FFD01ED52FC4F8081823031F019
:1018E0002F3F21F0AC52BC4F4C9303C084E0809357
:1018F000E205102F8F2D99278FBF17C080910D09FA
:101900000E947B0B182F85E00BC080910E090E946E
:101910007B0B182F86E004C00E94FD05182F87E07E
:101920008093E20502C088E003C0112329F089E01A
:101930008093E2050E94E603FF91EF91DF91CF9142
:10194000BF91AF919F918F917F916F915F914F91D7
:101950003F912F911F910F91FF900F900FBE0F900D
:101960001F9018951F920F920FB60F9211248F930C
:101970008091C80087FF02C08091CE008F910F90A8
:101980000FBE0F901F90189578941F920F920FB66C
:101990000F9211240F900FBE0F901F9018957894FE
:1019A0001F920F920FB60F9211240F900FBE0F903F
:1019B0001F90189578941F920F920FB60F921124D2
:1019C0000F900FBE0F901F90189578941F920F9252
:1019D0000FB60F9211240F900FBE0F901F90189505
:1019E00078941F920F920FB60F9211248F939F93AA
:1019F00080919400909195009F918F910F900FBED0
:101A00000F901F90189578941F920F920FB60F9217
:101A100011242F933F938F939F932FB7F8943327DD
:101A200080912B0390912C03019690932C0380932B
:101A30002B032FBF9F918F913F912F910F900FBE3E
:101A40000F901F9018951F920F920FB60F921124AE
:101A50002F933F934F935F936F937F938F939F93B6
:101A6000AF93BF93EF93FF938091B0008093B0004A
:101A70008091B60081FDFCCF8091B300992701963B
:101A8000AA27BB2720915002309151024091520267
:101A900050915302280F391F4A1F5B1F2093500299
:101AA00030935102409352025093530278940E9413
:101AB000AE07FF91EF91BF91AF919F918F917F9171
:101AC0006F915F914F913F912F910F900FBE0F90AB
:101AD0001F90189521E0209339062093C803209188
:101AE000840030918500BC01C9010E941E05089543
:101AF0008FB7F894282F3327922F80910A028823DA
:101B000031F480911B02823011F42FBF13C09FBFAC
:101B10008FB7F894282F332780911B02882369F40C
:101B200082E080931B0210920A022FBF0E9483045E
:101B3000209A289A81E090E008952FBF80E00E94CB
:101B4000A70480E090E008950F931F93982F1FB78C
:101B5000F89480911B02823099F580910A028917CE
:101B600079F58091080220E030E08F3F11F421E008
:101B700030E0232BF1F49FEF90930A028F3F19F48A
:101B80002FEF30E00DC0282F3327F901E453FC4F2D
:101B90008081809308028F3F11F490930902908313
:101BA0002093CE0381E080931B0289E00E947A0299
:101BB00005C08FEF80930A0210921B0201E001C062
:101BC00000E0812F99278FBF1FB7F89480911B02E7
:101BD000882311F40E947104812F99278FBF90E010
:101BE000013009F491E081E09827892F99271F910E
:101BF0000F9108951F93982F1FB7F89480911A02A0
:101C0000823099F580910702891779F58091050254
:101C100020E030E08F3F11F421E030E0232BF1F49D
:101C20009FEF909307028F3F19F42FEF30E00DC024
:101C3000282F3327F901E657FD4F80818093050255
:101C40008F3F11F49093060290832093870281E0E6
:101C500080931A0280E00E947A0205C08FEF809381
:101C6000070210921A0221E001C020E0812F99277B
:101C70008FBF90E0213009F491E081E09827892F0F
:101C800099271F910895AF92BF92CF92DF92EF9262
:101C9000FF920F931F938091140290911502A091CF
:101CA0001602B0911702B695A795979587958093E0
:101CB000DC029093DD02A093DE02B093DF020E946B
:101CC000F101E090DC02F090DD020091DE02109163
:101CD000DF02A80197010E94152A5B016C01AE0C7E
:101CE000BF1CC01ED11EA092DC02B092DD02C092C9
:101CF000DE02D092DF021092B8088091F9048D7F45
:101D00008093F9040E94C002AB01BC0131E0E32ED4
:101D10009601850181E00E94A1021F910F91FF9021
:101D2000EF90DF90CF90BF90AF9008952FB7F894C9
:101D3000332780936C022FBF85E00E947A020895BA
:101D40009C0180913802882319F085E090E0089585
:101D50003093E4052093E30581E0809338021092EC
:101D60000C0485E00E947A0280E090E00895CF9311
:101D7000DF93EC018FE38A87809129038F5F809343
:101D800029038B8380914C0290914D02892B11F095
:101D900025E017C088A599A5892B21F061E0CE0127
:101DA0000E94F902CE010E94A00E9927282F8823B5
:101DB00041F4D0934D02C0934C021092E102109274
:101DC000E002822F9927DF91CF910895FF920F9320
:101DD0001F93CF93DF93F82E8B01EA01422F2D3111
:101DE00018F086E090E08CC0FE0131968181298157
:101DF00050E09927982F88273327822B932B8774BD
:101E00009C7C8154984809F451E0552321F481E4E5
:101E1000898388E88183435F48832FB7F894332709
:101E200080910202909103022FBF8887892F992702
:101E300089872FB7F8943327809104022FBF992701
:101E40008C831D82CE010E94F702FC01F0820E837A
:101E5000812F99278F838FB7F894282F332780916C
:101E60001A02882371F482E080931A02109207020A
:101E70002FBFCE010E94B70E9927182F882399F003
:101E80000FC02FBFD0938902C09388028FB7F894F8
:101E9000C82FDD272C2F80911A02882399F406C0C1
:101EA00080E00E94FA0D812F99272AC081E080935B
:101EB0001A021092870280E00E947A02CFBF80E06F
:101EC00090E01EC080918A028F3F89F4E091060263
:101ED000EE2369F010C01092050204C0FF27E657F8
:101EE000FD4F10821092060280E090E002C085E073
:101EF00090E02FBF05C0809105028F3F79F7EBCFAF
:101F0000DF91CF911F910F91FF900895EF92FF9273
:101F10000F931F93CF93DF93E82E8B01F42E81E074
:101F20008E1518F481E090E03BC0CE2DDD27CC0F5C
:101F3000DD1FC25BDB4F88819981892B19F085E019
:101F400090E02EC079836883EDE0FE0EFB01F08205
:101F5000F3EFFF0E80911202823018F480E090E0DF
:101F60001FC0CB010E94F702FC018081F80167814C
:101F70007727762F662726813327622B732BE092F3
:101F800012022F2DA8010E94E60E9927282F8823E0
:101F900029F082E08093120219821882822F9927F9
:101FA000DF91CF911F910F91FF90EF9008951F93B4
:101FB000CF93DF93EC01162F80911302882319F53C
:101FC000CE010E941507E82F80914F02E81748F4D0
:101FD000FF2783E0EE0FFF1F8A95E1F7E557FD4FDE
:101FE00017838091C408882311F0112349F0809150
:101FF000BF089091C0088C179D0729F4112319F090
:1020000083E10E947A02DF91CF911F910895CF93CF
:10201000DF93EC010E941507282F80914F022817AB
:10202000D1F0382F315030934F0213C0822F9927AF
:1020300043E0880F991F4A95E1F7DC01A557BD4F92
:10204000FC01ED56FD4F88E001900D928150E1F7C3
:102050002F5F231758F38091BF089091C0088C1709
:102060009D07A1F48FEF9FEF9093C0088093BF0866
:102070001092C2081092C1081092C3081092C408AE
:1020800081E08093370283E10E947A02DF91CF9151
:1020900008954F925F926F927F928F929F92AF922C
:1020A000BF92CF92DF92EF92FF920F931F93CF9345
:1020B000DF932C0180913902882309F04DC1809172
:1020C000EA08853009F048C10E94780D882309F498
:1020D00043C18091BE08882309F03EC1E201E09629
:1020E000F20180A982FD02C090E003C0F20192A932
:1020F0009F7080910D04981781F090930D0428989B
:1021000085EC8EBD0DB407FEFDCF8EB590689EBDEB
:102110000DB407FEFDCF8EB5289A42010894811CAC
:10212000911CF4018181F201218140E09927982FCF
:1021300088273327822B932B87749C7C8154984863
:1021400009F441E0442301F1289886E88EBD0DB4DE
:1021500007FEFDCF8EB51EBC0DB407FEFDCF8EB5BC
:10216000289A99278F719070209128034091DB0263
:10217000240F312D311D43E0359527954A95E1F720
:10218000281739070CF4E8C0289882EC8EBD0DB4EE
:1021900007FEFDCF8EB589E08EBD0DB407FEFDCFE5
:1021A0008EB5289A0E94F2047B018C01888184FDFF
:1021B00003C0C0E0D0E006C0F20180818550E2019A
:1021C000C80FD11D289881E88EBD0DB407FEFDCF44
:1021D0008EB51EBC0DB407FEFDCF8EB5289A8F714B
:1021E000893021F087E08093EA08B6C08FB7F89471
:1021F00099272F9A20918400309185008FBF2F98C6
:10220000289880E68EBDF20190810DB407FEFDCFC7
:102210008EB59EBD792F7250773010F4672F01C0B4
:1022200067E0F401962F41910DB407FEFDCF8EB506
:102230004EBD9150C1F76150F401E60FF11D6F5F83
:1022400031962E193F092E553F4F3901882477FCCE
:102250008094982C6E0C7F1C801E911E209719F480
:10226000972F961B1FC088819981AA81BB818619EF
:102270009709A809B9098B83292F3A2F4B2F552786
:102280002A839D014427552729838B2F9927AA2725
:10229000BB278883E5CF20810DB407FEFDCF3196A3
:1022A0008EB52EBD9150B8F70DB407FEFDCF8EB59B
:1022B000289A289882EC8EBD0DB407FEFDCF8EB50E
:1022C00086E08EBD0DB407FEFDCF8EB5289A20970F
:1022D00079F18881E9802A81AB803327442755270B
:1022E000542F432F322F22279927AA27BB27B82FF5
:1022F000AA2799278827FF24002711278701FF2471
:10230000EE248E299F29A02BB12BBB24CC24DD24C5
:102310008A299B29AC29BD29282B392B4A2B5B2BD9
:10232000260D371D481D591D288339834A835B8339
:10233000C2010E941705C2010E941C05FC016082B7
:1023400071828282938286E08093EA0884E080939F
:10235000390280E090E002C085E090E0DF91CF910B
:102360001F910F91FF90EF90DF90CF90BF90AF90B3
:102370009F908F907F906F905F904F900895AF9255
:10238000BF92CF92DF92EF92FF920F931F93CF9362
:10239000DF938091BE08882309F413C10E94780D51
:1023A000882309F40EC18FB7F8949927C091C6030A
:1023B000D091C7038FBF1092BE0828988FE88EBDBA
:1023C0000DB407FEFDCF8EB51EBC0DB407FEFDCFCC
:1023D0008EB5289A982FA82EBB24A0FE0CC0809101
:1023E0003902833011F0873031F485E08093EA08B8
:1023F00088E080933902A2FE5FC080913902863066
:1024000019F41092390203C0882309F055C09430A2
:1024100009F041C0289886E88EBD0DB407FEFDCFB7
:102420008EB51EBC0DB407FEFDCF2EB5289A2F71B8
:102430008091DB02982F96959695322F391B830F4A
:102440008093DB02E0914802F091490280A98B7FE2
:10245000886080AB22AB0E94F2046B017C0100918A
:10246000480210914902C8010E941705C8010E9444
:102470001C05FC01CC19DD092797CE01AA2797FD81
:10248000A095BA2F8C0D9D1DAE1DBF1D808391831D
:10249000A283B3830EC0E0914802F091490280A963
:1024A000877F80ABE0914802F091490280A98D7F3F
:1024B00080AB85E080933902A3FE83C0809139020E
:1024C000843009F04BC085E08093EA08109239020D
:1024D00080912303833019F41092230372C0E0919A
:1024E0000A04F0910B04828121819927982F882773
:1024F0003327822B932B85FF29C087749C7C8154C2
:10250000984821F5878126819927982F8827332796
:10251000822B932B8F5F9F4FC9F090E08091C8036F
:10252000882309F491E0992389F012E01093390689
:1025300081E08093C803809184009091850061EED2
:1025400072E00E941E05109323033BC010922303E8
:102550001092EE0880E00E94960E33C0853089F517
:102560008091EA08873091F4289882EC8EBD0DB4F2
:1025700007FEFDCF8EB586E08EBD0DB407FEFDCF04
:102580008EB5289A85E08093EA0817C02091280329
:10259000289886E88EBD0DB407FEFDCF8EB51EBC13
:1025A0000DB407FEFDCF8EB5289A8F71922F9695A8
:1025B0009695891B280F2093280389E08093390280
:1025C00008C090913902992309F4E2C2993009F0C8
:1025D0000FC2289880E28EBD0DB407FEFDCF8EB5E8
:1025E0001EBC0DB407FEFDCF8EB5482F55274330D6
:1025F00008F49EC3842F99278A970CF099C31EBCB8
:10260000E0914802F09149024083542F52505730D4
:1026100010F4452F01C047E09F012F5F3F4F942FDB
:10262000F90160E070E00DB407FEFDCF8EB51EBC71
:10263000808381916827062E6295607F6025072E32
:10264000762F62956F700626669576276727660F48
:10265000660F660F6025915031F74150D901A40FE4
:10266000B11D4F5F1196E0914802F09149028181BE
:10267000282F3327277030702230310509F491E07C
:102680009923B9F080912303823081F48381E09112
:102690000A04F0910B049381891741F490E02230F1
:1026A000310509F091E081E098270EC080E090E0CC
:1026B0000DC08FB7F894282F332790E080915A04EB
:1026C000833008F491E02FBF892F9927892B09F4D3
:1026D0002FC3952F941B18C00DB407FEFDCF8EB5E8
:1026E0001EBC8C938D916827062E6295607F6025B5
:1026F000072E762F62956F700626669576276727D8
:10270000660F660F660F6025915030F70DB407FE17
:10271000FDCF8EB51EBC9B012827022E2295207F5F
:102720002025032E322F22952F7002262695322740
:102730002327220F220F220F20250DB407FEFDCFE5
:102740008EB51EBC2827022E2295207F2025032E21
:10275000322F22952F700226269532272327220F0B
:10276000220F220F20250DB407FEFDCF8EB5E0917C
:102770004802F091490281AB289A85E08093EA08EB
:1027800010923902232B09F0FFC1E0904802F0902B
:10279000490257010894A11CB11CF701818190E006
:1027A0008770823009F491E0292F3327122F80910E
:1027B00023038230C9F480916F008D7F80936F0076
:1027C0001092C803E0910A04F0910B0480A922231F
:1027D00011F0816001C08E7F80AB109223031092B4
:1027E000EE0880E00E94960E112309F0FCC0C7019C
:1027F0000E9448058823A9F085E080930F0482E0B9
:102800008093100410921104F501828180931204C8
:102810008FE094E00E944910882319F483E08093AC
:1028200023030091840010918500C7010E94480590
:10283000882311F0045E1C4F1093E3020093E20220
:102840008091840090918500081B190BC801101617
:1028500011066CF42091EE08222331F40E946A0DD7
:1028600080E88093EE0803C020682093EE08F5010D
:10287000808527819927582F44273327422B532BB4
:1028800080915402282F3327F901EE0FFF1FE753E1
:10289000F74F808191817091B0058417950769F495
:1028A000F901E151F74F8081871709F467C0872F3D
:1028B0008F5F8093B00580831DC000E010E080E052
:1028C00090E0C9ECD8E0EFEEF8E0DF01682F9C0162
:1028D000888199818417950779F420935402909107
:1028E000B0058C91891709F449C0892F8F5F8093B7
:1028F000B0058C9300E829C08081972F981B091799
:1029000010F4092F122F6F5FC901019611962296BC
:10291000319685309105D1F66530B9F410935402A3
:10292000A12FBB27FD01EE0FFF1FE753F74F518388
:1029300040838091B0058F5F8093B005FD01E15128
:10294000F74F8083AF5EB64F1C929091B005892FF0
:102950008F778F3779F40F3768F0EFEEF8E0292F93
:10296000207880818F6789132083319638E0E43F97
:10297000F307B9F780915402282F3327F50192818C
:10298000A22FBB27FD01EF5EF64F808180FF07C0BD
:10299000FD01EC5CF94F8081981729F102C081603C
:1029A0008083AC5CB94F9C93CFB6F89480915A0465
:1029B0008330B0F4E0914B02E80FE33008F0E350CD
:1029C000FF27EE0FFF1FE45CFD4F00811181F182B4
:1029D000E0828F5F80935A0486E00E947A02780139
:1029E0008C2D99278FBFF0924902E0924802C3C014
:1029F000892F8150833008F09CC081508230E0F4F0
:102A00003091EA083130C1F420E08091C803882376
:102A100009F421E0222381F02F9883E08093390686
:102A20003093C80380918400909185006BE273E03D
:102A30000E941E0582E068C0933009F042C0809178
:102A4000EA08833009F097C00E94780D8823C9F105
:102A500028988FE88EBD0DB407FEFDCF8EB51EBC45
:102A60000DB407FEFDCF8EB5289A80918100806459
:102A70008093810080E286BB80916F0080628093AA
:102A80006F0090918602289888EC8EBD0DB407FEE9
:102A9000FDCF8EB590669EBD0DB407FEFDCF8EB501
:102AA000289A289882EC8EBD0DB407FEFDCF8EB516
:102AB00086E08EBD0DB407FEFDCF8EB5289A84E06A
:102AC00023C0809139028150823000F58091EA085C
:102AD0008530E1F40E94780D8823C1F0289882ECBB
:102AE0008EBD0DB407FEFDCF8EB583E08EBD0DB457
:102AF00007FEFDCF8EB5289A80916F008F7D809361
:102B00006F001092BE0883E08093EA08909139022A
:102B1000913041F48091EA088330B1F52F9A909377
:102B2000EA0825C0923039F58091EA08833061F5D2
:102B30001EC0973001F50E94780D8823E1F0909136
:102B40008602289888EC8EBD0DB407FEFDCF8EB5A9
:102B500090669EBD0DB407FEFDCF8EB5289A80917C
:102B6000EA08853021F484E08093EA0804C088E014
:102B70008093390204C080913902883029F4109280
:102B8000390284E00E947A0280913902882331F56B
:102B90008091EA088530F9F48091BE088823D9F441
:102BA000809123038823B9F48091EE08882399F457
:102BB00090E08091C803882309F491E0992359F0AB
:102BC00080913802813039F485E00E947A02809148
:102BD0003902882319F480E00E94A40D8091C80373
:102BE000823009F098C01092C803C0903906F2E014
:102BF000CF1609F46CC023E0C21609F470C031E0AE
:102C0000C31609F088C02091E2023091E30280915E
:102C10008400909185004091EE08403859F410925C
:102C2000EE0880913802813009F075C085E00E947D
:102C30007A0271C08901081B190B47FF03C01016E7
:102C40001106ECF0C0912103D0912203809123035F
:102C50008823A9F4CE010E9449109927882351F4B2
:102C600088A98E7F88ABC0922303D0930B04C093B6
:102C70000A0429C09927F82E882329F102C065E0AB
:102C8000F62E2091EE08822F99278F77019759F41D
:102C9000207822602093EE0880E198E00E9475057C
:102CA0000E946A0D38C027FF0AC0101611063CF4B6
:102CB00080E88093EE08C8010E946A0D02C010925D
:102CC000EE088F2D09C083E08093EE0824C0109297
:102CD00023031092EE0880E00E94960E1CC08091A3
:102CE000EA08823019F4C092EA0813C080913902D0
:102CF000863079F410923902289881E88EBD0DB49F
:102D000007FEFDCF8EB51EBC0DB407FEFDCF8EB500
:102D1000289A0E94C1168FB7F894282F33278091E4
:102D20008302813061F081E0809383022FBF31CB39
:102D3000289A85E08093EA081092390225CF1092F4
:102D400083022FBFDF91CF911F910F91FF90EF90E2
:102D5000DF90CF90BF90AF9008958FB7F894282F51
:102D6000332780918302815080938302803811F051
:102D70002FBF089581E0809383022FBF0E94BF116F
:102D800008958FB7F894282F3327809183028823E2
:102D900029F08068809383022FBF089581E080939B
:102DA00083022FBF0E94BF11089578941F920F9243
:102DB0000FB60F9211242F933F934F935F936F930E
:102DC0007F938F939F93AF93BF93EF93FF938091E4
:102DD00084009091850020918600309187008FB704
:102DE000F89499273093C7032093C60321E02093DA
:102DF000BE088FBF0E94C116FF91EF91BF91AF91A6
:102E00009F918F917F916F915F914F913F912F9102
:102E10000F900FBE0F901F90189578941F920F92ED
:102E20000FB60F9211242F933F934F935F936F939D
:102E30007F938F939F93AF93BF93EF93FF93809173
:102E40006F008D7F80936F0078949FB7F894809186
:102E5000C803813019F482E08093C803892F992731
:102E60008FBF0E94C116FF91EF91BF91AF919F91CB
:102E70008F917F916F915F914F913F912F910F9023
:102E80000FBE0F901F9018951F938FB7F894992736
:102E9000209183022F5F209383028FBF809138029D
:102EA000882311F015E023C0809139028823E1F4D2
:102EB0008091EA08813049F490E08091C80388232A
:102EC00009F491E0992381F005C0853019F489E077
:102ED00090E00CC083E0809339020E94C11684E028
:102EE0008093380210E003C085E090E0182F0E9424
:102EF000AD16812F99271F9108951F93CF93DF93CC
:102F0000162FC0E0D0E068E00E94E902FC01808159
:102F10008123811711F4C1E0D0E0CE01DF91CF9180
:102F20001F91089568E00E94E902FC0187819927BA
:102F3000089568E00E94E902FC01818199270895C3
:102F400068E00E94E902FC0186819927089568E003
:102F50000E94E902FC0184819927982F8827258106
:102F60003327822B932B0895BF92CF92DF92EF925B
:102F7000FF920F931F93CF93DF937C01B090420297
:102F8000D0904304CC2428C00D2D03701127C70115
:102F90000E94A717E801CC0FDD1FCC0FDD1FC00F6B
:102FA000D11FC259DD4F288139818217930791F4CF
:102FB000C7010E94A0179A81981761F4C7010E9467
:102FC00099179C81981731F4C7010E9492179B8131
:102FD000981721F0C394D394CB14B1F68C2D992774
:102FE000DF91CF911F910F91FF90EF90DF90CF90E5
:102FF000BF90089568E00E94E902FC01848199274E
:10300000982F882725813327822B932B0895AF9201
:10301000BF92CF92DF92EF92FF921F93CF93DF93F5
:103020005C01FC018281882359F4B092E708A092E8
:10303000E6088281882309F088C01092180285C0B2
:10304000442309F47AC0F501C080D1808091420206
:10305000843009F046C0C6010E94B4172091420294
:10306000622F0E94E229492F9217D8F5992359F42B
:10307000809143049927019664E070E00E94022A3F
:103080008093430429C080914304840F912D911DA6
:103090009C0123703070E901CC0FDD1FCC0FDD1FC8
:1030A000C20FD31F019664E070E00E94022AFC0167
:1030B000EE0FFF1FEE0FFF1FE80FF91FC259DD4F84
:1030C000E259FD4F85E0019009928150E1F74F5F91
:1030D000809142024817B8F2809142028150809359
:1030E00042021091420280914304810F912D911D63
:1030F000837090707C01EE0CFF1CEE0CFF1CE80E40
:10310000F91E8EE692E0E80EF91EC6010E94A7178E
:10311000F70191838083C6010E94A017F701828383
:10312000C6010E949917F7018483C6010E94921775
:10313000F70183831F5F10934202F5018081918123
:103140000E947103C5010E949003DF91CF911F91EE
:10315000FF90EF90DF90CF90BF90AF9008959F9237
:10316000AF92BF92CF92DF92EF92FF920F931F9395
:10317000CF93DF935B016C01C0E0D0E0E8EEF4E0B8
:103180009C2E608561FF0FC1208131814281538176
:10319000E480F58006811781D601C501821B930B5F
:1031A000A40BB50B8E159F05A007B10708F4FBC053
:1031B00060FF03C06D7F608708C02E0D3F1D401F5C
:1031C000511F208331834283538322E0921609F4F6
:1031D00079C0291538F0992071F081E0981609F02E
:1031E000E8C012C023E0921609F47AC084E0981671
:1031F00009F0DFC07CC080914C0290914D02892B78
:1032000009F4D7C081E069C080913402882309F4B1
:10321000D0C080913502882309F4CBC08091B808D2
:10322000882341F583E10E947A0284E10E947A02B8
:10323000A0901402B0901502C0901602D090170210
:103240008091DC029091DD02A091DE02B091DF025C
:10325000A81AB90ACA0ADB0A9092B8080E94C002EA
:10326000AB01BC01F1E0EF2E9601850181E00E94E7
:10327000A1029FC08091140290911502A0911602A4
:10328000B0911702880F991FAA1FBB1F80931402C9
:1032900090931502A0931602B09317028150904D9F
:1032A000A740B04060F080E090EDA7E0B0E08093F0
:1032B000140290931502A0931602B09317020E9475
:1032C000430E77C080913402882309F472C0809144
:1032D0003502882309F46DC083E10E947A0269C037
:1032E00080912E028F7E80932E0280E1F6CF2FB741
:1032F000F894332782B191E0892782B92FBF80915A
:103300001802882309F055C0C5EED5E064E0CE016F
:103310000E94DF03FC0180910002909101028383EF
:10332000892F9927828380912E0281FF42C06CE011
:10333000CE010E946D0468E0CE010E94E902FC010A
:1033400080910002909101028583892F99278483BF
:1033500080914A028F5F80934A02815086838EEE6D
:1033600087831182E091E608F091E708309709F130
:10337000D183C08312828EE18383CF010E946D07C7
:103380008823B9F480912E0282FF05C084FD03C01A
:1033900080E10E947A021092E7081092E60881E02C
:1033A0008093180206C021963996C530D10509F0E0
:1033B000E7CE83E00E947A02DF91CF911F910F91B7
:1033C000FF90EF90DF90CF90BF90AF909F900895C7
:1033D000AF92BF92CF92DF92EF920F931F935B0158
:1033E0006C010E94C002AB01BC01A1E0EA2E960173
:1033F000850183E00E94A1021F910F91EF90DF9061
:10340000CF90BF90AF900895CF92DF92EF92FF924E
:103410000F931F936C017B010E94F101DC01CB0132
:10342000B6010E94EE29E80EF91E00271127C801F7
:10343000B7010E94E8191F910F91FF90EF90DF9064
:10344000CF9008950F931F93CF93DF93EC01E091FA
:103450002F02FF27EE0FFF1FE256F74F0081118169
:10346000662329F06CE170E08CE190E02FC0809140
:103470002E0283FF3DC088A980FD3AC08F81992725
:10348000982F88272E813327822B932B0E94A5010A
:10349000982F8F3F71F08EE0989FF0011124E55A2C
:1034A000FB4F85858F5F8587853018F0CF010E949F
:1034B000320383E10E947A02F80183818150838381
:1034C000882339F067E070E087E090E00E94041AFA
:1034D0003FC00E944D0380912E028F7E80932E026A
:1034E00067E070E087E090E00E94041A40E02CC0A2
:1034F0000E944D0380912E028F7E80932E0267E002
:1035000070E087E090E00E94041A8F819927982F3D
:1035100088272E813327822B932B0E94A501982F79
:103520008F3F89F08EE0989FF0011124E55AFB4F00
:1035300084858F5F848785858F5F8587853018F0C8
:10354000CF010E94320341E0BE01C8010E9407186A
:10355000DF91CF911F910F910895AF92BF92CF92BB
:10356000DF92EF92FF920F931F93CF93DF93D82EAA
:103570005B01C42EE82FFF27EE0FFF1FE25BFB4F1E
:1035800011821082809112029927019662E070E008
:103590000E94022A682F8093120200E0462F5527CE
:1035A000FA01EE0FFF1FE25BFB4FC081D181209734
:1035B00099F0E62FE695E695E695FF27E052F74F5E
:1035C000808199279A012770307002C09595879560
:1035D0002A95E2F780FF0DC0CA01019662E070E013
:1035E0000E94022A682F0F5F0230C1F60093120278
:1035F0001FC0609312026230D8F4E88083EFE80EB7
:10360000FF240F811127102F00278E819927082B67
:10361000192BCE010E94F702FC012E2DAE01B8013C
:1036200080810E94E60E882319F082E10E947A02CE
:10363000DD2021F081E0D81689F405C06C2DC5018C
:103640000E94221A0BC085EEA81682E0B80631F45B
:1036500080913602882311F010923602DF91CF91CB
:103660001F910F91FF90EF90DF90CF90BF90AF90A0
:1036700008951F93CF93DF93182FC0914C02D091E0
:103680004D0210924D0210924C028091F0048D7FF9
:103690008093F0048091E0029091E10299A788A7BD
:1036A0008A858F33A9F480E00E94FA0D809112027E
:1036B000823070F4E82FFF27EE0FFF1FE25BFB4F15
:1036C000608171816C177D0719F4412F0E94AD1A3A
:1036D000DF91CF911F9108952F923F924F925F9269
:1036E0006F927F928F929F92AF92BF92CF92DF9212
:1036F000EF92FF920F931F93CF93DF93CDB7DEB777
:1037000022970FB6F894DEBF0FBECDBF8FB7F894E7
:10371000282F332780915A04882309F421C3E0918C
:103720004B02FF27EE0FFF1FE45CFD4FC080D180EE
:103730002FBFF60182858F3309F0EFC2C6010E94C8
:10374000F702FC017081D6016D913D01F601878180
:1037500026819927582F44273327422B532B8FB785
:10376000F894992720910202309103028FBF4217EB
:10377000530721F04F5F5F4F09F0EFC2062F0D5046
:10378000703721F0713709F0CCC280C1F601878112
:1037900026819927982F88273327822B932B8F5F99
:1037A0009F4F09F091C062E0C6010E94E9027C01CE
:1037B000F601818520859927B82EAA243327A22ACD
:1037C000B32AD7010C910E940D06C5010E94A501E4
:1037D0008F3F21F0F701618177270CC00E94C50659
:1037E000182F8F3F51F0B5010E94D706F701618174
:1037F0007727812F0E940E061CC087E30E94EC06EB
:10380000182F8F3F09F45EC09927880F991FFC017C
:1038100053E0EE0FFF1F5A95E1F7E81BF90BE55A4D
:10382000FB4F808191810E940710B501812F0E947A
:10383000D7064FE0942E902209F444C0C6010E949E
:103840003507182F682FC6010E94E902810F911DCC
:103850008C0183E0989EC0011124081B190B8FB7BF
:10386000F894992740900202509003028FBFFF24E2
:1038700083E0F89EF0011124E00FF11F8081218187
:103880009927982F88273327822B932B841595050A
:10389000B1F4E280C5010E94A5018F3F81F0992714
:1038A000880F991FFC01B3E0EE0FFF1FBA95E1F7F7
:1038B000E81BF90BE55AFB4FE18686E08783F3941A
:1038C000F914B1F60E940D06C6010E944F0785301B
:1038D00009F027C2F301F084978065E0C6010E94D9
:1038E000F0028C0160E4C6010E943A07882E58015C
:1038F0000894A11CB11CF801818115010894211CB8
:10390000311CF50121819927982F88273327822B95
:10391000932B8F5F9F4F09F4A3C08F2D9927F82E0B
:10392000EE24892D9927E82AF92AE3E04E2E512C1E
:10393000400E511EF801838174E0672E712C600ED9
:10394000711E24819927982F88273327822B932B48
:10395000892B49F5C7010E94A5018F3F09F50E94F7
:10396000C5068F3F11F0B70119C080E00E94EC0638
:10397000182F8F3FA9F09927880F991FFC0143E06A
:10398000EE0FFF1F4A95E1F7E81BF90BE55AFB4FD5
:10399000808191810E940710B701812F0E94D70674
:1039A000C7010E94D701D2019C90F3017080D5011C
:1039B000BC90F101A080C7010E94BD018C01C7012C
:1039C0000E941507E82F8A3009F446C0892D9927EF
:1039D000782F6627872D9927682B792B8B2D992790
:1039E000582F44278A2D9927482B592B80914F0215
:1039F000E817F1F40233110578F52FB7F89433275F
:103A0000FF27B3E0EE0FFF1FBA95E1F7E557FD4F33
:103A1000F182E082538342837583648381E08683ED
:103A2000178280914F028F5F80934F022FBF14C087
:103A30008FB7F8949927FF27A3E0EE0FFF1FAA95F1
:103A4000E1F7E557FD4FF182E082538342837583AE
:103A5000648321E026838FBF682DC7010E94D70FA2
:103A600060E8C6010E943A07882309F45AC180E839
:103A700090E0A0E0B0E08093140290931502A09330
:103A80001602B09317020E94430E4BC1C6010E945A
:103A90009217982EC6010E949917182F1F5F68E091
:103AA000C6010E94E9023C01FC0111830D3108F0BE
:103AB00038C1C6010E94B41720E0909142028917D4
:103AC00008F421E0222309F02CC120913102822F39
:103AD0009927A82E882309F43EC0B0902F02B20E79
:103AE00037C0FCE0FB1510F0EB2D02C0EB2DED50C4
:103AF000FF27EE0FFF1FE256F74F0190F081E02DF8
:103B0000E080F180C7010E94A7178C01C6010E94C6
:103B1000A71708171907E1F4C7010E94A017182F6B
:103B2000C6010E94A017181799F4C7010E9499179F
:103B3000182FC6010E949917181751F4C7010E9447
:103B40009217182FC6010E949217181709F4E9C09E
:103B5000BA94AA9431F6809143028823A9F0C60151
:103B60000E94DA032EEE921609F0DBC08850082F6F
:103B70001127602FC6010E94DF03402FBC01C60140
:103B80000E94FA036C01CDC080E020914204222300
:103B900009F481E0882309F0C4C090910E049923B0
:103BA00009F481E0882309F0BCC0992309F4B9C065
:103BB0008091E108E82FFF27EE0FFF1FEB50F74F32
:103BC0000081118111821082915090930E048F5FB9
:103BD0008093E1088C3011F41092E1080115110571
:103BE00009F49FC0222309F49CC080912A03E82F86
:103BF000FF27EE0FFF1FE65EF94FE080F180118294
:103C000010822150209342048F5F80932A038C30CE
:103C100011F410922A03E114F10409F482C083E341
:103C2000D7011D928A95E9F7E8E2F0E0CE0EDF1E9B
:103C30008BE0D6011D928A95E9F7E8EDFFEFCE0EF5
:103C4000DF1ED801CD92DC928FEFF80182838EE1E6
:103C50008383C8010E946D07882389F5CE010196F0
:103C60000E94AF03882311F5F301828123819927F4
:103C7000982F88273327822B932B29813A81281765
:103C80003907A0F080E890E0A0E0B0E08093140253
:103C900090931502A0931602B09317020E94430E50
:103CA0006CE170E08CE190E00E94041A80910B05B9
:103CB00081FD03C080E10E947A02670132C0C70122
:103CC0000E947103C8010E9490032BC0F601118568
:103CD000008560E8C6010E947D17882371F080E8A6
:103CE00090E0A0E0B0E08093140290931502A093BE
:103CF0001602B09317020E94430E60E4C6010E94B0
:103D00007D17682F812F9927982F8827202F3327F9
:103D1000822B932B0E94D70F04C08FB7F89499275A
:103D20008FBF9FB7F89480914B02E82FFF27EE0FCB
:103D3000FF1FE45CFD4FD182C0828F5F80934B02F6
:103D4000833010F010924B0280915A04815080937E
:103D50005A04892F99278FBFD9CC713711F7B6CF65
:103D60002FBF22960FB6F894DEBF0FBECDBFDF91F6
:103D7000CF911F910F91FF90EF90DF90CF90BF9068
:103D8000AF909F908F907F906F905F904F903F90FB
:103D90002F9008958F929F92AF92BF92CF92DF9211
:103DA000EF92FF920F931F93CF93DF93CDB7DEB7C0
:103DB00022970FB6F894DEBF0FBECDBFE82FFF27C6
:103DC000E531F10508F0E2C6EA59FF4FEE0FFF1F9B
:103DD0000590F491E02D09948091E008882309F47E
:103DE000D5C610E001E0D6C42FB7F89433278091F0
:103DF00087028093070282E080931A022FBF80918E
:103E00000702882309F0C2C6809188029091890236
:103E10000E94B70EE82EFF24EE2009F4B7C680E01A
:103E20000E94FA0D0091880210918902C8010E9437
:103E3000F70280911202823008F0A8C6E82FFF270F
:103E4000EE0FFF1FE25BFB4F60817181601771070E
:103E500009F09CC64E2DD9C4E0914C02F0914D0260
:103E600080A591A5892B21F061E0CF010E94F90284
:103E700080914C0290914D020E94A00E882309F47B
:103E800085C69FC180918202882361F52091D40864
:103E90003091D5084091D6085091D708EFB7F894E3
:103EA000FF276091440270914502809146029091F3
:103EB0004702E090E208F090E3080091E4081091D6
:103EC000E5086E0D7F1D801F911FEFBF2093D40862
:103ED0003093D5084093D6085093D70810928202A9
:103EE0000E943A080E94C00243C00E94C0025B01C7
:103EF0006C018FB7F894992710921C038FBFBFEF06
:103F0000EB2EBFEFFB2EBFEF0B2FBFE71B2F60E0A9
:103F1000E8EEF4E0808581FF1CC080819181A28160
:103F2000B381A6019501281B390B4A0B5B0BDA0103
:103F3000C9012481358146815781281B390B4A0BE1
:103F40005B0B2E153F05400751071CF479018A01D0
:103F500061E0399635E0E531F307E1F6662309F4CF
:103F600015C61E141F04100611062CF0C601B5015B
:103F70000E94AF180BC6E092D408F092D5080093C7
:103F8000D6081093D70881E080938202A801970198
:103F9000C601B5010E943A08F9C580913802109215
:103FA0003802843009F07CC0A1E0DA2ED0923402CD
:103FB000809135028823C1F00E94F1017B018C01C0
:103FC0004FEF5FE1E422F5220E94C002AB01BC0189
:103FD00080E090E1E80EF91E870122273327F1E007
:103FE000EF2E81E00E94A10280912E0284608093D6
:103FF0002E0290E080913102882309F491E0992308
:1040000019F480E10E947A0280912E0282608093EE
:104010002E02809135028823B9F4D092350280E8CF
:1040200090E0A0E0B0E08093140290931502A0937A
:104030001602B09317020E94430E40E050E260E087
:1040400070E082E00E94900780910002909101024E
:104050000197F1F44091BF085091C0082FB7F89430
:104060003327D09243028091320690913306909389
:10407000C0088093BF081092C2081092C1082FBFD9
:104080004F5F5F4F09F082C580E10E947A027EC5D2
:1040900040ED57E060E070E084E00E94900776C554
:1040A000853031F41092340280912E028B7F61C3EF
:1040B000863009F46BC58093380268C58FB7F894D1
:1040C000992710916C028FBF80913802823011F4D1
:1040D000112339F080910C048F5F80930C0486309B
:1040E00020F083E0809338023CC08FB7F894992782
:1040F000209183022F5F209383028FBF2091E305DD
:104100003091E4058091EE088823D1F490E080910D
:10411000C803882309F491E0992391F03093220396
:104120002093210381E08093EE0886EB93E20E94C6
:1041300075050E946A0D82E08093380210E00AC083
:1041400080910C04853011F483E001C081E08093FC
:10415000380215E00E94AD1680913802833009F0D4
:1041600015C510923802E091E305F091E405209125
:10417000E0023091E1022F5F3F4F3093E102209344
:10418000E00280A980FF02C080E01EC0E0914C02E6
:10419000F0914D0280A591A528173907A0F4CF0111
:1041A0000E948C078C01892B61F00E94C002AB0138
:1041B000BC0122273327E1E0EE2E80E00E94A1021D
:1041C000E5C481E062CF812F0E94391BDFC40E94C9
:1041D0006C1BDCC40E94F1012FB7F8943327709355
:1041E0008502609384022FBFD1C48FB7F8949927BA
:1041F00010927C0510927B051092E9081092E80855
:1042000010923B0210923A0210924D0410924C040C
:10421000D9C12FB7F89433278091CE0380930A0237
:1042200082E080931B022FBF80910A02882309F04D
:10423000ADC4209A289A8091EA08882309F075C0B5
:104240008EEF91E0019701960197E1F716982F986C
:1042500086E090E0019701960197E1F7169A289879
:1042600083EC8EBD0DB407FEFDCF8EB51EBC0DB424
:1042700007FEFDCF8EB5289A289882EC8EBD0DB42E
:1042800007FEFDCF8EB588E08EBD0DB407FEFDCFD5
:104290008EB5289A8EEF91E0019701960197E1F78C
:1042A00028988EEC8EBD0DB407FEFDCF8EB58DE443
:1042B0008EBD0DB407FEFDCF8EB5289A289889ECE7
:1042C0008EBD0DB407FEFDCF8EB587EC8EBD0DB44F
:1042D00007FEFDCF8EB5289A289885EC8EBD0DB4CB
:1042E00007FEFDCF8EB580E88EBD0DB407FEFDCF75
:1042F0008EB5289A10920D048BE080938602289840
:1043000088EC8EBD0DB407FEFDCF8EB58BE68EBD5D
:104310000DB407FEFDCF8EB5289A2F9A81E08093C9
:10432000EA0880E00E94A40D31C40E94C1162EC488
:104330008FB7F8941092ED082091E20540E0283004
:1043400009F441E030E0293009F431E0442311F46C
:10435000332351F01092E205E091E704FF27EE0FBE
:10436000FF1FED52FC4F108299278FBF442311F499
:10437000332319F18091DF088F5F8093DF088091EC
:10438000CD038334A1F49FB7F89420914504809124
:104390004404821741F0822F8F5F8093450486305A
:1043A00010F010924504892F99278FBF0AC0A0E012
:1043B000442309F4A1E071E006C0222311F010E0CB
:1043C00069C0A0E070E08FB7F894992720911C0293
:1043D0008FBF222341F08FB7F89499272AE02093CA
:1043E000E2058FBF43C08FB7F89499276091D3033C
:1043F0004091D5038FBF8FB7F894282F332750E013
:104400009091440480914504981709F451E02FBF1E
:10441000552349F5662339F55FB7F89482E0809318
:10442000D3038FB7F894282F332740E090914404AA
:1044300080914504981709F441E02FBF442311F0FF
:1044400080E006C0E0914504FF27EC5BFB4F8281D2
:104450008093D403852F99278FBF83E48093CD0366
:104460001092E7040BC04150423010F010E007C03A
:1044700085E48093CD0381E08093E70411E0772306
:1044800049F08FB7F8949927A09325028FBF8EE04B
:104490000E947A028091E2058A3019F40E94980500
:1044A00075C3112309F472C32FB7F8943327109200
:1044B0000E0910920D091092C90381E08093E20564
:1044C0002FBF0E94FD05882309F460C38FB7F894BD
:1044D000992729E02093E2058FBF0E94E60356C387
:1044E0008091C1008F7B8093C1008091C1008F7744
:1044F0008093C1001092B10510921A038091C100FF
:1045000088608093C1008091C10080618093C10068
:104510008091C10080688093C1000E94441736C317
:104520008DE0B3CD8091C100877F8093C1008091E1
:10453000C1008F7E8093C10029C310922202109285
:1045400021028FB7F89499278FBFE0911F02F09155
:10455000200280912702882309F018C383858938B7
:1045600009F014C3109AE55EF54009F00FC38FB748
:10457000F894992722B132E0232722B98FBF1092F5
:10458000190204C38FB7F894992720912A02309119
:104590002B0240914E028FBF8FB7F894E42FFF2774
:1045A000EE0FFF1FE45FFD4F3183208320911D023A
:1045B000442311F02B7F01C02D7F20931D02109208
:1045C000280299278FBFE2C280912E0284FDDEC2AD
:1045D00090E080913102882309F491E0992309F059
:1045E000D5C280914302882359F420E08091BF080E
:1045F0009091C0088F5F9F4F09F021E0222331F096
:10460000CE0101960E94AF03882339F060E177E282
:1046100080E090E00E94E819B9C2E0912F02FF27E4
:10462000EE0FFF1FE256F74FC080D180F6010081E8
:104630001181C8010E94DA03982EA090BF08B090A3
:10464000C008C8010E94B41720E090914202891767
:1046500008F421E0222359F00E944D03F6018081E5
:1046600091810E947103C6010E9490030DCD80913B
:104670004302F601E080F180882389F168E0C701F8
:104680000E94E902FC011781A091CF03B091D003F1
:10469000F70183E301900D928150E1F7E090CF03A1
:1046A000F090D003C7010E94DA031E3E69F48850DF
:1046B000082F1127602FC7010E94DF03402FBC0184
:1046C000C7010E94FA037C01F092D003E092CF036D
:1046D00060E0F601808191810E94221A57C209810F
:1046E0001A8168E0C7010E94E902FC010383012FDF
:1046F0001127028368E0F601808191810E94E9021E
:10470000FC0180818F73808361E0F601808191815B
:104710000E94F90280912E02886080932E0280FF11
:104720000FC068E0F601808191810E94E902FC01DE
:1047300080818064808380912E028E7F80932E0200
:10474000F60100811181F801A6828B2D99278783BC
:10475000C8010E94F702FC0181E78083492DB8015E
:1047600080E00E94860F9927882331F480912E02E1
:10477000806180932E020AC2823009F007C26CE188
:10478000F601808191810E946D047ECC81E080934E
:104790003602FCC12091E008802F822329F1E12F0D
:1047A000FF27EE0FFF1FE25BFB4F4081518111821B
:1047B0001082802F809528232093E008112319F080
:1047C000113091F405C063E0CA010E94221ADBC1D6
:1047D000455E524009F0D7C180913602882309F422
:1047E000D2C110923602CFC11F5F183008F0CEC17F
:1047F000000FD0CF80911202E82FFF27EE0FFF1F8E
:10480000E25BFB4F6081718141E00E94AD1ABEC145
:1048100080914302882309F0B9C15FEFE52EF52EA0
:104820004FEF842E942EAA24BB24CC24DD2449C02F
:10483000022F112733E0000F111F3A95E1F70557BA
:104840001D4FF80122813381FFEF2F3F3F07B1F168
:1048500080913206909133062817390779F1F801D3
:10486000808191810E94BD01BC01F8014481558184
:10487000480F591F208131818091BF089091C00855
:104880002817390779F48FB7F8949927248135814F
:104890003093C2082093C10827812093C4088FBF9A
:1048A0004A010CC0F8018781882341F46233710505
:1048B00028F44E155F0510F47A0158010894C11CC4
:1048C000D11C2C2D80914F02C81608F4B1CFFFEFF8
:1048D000EF16FFEFFF0609F47DC02FEF82162FEFD2
:1048E000920691F08091C408882341F08091C1081C
:1048F0009091C2080A96E816F90630F0C7010F96A3
:104900008815990508F066C08091DB089091DC0855
:10491000A091DD08B091DE080196A11DB11D809324
:10492000DB089093DC08A093DD08B093DE0880914B
:10493000BF089091C0080E94A5018F3F81F0992780
:10494000880F991FFC0103E0EE0FFF1F0A95E1F7A6
:10495000E81BF90BE55AFB4F8581877F8583F501BD
:10496000808191810E94D701F501808191810E940F
:10497000A5018F3F41F0EEE08E9FF0011124E55A32
:10498000FB4F158614862FB7F8943327F5018081E5
:1049900091819093C0088093BF0884819581909302
:1049A000C2088093C10887818093C4082FBFC401C7
:1049B0008E199F09459770F080E890E0A0E0B0E084
:1049C0008093140290931502A0931602B0931702DD
:1049D0000E94430E80913702882369F4FFEF8F16FF
:1049E000FFEF9F0641F42FEFE2162FEFF20619F0CA
:1049F00080E10E947A0210923702C8C0809136028C
:104A0000882309F0C3C0E091CA03F091CB03108260
:104A10008091BF089091C008E091CA03F091CB0348
:104A20008283892F9927818380914302882329F0EB
:104A30008091C1089091C20820C08091BF089091D8
:104A4000C0080091C1081091C2083FEF8F3F930743
:104A500081F4E091CA03F091CB030483812F99275D
:104A60008383E091CA03F091CB03808180688083C7
:104A70000CC00E94BD01800F911FE091CA03F0910C
:104A8000CB038483892F9927838362E085EE92E0AC
:104A90000E94E9026C0168E085EE92E00E94F0025B
:104AA000E5E0AE2EB12CA80EB91E40E0FF2400E0D8
:104AB00010E073E0E72E8091330299270196800F72
:104AC000911F6AE070E00E94022A9C019927880FDA
:104AD000991FDC0153E0AA0FBB1F5A95E1F7A81BF1
:104AE000B90BA55ABB4FFD018581992780FF15C0E1
:104AF00081FF13C08D919C911197FE9CA001112400
:104B00004A0D5B1DFA018183892F99278083FD015E
:104B10008085FA018283F394422F0930110529F030
:104B20000F5F1F4FF6E0FF1530F640933302809180
:104B300032028F5F809332028150F60181838F2D84
:104B40008F7080838FEF8093EB028093EC0285EE71
:104B500092E00E94F702FC0180E7808383E0F89EE8
:104B6000C0011124895F482F552765EE72E081E06E
:104B70000E94860F9927882309F408CE843031F4E7
:104B80001092340203C0000F1F5F04CE22960FB6AE
:104B9000F894DEBF0FBECDBFDF91CF911F910F9173
:104BA000FF90EF90DF90CF90BF90AF909F908F904D
:104BB00008958091D8088F3FB1F0282F3327F9014D
:104BC000EB5AFD4F80818093D8088F3F11F480937A
:104BD000F4088FEF80832F3F31F0822F0E94CA1E8E
:104BE00081E090E0089580E090E00895FF920F93B7
:104BF0001F93FFB6F89445E150E06FEF70E085E554
:104C000092E00E948D2A8FEF8093D8088093F40859
:104C100056985E9854985C9880916F008F7D809331
:104C20006F00209A289A279A2F980E9A169A87ED45
:104C300093E09093490280934802109228038AE5FA
:104C40008093DB0281E08093810080E28093B60054
:104C500083E08093B10080918400909185004AE7C1
:104C600020918400309185002817390708F44150BD
:104C7000442311F0C901F4CF9091B2008091B200A9
:104C80008917E1F320918400309185009091B20062
:104C90008091B2008917E1F38091840090918500A2
:104CA000821B930B409665E0969587956A95E1F790
:104CB0009093DA088093D9081092B1008091B100E6
:104CC00080938100809181008093B6001092B200A1
:104CD00010928500109284008FEF87BB87B386BB4C
:104CE0008091B6008571E1F70A9A099A089A129A9A
:104CF000119A109A18B88FEF87B90C9814981092DF
:104D000095001092940080917100816080937100F1
:104D100080919100887F826080939100109285003D
:104D20001092840080916F00816080936F00809169
:104D30008100887F82608093810081E085BF0E942E
:104D4000D9258823E1F71092430410924202E5EF3F
:104D5000F8E082EB95E081939193049629E0ED30A1
:104D6000F207C9F78CE080930E041092E108EAE1A3
:104D7000F6E08AE396E081939193C39626E0E233CE
:104D8000F207C9F78CE08093420410922A03109234
:104D90003402109235021092DB081092DC08109257
:104DA000DD081092DE08109243028FEF9FEF909380
:104DB000C0088093BF081092C2081092C1081092D8
:104DC000C3081092C40810924F028FB7F894992725
:104DD00020910202309103028FBF3093330620935B
:104DE00032066AE185EE92E00E94F0029093CB03D6
:104DF0008093CA038DE193E09093E7088093E608DF
:104E00008DE795E09093D0038093CF038FB7F8940C
:104E1000992720910202309103028FBF30936B02D9
:104E200020936A0210924A02E0E6F4E010823E9675
:104E300084E0EC3EF807D1F712E006E06091D90873
:104E40007091DA08882799275CE0660F771F881F22
:104E5000991F5A95D1F720E031EE40E050E00E94D2
:104E6000152A215030402093C400832F9927809326
:104E7000C5001093C0000093C2001092C10020939F
:104E8000CC008093CD001093C8000093CA0010920C
:104E9000C90084E490E09093C6088093C5081092FE
:104EA000D3031092D5031092E2051092C903109219
:104EB000CD031092DF0810920E0910920D09109286
:104EC000ED081092E7041092BA081092B9081092F7
:104ED000E402109219061092D30810921B0310924C
:104EE00057041092560410924504109244048FEF18
:104EF0008093CC0380E00E94A704209100023091AF
:104F000001022F5F3F4FC901AA27BB2780932403CB
:104F100090932503A0932603B09327038DE293E09B
:104F200090933D0280933C02C39690933F028093FE
:104F30003E0283E993E09093410280934002809186
:104F4000B60080628093B6008091B60081FDFCCFF0
:104F500082E08093B0008091B60080FDFCCF83E0BA
:104F60008093B1008091B60083FDFCCF86EE8093E4
:104F7000B300809170008260809370000E94AE0741
:104F80008FEF9FEF9093CA088093C9089093CC0845
:104F90008093CB089093CE088093CD089093D0084F
:104FA0008093CF089093D2088093D108809100021B
:104FB0008295807F809329038FEF80938A020E94DD
:104FC000D9258823E1F78F2D99278FBF78948BE01F
:104FD0000E947A028FB7F894482F552757C08091C6
:104FE0007000992783709070892B19F4E5E0F0E048
:104FF00014C08091B6008A71E1F78091B30090915E
:10500000B200891B8C3038F08091B200853F18F4D3
:10501000E3E0F0E002C0E2E0F0E080916E00867034
:1050200009F580916F008E72E9F4809171008E72A3
:10503000C9F40CB407FC16C08091C100807E91F4C5
:105040008091C900807E71F48091BC0082FD0AC00D
:1050500080917A0087FF03C081E090E005C085E081
:1050600090E002C080E090E023B78E1708F4E82FAC
:10507000FF27EA50FD4FE491207F2160E22BE3BF40
:1050800078948895F89483B78E7F83BF8091D808F1
:105090008F3F09F4A4CF282F3327F901EB5AFD4F96
:1050A00080818093D8088F3F11F48093F4088FEFAC
:1050B00080832F3F09F493CF4FBF822F0E94CA1ED7
:1050C00089CFACE2B0E0E7E6F8E20C94562A222E53
:1050D000332E442E552E662E772E882E992EFE01C5
:1050E0003196A8E01192AA95E9F729823A824B827B
:1050F0005C826D827E828F829886FE013996B8E04E
:105100001192BA95E9F7A986BA86CB86DC86ED8638
:10511000FE860F87188B89819A81AB81BC8189A714
:105120009AA7ABA7BCA77C018D018FEF9FEFA0E0F2
:10513000B0E0E822F9220A231B2389A59AA5ABA592
:10514000BCA51D014424552489859A85AB85BC8561
:105150008DA39EA3AFA3B8A75C016D018FEF9FEF56
:10516000A0E0B0E0A822B922CA22DB228DA19EA134
:10517000AFA1B8A53D0188249924C801B701A601B3
:1051800095010E94372A69A37AA38BA39CA3C80127
:10519000B701A40193010E94372A7B018C01C2014F
:1051A000B101A60195010E94372A5B016C01C20181
:1051B000B101A40193010E94372A3B014C01EA0C82
:1051C000FB1C0C1D1D1D89A19AA1ABA1BCA19D01B9
:1051D000442755272E0D3F1D401F511F2A153B0503
:1051E0004C055D0540F480E090E0A1E0B0E0680E81
:1051F000791E8A1E9B1ECA01AA27BB27860D971DF2
:10520000A81DB91D8D8F9E8FAF8FB8A3A90133271D
:10521000222789A19AA1ABA1BCA1A070B070280FD0
:10522000391F4A1F5B1F298F3A8F4B8F5C8FA98CC8
:10523000BA8CCB8CDC8CED8CFE8C0F8D18A1FE0112
:10524000719698E011929A95E9F7ED8AFE8A0F8B94
:10525000188F2D813E814F8158856DA17EA18FA130
:1052600098A50E94372A3B014C012D853E854F852C
:10527000588969A57AA58BA59CA50E94372A2D89F6
:105280003E894F89588D260F371F481F591F260DFD
:10529000371D481D591D2D8B3E8B4F8B588F6D88A8
:1052A0007E888F88988C2A2D3B2D4C2D5D2D662D68
:1052B000772D882D992DE2E1AC960C94722AA0E10D
:1052C000B0E0E5E6F9E20C94562A222E332E442E65
:1052D000552E662E772E882E992E002309F466C04F
:1052E00088E0FE01319611928A95E9F729833A8385
:1052F0004B835C836D837E838F829887E0E2E01B23
:105300001E16CCF52D813E814F815885602F772761
:1053100067FD7095DA01C901062E04C0B695A79500
:10532000979587950A94D2F78D879E87AF87B88B1C
:1053300004C0220F331F441F551FEA95D2F78981FD
:105340009A81AB81BC8104C0B695A7959795879546
:105350006A95D2F7282B392B4A2B5B2B29873A8762
:105360004B875C8729843A844B845C846D847E847B
:105370008F8498881BC01D861E861F86188A2E2F34
:10538000332727FD3095309521953F4F8D819E81A4
:10539000AF81B88504C0B695A795979587952A954E
:1053A000D2F789879A87AB87BC87DCCF222D332D34
:1053B000442D552D662D772D882D992DE2E160968F
:1053C0000C94722A991B79E004C0991F961708F073
:1053D000961B881F7A95C9F780950895AA1BBB1B59
:1053E00051E107C0AA1FBB1FA617B70710F0A61BE5
:1053F000B70B881F991F5A95A9F780959095BC0106
:10540000CD01089597FB092E07260AD077FD04D019
:10541000E5DF06D000201AF4709561957F4F08955E
:10542000F6F7909581959F4F0895A1E21A2EAA1B39
:10543000BB1BFD010DC0AA1FBB1FEE1FFF1FA21744
:10544000B307E407F50720F0A21BB30BE40BF50B41
:10545000661F771F881F991F1A9469F760957095CA
:10546000809590959B01AC01BD01CF010895629F8D
:10547000D001739FF001829FE00DF11D649FE00D4C
:10548000F11D929FF00D839FF00D749FF00D659FAD
:10549000F00D9927729FB00DE11DF91F639FB00DAC
:1054A000E11DF91FBD01CF01112408952F923F92F4
:1054B0004F925F926F927F928F929F92AF92BF9224
:1054C000CF92DF92EF92FF920F931F93CF93DF93D0
:1054D000CDB7DEB7CA1BDB0B0FB6F894DEBF0FBE2D
:1054E000CDBF09942A88398848885F846E847D847A
:1054F0008C849B84AA84B984C884DF80EE80FD807C
:105500000C811B81AA81B981CE0FD11D0FB6F894F1
:10551000DEBF0FBECDBFED010895DC0101C06D936C
:0A55200041505040E0F70895FFCF1E
:10552A000100010022FFFFFFFFFFFFFF15054805ED
:08553A001505020180000000CC
:00000001FF
