S01700006275696C642F697269732F6D61696E2E7372656343
S11300000C9485010C94A4010C94A4010C94A401F7
S11300100C94A4010C94A4010C94A4010C94A401C8
S11300200C94A4010C94A4010C94A4010C94A401B8
S11300300C94A4010C94B6100C94A4010C94600BC1
S11300400C9433190C946B190C94380C0C94430CC9
S11300500C944E0C0C94A4010C94A4010C94A401D3
S11300600C94810B0C94A60E0C94A4010C94290FEF
S11300700C94A4010C947C0C0C94A4010C94831097
S11300800C9462100C946D100C9478100C949610CF
S11300900C9445100C94A4010C9457100C94A401D6
S11300A00C94A4010C94A4010C94A4010C94A40138
S11300B00C94A4010C94A4010C94A4010C94A40128
S11300C00C94A4010C94A4010C94A401AC21D4219B
S11300D0EA211D2275227822FA22F8250226162604
S11300E0192649264C265526AF26B226CC26CF26DD
S11300F0A527A827AC27B727DC27FD27A521262875
S113010034281E2900002110422063308440A55069
S1130110C660E770088129914AA16BB18CC1ADD149
S1130120CEE1EFF13112100273325222B5529442F1
S1130130F772D662399318837BB35AA3BDD39CC399
S1130140FFF3DEE36224433420040114E664C7743D
S1130150A44485546AA54BB528850995EEE5CFF5E9
S1130160ACC58DD55336722611163006D776F66691
S11301709556B4465BB77AA719973887DFF7FEE739
S11301809DD7BCC7C448E5588668A778400861185D
S113019002282338CCC9EDD98EE9AFF94889699989
S11301A00AA92BB9F55AD44AB77A966A711A500A31
S11301B0333A122AFDDBDCCBBFFB9EEB799B588BD9
S11301C03BBB1AABA66C877CE44CC55C222C033C7D
S11301D0600C411CAEED8FFDECCDCDDD2AAD0BBD29
S11301E0688D499D977EB66ED55EF44E133E322ED1
S11301F0511E700E9FFFBEEFDDDFFCCF1BBF3AAF79
S1130200599F788F8891A981CAB1EBA10CD12DC1D6
S11302104EF16FE18010A100C230E320045025406C
S113022046706760B9839893FBA3DAB33DC31CD3CC
S11302307FE35EF3B1029012F322D23235421452BC
S113024077625672EAB5CBA5A89589856EF54FE518
S11302502CD50DC5E234C324A0148104667447640C
S113026024540544DBA7FAB79987B8975FE77EF76C
S11302701DC73CD7D326F2369106B016576676765C
S1130280154634564CD96DC90EF92FE9C899E98938
S11302908AB9ABA94458654806782768C018E108AC
S11302A08238A3287DCB5CDB3FEB1EFBF98BD89B0C
S11302B0BBAB9ABB754A545A376A167AF10AD01AFC
S11302C0B32A923A2EFD0FED6CDD4DCDAABD8BAD58
S11302D0E89DC98D267C076C645C454CA23C832C4C
S11302E0E01CC10C1FEF3EFF5DCF7CDF9BAFBABFAC
S11302F0D98FF89F176E367E554E745E932EB23E9C
S1130300D10EF01E00020E060C0411241FBECFEF06
S1130310D1E2DEBFCDBF12E0A0E0B2E0EAE2FCE54C
S113032000E00BBF02C007900D92AA31B107D9F7C4
S113033019E0AAE1B2E001C01D92AE33B107E1F7C2
S11303400E9470290C94142E0C9400008FB7F8941A
S1130350992708958FBF0895AC01E5E7F4E080E0A4
S113036090E09C01858180FF05C080819181841784
S1130370950741F0C90101963E968A30910589F7A7
S11303802FEF30E0C90108950E94AC018F3F99F02E
S11303909927880F991FFC0123E0EE0FFF1F2A9570
S11303A0E1F7E81BF90BEB58FB4F858181FF03C094
S11303B08285938508958FEF90E008950E94AC01A3
S11303C08F3F19F481E090E008959927880F991FD1
S11303D0FC0143E0EE0FFF1F4A95E1F7E81BF90B20
S11303E0EB58FB4F85818860858380E090E0089519
S11303F02F923F924F925F926F927F928F929F9231
S1130400AF92BF92CF92DF92EF92FF920F931F931E
S1130410CF93DF93CDB7DEB729970FB6F894DEBF3D
S11304200FBECDBF6FB76983F89420903C03309022
S11304303D0340903E0350903F0366247724882474
S1130440EEE4AE2E73E8B72ECC24DD24EE24FF2494
S113045000E010E0222D332D442D552D662D772DEF
S1130460882D90E00E94E12B2A833B834C835D839B
S11304706E837F8388879987822E932EA42EB52E30
S11304802401350100E20E94DF2CA22EB32EC42EDB
S1130490D52EA301920156954795379527952A0D98
S11304A03B1D4C1D5D1D57FF05C05F772F5F3F4F00
S11304B04F4F5F4F20933C0330933D0340933E03E3
S11304C050933F03E9818E2F99278FBFCA01B90149
S11304D029960FB6F894DEBF0FBECDBFDF91CF9142
S11304E01F910F91FF90EF90DF90CF90BF90AF904E
S11304F09F908F907F906F905F904F903F902F9040
S113050008950E94F801DC01CB010895282F9FB7BC
S1130510F894E82FFF27E05AFD4F80818F3F81F444
S1130520E0911C09E21771F40BC02093FF0804C08A
S1130530FF27E05AFD4F208320931C0920E007C0C9
S113054025E005C08091FF088F3F91F7EECF892FFA
S113055099278FBF822F9927089581E00E948602F0
S1130560992708958FE00E94860299270895EF92B3
S11305700F931F93AE2D99E0899FF0011124ED5F35
S1130580FA4F4083518362837383048315832683E4
S11305903783A17080858E7F8A2B8260808783E079
S11305A00E9486021F910F91EF90089587E10E94A7
S11305B08602992708957FB7F8946091B20020913C
S11305C05B0230915C0240915D0250915E02B99BE6
S11305D011C08091B3009091B200280F311D411DCC
S11305E0511D2F5F3F4F4F4F5F4F290F311D411D4D
S11305F0511D04C0260F311D411D511D872F992700
S11306008FBFCA01B9010895AF92BF92CF92DF9212
S1130610EF92FF920F931F93F82E5A016B010E94E1
S1130620DB02AB01BC01F1E0EF2E960185018F2DB9
S11306300E94B7021F910F91FF90EF90DF90CF902F
S1130640BF90AF9008956D3118F080E090E0089568
S11306500C96089568E00E942303089562E00E94C6
S1130660230308956E5F0E942303009709F0029606
S113067008950B960895CF93DF93FC01DC01119646
S11306802181662351F0ED0189819927982F8827CC
S113069033272062822B932B09C0ED01898199278E
S11306A0982F88273327822B932B8F7D8183892F43
S11306B099278983DF91CF91089561E00E943B03DC
S11306C080E090E008951F93982F1FB7F8948091CD
S11306D01C02823099F580910702891779F580917F
S11306E0050220E030E08F3F11F421E030E0232BBD
S11306F0F1F49FEF909307028F3F19F42FEF30E04E
S11307000DC0282F3327F901E056FD4F80818093D7
S113071005028F3F11F490930602908320939D026B
S113072081E080931C0280E00E94860205C08FEF66
S11307308093070210921C0221E001C020E0812F67
S113074099278FBF90E0213009F491E081E0982748
S1130750892F99271F91089580E00E9463039927A8
S11307600895FC01CB01428553859A0163E0220F71
S1130770331F6A95E1F7240F351F2B5F3F4F820F1C
S1130780931F6AE070E00E946E2D7387628708955C
S1130790FC0164859585662339F48AE0989FB0014D
S11307A011246A5070400BC077278AE0989FC001DB
S11307B011240E94822D6A50704014861586CF0140
S11307C00E94B103089580913902E82FFF27EE0FAC
S11307D0FF1FEB53F74F0190F081E02D20913B0276
S11307E0222351F08F5F809339028D3011F41092DF
S11307F03902215020933B02CF0108958FB7F8941A
S1130800992722B134E0232722B98FBF0895AC0180
S113081020915C042C3018F081E090E008958091E0
S11308204303682F620F712D711DFB016C3071053C
S113083008F03C97EE0FFF1FE05CF94F51834083B3
S11308402F5F20935C0480E090E00895AC01209138
S113085028042C3018F081E090E008958091090973
S1130860682F620F712D711DFB016C30710508F04A
S11308703C97EE0FFF1FE35EF64F518340832F5FDB
S11308802093280480E090E008950F931F93CF9362
S1130890DF93EC01892BE9F02091E6083091E70819
S11308A08FEF2F3F3807A9F080914D02813019F462
S11308B0198218820BC00091E8081091E908C90157
S11308C00E94C401080F191F1983088380E090E077
S11308D002C081E090E0DF91CF911F910F910895C4
S11308E0FC0180818D50992708950E9470048850DE
S11308F099270895685F0E942303009709F00896DA
S113090008951F931FB7F89480911509882341F423
S113091081E10E948602882319F481E080931509FD
S1130920812F99278FBF1F910895EF92FF921F93F4
S1130930CF93DF937C01EB01142F80911B0288235A
S113094009F05FC0443009F05CC0672B09F459C05A
S11309500E94FE0388819981AA81BB818093170636
S113096090931806A0931906B0931A068FEF8093FC
S113097011068093100689E88093160610931406D6
S113098080912B0290912C02892B09F03AC02FB749
S1130990F894332785E080932E0210922F028BE087
S11309A096E090932A028093290282E090E090934B
S11309B02C0280932B02109231021092300280E1BB
S11309C080932D022FBF9FB7F8948091EE03882364
S11309D011F020E006C081E08093EE031092EF0353
S11309E021E0892F99278FBF222339F00E948104A7
S11309F0109881E080931B0204C010922C02109284
S1130A002B02C701DF91CF911F91FF90EF900895C2
S1130A10FC01635F60830895882319F08CB58064BA
S1130A2002C08CB58F7B8CBD0895882319F08CB5DA
S1130A30806802C08CB58F778CBD08950F931F9387
S1130A4080E00E940C050FB7F8941127229A23988E
S1130A50219A8CB580618CBD80E00E9415058DB50E
S1130A6081608DBD8CB5877F8CBD8CB58B7F8CBD33
S1130A708CB58E7F8CBD81E00E940C050FBF1F9149
S1130A800F9108950F931F93CF93DF93182F0FB7F0
S1130A90F89480911D02882311F40E941E05802F72
S1130AA099278FBF8FB7F894C82FDD272C2F8091FB
S1130AB01D02882361F481E080931D021093E703F3
S1130AC089E00E948602CFBF80E090E021C0E12F40
S1130AD0FF27EB51FC4F80818F3F89F4E09109029D
S1130AE0E11789F40CC01093080204C0FF27EB51EE
S1130AF0FC4F10831093090280E090E002C085E06F
S1130B0090E02FBF05C0809108028F3F79F7EBCFAB
S1130B10DF91CF911F910F9108958FB7F894282FEB
S1130B203327922F80910A02882331F480911D0289
S1130B30823011F42FBF13C09FBF8FB7F894282FB2
S1130B40332780911D02882369F482E080931D027B
S1130B5010920A022FBF0E941E05209A289A81E053
S1130B6090E008952FBF80E00E94420580E090E06D
S1130B7008958FB7F89420916C0430916D044091DE
S1130B806E0450916F04E0918400F0918500B09B55
S1130B9008C02F5F3F4F4F4F5F4FE0918400F091AB
S1130BA0850099278FBFC901772766279F014427AE
S1130BB05527622B732B842B952B0895FC0180A958
S1130BC0826080AB08958C960895AC01EFB7F894D9
S1130BD02091840030918500C901841B950B0396F4
S1130BE08617970720F0B9016D5F7F4F02C0640F2D
S1130BF0751F6115710511F461E070E0615070407A
S1130C00709389006093880082E086BB80916F00B6
S1130C10826080936F008E2F99278FBF08952FB71E
S1130C20F894332780937E022FBF85E00E948602CA
S1130C300895FC01828121819927982F88273327E1
S1130C40822B932B85FF1FC087749C7C815498480A
S1130C50D1F4878146812FB7F8943327609102023B
S1130C60709103022FBF20E09927982F88275527DA
S1130C70842B952B8617970709F021E081E028271C
S1130C80822F9927089580E090E008954F925F9213
S1130C906F927F928F929F92AF92BF92CF92DF9288
S1130CA0EF92FF920F931F93CF93DF932C018091C8
S1130CB04302882309F04DC180911209853009F05F
S1130CC048C10E948D05882309F443C18091E50839
S1130CD0882309F03EC1E201E096F20180A982FD79
S1130CE002C090E003C0F20192A99F708091270492
S1130CF0981781F090932704289885EC8EBD0DB445
S1130D0007FEFDCF8EB590689EBD0DB407FEFDCFE6
S1130D108EB5289A42010894811C911CF4018181AA
S1130D20F201218140E09927982F88273327822BCD
S1130D30932B87749C7C8154984809F441E04423A4
S1130D4001F1289886E88EBD0DB407FEFDCF8EB55F
S1130D501EBC0DB407FEFDCF8EB5289A99278F715E
S1130D609070209141034091F102240F312D311DE7
S1130D7043E0359527954A95E1F7281739070CF490
S1130D80E8C0289882EC8EBD0DB407FEFDCF8EB569
S1130D9089E08EBD0DB407FEFDCF8EB5289A0E9462
S1130DA0B9057B018C01888184FD03C0C0E0D0E0DB
S1130DB006C0F20180818550E201C80FD11D289838
S1130DC081E88EBD0DB407FEFDCF8EB51EBC0DB4FB
S1130DD007FEFDCF8EB5289A8F71893021F087E008
S1130DE080931209B6C08FB7F89499272F9A20914F
S1130DF08400309185008FBF2F98289880E68EBD9F
S1130E00F20190810DB407FEFDCF8EB59EBD792F02
S1130E107250773010F4672F01C067E0F401962F09
S1130E2041910DB407FEFDCF8EB54EBD9150C1F773
S1130E306150F401E60FF11D6F5F31962E193F09E1
S1130E402E553F4F3901882477FC8094982C6E0CE2
S1130E507F1C801E911E209719F4972F961B1FC08C
S1130E6088819981AA81BB8186199709A809B90942
S1130E708B83292F3A2F4B2F55272A839D014427F3
S1130E80552729838B2F9927AA27BB278883E5CF4A
S1130E9020810DB407FEFDCF31968EB52EBD915045
S1130EA0B8F70DB407FEFDCF8EB5289A289882ECCA
S1130EB08EBD0DB407FEFDCF8EB586E08EBD0DB49C
S1130EC007FEFDCF8EB5289A209779F18881E980B5
S1130ED02A81AB80332744275527542F432F322FA1
S1130EE022279927AA27BB27B82FAA27992788271B
S1130EF0FF24002711278701FF24EE248E299F2930
S1130F00A02BB12BBB24CC24DD248A299B29AC291A
S1130F10BD29282B392B4A2B5B2B260D371D481D49
S1130F20591D288339834A835B83C2010E94DE05ED
S1130F30C2010E94E305FC01608271828282938275
S1130F4086E08093120984E08093430280E090E07D
S1130F5002C085E090E0DF91CF911F910F91FF9047
S1130F60EF90DF90CF90BF90AF909F908F907F9045
S1130F706F905F904F900895EF92FF920F931F939D
S1130F807C018FB7F894992700919A0210919B02E3
S1130F900F5E1E4F10939B0200939A020151114061
S1130FA08FBF87E00E948602C801B7010E946E2DA0
S1130FB08A5D9E4F1F910F91FF90EF9008959FB708
S1130FC0F894809108068A3011F020E006C020E0F1
S1130FD08091FB02843009F421E0892F99278FBF87
S1130FE0222349F083E10E9486028FB7F89499275F
S1130FF01092260206C08FB7F894992721E0209317
S113100026028FBF08952FB7F89433278093C60024
S1131010E0ECF0E08081806480832FBF0895FC01C0
S11310206115710519F481E090E008958091EA0357
S11310309091EB03892B19F085E090E0089570936B
S1131040EF086093EE08F093EB03E093EA03109249
S1131050300310922F0381E0809331038091C0000C
S113106080648093C0008091C10080648093C1003B
S1131070808121E030E03093300320932F030E94DD
S1131080030880E090E00895809137028E7F80937A
S113109037028EE780937F0261E070E08FE792E091
S11310A00E940F0899270895982F969596959695DE
S11310B0EAE5F2E0E90FF11D877021E030E002C0BB
S11310C0220F331F8A95E2F780818223992708959E
S11310D0982F969596959695E2E0F5E0E90FF11D27
S11310E0877021E030E002C0220F331F8A95E2F7B7
S11310F08081822399270895AC0120913B022D30F1
S113110018F081E090E0089580913A02E82FFF27DB
S1131110EE0FFF1FEB53F74F518340838F5F809394
S11311203A028D3011F410923A022F5F20933B0261
S113113080E090E0089580910709882319F02FE159
S113114070E002C078E021E0622FEFB7F89480915C
S113115098028E7F8093980280917C00982F9F71D3
S1131160829586958695837019F080E090E012C090
S1131170822F8850863118F081E090E00BC040E067
S113118050E03327892F99272817390711F441E0B4
S113119050E0CA01982F9170990F8091980281783C
S11311A0262F2F71422F440F440F892B842B8093B9
S11311B09802332720937C00783059F580910009F8
S11311C09091010921E08638920718F087E090E0B9
S11311D01FC0833C910518F086E090E019C0813669
S11311E0910518F085E090E013C08033910518F064
S11311F084E090E00DC08831910518F083E090E020
S113120007C00C9718F082E090E002C080E090E004
S1131210782F7770887D872B886D992780937A0043
S11312208E2F99278FBF089508950F931F93CF93FF
S1131230DF93282F3327C901880F991FFC0113E07E
S1131240EE0FFF1F1A95E1F7E81BF90BEB58FB4F64
S1131250858182FF03C062838B7F85838281962F81
S1131260981B628383818F5F838386E086839923BF
S113127061F08481890F815084839B3030F0148223
S113128081E08383178211861086C901880F991F14
S1131290FC01A3E0EE0FFF1FAA95E1F7E81BF90B91
S11312A0EB58FB4F8381833008F471C000811181B6
S11312B0C5E7D4E0888199818017910709F061C05E
S11312C08D8180FF5EC08E81882311F081508E83D2
S11312D08F81882311F081508F838E81882351F46C
S11312E08F81882339F48D8191E089278D83198634
S11312F0188642C08D8182608D839B816C81690FC9
S1131300633008F463E077278FEF989FC0011124BE
S11313100E94822D888529E0829FC00111240596B0
S1131320860F911D6AE070E00E94822D68871B82FF
S11313301C824985662301F14423F1F0772781E07B
S11313409EEF0E946E2DCB019B01F3E0220F331F11
S1131350FA95E1F7642F7727880F991F820F931F5F
S11313600E946E2D6A5070406F3F710519F010F0A5
S11313706CE370E0772702C06CE370E0CE010E945A
S1131380B1032E9685E0C130D80709F093CFDF91E1
S1131390CF911F910F91089580E090E0EAE7F4E087
S11313A09C01808180FF08C0C90101963E968A3065
S11313B09105B1F72FEF30E0C90108959EE0899FB0
S11313C0F0011124EB58FB4F718360831282138266
S11313D0148285E0858386E0868387831086118660
S11313E0138612860895982FAFEF60E070E040E016
S11313F050E0EAE7F4E08081282F332720FF0BC078
S113140021FF09C023FD07C0258136812617370730
S113141010F0A42FB9014F5F5F4F3E964A3051053B
S113142051F7892F99276817790718F48FEF90E0FF
S113143008958A2F99270895AC01309159028FEFAE
S11314404F3F580711F020E012C0832F99270895C9
S1131450E22FFF2783E0EE0FFF1F8A95E1F7EF5598
S1131460FD4F808191818417950719F02F5F231711
S113147079F7822F99270895CF93DF93EC010E9487
S11314801C0A282F809159022817D1F0382F315087
S11314903093590213C0822F992743E0880F991F74
S11314A04A95E1F7DC01AF55BD4FFC01E755FD4F0F
S11314B088E001900D928150E1F72F5F231758F3D4
S11314C08091E6089091E7088C179D07A1F48FEFAF
S11314D09FEF9093E7088093E6081092E908109232
S11314E0E8081092EA081092EB0881E08093410228
S11314F08AE10E948602DF91CF910895FC018081E8
S11315008D50992708951F93CF93DF93162FC0E032
S1131510D0E06AE10E943203FC01808181238117BB
S113152011F4C1E0D0E0CE01DF91CF911F91089575
S1131530FC0182A593A50895AF92BF92CF92DF924A
S1131540EF92FF920F931F93F82E5A016B010E94A2
S1131550DB02AB01BC01EE24960185018F2D0E94B4
S1131560B7021F910F91FF90EF90DF90CF90BF9043
S1131570AF900895DF92EF92FF920F931F938FB76E
S1131580F894282F3327D22E9091B3008091B20083
S113159047B3981711F041FF02C02FBF71C080916B
S11315A033038823E1F10E94DB02E0904E02F090C5
S11315B04F02009150021091510220910A0930917A
S11315C00B0940910C0950910D096E197F09800B8C
S11315D0910B621773078407950720F01092330369
S11315E071E01EC02E0D3F1D401F511F80915B02F4
S11315F090915C02A0915D02B0915E02281B390BB0
S11316004A0B5B0B273E31054105510540F4822FFF
S1131610223010F070E005C070E082E002C070E09B
S113162086EE682F61508091B60083FDFCCF8091D7
S1131630B200681709F46F5F20915B0230915C027D
S113164040915D0250915E02DA01C9010196A11D2B
S1131650B11D860F911DA11DB11D82179307A4070B
S1131660B50710F4622F60958091B60083FDFCCF1E
S11316706093B300DFBE772319F082E00E948602F4
S11316801F910F91FF90EF90DF900895AFB7F894FA
S1131690BB27E1E0E093330360934E0270934F0263
S11316A0809350029093510220930A0930930B09BE
S11316B040930C0950930D09AFBF0E94BA0A0895D4
S11316C01F920F920FB60F9211248F938091B00046
S11316D08093B0008091B60081FDFCCF8F910F9074
S11316E00FBE0F901F9018951F93182F81E00E9432
S11316F00C051EBD0DB407FEFDCF8EB599271F91B5
S113170008951F920F920FB60F9211248F929F92F9
S1131710AF92BF92CF92DF92EF92FF920F931F93FB
S11317202F933F934F935F936F937F938F939F93E5
S1131730AF93BF93CF93DF93EF93FF932EB5E091D5
S11317409F05F091A005309739F08091660490913F
S11317506704E80FF91F2083809166049091670461
S11317600196909367048093660480E00E941505B7
S1131770C0916604D091670480914402909145021F
S1131780C817D90708F046C0009110091091110933
S113179080909F059090A0050F2EFAE0AF2EBB24F9
S11317A0F02DAC0EBD1E8A159B0508F45C01640186
S11317B0CC0EDD1E7801EC0EFD1E15C001151105C1
S11317C019F0F701808101C080E00E94740B81143C
S11317D0910411F0F601808321960894C11CD11C58
S11317E00894E11CF11CC5010197C817D90730F30F
S11317F081E00E9415050115110531F00C0F1D1F24
S1131800F80180818EBD01C01EBCD0936704C093D3
S1131810660411C01092A00510929F051092110940
S1131820109210091092450210924402109267041B
S1131830109266048EB5FF91EF91DF91CF91BF9125
S1131840AF919F918F917F916F915F914F913F9154
S11318502F911F910F91FF90EF90DF90CF90BF9049
S1131860AF909F908F900F900FBE0F901F90189580
S113187078941F920F920FB60F9211240F900FBEFF
S11318800F901F90189578941F920F920FB60F9295
S113189011240F900FBE0F901F90189578941F92EB
S11318A00F920FB60F9211242F933F938F939F9310
S11318B0AF93BF932FB7F894332780916C04909122
S11318C06D04A0916E04B0916F040196A11DB11D29
S11318D080936C0490936D04A0936E04B0936F0492
S11318E02FBFBF91AF919F918F913F912F910F90F7
S11318F00FBE0F901F9018951F920F920FB60F9264
S113190011242F933F934F935F936F937F938F9300
S11319109F93AF93BF93EF93FF93409178005091BF
S1131920790078948FB7F894992720919802322FF0
S11319303695317021708FBF222351F580917A0042
S1131940877F80937A0080912604813021F0823051
S113195009F048C008C0332341F050930706409370
S1131960060680E112C0332319F40E949B083AC092
S113197010922604809107098823A1F51092400350
S113198050939502409394028EE00E9486022AC0EE
S11319908FB7F89499278FBF2FB7F8943327809186
S11319A07A00582F5770482F4072987D942B952BAE
S11319B08074977B982B90619F77892F99278093C8
S11319C07A00887D842B852B877380619927809387
S11319D07A00887D842B852B877B80699927809367
S11319E07A002FBFFF91EF91BF91AF919F918F919B
S11319F07F916F915F914F913F912F910F900FBE07
S1131A000F901F901895E4E0F1E06927660FF11D2F
S1131A10E60FF11DC895982F802D3196C895902515
S1131A200895982F80913202882389F5992379F5B6
S1131A3031E03093320280910D0280933302209181
S1131A402702822F81708093580280911202909114
S1131A50130290933502809334028091280280937C
S1131A60360232273170267EE32FFF27EE0FFF1F49
S1131A70E25FFD4F80819181909313028093120263
S1131A80232B2093270286E10E94860208958091E9
S1131A90270280FF02C08B7F01C08D7F80932702C5
S1131AA008950F931F93082F162F8091FB02813006
S1131AB0D9F0813038F0823009F44AC0833009F01B
S1131AC00EC159C0002309F43EC11092E1081092DE
S1131AD0E00810923F061092FA0810923203109216
S1131AE07104109270041FC1002309F02CC180916D
S1131AF07004909171040E94030D9093710480937B
S1131B00700482E08093FB021093FA08143409F005
S1131B10E6C00BC18695869503C080912702869501
S1131B20817009F0DCC080912702992311F0846050
S1131B3001C082608093270280912702877E88609B
S1131B4080932702109228028FEF80930D02FBC02E
S1131B50002309F0C4C06093320380917004909113
S1131B6071040E94030D909371048093700483E0C8
S1131B708093FB02E8C080913F068F3F09F4AFC019
S1131B80002309F447C0823008F4A9C0E091E008BA
S1131B90EE2309F4D1C04E2F4150E42FFF27E05229
S1131BA0F74F82819927382F2227442311F4E2E04A
S1131BB002C0E42FE150FF27E052F74F82819927BA
S1131BC0282B392B809170049091710428173907C0
S1131BD009F085C080E00E94110D3091320380919C
S1131BE05E0420915F04982F9F5F963008F090E088
S1131BF0921709F474C0E82FFF27E25AFB4F32838F
S1131C008F5F80935E04863010F010925E040E9411
S1131C10810465C0823008F44EC0E091E108FF27DA
S1131C20E052F74F8281482F5527342F2091270205
S1131C30822F8695869586958370992781309105A4
S1131C4019F00297F9F40EC0277E20612093270231
S1131C50442311F485E001C080E08093280230938E
S1131C600D0210C080912802833360F4E0911202C7
S1131C70F0911302E80FF11D4083809128028F5FD9
S1131C80809328028091E108E82FFF27E052F74F64
S1131C9062818F5F8093E108833010F01092E10835
S1131CA0772780917004909171040E94030D9093A2
S1131CB07104809370048091E008E82FFF27E052BC
S1131CC0F74F12838F5F8093E008833010F01092F7
S1131CD0E00880913F068F5F80933F0634C01092E6
S1131CE0E1081092E0081092FB0210923F06109255
S1131CF0FA081092320310927104109270048091C9
S1131D0037028D7F8093370281E00E94110D80910C
S1131D102602882331F084E08093FB020E94DF07CF
S1131D2012C0002381F081E023CF80912702982FF5
S1131D30917080FDEFCEF1CE8091E4089927382F81
S1131D40222742E036CF1F910F9108951F920F92E0
S1131D500FB60F9211242F933F934F935F936F937A
S1131D607F938F939F93AF93BF93EF93FF93809150
S1131D70C00087FF42C06091C600E0917204F091F8
S1131D807304309719F18091130990911409E80FA5
S1131D90F91F60830196909314098093130920918D
S1131DA03709309138098217930738F11092730478
S1131DB0109272048091D5058330F9F08091C100AE
S1131DC08F778093C1001092D50517C06E3719F430
S1131DD060E081E010C0809137026D3721F48260A9
S1131DE0809337020AC081FF05C08D7F809337023C
S1131DF080E2682780E00E94510DFF91EF91BF912E
S1131E00AF919F918F917F916F915F914F913F918E
S1131E102F910F900FBE0F901F901895982F8D57EC
S1131E20823068F48091370281608093370280E2C7
S1131E30892780933E068DE780937F0202C09093AA
S1131E407F0261E070E08FE792E00E940F0899271B
S1131E50089578941F920F920FB60F921124FF9257
S1131E600F931F932F933F934F935F936F937F939E
S1131E708F939F93AF93BF93CF93DF93EF93FF938E
S1131E8020912F03309130038091EE089091EF0858
S1131E902817390780F4E091EA03F091EB03E20F8D
S1131EA0F31F80812F5F3F4F3093300320932F0324
S1131EB00E940308D4C01092EB031092EA0310921C
S1131EC031038091C1008F7B8093C10080913702E0
S1131ED080FF0EC08E7F8093370280913E068093F0
S1131EE07F0261E070E08FE792E00E940F08B7C0C4
S1131EF080910806843009F494C0853040F482301F
S1131F0021F18330B8F5813009F0A4C00DC08630CA
S1131F1009F495C0863008F48BC0873009F496C064
S1131F20883009F097C099C08091E6030E940E0F93
S1131F30182F83E0809308066091E60380913509A9
S1131F40909136090E94030D10C0809106090E94E9
S1131F500E0F182F83E08093080660910609809184
S1131F603509909136090E94030D909336098093A8
S1131F7035096EC0FFB6F894E0910105FF27EE0F16
S1131F80FF1FE351FC4F80810E940E0F082F109118
S1131F900105C12FDD27FE01EE0FFF1FE351FC4FAA
S1131FA0608180913509909136090E94030D9093C8
S1131FB03609809335092091E2032F5F2093E203D1
S1131FC0113039F580912E02E0912902F0912A0214
S1131FD0E80FF11DE0818F5F80932E0290912D0216
S1131FE0981730F482E08093EE0340E050E002C0A2
S1131FF04E2F5527DE01AA0FBB1FFD01E451FC4FF4
S11320008081823031F02F3F21F0A351BC4F4C939B
S113201003C084E080930806102F8F2D99278FBF6B
S113202017C0809135090E940E0F182F85E00BC050
S1132030809136090E940E0F182F86E004C00E947A
S11320404408182F87E08093080602C088E003C084
S1132050112329F089E0809308060E948104FF91EE
S1132060EF91DF91CF91BF91AF919F918F917F912C
S11320706F915F914F913F912F911F910F91FF901D
S11320800F900FBE0F901F9018951F920F920FB6CE
S11320900F9211248F938091C80087FF02C0809112
S11320A0CE008F910F900FBE0F901F9018957894CB
S11320B01F920F920FB60F9211240F900FBE0F9024
S11320C01F90189578941F920F920FB60F921124B7
S11320D00F900FBE0F901F90189578941F920F9237
S11320E00FB60F9211240F900FBE0F901F901895EA
S11320F078941F920F920FB60F9211240F900FBE77
S11321000F901F90189578941F920F920FB60F920C
S113211011248F939F9380919400909195009F91A7
S11321208F910F900FBE0F901F90189578941F9267
S11321300F920FB60F9211242F933F938F939F9377
S11321402FB7F89433278091440390914503019667
S113215090934503809344032FBF9F918F913F91A8
S11321602F910F900FBE0F901F9018951F920F92F2
S11321700FB60F9211242F933F934F935F936F9356
S11321807F938F939F93AF93BF93EF93FF9380912C
S1132190B0008093B0008091B60081FDFCCF8091A7
S11321A0B30099270196AA27BB2720915B0230919F
S11321B05C0240915D0250915E02280F391F4A1F54
S11321C05B1F20935B0230935C0240935D0250934B
S11321D05E0278940E94BA0AFF91EF91BF91AF9189
S11321E09F918F917F916F915F914F913F912F912B
S11321F00F900FBE0F901F90189521E020935F065B
S11322002093E1032091840030918500BC01C90131
S11322100E94E50508950F931F93982F1FB7F89414
S113222080911D02823099F580910A02891779F50F
S11322308091080220E030E08F3F11F421E030E08B
S1132240232BF1F49FEF90930A028F3F19F42FEFA1
S113225030E00DC0282F3327F901EB51FC4F80816A
S1132260809308028F3F11F4909309029083209386
S1132270E70381E080931D0289E00E94860205C085
S11322808FEF80930A0210921D0201E001C000E06A
S1132290812F99278FBF1FB7F89480911D0288233F
S11322A011F40E940C05812F99278FBF90E0013013
S11322B009F491E081E09827892F99271F910F91C4
S11322C008951F93CF93DF9380912202882319F0FE
S11322D081E090E051C08FB7F894282F3327122F54
S11322E080912502882369F581E08093250210926C
S11322F038032FBF2FB7F894332780917A00806872
S113230080937A002FBF8FB7F894C82FDD279C2FB6
S113231080910C02813099F480912502813021F45E
S11323208FE00E94860209C0823049F4809138030C
S113233080930C0283E080932502CFBF1BC09FBF14
S113234019C080E00E945408882319F085E090E0C9
S113235007C080915A02816080935A0280E090E025
S11323601FBF282F882319F481E080932202822F33
S1132370992702C020E0F8CFDF91CF911F910895F3
S1132380FF920F931F938C010E947E0AF82E62E045
S1132390C8010E942303FC01208133272F70307071
S11323A0C901880F991F820F931FF81A8EEFF80E38
S11323B08F2D99271F910F91FF9008959C01809173
S11323C04202882319F085E090E0089530930A06CC
S11323D02093090681E0809342021092250485E04F
S11323E00E94860280E090E00895CF93DF93EC0191
S11323F08FE38A87809142038F5F809342038B83AC
S11324008091560290915702892B11F025E017C054
S113241088A599A5892B21F061E0CE010E943B0398
S1132420CE010E94DE119927282F882341F4D093EE
S11324305702C09356021092F8021092F702822FAC
S11324409927DF91CF910895FF920F931F93CF9314
S1132450DF93F82E8B01EA01422F2D3118F086E02C
S113246090E08CC0FE0131968181298150E099274A
S1132470982F88273327822B932B87749C7C815435
S1132480984809F451E0552321F481E4898388E8CC
S11324908183435F48832FB7F894332780910202E6
S11324A0909103022FBF8887892F992789872FB797
S11324B0F8943327809104022FBF99278C831D82BF
S11324C0CE010E943903FC01F0820E83812F9927EB
S11324D08F838FB7F894282F332780911C02882389
S11324E071F482E080931C02109207022FBFCE0188
S11324F00E94F5119927182F882399F00FC02FBF38
S1132500D0939F02C0939E028FB7F894C82FDD2703
S11325102C2F80911C02882399F406C080E00E942D
S11325206303812F99272AC081E080931C021092B3
S11325309D0280E00E948602CFBF80E090E01EC032
S11325408091A0028F3F89F4E0910602EE2369F0A6
S113255010C01092050204C0FF27E056FD4F108200
S11325601092060280E090E002C085E090E02FBF68
S113257005C0809105028F3F79F7EBCFDF91CF91B2
S11325801F910F91FF900895EF92FF920F931F9365
S1132590CF93DF93E82E8B01F42E81E08E1518F48F
S11325A081E090E03BC0CE2DDD27CC0FDD1FC85964
S11325B0DB4F88819981892B19F085E090E02EC04A
S11325C079836883EDE0FE0EFB01F082F3EFFF0EEA
S11325D080911402823018F480E090E01FC0CB0197
S11325E00E943903FC018081F80167817727762FE7
S11325F0662726813327622B732BE09214022F2D3A
S1132600A8010E9424129927282F882329F082E008
S11326108093140219821882822F9927DF91CF9117
S11326201F910F91FF90EF900895AF92BF92CF92B8
S1132630DF92EF92FF920F931F93CF93DF938091DA
S11326404002882309F0BEC0E091E303F091E40363
S113265010828091E6089091E708E091E303F091FD
S1132660E4038283892F9927818380914D028823F3
S113267029F08091E8089091E90820C08091E6084B
S11326809091E708C091E808D091E9082FEF8F3FB7
S1132690920781F4E091E303F091E403C4838D2F66
S11326A099278383E091E303F091E40380818068B8
S11326B080830CC00E94C4018C0F9D1FE091E30332
S11326C0F091E4038483892F9927838362E08CEF5C
S11326D092E00E9423037C0168E08CEF92E00E9468
S11326E03203F5E0CF2ED12CC80ED91E40E010E005
S11326F0AA24BB2403E080913D02992701968A0D08
S11327009B1D6AE070E00E94822D9C019927880F2E
S1132710991FDC0173E0AA0FBB1F7A95E1F7A81B90
S1132720B90BAB58BB4FED018D81992780FF11C0C8
S113273081FF0FC08D919C91109FF0011124EC0D2D
S1132740FD1D8183892F99278083888582831F5F5C
S1132750422FE9E0AE16B10429F00894A11CB11C83
S1132760173048F240933D0280913C028F5F809382
S11327703C028150E7018983812F8F7088838FEF1A
S113278080930203809303038CEF92E00E94390349
S1132790FC0180E7808383E0189FC0011124895FD6
S11327A0482F55276CEF72E081E00E94C4129927EC
S11327B0882321F481E08093400204C0843011F422
S11327C010923E02DF91CF911F910F91FF90EF90F5
S11327D0DF90CF90BF90AF9008951F93CF93DF9376
S11327E0EC01162F80911502882319F5CE010E9461
S11327F01C0AE82F80915902E81748F4FF2783E068
S1132800EE0FFF1F8A95E1F7EF55FD4F1783809177
S1132810EB08882311F0112349F08091E608909188
S1132820E7088C179D0729F4112319F08AE10E9407
S11328308602DF91CF911F910895AF92BF92CF92FC
S1132840DF92EF92FF920F931F93CF93DF938091C8
S1132850E508882309F413C10E948D05882309F42F
S11328600EC18FB7F8949927C091DF03D091E0038C
S11328708FBF1092E50828988FE88EBD0DB407FE2F
S1132880FDCF8EB51EBC0DB407FEFDCF8EB5289AC4
S1132890982FA82EBB24A0FE0CC080914302833045
S11328A011F0873031F485E08093120988E0809339
S11328B04302A2FE5FC080914302863019F4109255
S11328C0430203C0882309F055C0943009F041C085
S11328D0289886E88EBD0DB407FEFDCF8EB51EBCCC
S11328E00DB407FEFDCF2EB5289A2F718091F10209
S11328F0982F96959695322F391B830F8093F1026A
S1132900E0915202F091530280A98B7F886080ABE2
S113291022AB0E94B9056B017C0100915202109117
S11329205302C8010E94DE05C8010E94E305FC01B0
S1132930CC19DD092797CE01AA2797FDA095BA2FB8
S11329408C0D9D1DAE1DBF1D80839183A283B38317
S11329500EC0E0915202F091530280A9877F80ABB0
S1132960E0915202F091530280A98D7F80AB85E003
S113297080934302A3FE83C080914302843009F014
S11329804BC085E0809312091092430280913B036F
S1132990833019F410923B0372C0E0912304F09148
S11329A02404828121819927982F88273327822B19
S11329B0932B85FF29C087749C7C8154984821F50A
S11329C0878126819927982F88273327822B932B59
S11329D08F5F9F4FC9F090E08091E103882309F451
S11329E091E0992389F012E010935F0681E08093CF
S11329F0E103809184009091850061EE72E00E9471
S1132A00E50510933B033BC010923B03109216095B
S1132A1080E00E940F0633C0853089F58091120949
S1132A20873091F4289882EC8EBD0DB407FEFDCF5B
S1132A308EB586E08EBD0DB407FEFDCF8EB5289A07
S1132A4085E08093120917C020914103289886E8F5
S1132A508EBD0DB407FEFDCF8EB51EBC0DB407FEB2
S1132A60FDCF8EB5289A8F71922F96959695891BD6
S1132A70280F2093410389E08093430208C090917A
S1132A804302992309F4E2C2993009F00FC228984D
S1132A9080E28EBD0DB407FEFDCF8EB51EBC0DB415
S1132AA007FEFDCF8EB5482F5527433008F49EC34B
S1132AB0842F99278A970CF099C31EBCE091520287
S1132AC0F09153024083542F5250573010F4452F45
S1132AD001C047E09F012F5F3F4F942FF90160E051
S1132AE070E00DB407FEFDCF8EB51EBC80838191CE
S1132AF06827062E6295607F6025072E762F6295E3
S1132B006F700626669576276727660F660F660F31
S1132B106025915031F74150D901A40FB11D4F5F89
S1132B201196E0915202F09153028181282F3327AC
S1132B30277030702230310509F491E09923B9F0FF
S1132B4080913B03823081F48381E0912304F091EE
S1132B5024049381891741F490E02230310509F06F
S1132B6091E081E098270EC080E090E00DC08FB71F
S1132B70F894282F332790E080917404833008F46C
S1132B8091E02FBF892F9927892B09F42FC3952F03
S1132B90941B18C00DB407FEFDCF8EB51EBC8C93DC
S1132BA08D916827062E6295607F6025072E762F0B
S1132BB062956F700626669576276727660F660FFF
S1132BC0660F6025915030F70DB407FEFDCF8EB52A
S1132BD01EBC9B012827022E2295207F2025032E30
S1132BE0322F22952F700226269532272327220F73
S1132BF0220F220F20250DB407FEFDCF8EB51EBC7B
S1132C002827022E2295207F2025032E322F22955D
S1132C102F700226269532272327220F220F220FF8
S1132C2020250DB407FEFDCF8EB5E0915202F09140
S1132C30530281AB289A85E08093120910924302D3
S1132C40232B09F0FFC1E0905202F0905302570188
S1132C500894A11CB11CF701818190E08770823037
S1132C6009F491E0292F3327122F80913B038230FE
S1132C70C9F480916F008D7F80936F001092E103FF
S1132C80E0912304F091240480A9222311F08160AF
S1132C9001C08E7F80AB10923B031092160980E036
S1132CA00E940F06112309F0FCC0C7010E941906F7
S1132CB08823A9F085E08093290482E080932A0484
S1132CC010922B04F501828180932C0489E294E014
S1132CD00E944606882319F483E080933B03009105
S1132CE0840010918500C7010E941906882311F001
S1132CF0045E1C4F1093FA020093F9028091840041
S1132D0090918500081B190BC801101611066CF46C
S1132D1020911609222331F40E94FD1080E880934B
S1132D20160903C0206820931609F50180852781C0
S1132D309927582F44273327422B532B80915F0226
S1132D40282F3327F901EE0FFF1FE051F74F808141
S1132D5091817091D4058417950769F4F901E95EAE
S1132D60F64F8081871709F467C0872F8F5F8093A0
S1132D70D40580831DC000E010E080E090E0C0EF47
S1132D80D8E0E7E1F9E0DF01682F9C0188819981AF
S1132D908417950779F420935F029091D4058C9160
S1132DA0891709F449C0892F8F5F8093D4058C93C8
S1132DB000E829C08081972F981B091710F4092F68
S1132DC0122F6F5FC90101961196229631968530B4
S1132DD09105D1F66530B9F410935F02A12FBB279A
S1132DE0FD01EE0FFF1FE051F74F518340838091A7
S1132DF0D4058F5F8093D405FD01E95EF64F80838F
S1132E00A75CB64F1C929091D405892F8F778F378A
S1132E1079F40F3768F0E7E1F9E0292F2078808111
S1132E208F6789132083319639E0EC31F307B9F7C2
S1132E3080915F02282F3327F5019281A22FBB27AF
S1132E40FD01E75CF64F808180FF07C0FD01E65A73
S1132E50F94F8081981729F102C081608083A65AB6
S1132E60B94F9C93CFB6F894809174048330B0F436
S1132E70E0915502E80FE33008F0E350FF27EE0F2E
S1132E80FF1FEA5BFD4F00811181F182E0828F5FB9
S1132E908093740486E00E94860278018C2D992721
S1132EA08FBFF0925302E0925202C3C0892F815027
S1132EB0833008F09CC081508230E0F430911209D4
S1132EC03130C1F420E08091E103882309F421E04A
S1132ED0222381F02F9883E080935F063093E103EF
S1132EE080918400909185006BE273E00E94E50577
S1132EF082E068C0933009F042C0809112098330A7
S1132F0009F097C00E948D058823C9F128988FE89D
S1132F108EBD0DB407FEFDCF8EB51EBC0DB407FEED
S1132F20FDCF8EB5289A80918100806480938100C2
S1132F3080E286BB80916F00806280936F009091E5
S1132F409C02289888EC8EBD0DB407FEFDCF8EB58B
S1132F5090669EBD0DB407FEFDCF8EB5289A2898C5
S1132F6082EC8EBD0DB407FEFDCF8EB586E08EBD1E
S1132F700DB407FEFDCF8EB5289A84E023C080915E
S1132F8043028150823000F5809112098530E1F4CA
S1132F900E948D058823C1F0289882EC8EBD0DB463
S1132FA007FEFDCF8EB583E08EBD0DB407FEFDCFC9
S1132FB08EB5289A80916F008F7D80936F00109258
S1132FC0E50883E08093120990914302913041F423
S1132FD0809112098330B1F52F9A9093120925C07C
S1132FE0923039F580911209833061F51EC0973013
S1132FF001F50E948D058823E1F090919C022898A8
S113300088EC8EBD0DB407FEFDCF8EB590669EBDD7
S11330100DB407FEFDCF8EB5289A80911209853034
S113302021F484E08093120904C088E08093430271
S113303004C080914302883029F41092430284E052
S11330400E94860280914302882331F580911209FF
S11330508530F9F48091E5088823D9F480913B0305
S11330608823B9F480911609882399F490E080911B
S1133070E103882309F491E0992359F080914202F5
S1133080813039F485E00E948602809143028823CE
S113309019F480E00E940B118091E103823009F061
S11330A098C01092E103C0905F06F2E0CF1609F4D5
S11330B06CC023E0C21609F470C031E0C31609F0F5
S11330C088C02091F9023091FA0280918400909195
S11330D0850040911609403859F4109216098091E0
S11330E04202813009F075C085E00E94860271C0F9
S11330F08901081B190B47FF03C010161106ECF0D9
S1133100C0913903D0913A0380913B038823A9F4F9
S1133110CE010E9446069927882351F488A98E7F00
S113312088ABC0923B03D0932404C093230429C0EA
S11331309927F82E882329F102C095E0F92E2091D1
S11331401609822F99278F77019759F420782260E6
S11331502093160980E198E00E94BC070E94FD10AC
S113316038C027FF0AC0101611063CF480E880938B
S11331701609C8010E94FD1002C0109216098F2D75
S113318009C083E08093160924C010923B03109277
S1133190160980E00E940F061CC08091120982303B
S11331A019F4C092120913C080914302863079F455
S11331B010924302289881E88EBD0DB407FEFDCF1E
S11331C08EB51EBC0DB407FEFDCF8EB5289A0E94A5
S11331D01F198FB7F894282F3327809199028130D3
S11331E061F081E0809399022FBF31CB289A85E06A
S11331F0809312091092430225CF109299022FBF97
S1133200DF91CF911F910F91FF90EF90DF90CF90BE
S1133210BF90AF9008958FB7F894282F33278091EB
S11332209902815080939902803811F02FBF08953C
S113323081E0809399022FBF0E941D1408958FB7D7
S1133240F894282F332780919902882329F08068E5
S1133250809399022FBF089581E0809399022FBF34
S11332600E941D14089578941F920F920FB60F9226
S113327011242F933F934F935F936F937F938F9377
S11332809F93AF93BF93EF93FF93809184009091AA
S1133290850020918600309187008FB7F894992794
S11332A03093E0032093DF0321E02093E5088FBFF0
S11332B00E941F19FF91EF91BF91AF919F918F9140
S11332C07F916F915F914F913F912F910F900FBE1E
S11332D00F901F90189578941F920F920FB60F922B
S11332E011242F933F934F935F936F937F938F9307
S11332F09F93AF93BF93EF93FF9380916F008D7F64
S113330080936F0078949FB7F8948091E1038130A3
S113331019F482E08093E103892F99278FBF0E94DB
S11333201F19FF91EF91BF91AF919F918F917F9161
S11333306F915F914F913F912F910F900FBE0F901E
S11333401F9018952FB7F89433278091E703809343
S11333500A0282E080931D022FBF80910A02882313
S113336009F07EC0209A289A80911209882309F0D6
S113337075C08EEF91E0019701960197E1F71698D9
S11333802F9886E090E0019701960197E1F7169A4D
S1133390289883EC8EBD0DB407FEFDCF8EB51EBC00
S11333A00DB407FEFDCF8EB5289A289882EC8EBD09
S11333B00DB407FEFDCF8EB588E08EBD0DB407FEBB
S11333C0FDCF8EB5289A8EEF91E001970196019773
S11333D0E1F728988EEC8EBD0DB407FEFDCF8EB5B7
S11333E08DE48EBD0DB407FEFDCF8EB5289A2898C6
S11333F089EC8EBD0DB407FEFDCF8EB587EC8EBD76
S11334000DB407FEFDCF8EB5289A289885EC8EBDA5
S11334100DB407FEFDCF8EB580E88EBD0DB407FE5A
S1133420FDCF8EB5289A109227048BE080939C02DE
S1133430289888EC8EBD0DB407FEFDCF8EB58BE6C3
S11334408EBD0DB407FEFDCF8EB5289A2F9A81E06C
S11334508093120980E00E940B1108950E941F19A5
S113346008951F938FB7F8949927209199022F5F9D
S1133470209399028FBF80914202882311F015E0B6
S113348023C0809143028823E1F4809112098130A2
S113349049F490E08091E103882309F491E09923B1
S11334A081F005C0853019F489E090E00CC083E018
S11334B0809343020E941F1984E08093420210E02B
S11334C003C085E090E0182F0E940B19812F9927E3
S11334D01F910895E1ECF0E080818F7B80838081EF
S11334E08F7780831092D505109231038081886094
S11334F080838081806180838081806880830E9452
S1133500311A0895AF92BF92CF92DF92EF92FF9259
S11335100F931F93CF93DF9310922302C0909402D2
S1133520D0909502A0904003B09097028FB7F89482
S1133530E82E80911F02833009F040C080910B0275
S11335408B15E1F580910205882309F09FC095C091
S1133550EF2DE695E695E695FF274F2D5527EE5F6F
S1133560FA4F9A012770307081E090E002C0880F12
S1133570991F2A95E2F78095208128232083C09300
S11335801E0211C02196C130D10511F4C0E0D0E073
S1133590FC2E8C2F0E9468088823D1F6C017D1070F
S11335A089F74FEF50E0409360068FEF80930B0252
S11335B081E080931F028AE00E948602EFBEBB2056
S11335C009F06AC0AA2009F067C080911A02882312
S11335D009F062C0CBE0D6E064E0CE010E947A0438
S11335E0FC0180910002909101028383892F992725
S11335F08283C1828D2D992780838091380281FF37
S11336004BC06CE0CE010E94080568E0CE010E9428
S11336102303FC0180910002909101028583892F8C
S113362099278483809154028F5F80935402815040
S113363086838EEE87831182E0910E09F0910F0943
S1133640309751F1D183C08312828EE18383CF01FD
S11336500E947C08882301F58091380282FF05C00E
S113366084FD03C087E10E94860210920F09109224
S11336700E0981E080931A020FC081E080930B024F
S113368010921F02809320028CE096CF80911E023C
S1133690082F1127E80176CFDF91CF911F910F9169
S11336A0FF90EF90DF90CF90BF90AF90089568E0C7
S11336B00E942303FC0184819927982F8827258160
S11336C03327822B932B089568E00E942303FC0187
S11336D087819927089568E00E942303FC01818172
S11336E09927089568E00E942303FC0186819927A5
S11336F0089568E00E942303FC0184819927982F90
S1133700882725813327822B932B0895BF92CF924C
S1133710DF92EF92FF920F931F93CF93DF937C017D
S1133720B0904C02D0905D04CC2428C00D2D0370C1
S11337301127C7010E94791BE801CC0FDD1FCC0FB4
S1133740DD1FC00FD11FC058DD4F2881398182177A
S1133750930791F4C7010E94721B9A81981761F430
S1133760C7010E946B1B9C81981731F4C7010E940A
S1133770641B9B81981721F0C394D394CB14B1F6A6
S11337808C2D9927DF91CF911F910F91FF90EF908E
S1133790DF90CF90BF900895AF92BF92CF92DF9207
S11337A0EF92FF921F93CF93DF935C01FC01828120
S11337B0882359F4B0920F09A0920E0982818823BC
S11337C009F088C010921A0285C0442309F47AC013
S11337D0F501C080D18080914C02843009F046C04C
S11337E0C6010E94861B20914C02622F0E94622D0A
S11337F0492F9217D8F5992359F480915D0499279C
S1133800019664E070E00E94822D80935D0429C0DB
S113381080915D04840F912D911D9C012370307063
S1133820E901CC0FDD1FCC0FDD1FC20FD31F0196A2
S113383064E070E00E94822DFC01EE0FFF1FEE0F8A
S1133840FF1FE80FF91FC058DD4FE058FD4F85E01A
S1133850019009928150E1F74F5F80914C02481723
S1133860B8F280914C02815080934C0210914C022A
S113387080915D04810F912D911D837090707C0166
S1133880EE0CFF1CEE0CFF1CE80EF91E80E892E023
S1133890E80EF91EC6010E94791BF701918380830B
S11338A0C6010E94721BF7018283C6010E946B1B32
S11338B0F7018483C6010E94641BF70183831F5FA1
S11338C010934C02F501808191810E940704C50187
S11338D00E942604DF91CF911F91FF90EF90DF901B
S11338E0CF90BF90AF9008951F93CF93DF93162F7F
S11338F0C0E0D0E068E00E942303FC0180818123C2
S1133900811711F4C1E0D0E0CE01DF91CF911F9176
S11339100895AF92BF92CF92DF92EF920F931F93CD
S11339205B016C010E94DB02AB01BC01E1E0EE2E05
S11339309601850184E00E94B7021F910F91EF90D8
S1133940DF90CF90BF90AF900895CF92DF92EF9227
S1133950FF920F931F936C017B010E94F801DC011D
S1133960CB01B6010E946E2DE80EF91E0027112727
S1133970C801B7010E94891C1F910F91FF90EF901D
S1133980DF90CF9008950F931F93CF93DF93EC01B3
S1133990E0913902FF27EE0FFF1FEB53F74F008131
S11339A01181662329F06CE170E08CE190E02FC076
S11339B08091380283FF3DC088A980FD3AC08F8181
S11339C09927982F88272E813327822B932B0E94A7
S11339D0AC01982F8F3F71F08EE0989FF001112475
S11339E0EB58FB4F85858F5F8587853018F0CF01B5
S11339F00E94C8038AE10E948602F80183818150F3
S1133A008383882339F067E070E087E090E00E94C8
S1133A10A51C3FC00E94E303809138028F7E8093EF
S1133A20380267E070E087E090E00E94A51C40E067
S1133A302CC00E94E303809138028F7E8093380269
S1133A4067E070E087E090E00E94A51C8F819927D1
S1133A50982F88272E813327822B932B0E94AC0129
S1133A60982F8F3F89F08EE0989FF0011124EB5836
S1133A70FB4F84858F5F848785858F5F858785303D
S1133A8018F0CF010E94C80341E0BE01C8010E94A2
S1133A90CC1BDF91CF911F910F910895282FCB015B
S1133AA0222319F0213071F404C0642F0E94C31C36
S1133AB008956C5F724031F480914002882311F0C4
S1133AC0109240020895AF92BF92CF92DF92EF928C
S1133AD0FF920F931F93CF93DF93D82E5B01C42ED5
S1133AE0E82FFF27EE0FFF1FE859FB4F11821082CA
S1133AF0809114029927019662E070E00E94822D61
S1133B00682F8093140200E0462F5527FA01EE0F28
S1133B10FF1FE859FB4FC081D181209799F0E62F10
S1133B20E695E695E695FF27E85FF64F80819927AD
S1133B309A012770307002C0959587952A95E2F70F
S1133B4080FF0DC0CA01019662E070E00E94822DE0
S1133B50682F0F5F0230C1F6009314021FC06093F8
S1133B6014026230D8F4E88083EFE80EFF240F815A
S1133B701127102F00278E819927082B192BCE018E
S1133B800E943903FC012E2DAE01B80180810E94F0
S1133B902412882319F089E10E948602DD2021F095
S1133BA081E0D81689F405C06C2DC5010E94C31CA0
S1133BB00BC08CEFA81682E0B80631F48091400265
S1133BC0882311F010924002DF91CF911F910F9141
S1133BD0FF90EF90DF90CF90BF90AF900895462F65
S1133BE020911402223070F4E22FFF27EE0FFF1F02
S1133BF0E859FB4F608171816817790719F4822FA6
S1133C000E94631D08951F93CF93DF93182FC091D3
S1133C105602D09157021092570210925602809188
S1133C200B058D7F80930B058091F7029091F8022C
S1133C3099A788A78A858F33A9F480E00E9463033B
S1133C4080911402823070F4E82FFF27EE0FFF1FDB
S1133C50E859FB4F608171816C177D0719F4412F7E
S1133C600E94631DDF91CF911F9108959F92AF929F
S1133C70BF92CF92DF92EF92FF920F931F93CF9355
S1133C80DF93CDB7DEB722970FB6F894DEBF0FBE31
S1133C90CDBF8091380284FDDFC090E080913B026B
S1133CA0882309F491E0992309F0D6C080914D024C
S1133CB0882359F420E08091E6089091E7088F5F0B
S1133CC09F4F09F021E0222331F0CE0101960E949A
S1133CD04504882339F060E177E280E090E00E94B7
S1133CE0891CBAC0E0913902FF27EE0FFF1FEB5386
S1133CF0F74FC080D180F60100811181C8010E9474
S1133D007004982EA090E608B090E708C8010E94BD
S1133D10861B20E090914C02891708F421E02223AD
S1133D2059F00E94E303F601808191810E94070407
S1133D30C6010E9426048DC080914D02F601E080E8
S1133D40F180882389F168E0C7010E942303FC0104
S1133D500781A091E803B091E903F70183E301909F
S1133D600D928150E1F7E090E803F090E903C70178
S1133D700E9470040E3E69F48850082F1127602FAA
S1133D80C7010E947A04402FBC01C7010E94950418
S1133D907C01F092E903E092E80360E0F60180819F
S1133DA091810E94C31C58C009811A8168E0C7012F
S1133DB00E942303FC010383012F1127028368E07F
S1133DC0F601808191810E942303FC0180818F731D
S1133DD0808361E0F601808191810E943B038091A0
S1133DE0380288608093380280FF0FC068E0F601D3
S1133DF0808191810E942303FC01808180648083FF
S1133E00809138028E7F80933802F60100811181FF
S1133E10F801A6828B2D99278783C8010E94390354
S1133E20FC0181E78083492DB80180E00E94C4121F
S1133E309927882331F48091380280618093380275
S1133E400BC0823049F46CE1F601808191810E94BB
S1133E50080587E10E94860222960FB6F894DEBF19
S1133E600FBECDBFDF91CF911F910F91FF90EF90C7
S1133E70DF90CF90BF90AF909F900895AF92BF9284
S1133E80CF92DF92EF92FF920F931F9380911602CD
S1133E9090911702A0911802B0911902B695A795B6
S1133EA0979587958093F2029093F302A093F4027E
S1133EB0B093F5020E94F801E090F202F090F30250
S1133EC00091F4021091F502A80197010E94952D2A
S1133ED05B016C01AE0CBF1CC01ED11EA092F2028D
S1133EE0B092F302C092F402D092F5021092DF086D
S1133EF080911D058D7F80931D050E94DB02AB011F
S1133F00BC01E1E0EE2E9601850182E00E94B70239
S1133F101F910F91FF90EF90DF90CF90BF90AF90E3
S1133F20089580E890E0A0E0B0E0809316029093BA
S1133F301702A0931802B09319020E943E1F08951D
S1133F40AF92BF92CF92DF92EF92FF920F931F93A3
S1133F50CF93DF935B016C01C0E0D0E0E3E0F5E0D8
S1133F607C2F608561FF19C1208131814281538199
S1133F70E480F58006811781D601C501821B930B6D
S1133F80A40BB50B8E159F05A007B10708F405C156
S1133F9060FF03C06D7F608708C02E0D3F1D401F6A
S1133FA0511F2083318342835383723009F457C0F5
S1133FB0733030F4772371F0713009F0F4C013C01A
S1133FC0743009F4B9C0743008F4A8C0753009F02D
S1133FD0EAC0B9C08091560290915702892B09F426
S1133FE0E2C081E0A6C09FB7F89420911F0222236B
S1133FF019F421E030E00FC080910B02813019F0F8
S113400020E030E008C040E050E02150223010F4BD
S113401041E050E09A01892F99278FBF222309F4A8
S1134020C2C08FB7F894082F1127902F80910B02EC
S1134030813099F480911F02813021F48AE00E943A
S1134040860209C0823049F48091600680930B0295
S113405083E080931F020FBFA6C09FBFA4C08091BE
S11340603E02882309F49FC080913F02882309F40B
S11340709AC08091DF08882349F58AE10E9486026C
S11340808BE10E948602A0901602B0901702C090A5
S11340901802D09019028091F2029091F302A0913B
S11340A0F402B091F502A81AB90ACA0ADB0A81E03F
S11340B08093DF080E94DB02AB01BC0101E0E02E2B
S11340C09601850182E00E94B7026DC080911602BC
S11340D090911702A0911802B0911902880F991FAC
S11340E0AA1FBB1F8093160290931702A093180275
S11340F0B09319028150904DA740B04060F080E029
S113410090EDA7E0B0E08093160290931702A0937D
S11341101802B09319020E943E1F45C080913E02CE
S1134120882309F440C080913F02882309F43BC0EE
S11341308AE10E94860237C0809138028F7E809384
S1134140380287E1F6CF2FB7F894332782B191E094
S1134150892782B92FBF8FB7F894C82FDD278091A4
S11341601F02882371F490931F0210926006CFBF40
S113417080912002882311F48BE0DBCF90932102FD
S113418012C080E00E946808882329F48091020507
S1134190816080930205CFBF06C021963996C63050
S11341A0D10509F0DDCE83E00E948602DF91CF9134
S11341B01F910F91FF90EF90DF90CF90BF90AF9041
S11341C00895DF92EF92FF920F931F938091420222
S11341D010924202843009F07BC091E0D92ED09233
S11341E03E0280913F028823C1F00E94F8017B01C6
S11341F08C018FEF9FE1E822F9220E94DB02AB01E0
S1134200BC0180E090E1E80EF91E870122273327E4
S113421081E0E82E82E00E94B70280913802846037
S11342208093380290E080913B02882309F491E066
S1134230992319F487E10E948602809138028260F2
S11342408093380280913F028823B9F4D0923F02D0
S113425080E890E0A0E0B0E080931602909317020B
S1134260A0931802B09319020E943E1F40E050E24E
S113427060E070E083E00E949C0A809100029091CB
S113428001020197E9F44091E6085091E7082FB73D
S1134290F8943327D0924D02809158069091590694
S11342A09093E7088093E6081092E9081092E808D2
S11342B02FBF4F5F5F4FD1F487E10E94860216C083
S11342C040ED57E060E070E085E00E949C0A0EC07B
S11342D0853041F410923E02809138028B7F8093A6
S11342E0380204C0863011F0809342021F910F916E
S11342F0FF90EF90DF9008952F923F924F925F923C
S11343006F927F928F929F92AF92BF92CF92DF92E1
S1134310EF92FF920F931F93CF93DF93CDB7DEB746
S113432022970FB6F894DEBF0FBECDBFE82FFF274C
S1134330EC31F10510F00C943A29EA59FF4FEE0FD5
S1134340FF1F0590F491E02D0994809108098823BA
S113435009F056C60C943A292FB7F8943327809164
S11343609D028093070282E080931C022FBF8091FC
S11343700702882311F00C943A2980919E029091AF
S11343809F020E94F511082F1127002311F40C94A9
S11343903A290E94AC03602F80919E0290919F0263
S11343A00E94EF1D0C943A29E0915602F0915702B5
S11343B080A591A5892B19F0CF010E945D038091FE
S11343C05602909157020E94DE11882311F40C9436
S11343D03A2909C180919602882361F52091FB084E
S11343E03091FC084091FD085091FE08EFB7F89415
S11343F0FF2760914E0270914F028091500290917C
S11344005102E0900A09F0900B0900910C091091F7
S11344100D096E0D7F1D801F911FEFBF2093FB08B8
S11344203093FC084093FD085093FE0810929602C6
S11344300E94460B0E94DB0243C00E94DB025B0128
S11344406C018FB7F8949927109233038FBFBFEF95
S1134450EB2EBFEFFB2EBFEF0B2FBFE71B2F60E050
S1134460E3E0F5E0808581FF1CC080819181A28119
S1134470B381A6019501281B390B4A0B5B0BDA01AA
S1134480C9012481358146815781281B390B4A0B88
S11344905B0B2E153F05400751071CF479018A0177
S11344A061E0399635E0E933F307E1F6662309F470
S11344B0E1C61E141F04100611062CF0C601B50136
S11344C00E94A01FD7C6E092FB08F092FC0800935C
S11344D0FD081093FE0881E080939602A8019701DD
S11344E0C601B5010E94460BC5C60E94E120C2C6A2
S11344F08FB7F894992710917E028FBF8091420262
S1134500823011F4112339F0809125048F5F809358
S11345102504863020F083E0809342023CC08FB7AC
S1134520F8949927209199022F5F209399028FBFC5
S11345302091090630910A06809116098823D1F446
S113454090E08091E103882309F491E0992391F0AC
S113455030933A032093390381E08093160986EB64
S113456093E20E94BC070E94FD1082E08093420205
S113457010E00AC080912504853011F483E001C065
S113458081E08093420215E00E940B19809142025F
S1134590833009F06FC610924202E0910906F0914F
S11345A00A062091F7023091F8022F5F3F4F3093B3
S11345B0F8022093F70280A980FF02C080E017C0B0
S11345C0E0915602F091570280A591A5281739076A
S11345D068F4CF010E94980A009729F0AC0166277D
S11345E0772780E0D6C30E94AD0244C6812F0E9483
S11345F0031E40C68FB7F894282F33278091740484
S1134600882309F436C6E0915502FF27EE0FFF1FF9
S1134610EA5BFD4FE080F1802FBFF70182858F3385
S113462009F0C6C2C7010E943903FC017081D70199
S11346306D913D01F701878126819927582F4427E1
S11346403327422B532B8FB7F894992720910202DA
S1134650309103028FBF4217530721F04F5F5F4F22
S113466009F0EFC5062F0D50703721F0713709F0AE
S1134670A3C273C1F701878126819927982F8827C0
S11346803327822B932B8F5F9F4F09F090C0C70174
S11346900E942E036C01F701818520859927B82E8D
S11346A0AA243327A22AB32AD6010C910E94140902
S11346B0C5010E94AC018F3F21F0F601618177278B
S11346C00CC00E94CC09182F8F3F51F0B5010E94F5
S11346D0DE09F60161817727812F0E9415091CC02C
S11346E087E30E94F309182F8F3F09F45EC09927CE
S11346F0880F991FFC0153E0EE0FFF1F5A95E1F755
S1134700E81BF90BEB58FB4F808191810E943C0A16
S1134710B501812F0E94DE094FE0942E902209F406
S113472044C0C7010E947E0A182F682FC7010E9447
S11347302303810F911D8C0183E0989EC0011124F5
S1134740081B190B8FB7F8949927409002025090D8
S113475003028FBFDD2483E0D89EF0011124E00F13
S1134760F11F808121819927982F88273327822B55
S1134770932B84159505B1F4C280C5010E94AC0148
S11347808F3F81F09927880F991FFC01B3E0EE0F4A
S1134790FF1FBA95E1F7E81BF90BEB58FB4FC186F5
S11347A086E08783D394D914B1F60E941409C70113
S11347B00E94C011853009F0FFC1F301D0849780B5
S11347C065E0C7010E9432038C0160E4C7010E94C6
S11347D0830A882E58010894A11CB11CF801818118
S11347E015010894211C311CF50121819927982F6A
S11347F088273327822B932B8F5F9F4F09F4A3C005
S11348008D2D9927D82ECC24892D9927C82AD92AC9
S1134810E3E04E2E512C400E511EF801838174E0CA
S1134820672E712C600E711E24819927982F88277A
S11348303327822B932B892B49F5C6010E94AC01A7
S11348408F3F09F50E94CC098F3F11F0B60119C0C2
S113485080E00E94F309182F8F3FA9F09927880F51
S1134860991FFC0143E0EE0FFF1F4A95E1F7E81B97
S1134870F90BEB58FB4F808191810E943C0AB601F1
S1134880812F0E94DE09C6010E94DE01D2019C90A4
S1134890F3017080D501BC90F101A080C6010E9493
S11348A0C4018C01C6010E941C0AE82F8A3009F455
S11348B046C0892D9927782F6627872D9927682B3D
S11348C0792B8B2D9927582F44278A2D9927482BEC
S11348D0592B80915902E817F1F40233110578F548
S11348E02FB7F8943327FF27B3E0EE0FFF1FBA95D5
S11348F0E1F7EF55FD4FD182C08253834283758324
S1134900648381E086831782809159028F5F80934C
S113491059022FBF14C08FB7F8949927FF27A3E03B
S1134920EE0FFF1FAA95E1F7EF55FD4FD182C0822C
S1134930538342837583648321E026838FBF682D6C
S1134940C6010E94ED1360E8C7010E94830A882310
S113495009F432C10E94911F2FC1C7010E94641B38
S1134960982EC7010E946B1B182F1F5FC7010E945E
S11349702A033C01FC0111830D3108F01DC1C7015C
S11349800E94861B20E090914C02891708F421E0D4
S1134990222309F011C120913B02822F9927A82ECE
S11349A0882309F43EC0B0903902B20E37C0FCE04F
S11349B0FB1510F0EB2D02C0EB2DED50FF27EE0F91
S11349C0FF1FEB53F74F0190F081E02DC080D180A1
S11349D0C6010E94791B8C01C7010E94791B08172C
S11349E01907E1F4C6010E94721B182FC7010E9427
S11349F0721B181799F4C6010E946B1B182FC7016C
S1134A000E946B1B181751F4C6010E94641B182FD7
S1134A10C7010E94641B181709F4CEC0BA94AA9463
S1134A2031F680914D02882399F0C7010E947504E4
S1134A30182F2EEE921609F0BFC0682FC7010E94EE
S1134A407A04412FBC01C7010E9495047C01B4C0C3
S1134A5080E020915C04222309F481E0882309F09A
S1134A60ABC090912804992309F481E0882309F0CC
S1134A70A3C0992309F4A0C080910909E82FFF2756
S1134A80EE0FFF1FE35EF64F008111811182108249
S1134A909150909328048F5F809309098C3011F40E
S1134AA0109209090115110509F486C0222309F49D
S1134AB083C080914303E82FFF27EE0FFF1FE05CC4
S1134AC0F94FC080D18011821082215020935C0460
S1134AD08F5F809343038C3011F410924303C1140D
S1134AE0D10409F469C083E3D6011D928A95E9F7DC
S1134AF0E8E2F0E0EE0EFF1E8BE0D7011D928A95EE
S1134B00E9F7E8EDFFEFEE0EFF1ED801ED92FC92FF
S1134B108FEFF80182838EE18383C8010E947C08B1
S1134B20882321F5CE0101960E9445048823B1F41F
S1134B30F301828123819927982F88273327822B99
S1134B40932B29813A812817390740F00E94911F3D
S1134B506CE170E08CE190E00E94A51C80912F052F
S1134B6081FD02C00E94D602760126C0C6010E94C1
S1134B700704C8010E9426041FC0F701118500859F
S1134B8060E8C7010E94741C882311F00E94911FE1
S1134B9060E4C7010E94741C682F812F9927982F05
S1134BA08827202F3327822B932B0E94ED1304C0D8
S1134BB08FB7F89499278FBF9FB7F89480915502C7
S1134BC0E82FFF27EE0FFF1FEA5BFD4FF182E08223
S1134BD08F5F80935502833010F0109255028091BC
S1134BE07404815080937404892F99278FBF02CD58
S1134BF00E9481022FB7F894332790939B028093ED
S1134C009A0237C38FB7F89499271092A00510928F
S1134C109F051092110910921009109245021092EA
S1134C204402109267041092660497C00E94A2196D
S1134C3021C32FB7F89433278091600680930B0229
S1134C4083E080931F022FBF10910B028FB7F8945B
S1134C50282F3327922F80910C02882359F48091B6
S1134C602502833039F42FBF80912302882309F071
S1134C7001C302C09FBFFEC282E08093260410924B
S1134C8007090E949B0881E08093230210939702F6
S1134C90F1C20E946111EEC280912202813009F0BA
S1134CA0E9C275986D988DE054C18FB7F894C82EF9
S1134CB080912502833009F040C080910C02882342
S1134CC0E1F580915A02882309F0CAC2BEC2ED2DD3
S1134CD0E695E695E695FF274D2D5527E65AFD4FB7
S1134CE09A012770307081E090E002C0880F991F0C
S1134CF02A95E2F7809520812823208300932402BB
S1134D0012C00F5F1F4F0130110511F400E010E0D5
S1134D10D02E802F0E9454088823C9F60E151F0533
S1134D2081F74FEF50E0409338038FEF80930C02EC
S1134D3081E0809325020E94B202CFBE109222022B
S1134D4080912102813011F40E9461118FB7F8948F
S1134D50992710922102109220028FBF8BC20E94C9
S1134D60821A88C22FB7F89433278091380380932E
S1134D700C0283E0809325022FBF80910C028823CC
S1134D8009F078C26D9A759A4AE050E060E070E0EC
S1134D9081E00E9404036EC2109226046BC28FB796
S1134DA0F894109215092091080640E0283009F47F
S1134DB041E030E0293009F431E0442311F4332395
S1134DC051F010920806E0910105FF27EE0FFF1F36
S1134DD0E451FC4F108299278FBF442311F43323ED
S1134DE019F1809106098F5F809306098091E6038B
S1134DF08334A1F49FB7F89420915F0480915E04FA
S1134E00821741F0822F8F5F80935F04863010F009
S1134E1010925F04892F99278FBF0AC0A0E0442312
S1134E2009F4A1E071E006C0222311F010E069C08A
S1134E30A0E070E08FB7F8949927209126028FBFE5
S1134E40222341F08FB7F89499272AE0209308068B
S1134E508FBF43C08FB7F89499276091EC034091BA
S1134E60EE038FBF8FB7F894282F332750E090912B
S1134E705E0480915F04981709F451E02FBF552315
S1134E8049F5662339F55FB7F89482E08093EC0323
S1134E908FB7F894282F332740E090915E048091D7
S1134EA05F04981709F441E02FBF442311F080E018
S1134EB006C0E0915F04FF27E25AFB4F8281809392
S1134EC0ED03852F99278FBF83E48093E603109227
S1134ED001050BC04150423010F010E007C085E4DA
S1134EE08093E60381E08093010511E0772349F084
S1134EF08FB7F8949927A0932F028FBF85E10E9462
S1134F008602809108068A3009F4B0C1112309F49D
S1134F10B1C12FB7F894332710923609109235098E
S1134F201092E20381E0809308062FBF0E94440898
S1134F30882309F49FC18FB7F894992729E0209317
S1134F4008068FBF0E94810495C10E946A1A92C10B
S1134F5084E10E9486028EC18091C100877F809384
S1134F60C1008091C1008F7E8093C10083C11092E3
S1134F702C0210922B028FB7F89499278FBFE091DF
S1134F802902F0912A0280913102882309F072C12A
S1134F908385893809F06EC1109AEB50F64009F008
S1134FA069C18FB7F894992722B132E0232722B937
S1134FB08FBF10921B025EC18FB7F894992720917E
S1134FC0340230913502409158028FBF8FB7F89464
S1134FD0E42FFF27EE0FFF1FE25FFD4F3183208395
S1134FE020912702442311F02B7F01C02D7F2093B1
S1134FF02702109232029927B0CE0E94361E3AC17F
S1135000E1E0DE2EEE24FF2408E614E09091080986
S11350108D2D892379F0D8016D917C9111971D9282
S11350201C928D2D809598239093080943E08E2D32
S11350300E944E1D0894E11CF11C0E5F1F4FB8E046
S1135040EB16F10409F416C1DD0CE0CF80911402D3
S1135050E82FFF27EE0FFF1FE859FB4F6081718196
S113506041E00E94631D06C180914D02882309F02E
S113507001C1AA24BB246FEFE62EF62E5FEF652E46
S1135080752ECC24DD2449C0022F112743E0000FE4
S1135090111F4A95E1F70F551D4FF8012281338105
S11350A0FFEF2F3F3F07B1F18091580690915906C9
S11350B02817390779F1D8018D919C910E94C40178
S11350C0BC01F80144815581480F591F2081318169
S11350D08091E6089091E7082817390779F48FB78B
S11350E0F8949927248135813093E9082093E808BE
S11350F027812093EB088FBF3A010CC0F801878108
S1135100882341F46233710528F44E155F0510F4C9
S113511058017A010894C11CD11C2C2D809159028C
S1135120C81608F4B1CFFFEFEF16FFEFFF0609F43E
S113513072C02FEF62162FEF720691F08091EB0888
S1135140882341F08091E8089091E9080A96E816CE
S1135150F90630F0C7010F968615970508F05BC075
S11351608091020990910309A0910409B091050965
S11351700196A11DB11D8093020990930309A09388
S11351800409B09305098091E6089091E7080E940C
S1135190AC018F3F81F09927880F991FFC0123E010
S11351A0EE0FFF1F2A95E1F7E81BF90BEB58FB4FB5
S11351B08581877F8583D5018D919C910E94DE0135
S11351C0F501808191810E94AC018F3F41F0EEE0B6
S11351D08E9FF0011124EB58FB4F158614862FB7D0
S11351E0F8943327D5018D919C919093E70880938F
S11351F0E608F501848195819093E9088093E80895
S113520087818093EB082FBFC3018E199F094597AF
S113521010F00E94911F80914102882361F4FFEFF6
S11352206F16FFEF7F0639F42FEFE2162FEFF20629
S113523011F00E94D602109241021CC00E94151364
S113524019C0713709F0B8CC98CC81E080930C0276
S11352501092250280917A008F7780937A006DCD29
S113526080912402E82EFF2487014BCD0E94DF07A2
S113527001C02FBF22960FB6F894DEBF0FBECDBF7C
S1135280DF91CF911F910F91FF90EF90DF90CF901E
S1135290BF90AF909F908F907F906F905F904F9052
S11352A03F902F9008958091FF088F3FB1F0282FF1
S11352B03327F901E05AFD4F80818093FF088F3F27
S11352C011F480931C098FEF80832F3F31F0822FDC
S11352D00E947C2181E090E0089580E090E00895B0
S11352E0FF920F931F93FFB6F8944CE150E06FEFD9
S11352F070E080E692E00E940D2E8FEF8093FF080D
S113530080931C0956985E9854985C9880916F001D
S11353108F7D80936F00209A289A279A2F980E9A4F
S1135320169A80EF93E09093530280935202109266
S113533041038AE58093F10281E08093810080E259
S11353408093B60083E08093B100809184009091B3
S113535085004AE720918400309185002817390799
S113536008F44150442311F0C901F4CF9091B200E4
S11353708091B2008917E1F3209184003091850077
S11353809091B2008091B2008917E1F3809184007A
S113539090918500821B930B409635E096958795F6
S11353A03A95E1F790930109809300091092B100B6
S11353B08091B10080938100809181008093B60038
S11353C01092B20010928500109284008FEF87BB78
S11353D087B386BB8091B6008571E1F70A9A099A72
S11353E0089A129A119A109A18B88FEF87B90C98E4
S11353F0149810929500109294008091710081602D
S11354008093710080919100887F826080939100E5
S113541010927A00109285001092840080916F009F
S1135420816080936F0080918100887F8260809387
S1135430810081E085BF0E9453298823E1F71092FF
S11354405D0410924C02EDE1F9E086ED95E0819364
S11354509193049629E0E533F207C9F78CE0809331
S1135460280410920909E0E4F6E081E696E08193CD
S11354709193C39626E0E835F207C9F78CE0809350
S11354805C041092430310923E0210923F02109269
S1135490020910920309109204091092050910924E
S11354A04D028FEF9FEF9093E7088093E6081092E8
S11354B0E9081092E8081092EA081092EB0810929A
S11354C059028FB7F8949927209102023091030270
S11354D08FBF30935906209358066AE18CEF92E00F
S11354E00E9432039093E4038093E30384E393E004
S11354F090930F0980930E0981EA95E09093E90354
S11355008093E8038FB7F894992720910202309191
S113551003028FBF30937D0220937C0210925402C9
S1135520EAE7F4E010823E9685E0E630F807D1F72A
S113553012E006E06091000970910109882799271B
S11355402CE0660F771F881F991F2A95D1F720E05A
S113555031EE40E050E00E94952D215030402093E0
S1135560C400832F99278093C5001093C000009333
S1135570C2001092C1002093CC008093CD00109300
S1135580C8000093CA001092C90084E490E090938C
S1135590ED088093EC081092EC031092EE03109245
S11355A008061092E2031092E60310920609109284
S11355B036091092350910921509109201051092BE
S11355C0E1081092E0081092FB0210923F0610923C
S11355D0FA0810923203109271041092700410921F
S11355E05F0410925E0410925A02109202058FEF2B
S11355F08093E50380E00E944205209100023091EF
S113560001022F5F3F4FC901AA27BB2780933C03A8
S113561090933D03A0933E03B0933F0386E493E04D
S11356209093470280934602C396909349028093D5
S113563048028CEA93E090934B0280934A02809153
S1135640B60080628093B6008091B60081FDFCCFE5
S113565082E08093B0008091B60080FDFCCF83E0AF
S11356608093B1008091B60083FDFCCF86EE8093D9
S1135670B300809170008260809370000E94BA0A27
S11356808FEF9FEF9093F1088093F0089093F308C5
S11356908093F2089093F5088093F4089093F708A8
S11356A08093F6089093F9088093F808809100029B
S11356B08295807F809342038FEF8093A0020E94A3
S11356C053298823E1F78F2D99278FBF789482E19E
S11356D00E9486028FB7F894482F552757C08091AF
S11356E07000992783709070892B19F4E5E0F0E03D
S11356F014C08091B6008A71E1F78091B300909153
S1135700B200891B8C3038F08091B200853F18F4C8
S1135710E3E0F0E002C0E2E0F0E080916E00867029
S113572009F580916F008E72E9F4809171008E7298
S1135730C9F40CB407FC16C08091C100807E91F4BA
S11357408091C900807E71F48091BC0082FD0AC002
S113575080917A0087FF03C081E090E005C085E076
S113576090E002C080E090E023B78E1708F4E82FA1
S1135770FF27EC5FFC4FE491207F2160E22BE3BF25
S113578078948895F89483B78E7F83BF8091FF08BF
S11357908F3F09F4A4CF282F3327F901E05AFD4F96
S11357A080818093FF088F3F11F480931C098FEF51
S11357B080832F3F09F493CF4FBF822F0E947C2117
S11357C089CFACE2B0E0E7EEFBE20C94D62D222EBA
S11357D0332E442E552E662E772E882E992EFE01BA
S11357E03196A8E01192AA95E9F729823A824B8270
S11357F05C826D827E828F829886FE013996B8E043
S11358001192BA95E9F7A986BA86CB86DC86ED862D
S1135810FE860F87188B89819A81AB81BC8189A709
S11358209AA7ABA7BCA77C018D018FEF9FEFA0E0E7
S1135830B0E0E822F9220A231B2389A59AA5ABA587
S1135840BCA51D014424552489859A85AB85BC8556
S11358508DA39EA3AFA3B8A75C016D018FEF9FEF4B
S1135860A0E0B0E0A822B922CA22DB228DA19EA129
S1135870AFA1B8A53D0188249924C801B701A601A8
S113588095010E94B72D69A37AA38BA39CA3C80199
S1135890B701A40193010E94B72D7B018C01C201C1
S11358A0B101A60195010E94B72D5B016C01C201F3
S11358B0B101A40193010E94B72D3B014C01EA0CF4
S11358C0FB1C0C1D1D1D89A19AA1ABA1BCA19D01AE
S11358D0442755272E0D3F1D401F511F2A153B05F8
S11358E04C055D0540F480E090E0A1E0B0E0680E76
S11358F0791E8A1E9B1ECA01AA27BB27860D971DE7
S1135900A81DB91D8D8F9E8FAF8FB8A3A901332712
S1135910222789A19AA1ABA1BCA1A070B070280FC5
S1135920391F4A1F5B1F298F3A8F4B8F5C8FA98CBD
S1135930BA8CCB8CDC8CED8CFE8C0F8D18A1FE0107
S1135940719698E011929A95E9F7ED8AFE8A0F8B89
S1135950188F2D813E814F8158856DA17EA18FA125
S113596098A50E94B72D3B014C012D853E854F859E
S1135970588969A57AA58BA59CA50E94B72D2D8968
S11359803E894F89588D260F371F481F591F260DF2
S1135990371D481D591D2D8B3E8B4F8B588F6D889D
S11359A07E888F88988C2A2D3B2D4C2D5D2D662D5D
S11359B0772D882D992DE2E1AC960C94F22DA0E17F
S11359C0B0E0E5EEFCE20C94D62D222E332E442ECC
S11359D0552E662E772E882E992E002309F466C044
S11359E088E0FE01319611928A95E9F729833A837A
S11359F04B835C836D837E838F829887E0E2E01B18
S1135A001E16CCF52D813E814F815885602F772756
S1135A1067FD7095DA01C901062E04C0B695A795F5
S1135A20979587950A94D2F78D879E87AF87B88B11
S1135A3004C0220F331F441F551FEA95D2F78981F2
S1135A409A81AB81BC8104C0B695A795979587953B
S1135A506A95D2F7282B392B4A2B5B2B29873A8757
S1135A604B875C8729843A844B845C846D847E8470
S1135A708F8498881BC01D861E861F86188A2E2F29
S1135A80332727FD3095309521953F4F8D819E8199
S1135A90AF81B88504C0B695A795979587952A9543
S1135AA0D2F789879A87AB87BC87DCCF222D332D29
S1135AB0442D552D662D772D882D992DE2E1609684
S1135AC00C94F22D991B79E004C0991F961708F0E5
S1135AD0961B881F7A95C9F780950895AA1BBB1B4E
S1135AE051E107C0AA1FBB1FA617B70710F0A61BDA
S1135AF0B70B881F991F5A95A9F780959095BC01FB
S1135B00CD01089597FB092E07260AD077FD04D00E
S1135B10E5DF06D000201AF4709561957F4F089553
S1135B20F6F7909581959F4F0895A1E21A2EAA1B2E
S1135B30BB1BFD010DC0AA1FBB1FEE1FFF1FA21739
S1135B40B307E407F50720F0A21BB30BE40BF50B36
S1135B50661F771F881F991F1A9469F760957095BF
S1135B60809590959B01AC01BD01CF010895629F82
S1135B70D001739FF001829FE00DF11D649FE00D41
S1135B80F11D929FF00D839FF00D749FF00D659FA2
S1135B90F00D9927729FB00DE11DF91F639FB00DA1
S1135BA0E11DF91FBD01CF01112408952F923F92E9
S1135BB04F925F926F927F928F929F92AF92BF9219
S1135BC0CF92DF92EF92FF920F931F93CF93DF93C5
S1135BD0CDB7DEB7CA1BDB0B0FB6F894DEBF0FBE22
S1135BE0CDBF09942A88398848885F846E847D846F
S1135BF08C849B84AA84B984C884DF80EE80FD8071
S1135C000C811B81AA81B981CE0FD11D0FB6F894E6
S1135C10DEBF0FBECDBFED010895DC0101C06D9361
S10D5C2041505040E0F70895FFCF13
S1135C2A0100010022FFFFFFFFFFFF0101FF390509
S10D5C3A6C0539050201800000002A
S9030000FC
