S01700006275696C642F697269732F6D61696E2E7372656343
S11300000C947B010C949A010C949A010C949A011F
S11300100C949A010C949A010C949A010C949A01F0
S11300200C949A010C949A010C949A010C949A01E0
S11300300C949A010C946E090C949A010C94A104EA
S11300400C9490120C94C8120C9477050C948205AD
S11300500C948D050C949A010C949A010C949A01B9
S11300600C94C2040C945E070C949A010C94E1075E
S11300700C949A010C949A010C949A010C943B09E7
S11300800C941A090C9425090C9430090C944E090B
S11300900C94FD080C949A010C940F090C949A0189
S11300A00C949A010C949A010C949A010C949A0160
S11300B00C949A010C949A010C949A010C949A0150
S11300C00C949A010C949A010C949A016813991354
S11300D0AF13E2132F143F14DA141415701584159A
S11300E060133B1649161F173F1741174C17541737
S11300F000002110422063308440A550C660E770A0
S1130100088129914AA16BB18CC1ADD1CEE1EFF147
S11301103112100273325222B5529442F772D662EF
S1130120399318837BB35AA3BDD39CC3FFF3DEE397
S11301306224433420040114E664C774A44485543F
S11301406AA54BB528850995EEE5CFF5ACC58DD5E7
S11301505336722611163006D776F6669556B4468F
S11301605BB77AA719973887DFF7FEE79DD7BCC737
S1130170C448E5588668A7784008611802282338DF
S1130180CCC9EDD98EE9AFF9488969990AA92BB987
S1130190F55AD44AB77A966A711A500A333A122A2F
S11301A0FDDBDCCBBFFB9EEB799B588B3BBB1AABD7
S11301B0A66C877CE44CC55C222C033C600C411C7F
S11301C0AEED8FFDECCDCDDD2AAD0BBD688D499D27
S11301D0977EB66ED55EF44E133E322E511E700ECF
S11301E09FFFBEEFDDDFFCCF1BBF3AAF599F788F77
S11301F08891A981CAB1EBA10CD12DC14EF16FE157
S11302008010A100C230E32004502540467067608E
S1130210B9839893FBA3DAB33DC31CD37FE35EF3A6
S1130220B1029012F322D2323542145277625672DE
S1130230EAB5CBA5A89589856EF54FE52CD50DC5F6
S1130240E234C324A014810466744764245405442E
S1130250DBA7FAB79987B8975FE77EF71DC73CD746
S1130260D326F2369106B01657667676154634567E
S11302704CD96DC90EF92FE9C899E9898AB9ABA996
S11302804458654806782768C018E1088238A328CE
S11302907DCB5CDB3FEB1EFBF98BD89BBBAB9ABBE6
S11302A0754A545A376A167AF10AD01AB32A923A1E
S11302B02EFD0FED6CDD4DCDAABD8BADE89DC98D36
S11302C0267C076C645C454CA23C832CE01CC10C6E
S11302D01FEF3EFF5DCF7CDF9BAFBABFD98FF89F86
S11302E0176E367E554E745E932EB23ED10EF01EBE
S11302F000020E060C0411241FBECFEFD1E2DEBFB4
S1130300CDBF12E0A0E0B2E0E8E4F8E300E00BBF08
S113031002C007900D92A431B107D9F714E0A4E10B
S1130320B2E001C01D92A438B107E1F70E941D1884
S11303300C94231C0C9400008FB7F894992708950B
S11303408FBF0895FC0187819927982F88272681DC
S11303503327822B932B0895FC0140E050E08281E7
S11303609927982F882721813327822B932B8774F1
S11303709C7C8154984811F441E050E0CA010895EE
S1130380CF93DF93FC01DC0111962181662351F0A8
S1130390ED0189819927982F882733272062822BA2
S11303A0932B09C0ED0189819927982F882733273A
S11303B0822B932B8F7D8183892F99278983DF91CA
S11303C0CF910895282F9FB7F894E82FFF27EE5B6D
S11303D0FD4F80818F3F81F4E0917A04E21771F43C
S11303E00BC02093650404C0FF27EE5BFD4F208300
S11303F020937A0420E007C025E005C080916504BD
S11304008F3F91F7EECF892F99278FBF822F99279E
S11304100895882319F08CB5806402C08CB58F7B55
S11304208CBD0895882319F08CB5806802C08CB502
S11304308F778CBD08950F931F9380E00E9409026B
S11304400FB7F8941127229A2398219A8CB58061CA
S11304508CBD80E00E9412028DB581608DBD8CB58B
S1130460877F8CBD8CB58B7F8CBD8CB58E7F8CBD0E
S113047081E00E9409020FBF1F910F9108958FB769
S1130480F8942091910330919203409193035091F9
S11304909403E0918400F0918500B09B08C02F5F25
S11304A03F4F4F4F5F4FE0918400F09185009927B3
S11304B08FBFC901772766279F0144275527622BE1
S11304C0732B842B952B0895FC0180A9826080AB4B
S11304D008958C960895FC0181819927807290700B
S11304E00895AC01EFB7F894209184003091850011
S11304F0C901841B950B03968617970720F0B90151
S11305006D5F7F4F02C0640F751F6115710511F493
S113051061E070E0615070407093890060938800DE
S113052082E086BB80916F00826080936F008E2F83
S113053099278FBF089520E030E0FC018181877006
S1130540823011F421E030E0C9010895CF93DF93A4
S1130550EC010E946B028823D1F0CE010E94AC0111
S11305608823A9F0CE010E94A2012FB7F894332763
S113057040910202509103022FBF20E08417950797
S113058009F021E081E02827822F992702C080E02A
S113059090E0DF91CF9108950F931F93982F1FB789
S11305A0F89480911602823099F580910A02891795
S11305B079F58091080220E030E08F3F11F421E0CA
S11305C030E0232BF1F49FEF90930A028F3F19F44C
S11305D02FEF30E00DC0282F3327F901EE5EFC4FDA
S11305E08081809308028F3F11F4909309029083D5
S11305F02093140381E08093160289E00E94E201B3
S113060005C08FEF80930A021092160201E001C028
S113061000E0812F99278FBF1FB7F89480911602AD
S1130620882311F40E940902812F99278FBF90E03B
S1130630013009F491E081E09827892F99271F91CF
S11306400F910895EF92FF920F931F937C018FB740
S1130650F894992700915802109159020F5E1E4F89
S11306601093590200935802015111408FBF87E043
S11306700E94E201C801B7010E94901B8A5D9E4F4F
S11306801F910F91FF90EF9008959FB7F894809178
S11306900E048A3011F020E006C020E0809164024C
S11306A0843009F421E0892F99278FBF222349F050
S11306B08EE00E94E2018FB7F894992710921702F6
S11306C006C08FB7F894992721E0209317028FBFB3
S11306D008952FB7F89433278093C600E0ECF0E038
S11306E08081806480832FBF0895FC0161157105AA
S11306F019F481E090E00895809115039091160318
S1130700892B19F085E090E0089570935504609367
S11307105404F0931603E0931503109266021092AA
S1130720650281E0809367028091C00080648093B9
S1130730C0008091C10080648093C100808121E069
S113074030E030936602209365020E94690380E0E2
S113075090E00895809128028E7F809328028EE78E
S11307608093550261E070E085E592E00E94750394
S1130770992708951F931FB7F894809173048823D1
S113078041F48CE00E94E201882319F481E0809313
S11307907304812F99278FBF1F910895FC0182A5AF
S11307A093A508957FB7F8946091B20020913D021B
S11307B030913E0240913F0250914002B99B11C0DA
S11307C08091B3009091B200280F311D411D511D3D
S11307D02F5F3F4F4F4F5F4F290F311D411D511D5B
S11307E004C0260F311D411D511D872F99278FBF2E
S11307F0CA01B9010895DF92EF92FF920F931F93FC
S11308008FB7F894282F3327D22E9091B30080917C
S1130810B20047B3981711F041FF02C02FBF71C057
S1130820809169028823E1F10E94D203E0903302AF
S1130830F0903402009135021091360220916A043E
S113084030916B0440916C0450916D046E197F09D2
S1130850800B910B621773078407950720F01092A1
S1130860690271E01EC02E0D3F1D401F511F809173
S11308703D0290913E02A0913F02B0914002281B9C
S1130880390B4A0B5B0B273E31054105510540F4FA
S1130890822F223010F070E005C070E082E002C0C8
S11308A070E086EE682F61508091B60083FDFCCF26
S11308B08091B200681709F46F5F20913D02309176
S11308C03E0240913F0250914002DA01C901019673
S11308D0A11DB11D860F911DA11DB11D8217930786
S11308E0A407B50710F4622F60958091B60083FDCC
S11308F0FCCF6093B300DFBE772319F082E00E943F
S1130900E2011F910F91FF90EF90DF900895AFB730
S1130910F894BB27E1E0E09369026093330270939B
S11309203402809335029093360220936A04309304
S11309306B0440936C0450936D04AFBF0E94FB039F
S113094008951F920F920FB60F9211248F938091E6
S1130950B0008093B0008091B60081FDFCCF8F91F0
S11309600F900FBE0F901F9018951F93182F81E0C2
S11309700E9409021EBD0DB407FEFDCF8EB5992756
S11309801F9108951F920F920FB60F9211248F9208
S11309909F92AF92BF92CF92DF92EF92FF920F930A
S11309A01F932F933F934F935F936F937F938F93F3
S11309B09F93AF93BF93CF93DF93EF93FF932EB5A2
S11309C0E0910A04F0910B04309739F080918D0383
S11309D090918E03E80FF91F208380918D039091ED
S11309E08E03019690938E0380938D0380E00E9482
S11309F01202C0918D03D0918E0380912B029091AD
S1130A002C02C817D90708F044C000916E04109155
S1130A106F0480900A0490900B04EAE0AE2EB12C8F
S1130A20AC0EBD1E8A159B0508F45C016401CC0E56
S1130A30DD1E7801EC0EFD1E15C00115110519F01F
S1130A40F701808101C080E00E94B5048114910403
S1130A5011F0F601808321960894C11CD11C0894DE
S1130A60E11CF11CC5010197C817D90730F381E0D7
S1130A700E9412020115110531F00C0F1D1FF8011F
S1130A8080818EBD01C01EBCD0938E03C0938D03A4
S1130A9011C010920B0410920A0410926F04109269
S1130AA06E0410922C0210922B0210928E0310925C
S1130AB08D038EB5FF91EF91DF91CF91BF91AF91EF
S1130AC09F918F917F916F915F914F913F912F9162
S1130AD01F910F91FF90EF90DF90CF90BF90AF9058
S1130AE09F908F900F900FBE0F901F901895789441
S1130AF01F920F920FB60F9211240F900FBE0F90FA
S1130B001F90189578941F920F920FB60F9211248C
S1130B100F900FBE0F901F90189578941F920F920C
S1130B200FB60F9211242F933F938F939F93AF93FC
S1130B30BF932FB7F8943327809191039091920338
S1130B40A0919303B09194030196A11DB11D8093CC
S1130B50910390939203A0939303B09394032FBFB4
S1130B60BF91AF919F918F913F912F910F900FBEA5
S1130B700F901F901895E0EFF0E06927660FF11DC4
S1130B80E60FF11DC895982F802D3196C8959025B4
S1130B900895982F80912302882389F5992379F564
S1130BA031E03093230280910C028093240220913F
S1130BB01802822F817080933C02809111029091DF
S1130BC01202909326028093250280911902809349
S1130BD0270232273170267EE32FFF27EE0FFF1FF7
S1130BE0E35FFD4F80819181909312028093110203
S1130BF0232B2093180281E10E94E2010895809141
S1130C00180280FF02C08B7F01C08D7F8093180281
S1130C1008950F931F93082F162F8091640281303B
S1130C20D9F0813038F0823009F44AC0833009F0B9
S1130C300EC159C0002309F43EC110924D04109214
S1130C404C041092120410926004109268021092E4
S1130C509603109295031FC1002309F02CC18091C3
S1130C609503909196030E94BB05909396038093FD
S1130C70950382E08093640210936004143409F0B5
S1130C80E6C00BC18695869503C0809118028695AF
S1130C90817009F0DCC080911802992311F08460FE
S1130CA001C082608093180280911802877E886058
S1130CB080931802109219028FEF80930C02FBC0EC
S1130CC0002309F0C4C06093680280919503909159
S1130CD096030E94BB05909396038093950383E04B
S1130CE080936402E8C0809112048F3F09F4AFC07E
S1130CF0002309F447C0823008F4A9C0E0914C04F1
S1130D00EE2309F4D1C04E2F4150E42FFF27E45BBA
S1130D10FB4F82819927382F2227442311F4E2E0E4
S1130D2002C0E42FE150FF27E45BFB4F8281992747
S1130D30282B392B80919503909196032817390716
S1130D4009F085C080E00E94C90530916802809155
S1130D50850320918603982F9F5F963008F090E0DA
S1130D60921709F474C0E82FFF27EB57FC4F328326
S1130D708F5F80938503863010F0109285030E9464
S1130D80BA0365C0823008F44EC0E0914D04FF27D9
S1130D90E45BFB4F8281482F5527342F20911802A2
S1130DA0822F869586958695837099278130910543
S1130DB019F00297F9F40EC0277E206120931802DF
S1130DC0442311F485E001C080E08093190230933C
S1130DD00C0210C080911902833360F4E091110277
S1130DE0F0911202E80FF11D4083809119028F5F88
S1130DF08093190280914D04E82FFF27E45BFB4F99
S1130E0062818F5F80934D04833010F010924D0403
S1130E10772780919503909196030E94BB05909348
S1130E2096038093950380914C04E82FFF27E45B9D
S1130E30FB4F12838F5F80934C04833010F0109229
S1130E404C04809112048F5F8093120434C010927A
S1130E504D0410924C0410926402109212041092E9
S1130E606004109268021092960310929503809188
S1130E7028028D7F8093280281E00E94C905809119
S1130E801702882331F084E0809364020E944503B2
S1130E9012C0002381F081E023CF80911802982FA3
S1130EA0917080FDEFCEF1CE809150049927382FB8
S1130EB0222742E036CF1F910F9108951F920F927F
S1130EC00FB60F9211242F933F934F935F936F9319
S1130ED07F938F939F93AF93BF93EF93FF938091EF
S1130EE0C00087FF42C06091C600E0919703F09173
S1130EF09803309719F18091710490917204E80F6E
S1130F00F91F608301969093720480937104209179
S1130F107D0430917E048217930738F11092980370
S1130F201092970380910D048330F9F08091C100F1
S1130F308F778093C10010920D0417C06E3719F497
S1130F4060E081E010C0809128026D3721F4826056
S1130F50809328020AC081FF05C08D7F80932802F8
S1130F6080E2682780E00E940906FF91EF91BF911B
S1130F70AF919F918F917F916F915F914F913F912D
S1130F802F910F900FBE0F901F901895982F8D578B
S1130F90823068F48091280281608093280280E284
S1130FA08927809311048DE78093550202C09093A2
S1130FB0550261E070E085E592E00E94750399278F
S1130FC0089578941F920F920FB60F921124FF92F6
S1130FD00F931F932F933F934F935F936F937F933D
S1130FE08F939F93AF93BF93CF93DF93EF93FF932D
S1130FF020916502309166028091540490915504C9
S11310002817390780F4E0911503F0911603E20FD5
S1131010F31F80812F5F3F4F309366022093650258
S11310200E946903D4C01092160310921503109203
S113103067028091C1008F7B8093C1008091280258
S113104080FF0EC08E7F80932802809111048093CC
S1131050550261E070E085E592E00E947503B7C037
S113106080910E04843009F494C0853040F48230B9
S113107021F18330B8F5813009F0A4C00DC0863069
S113108009F495C0863008F48BC0873009F496C003
S1131090883009F097C099C0809113030E94C60755
S11310A0182F83E080930E046091130380917B04D6
S11310B090917C040E94BB0510C0809168040E943A
S11310C0C607182F83E080930E0460916804809112
S11310D07B0490917C040E94BB0590937C048093D4
S11310E07B046EC0FFB6F894E0919A03FF27EE0FDD
S11310F0FF1FE85EFC4F80810E94C607082F1091F5
S11311009A03C12FDD27FE01EE0FFF1FE85EFC4F9F
S1131110608180917B0490917C040E94BB05909334
S11311207C0480937B04209111032F5F209311038F
S1131130113039F580911F02E0911A02F0911B02DF
S1131140E80FF11DE0818F5F80931F0290911E02D2
S1131150981730F482E08093190340E050E002C015
S11311604E2F5527DE01AA0FBB1FFD01E95EFC4F80
S11311708081823031F02F3F21F0A85EBC4F4C9328
S113118003C084E080930E04102F8F2D99278FBF06
S113119017C080917B040E94C607182F85E00BC0FE
S11311A080917C040E94C607182F86E004C00E9428
S11311B0AA03182F87E080930E0402C088E003C0BE
S11311C0112329F089E080930E040E94BA03FF9151
S11311D0EF91DF91CF91BF91AF919F918F917F91CB
S11311E06F915F914F913F912F911F910F91FF90BC
S11311F00F900FBE0F901F9018951F920F920FB66D
S11312000F9211248F938091C80087FF02C08091B0
S1131210CE008F910F900FBE0F901F901895789469
S11312201F920F920FB60F9211240F900FBE0F90C2
S11312301F90189578941F920F920FB60F92112455
S11312400F900FBE0F901F90189578941F920F92D5
S11312500FB60F9211240F900FBE0F901F90189588
S113126078941F920F920FB60F9211240F900FBE15
S11312700F901F90189578941F920F920FB60F92AB
S113128011248F939F9380919400909195009F9146
S11312908F910F900FBE0F901F90189578941F9206
S11312A00F920FB60F9211242F933F938F939F9316
S11312B02FB7F894332780917302909174020196AA
S11312C090937402809373022FBF9F918F913F91EB
S11312D02F910F900FBE0F901F9018951F920F9291
S11312E00FB60F9211242F933F934F935F936F93F5
S11312F07F938F939F93AF93BF93EF93FF938091CB
S1131300B0008093B0008091B60081FDFCCF809145
S1131310B30099270196AA27BB2720913D0230915B
S11313203E0240913F0250914002280F391F4A1F4C
S11313305B1F20933D0230933E0240933F02509343
S1131340400278940E94FB03FF91EF91BF91AF910B
S11313509F918F917F916F915F914F913F912F91C9
S11313600F900FBE0F901F90189521E020934B040F
S1131370209310032091840030918500BC01C901A1
S11313800E94710208951F93982F1FB7F8948091BB
S11313901502823099F580910702891779F58091B9
S11313A0050220E030E08F3F11F421E030E0232BF0
S11313B0F1F49FEF909307028F3F19F42FEF30E081
S11313C00DC0282F3327F901E25AFD4F8081809305
S11313D005028F3F11F490930602908320935B02E1
S11313E081E08093150280E00E94E20105C08FEF46
S11313F0809307021092150221E001C020E0812FA2
S113140099278FBF90E0213009F491E081E098277B
S1131410892F99271F9108950F931F93CF93DF93DB
S1131420182F0FB7F89480911602882311F40E94A4
S11314301B02802F99278FBF8FB7F894C82FDD2701
S11314402C2F80911602882361F481E08093160288
S11314501093140389E00E94E201CFBF80E090E082
S113146021C0E12FFF27EE5EFC4F80818F3F89F47E
S1131470E0910902E11789F40CC01093080204C03A
S1131480FF27EE5EFC4F10831093090280E090E08A
S113149002C085E090E02FBF05C0809108028F3F15
S11314A079F7EBCFDF91CF911F910F9108958FB70B
S11314B0F894282F3327922F80910A02882331F43D
S11314C080911602823011F42FBF13C09FBF8FB7D3
S11314D0F894282F332780911602882369F482E038
S11314E08093160210920A022FBF0E941B02209AB8
S11314F0289A81E090E008952FBF80E00E940C0AB2
S113150080E090E008954F925F926F927F928F9265
S11315109F92AF92BF92CF92DF92EF92FF920F937E
S11315201F93CF93DF932C0180912A02882309F023
S11315303EC180917004853009F039C10E94570A78
S1131540882309F434C180915104882309F02FC100
S1131550E201E096F20180A982FD02C090E003C09E
S1131560F20192A99F7080915103981781F0909392
S11315705103289885EC8EBD0DB407FEFDCF8EB5C2
S113158090689EBD0DB407FEFDCF8EB5289AC201AA
S11315900E94AC01882301F1289886E88EBD0DB421
S11315A007FEFDCF8EB51EBC0DB407FEFDCF8EB574
S11315B0289A99278F7190702091710240915F024F
S11315C0240F312D311D43E0359527954A95E1F7D8
S11315D0281739070CF4EBC0289882EC8EBD0DB4A3
S11315E007FEFDCF8EB589E08EBD0DB407FEFDCF9D
S11315F08EB5289A0E943F027B018C01888184FD6C
S113160003C0C0E0D0E006C0F20180818550E20151
S1131610C80FD11D289881E88EBD0DB407FEFDCFFB
S11316208EB51EBC0DB407FEFDCF8EB5289A8F7102
S1131630893021F087E080937004B9C08FB7F894A3
S113164099272F9A20918400309185008FBF2F987D
S1131650289880E68EBDF20190810DB407FEFDCF7F
S11316608EB59EBD792F7250773010F4672F01C06C
S113167067E0A2014F5F5F4FFA01962FA1910DB46D
S113168007FEFDCF8EB5AEBD9150C1F76150FA0192
S1131690E60FF11D6F5F31962E193F092E553F4F0E
S11316A03901882477FC8094982C6E0C7F1C801E52
S11316B0911E209719F4972F961B1FC0888199813A
S11316C0AA81BB8186199709A809B9098B83292F97
S11316D03A2F4B2F55272A839D01442755272983C9
S11316E08B2F9927AA27BB278883E5CF20810DB4A8
S11316F007FEFDCF31968EB52EBD9150B8F70DB4CF
S113170007FEFDCF8EB5289A289882EC8EBD0DB4C5
S113171007FEFDCF8EB586E08EBD0DB407FEFDCF6E
S11317208EB5289A209779F18881E9802A81AB8047
S1131730332744275527542F432F322F2227992705
S1131740AA27BB27B82FAA2799278827FF24002771
S113175011278701FF24EE248E299F29A02BB12B6A
S1131760BB24CC24DD248A299B29AC29BD29282B20
S1131770392B4A2B5B2B260D371D481D591D2883F9
S113178039834A835B83C2010E946402C2010E94BE
S11317906902FC01608271828282938286E0809376
S11317A0700484E080932A0280E090E002C085E027
S11317B090E0DF91CF911F910F91FF90EF90DF9018
S11317C0CF90BF90AF909F908F907F906F905F90DD
S11317D04F9008952FB7F8943327809354022FBF66
S11317E085E00E94E20108959C01809129028823EA
S11317F019F085E090E008953093100420930F04CD
S113180081E0809329021092500385E00E94E20156
S113181080E090E00895CF93DF93EC018FE38A8713
S1131820809172028F5F809372028B8380913A025F
S113183090913B02892B11F025E017C088A599A54A
S1131840892B21F061E0CE010E94C001CE010E94EB
S1131850F40B9927282F882341F4D0933B02C0939B
S11318603A021092610210926002822F9927DF914E
S1131870CF910895EF92FF920F931F93CF93DF932D
S1131880082F7B01EA01122F2D3118F086E090E039
S11318907AC0CA010E94AC01882321F481E48983BF
S11318A088E88A83135F18832FB7F89433278091CD
S11318B00202909103022FBF8887892F9927898775
S11318C02FB7F8943327809104022FBF99278C8374
S11318D01D820B87EE828F2D99278F838FB7F89403
S11318E0282F332780911502882371F482E0809396
S11318F01502109207022FBFCE010E940B0C9927EC
S1131900182F882399F00FC02FBFD0935D02C09386
S11319105C028FB7F894C82FDD272C2F8091150215
S1131920882399F406C080E00E94C309812F992777
S11319302AC081E08093150210925B0280E00E942D
S1131940E201CFBF80E090E01EC080915E028F3F35
S113195089F4E0910602EE2369F010C010920502AA
S113196004C0FF27E25AFD4F10821092060280E065
S113197090E002C085E090E02FBF05C08091050291
S11319808F3F79F7EBCFDF91CF911F910F91FF90AC
S1131990EF900895DF92EF92FF920F931F93CF93EE
S11319A0DF93D82E7B01E82FFF27EE0FFF1FE157AF
S11319B0FC4F1182108210920B02C0918F03D091C0
S11319C09003209721F08091690480FF11C081E089
S11319D080930B0203C08BE00E94E201DD20B9F486
S11319E088E1E81684E0F80691F4109214020FC01E
S11319F008810D501127CE010E94A201202FAE01B3
S1131A00BC018B850E943A0C882341F3E4CFDF911B
S1131A10CF911F910F91FF90EF90DF9008951F9346
S1131A20CF93DF93182FC0913A02D0913B021092CA
S1131A303B0210923A028091A3038D7F8093A3030B
S1131A40809160029091610299A788A78A858F335B
S1131A5089F480E00E94C30980910B02882351F429
S1131A6060918F03709190036C177D0719F4412FD7
S1131A700E94CA0CDF91CF911F910895EF92FF92BB
S1131A800F931F93E091A303E1FF34C020919B03C4
S1131A9030919C0340919D0350919E03E0909F03DD
S1131AA0F090A0030091A1031091A203621B730B99
S1131AB0840B950B6E157F0580079107D8F0E0FF26
S1131AC004C0ED7FE093A3030CC02E0D3F1D401F07
S1131AD0511F20939B0330939C0340939D03509389
S1131AE09E0380913A0290913B02892B19F081E088
S1131AF00E94E20183E00E94E2011F910F91FF9096
S1131B00EF900895AF92BF92CF92DF92EF92FF923F
S1131B100F931F93CF93DF9380915104882309F48B
S1131B2009C10E94570A882309F404C18FB7F894A5
S1131B309927C0910E03D0910F038FBF10925104C7
S1131B4028988FE88EBD0DB407FEFDCF8EB51EBC60
S1131B500DB407FEFDCF8EB5289A982FA82EBB246E
S1131B60A0FE0CC080912A02833011F0873031F43A
S1131B7085E08093700488E080932A02A2FE5FC00F
S1131B8080912A02863019F410922A0203C0882315
S1131B9009F055C0943009F041C0289886E88EBDFC
S1131BA00DB407FEFDCF8EB51EBC0DB407FEFDCFF0
S1131BB02EB5289A2F7180915F02982F969596954D
S1131BC0322F391B830F80935F02E0913702F0912B
S1131BD0380280A98B7F886080AB22AB0E943F02D1
S1131BE06B017C010091370210913802C8010E94F8
S1131BF06402C8010E946902FC01CC19DD0927971F
S1131C00CE01AA2797FDA095BA2F8C0D9D1DAE1D60
S1131C10BF1D80839183A283B3830EC0E0913702FA
S1131C20F091380280A9877F80ABE0913702F09170
S1131C30380280A98D7F80AB85E080932A02A3FEC1
S1131C4079C080912A02843009F041C085E08093F4
S1131C50700410922A0280916C02833019F410925D
S1131C606C0268C000914E0310914F03C8010E949A
S1131C706B02882321F1C8010E94AC018823F9F08A
S1131C80C8010E94A2018F5F9F4FC9F090E080912C
S1131C901003882309F491E0992389F012E010934A
S1131CA04B0481E08093100380918400909185001F
S1131CB061EE72E00E94710210936C023BC01092BC
S1131CC06C021092740480E00E94EA0B33C08530E9
S1131CD089F580917004873091F4289882EC8EBD48
S1131CE00DB407FEFDCF8EB586E08EBD0DB407FEA4
S1131CF0FDCF8EB5289A85E08093700417C020919B
S1131D007102289886E88EBD0DB407FEFDCF8EB50E
S1131D101EBC0DB407FEFDCF8EB5289A8F71922F8D
S1131D2096959695891B280F2093710289E08093DC
S1131D302A0208C090912A02992309F4E4C2993036
S1131D4009F011C2289880E28EBD0DB407FEFDCFC4
S1131D508EB51EBC0DB407FEFDCF8EB5482F55279A
S1131D60242F433008F49FC3842F99278A970CF0BB
S1131D709AC31EBCE0913702F091380240835EEFB3
S1131D80B52EB20E56E05B1510F0CB2C02C047E026
S1131D90C42E9F012F5F3F4F9C2DF901EE24FF2499
S1131DA00DB407FEFDCF8EB51EBC80838191A701C3
S1131DB04827042E4295407F4025052E542F4295F6
S1131DC04F700426469554274527440F440F440F6B
S1131DD040257A01915021F7CA9489010C0D111DF7
S1131DE0C3940F5F1F4FC0913702D0913802CE01C8
S1131DF00E949B028823C1F080916C02823089F496
S1131E008B81E0914E03F0914F039381891749F43C
S1131E10898190E08770823009F091E081E0982711
S1131E200EC080E090E00DC08FB7F894282F3327C0
S1131E3090E080919903833008F491E02FBF892FBB
S1131E409927892B09F42FC39B2D9C191CC00DB411
S1131E5007FEFDCF8EB51EBCF801808381918F01F2
S1131E6097012827022E2295207F2025032E322F2A
S1131E7022952F700226269532272327220F220F20
S1131E80220F20257901915010F70DB407FEFDCFE4
S1131E908EB51EBC97012827022E2295207F20256F
S1131EA0032E322F22952F700226269532272327C0
S1131EB0220F220F220F20250DB407FEFDCF8EB571
S1131EC01EBC2827022E2295207F2025032E322F88
S1131ED022952F700226269532272327220F220FC0
S1131EE0220F20250DB407FEFDCF8EB5E0913702F9
S1131EF0F091380281AB289A85E0809370041092A7
S1131F002A02232B09F0FBC1E0903702F09038023B
S1131F10C7010E949B02282F3327122F80916C0245
S1131F208230C9F480916F008D7F80936F0010928E
S1131F301003E0914E03F0914F0380A9222311F086
S1131F40816001C08E7F80AB10926C021092740489
S1131F5080E00E94EA0B112309F000C1C7010E942E
S1131F60A6028823A9F085E08093520382E080933F
S1131F70530310925403F70183818093550382E540
S1131F8093E00E94830A882319F483E080936C020F
S1131F900091840010918500C7010E94A602882345
S1131FA011F0045E1C4F109363020093620280914F
S1131FB0840090918500081B190BC80110161106A6
S1131FC06CF420917404222331F40E94B50980E852
S1131FD08093740403C02068209374045701089408
S1131FE0A11CB11CF701818520859927582F44270E
S1131FF03327422B532B80914102282F3327F90199
S1132000EE0FFF1FEA5AFB4F8081918170910C04FF
S11320108417950769F4F901EB58FB4F8081871702
S113202009F467C0872F8F5F80930C0480831DC0E1
S113203000E010E080E090E0C6E5D4E0E5E7F4E0FD
S1132040DF01682F9C01888199818417950779F4B1
S11320502093410290910C048C91891709F449C092
S1132060892F8F5F80930C048C9300E829C08081B2
S1132070972F981B091710F4092F122F6F5FC901AE
S1132080019611962296319685309105D1F66530E8
S1132090B9F410934102A12FBB27FD01EE0FFF1FDE
S11320A0EA5AFB4F5183408380910C048F5F8093E5
S11320B00C04FD01EB58FB4F8083A158BB4F1C92CD
S11320C090910C04892F8F778F3779F40F3768F04C
S11320D0E5E7F4E0292F207880818F678913208336
S11320E0319634E0EA37F307B9F780914102282F9B
S11320F03327F5019281A22FBB27FD01E158FB4F45
S1132100808180FF07C0FD01ED5EFB4F8081981741
S113211029F102C081608083AD5EBB4F9C93CFB632
S1132120F894809199038330B0F4E0913902E80F78
S1132130E33008F0E350FF27EE0FFF1FE35DFD4F90
S113214000811181F182E0828F5F8093990386E0A0
S11321500E94E20178018C2D99278FBFF0923802FA
S1132160E0923702C3C0892F8150833008F09CC0AD
S113217081508230E0F4309170043130C1F420E0B9
S113218080911003882309F421E0222381F02F9801
S113219083E080934B0430931003809184009091EA
S11321A085006BE273E00E94710282E068C09330A4
S11321B009F042C080917004833009F097C00E94F6
S11321C0570A8823C9F128988FE88EBD0DB407FEFD
S11321D0FDCF8EB51EBC0DB407FEFDCF8EB5289A7B
S11321E08091810080648093810080E286BB80912D
S11321F06F00806280936F0090915A02289888EC57
S11322008EBD0DB407FEFDCF8EB590669EBD0DB498
S113221007FEFDCF8EB5289A289882EC8EBD0DB4AA
S113222007FEFDCF8EB586E08EBD0DB407FEFDCF53
S11322308EB5289A84E023C080912A02815082308E
S113224000F5809170048530E1F40E94570A8823D8
S1132250C1F0289882EC8EBD0DB407FEFDCF8EB57B
S113226083E08EBD0DB407FEFDCF8EB5289A809114
S11322706F008F7D80936F001092510483E08093F0
S1132280700490912A02913041F48091700483305B
S1132290B1F52F9A9093700425C0923039F580914E
S11322A07004833061F51EC0973001F50E94570A0F
S11322B08823E1F090915A02289888EC8EBD0DB4E1
S11322C007FEFDCF8EB590669EBD0DB407FEFDCF13
S11322D08EB5289A80917004853021F484E080932F
S11322E0700404C088E080932A0204C080912A020A
S11322F0883029F410922A0284E00E94E20180913D
S11323002A02882331F5809170048530F9F4809194
S113231051048823D9F480916C028823B9F4809104
S11323207404882399F490E080911003882309F4BD
S113233091E0992359F080912902813039F485E0A4
S11323400E94E20180912A02882319F480E00E940D
S1132350CC0280911003823009F098C010921003CF
S1132360F0904B04F2E0FF1609F46CC023E0F2167F
S113237009F470C031E0F31609F088C020916202BC
S1132380309163028091840090918500409174049F
S1132390403859F41092740480912902813009F074
S11323A075C085E00E94E20171C08901081B190B08
S11323B047FF03C010161106ECF0C0916A02D091D9
S11323C06B0280916C028823A9F4CE010E94830AD7
S11323D09927882351F488A98E7F88ABF0926C02E8
S11323E0D0934F03C0934E0329C09927F82E882316
S11323F029F102C0E5E0FE2E20917404822F992772
S11324008F77019759F4207822602093740480E137
S113241098E00E9422030E94B50938C027FF0AC031
S1132420101611063CF480E880937404C8010E94DD
S1132430B50902C0109274048F2D09C083E0809303
S1132440740424C010926C021092740480E00E9400
S1132450EA0B1CC080917004823019F4F09270046D
S113246013C080912A02863079F410922A022898A7
S113247081E88EBD0DB407FEFDCF8EB51EBC0DB434
S113248007FEFDCF8EB5289A0E947C128FB7F89470
S1132490282F332780915702813061F081E08093A7
S11324A057022FBF39CB289A85E08093700410928D
S11324B02A0225CF109257022FBFDF91CF911F918F
S11324C00F91FF90EF90DF90CF90BF90AF90089561
S11324D08FB7F894282F3327809157028150809327
S11324E05702803811F02FBF089581E0809357027E
S11324F02FBF0E94820D08958FB7F894282F332799
S113250080915702882329F08068809357022FBF57
S1132510089581E0809357022FBF0E94820D089591
S113252078941F920F920FB60F9211242F933F931A
S11325304F935F936F937F938F939F93AF93BF93C7
S1132540EF93FF9380918400909185002091860001
S1132550309187008FB7F894992730930F03209315
S11325600E0321E0209351048FBF0E947C12FF913F
S1132570EF91BF91AF919F918F917F916F915F91F7
S11325804F913F912F910F900FBE0F901F90189570
S113259078941F920F920FB60F9211242F933F93AA
S11325A04F935F936F937F938F939F93AF93BF9357
S11325B0EF93FF9380916F008D7F80936F007894E9
S11325C09FB7F89480911003813019F482E08093CE
S11325D01003892F99278FBF0E947C12FF91EF91DE
S11325E0BF91AF919F918F917F916F915F914F9127
S11325F03F912F910F900FBE0F901F9018951F932E
S11326008FB7F8949927209157022F5F2093570290
S11326108FBF80912902882311F015E023C0809197
S11326202A028823E1F480917004813049F490E017
S113263080911003882309F491E0992381F005C067
S1132640853019F489E090E00CC083E080932A027D
S11326500E947C1284E08093290210E003C085E08C
S113266090E0182F0E946812812F99271F910895D6
S11326702F923F924F925F926F927F928F929F928E
S1132680AF92BF92CF92DF92EF92FF920F931F937C
S1132690CF93DF93CDB7DEB729970FB6F894DEBF9B
S11326A00FBECDBFE82FFF27E231F10508F08FC43C
S11326B0EA59FF4FEE0FFF1F0590F491E02D0994A6
S11326C080916904882309F482C440E051E0B0C2D7
S11326D02FB7F894332780915B028093070282E03E
S11326E0809315022FBF80910702882309F06FC4DD
S11326F080915C0290915D020E940B0C082F1127BF
S1132700002309F464C480E00E94C30920915C02A0
S113271030915D0280910B02882309F058C46091C6
S11327208F03709190036217730709F050C4402F10
S1132730ADC2E0913A02F0913B0280A591A5892BAC
S113274021F061E0CF010E94C00180913A02909192
S11327503B020E94F40B882309F439C425C18091FB
S11327605602882361F520916104309162044091FE
S1132770630450916404EFB7F894FF276091330227
S1132780709134028091350290913602E0906A048F
S1132790F0906B0400916C0410916D046E0D7F1D1C
S11327A0801F911FEFBF2093610430936204409314
S11327B0630450936404109256020E9487040E949A
S11327C0D2033AC00E94D2037B018C018FB7F894E4
S11327D09927109269028FBF8091A30381FFF7C3E9
S11327E080919B0390919C03A0919D03B0919E03C3
S11327F0A8019701281B390B4A0B5B0BDA01C901AD
S113280020919F033091A0034091A1035091A20312
S1132810281B390B4A0B5B0B2F3F6FEF36076FEF0B
S113282046076FE7560709F4D2C3121613061406B7
S113283015062CF0C801B7010E943E0DC8C32093B1
S1132840610430936204409363045093640481E010
S113285080935602C801B7010E948704B8C38091CF
S1132860290210922902843009F4B1C3853009F495
S1132870AEC3863009F4ABC380932902A8C38FB7D3
S1132880F8949927109154028FBF809129028230C5
S113289011F4112339F0809150038F5F809350031A
S11328A0863020F083E0809329023CC08FB7F894EF
S11328B09927209157022F5F209357028FBF2091B1
S11328C00F0430911004809174048823D1F490E0B3
S11328D080911003882309F491E0992391F03093B7
S11328E06B0220936A0281E08093740486EB93E286
S11328F00E9422030E94B50982E08093290210E01D
S11329000AC080915003853011F483E001C081E056
S11329108093290215E00E94681280912902833075
S113292009F055C310922902E0910F04F0911004AC
S113293020916002309161022F5F3F4F309361021A
S11329402093600280A980FF02C080E030C0E09143
S11329503A02F0913B0280A591A52817390730F57A
S1132960CF010E94CE038C01892BF1F00E94D20387
S113297060939B0370939C0380939D0390939E03A9
S1132980C801AA27BB2780939F039093A003A09319
S1132990A103B093A2038091A30383608093A30354
S11329A083E00E94E20113C381E0FBCF812F0E94E8
S11329B00F0D0DC38FB7F894282F332780919903F7
S11329C0882309F430C1E0913902FF27EE0FFF1F7D
S11329D0E35DFD4F008111812FBFF80182858F33A4
S11329E019F0C8010E94A2018FB7F89499278FBFEC
S11329F09FB7F89480913902E82FFF27EE0FFF1F4D
S1132A00E35DFD4F118300838F5F80933902833030
S1132A1010F01092390280919903815080939903A8
S1132A20892F99278FBFC6CFFFB7F983F8942090D9
S1132A306D0230906E0240906F02509070026624D6
S1132A40772488249EE4A92E83E8B82ECC24DD24A0
S1132A50EE24FF2400E010E0222D332D442D552DCB
S1132A60662D772D882D90E00E940F1A2A833B83D0
S1132A704C835D836E837F8388879987822E932E10
S1132A80A42EB52E2401350100E20E940D1BA22EB6
S1132A90B32EC42ED52EA301920156954795379592
S1132AA027952A0D3B1D4C1D5D1D57FF05C05F7703
S1132AB02F5F3F4F4F4F5F4F20936D0230936E0255
S1132AC040936F02509370026981862F99278FBFBC
S1132AD08FB7F89499273093590220935802E3C191
S1132AE08FB7F894992710920B0410920A0410924D
S1132AF06F0410926E0410922C0210922B0210920A
S1132B008E0310928D03CFC12FB7F8943327809191
S1132B10140380930A0282E0809316022FBF8091EF
S1132B200A02882309F053C2209A289A80917004DB
S1132B30882309F075C08EEF91E001970196019703
S1132B40E1F716982F9886E090E001970196019797
S1132B50E1F7169A289883EC8EBD0DB407FEFDCFDD
S1132B608EB51EBC0DB407FEFDCF8EB5289A2898ED
S1132B7082EC8EBD0DB407FEFDCF8EB588E08EBD10
S1132B800DB407FEFDCF8EB5289A8EEF91E0019724
S1132B9001960197E1F728988EEC8EBD0DB407FEDF
S1132BA0FDCF8EB58DE48EBD0DB407FEFDCF8EB581
S1132BB0289A289889EC8EBD0DB407FEFDCF8EB5FA
S1132BC087EC8EBD0DB407FEFDCF8EB5289A2898EC
S1132BD085EC8EBD0DB407FEFDCF8EB580E88EBDAD
S1132BE00DB407FEFDCF8EB5289A109251038BE0E9
S1132BF080935A02289888EC8EBD0DB407FEFDCF51
S1132C008EB58BE68EBD0DB407FEFDCF8EB5289A2A
S1132C102F9A81E08093700480E00E94CC02D7C197
S1132C200E947C12D4C12FBFD2C10E944503CFC1E0
S1132C3090916904852F8923C1F0E42FFF27EE0FBB
S1132C40FF1FE157FC4F2081318111821082852FB3
S1132C508095982390936904442339F4285134408F
S1132C6009F0B2C110921402AFC14F5F483008F0AE
S1132C70AEC1550FDDCF80910B02E82FFF27EE0F79
S1132C80FF1FE157FC4F6081718141E00E94CA0C33
S1132C909EC18FB7F8941092730420910E0440E003
S1132CA0283009F441E030E0293009F431E04423CC
S1132CB011F4332351F010920E04E0919A03FF278C
S1132CC0EE0FFF1FE95EFC4F108299278FBF44234C
S1132CD011F4332319F1809168048F5F80936804A1
S1132CE0809113038334A1F49FB7F8942091860351
S1132CF080918503821741F0822F8F5F8093860332
S1132D00863010F010928603892F99278FBF0AC04E
S1132D10A0E0442309F4A1E071E006C0222311F0ED
S1132D2010E069C0A0E070E08FB7F8949927209173
S1132D3017028FBF222341F08FB7F89499272AE016
S1132D4020930E048FBF43C08FB7F89499276091E6
S1132D501703409119038FBF8FB7F894282F332797
S1132D6050E09091850380918603981709F451E00F
S1132D702FBF552349F5662339F55FB7F89482E0F0
S1132D80809317038FB7F894282F332740E090914E
S1132D90850380918603981709F441E02FBF4423EB
S1132DA011F080E006C0E0918603FF27EB57FC4F4B
S1132DB0828180931803852F99278FBF83E48093A2
S1132DC0130310929A030BC04150423010F010E0EC
S1132DD007C085E48093130381E080939A0311E094
S1132DE0772349F08FB7F8949927A09320028FBFD7
S1132DF080E10E94E20180910E048A3009F415CF2B
S1132E00112309F4E4C02FB7F894332710927C04FB
S1132E1010927B041092110381E080930E042FBF63
S1132E200E94AA03882309F4D2C08FB7F894992783
S1132E3029E020930E048FBF0E94BA03C8C080917A
S1132E40C1008F7B8093C1008091C1008F778093F4
S1132E50C10010920D04109267028091C100886035
S1132E608093C1008091C10080618093C1008091F2
S1132E70C10080688093C1000E94FF12A8C08FE047
S1132E8090CD8091C100877F8093C1008091C10063
S1132E908F7E8093C1009BC010921D0210921C0271
S1132EA08FB7F89499278EC08FB7F89499272091FB
S1132EB02402C0902502D090260230912702F0907F
S1132EC03C028FBF222309F067C0932F9C50F60168
S1132ED08385883009F060C0963009F05DC0848530
S1132EE025859927982F88273327822B932B209188
S1132EF00002309101028217930709F04DC08189C5
S1132F009FB7F894282F332720FF02C0129801C0DE
S1132F10129A21FF02C0119801C0119A22FF02C027
S1132F20109801C0109A892F99278FBF8FEF809333
S1132F301E0480931F0488E08093230480918F03F0
S1132F4090919003892B41F508E114E010939003CC
S1132F5000938F0383E18093180480910B028823EC
S1132F60C1F0C8010E94A20110920B0226E0A80140
S1132F70BC0188E00E943A0C9927282F882349F045
S1132F8081E080930B021092900310928F0322230E
S1132F9019F481E0809314028FB7F894EF2DFF2782
S1132FA0EE0FFF1FE35FFD4FD182C0822091180214
S1132FB0FF2011F02B7F01C02D7F20931802109267
S1132FC0230299278FBF03C0550F41E031CE2996C4
S1132FD00FB6F894DEBF0FBECDBFDF91CF911F9126
S1132FE00F91FF90EF90DF90CF90BF90AF909F90A4
S1132FF08F907F906F905F904F903F902F900895A7
S1133000809165048F3FB1F0282F3327F901EE5BDF
S1133010FD4F8081809365048F3F11F480937A047F
S11330208FEF80832F3F31F0822F0E94381381E08D
S113303090E0089580E090E00895FF920F931F932D
S1133040FFB6F89442E150E06FEF70E082E492E062
S11330500E941C1C8FEF8093650480937A04569819
S11330605E9854985C9880916F008F7D80936F0078
S1133070209A289A279A2F980E9A169A8BE193E011
S11330809093380280933702109271028AE58093FC
S11330905F0281E08093810080E28093B60083E048
S11330A08093B10080918400909185004AE720913B
S11330B08400309185002817390708F441504423CF
S11330C011F0C901F4CF9091B2008091B200891738
S11330D0E1F320918400309185009091B2008091B9
S11330E0B2008917E1F38091840090918500821BDE
S11330F0930B409665E0969587956A95E1F79093D2
S11331006704809366041092B1008091B1008093AB
S11331108100809181008093B6001092B2001092D9
S11331208500109284008FEF87BB87B386BB8091A4
S1133130B6008571E1F70A9A099A089A129A119AC7
S1133140109A18B88FEF87B90C98149810929500BC
S1133150109294008091710081608093710080913D
S11331609100887F82608093910010928500109274
S1133170840080916F00816080936F008091810052
S1133180887F82608093810081E085BF0E9400185F
S11331908823E1F712E006E0609166047091670409
S11331A0882799275CE0660F771F881F991F5A9517
S11331B0D1F720E031EE40E050E00E94A41B215002
S11331C030402093C400832F99278093C500109327
S11331D0C0000093C2001092C1002093CC008093E1
S11331E0CD001093C8000093CA001092C90084E473
S11331F090E090935304809352041092170310921A
S1133200190310920E0410921103109213031092DA
S1133210680410927C0410927B0410927304109240
S11332209A0310924D0410924C041092640210926E
S11332301204109260041092680210929603109285
S1133240950310928603109285038FEF80931203E7
S113325080E00E940C0A20910002309101022F5F4D
S11332603F4FC901AA27BB2780936D0290936E023A
S1133270A0936F02B093700285E792E090932E02C0
S113328080932D02C3969093300280932F028BED8E
S113329092E090933202809331028091B600806272
S11332A08093B6008091B60081FDFCCF82E08093CC
S11332B0B0008091B60080FDFCCF83E08093B10024
S11332C08091B60083FDFCCF86EE8093B30080919D
S11332D070008260809370000E94FB038FEF9FEF69
S11332E09093570480935604909359048093580400
S11332F090935B0480935A0490935D0480935C04E0
S113330090935F0480935E04809100028295807F95
S1133310809372028FEF80935E020E9400188823CC
S1133320E1F78F2D99278FBF78948DE00E94E201F9
S11333308FB7F894482F552757C08091700099276C
S113334083709070892B19F4E5E0F0E014C080914B
S1133350B6008A71E1F78091B3009091B200891BA5
S11333608C3038F08091B200853F18F4E3E0F0E04F
S113337002C0E2E0F0E080916E00867009F5809171
S11333806F008E72E9F4809171008E72C9F40CB4EE
S113339007FC16C08091C100807E91F48091C90021
S11333A0807E71F48091BC0082FD0AC080917A0015
S11333B087FF03C081E090E005C085E090E002C093
S11333C080E090E023B78E1708F4E82FFF27E05140
S11333D0FD4FE491207F2160E22BE3BF7894889530
S11333E0F89483B78E7F83BF809165048F3F09F47F
S11333F0A4CF282F3327F901EE5BFD4F8081809302
S113340065048F3F11F480937A048FEF80832F3FFC
S113341009F493CF4FBF822F0E94381389CFACE2B7
S1133420B0E0E5E1FAE10C94E51B222E332E442EA4
S1133430552E662E772E882E992EFE013196A8E001
S11334401192AA95E9F729823A824B825C826D82B5
S11334507E828F829886FE013996B8E01192BA95E1
S1133460E9F7A986BA86CB86DC86ED86FE860F87C9
S1133470188B89819A81AB81BC8189A79AA7ABA754
S1133480BCA77C018D018FEF9FEFA0E0B0E0E822A4
S1133490F9220A231B2389A59AA5ABA5BCA51D0166
S11334A04424552489859A85AB85BC858DA39EA328
S11334B0AFA3B8A75C016D018FEF9FEFA0E0B0E070
S11334C0A822B922CA22DB228DA19EA1AFA1B8A550
S11334D03D0188249924C801B701A60195010E94E1
S11334E0C61B69A37AA38BA39CA3C801B701A4013B
S11334F093010E94C61B7B018C01C201B101A6018C
S113350095010E94C61B5B016C01C201B101A401BB
S113351093010E94C61B3B014C01EA0CFB1C0C1DD1
S11335201D1D89A19AA1ABA1BCA19D0144275527CA
S11335302E0D3F1D401F511F2A153B054C055D05EF
S113354040F480E090E0A1E0B0E0680E791E8A1EAD
S11335509B1ECA01AA27BB27860D971DA81DB91D4E
S11335608D8F9E8FAF8FB8A3A9013327222789A1FE
S11335709AA1ABA1BCA1A070B070280F391F4A1F3B
S11335805B1F298F3A8F4B8F5C8FA98CBA8CCB8CA5
S1133590DC8CED8CFE8C0F8D18A1FE01719698E0E9
S11335A011929A95E9F7ED8AFE8A0F8B188F2D8177
S11335B03E814F8158856DA17EA18FA198A50E945F
S11335C0C61B3B014C012D853E854F85588969A555
S11335D07AA58BA59CA50E94C61B2D893E894F897F
S11335E0588D260F371F481F591F260D371D481D9C
S11335F0591D2D8B3E8B4F8B588F6D887E888F88FD
S1133600988C2A2D3B2D4C2D5D2D662D772D882DE4
S1133610992DE2E1AC960C94011CA0E1B0E0E3E149
S1133620FBE10C94E51B222E332E442E552E662EE0
S1133630772E882E992E002309F466C088E0FE01B7
S1133640319611928A95E9F729833A834B835C83F7
S11336506D837E838F829887E0E2E01B1E16CCF593
S11336602D813E814F815885602F772767FD7095A6
S1133670DA01C901062E04C0B695A79597958795DA
S11336800A94D2F78D879E87AF87B88B04C0220F28
S1133690331F441F551FEA95D2F789819A81AB8164
S11336A0BC8104C0B695A795979587956A95D2F77E
S11336B0282B392B4A2B5B2B29873A874B875C872E
S11336C029843A844B845C846D847E848F849888B6
S11336D01BC01D861E861F86188A2E2F332727FDA2
S11336E03095309521953F4F8D819E81AF81B8856E
S11336F004C0B695A795979587952A95D2F789879B
S11337009A87AB87BC87DCCF222D332D442D552DD2
S1133710662D772D882D992DE2E160960C94011C7D
S1133720AA1BBB1B51E107C0AA1FBB1FA617B707E3
S113373010F0A61BB70B881F991F5A95A9F78095FF
S11337409095BC01CD010895A1E21A2EAA1BBB1BC2
S1133750FD010DC0AA1FBB1FEE1FFF1FA217B30759
S1133760E407F50720F0A21BB30BE40BF50B661F6F
S1133770771F881F991F1A9469F760957095809533
S113378090959B01AC01BD01CF010895629FD001CA
S1133790739FF001829FE00DF11D649FE00DF11D08
S11337A0929FF00D839FF00D749FF00D659FF00DB7
S11337B09927729FB00DE11DF91F639FB00DE11DA4
S11337C0F91FBD01CF01112408952F923F924F920A
S11337D05F926F927F928F929F92AF92BF92CF929D
S11337E0DF92EF92FF920F931F93CF93DF93CDB7A6
S11337F0DEB7CA1BDB0B0FB6F894DEBF0FBECDBF1E
S113380009942A88398848885F846E847D848C84EE
S11338109B84AA84B984C884DF80EE80FD800C81F7
S11338201B81AA81B981CE0FD11D0FB6F894DEBFDA
S11338300FBECDBFED010895DC0101C06D93415071
S10B38405040E0F70895FFCFAA
S11338480100010022FFFFFFFFFFFF01FFA403D7D0
S107385803A40300BE
S9030000FC
